{
  "contractName": "BoringBatchable",
  "abi": [
    {
      "inputs": [
        {
          "internalType": "bytes",
          "name": "innerError",
          "type": "bytes"
        }
      ],
      "name": "BatchError",
      "type": "error"
    },
    {
      "inputs": [
        {
          "internalType": "bytes[]",
          "name": "calls",
          "type": "bytes[]"
        },
        {
          "internalType": "bool",
          "name": "revertOnFail",
          "type": "bool"
        }
      ],
      "name": "batch",
      "outputs": [],
      "stateMutability": "payable",
      "type": "function"
    },
    {
      "inputs": [
        {
          "internalType": "contract IERC20",
          "name": "token",
          "type": "address"
        },
        {
          "internalType": "address",
          "name": "from",
          "type": "address"
        },
        {
          "internalType": "address",
          "name": "to",
          "type": "address"
        },
        {
          "internalType": "uint256",
          "name": "amount",
          "type": "uint256"
        },
        {
          "internalType": "uint256",
          "name": "deadline",
          "type": "uint256"
        },
        {
          "internalType": "uint8",
          "name": "v",
          "type": "uint8"
        },
        {
          "internalType": "bytes32",
          "name": "r",
          "type": "bytes32"
        },
        {
          "internalType": "bytes32",
          "name": "s",
          "type": "bytes32"
        }
      ],
      "name": "permitToken",
      "outputs": [],
      "stateMutability": "nonpayable",
      "type": "function"
    }
  ],
  "bytecode": "0x608060405234801561001057600080fd5b50610a5c806100206000396000f3fe6080604052600436106100295760003560e01c80637c516e941461002e578063d2423b5114610057575b600080fd5b34801561003a57600080fd5b50610055600480360381019061005091906103bb565b610073565b005b610071600480360381019061006c919061050e565b6100f4565b005b8773ffffffffffffffffffffffffffffffffffffffff1663d505accf888888888888886040518863ffffffff1660e01b81526004016100b897969594939291906105aa565b600060405180830381600087803b1580156100d257600080fd5b505af11580156100e6573d6000803e3d6000fd5b505050505050505050505050565b60005b838390508110156101c3576000803073ffffffffffffffffffffffffffffffffffffffff1686868581811061012f5761012e610619565b5b90506020028101906101419190610657565b60405161014f9291906106f9565b600060405180830381855af49150503d806000811461018a576040519150601f19603f3d011682016040523d82523d6000602084013e61018f565b606091505b50915091508115801561019f5750835b156101ae576101ad816101c9565b5b505080806101bb90610741565b9150506100f7565b50505050565b60448151101561021057806040517fd93544850000000000000000000000000000000000000000000000000000000081526004016102079190610823565b60405180910390fd5b6004810190508080602001905181019061022a9190610966565b6040517f08c379a000000000000000000000000000000000000000000000000000000000815260040161025d9190610a04565b60405180910390fd5b6000604051905090565b600080fd5b600080fd5b600073ffffffffffffffffffffffffffffffffffffffff82169050919050565b60006102a58261027a565b9050919050565b60006102b78261029a565b9050919050565b6102c7816102ac565b81146102d257600080fd5b50565b6000813590506102e4816102be565b92915050565b6102f38161029a565b81146102fe57600080fd5b50565b600081359050610310816102ea565b92915050565b6000819050919050565b61032981610316565b811461033457600080fd5b50565b60008135905061034681610320565b92915050565b600060ff82169050919050565b6103628161034c565b811461036d57600080fd5b50565b60008135905061037f81610359565b92915050565b6000819050919050565b61039881610385565b81146103a357600080fd5b50565b6000813590506103b58161038f565b92915050565b600080600080600080600080610100898b0312156103dc576103db610270565b5b60006103ea8b828c016102d5565b98505060206103fb8b828c01610301565b975050604061040c8b828c01610301565b965050606061041d8b828c01610337565b955050608061042e8b828c01610337565b94505060a061043f8b828c01610370565b93505060c06104508b828c016103a6565b92505060e06104618b828c016103a6565b9150509295985092959890939650565b600080fd5b600080fd5b600080fd5b60008083601f84011261049657610495610471565b5b8235905067ffffffffffffffff8111156104b3576104b2610476565b5b6020830191508360208202830111156104cf576104ce61047b565b5b9250929050565b60008115159050919050565b6104eb816104d6565b81146104f657600080fd5b50565b600081359050610508816104e2565b92915050565b60008060006040848603121561052757610526610270565b5b600084013567ffffffffffffffff81111561054557610544610275565b5b61055186828701610480565b93509350506020610564868287016104f9565b9150509250925092565b6105778161029a565b82525050565b61058681610316565b82525050565b6105958161034c565b82525050565b6105a481610385565b82525050565b600060e0820190506105bf600083018a61056e565b6105cc602083018961056e565b6105d9604083018861057d565b6105e6606083018761057d565b6105f3608083018661058c565b61060060a083018561059b565b61060d60c083018461059b565b98975050505050505050565b7f4e487b7100000000000000000000000000000000000000000000000000000000600052603260045260246000fd5b600080fd5b600080fd5b600080fd5b6000808335600160200384360303811261067457610673610648565b5b80840192508235915067ffffffffffffffff8211156106965761069561064d565b5b6020830192506001820236038313156106b2576106b1610652565b5b509250929050565b600081905092915050565b82818337600083830152505050565b60006106e083856106ba565b93506106ed8385846106c5565b82840190509392505050565b60006107068284866106d4565b91508190509392505050565b7f4e487b7100000000000000000000000000000000000000000000000000000000600052601160045260246000fd5b600061074c82610316565b91507fffffffffffffffffffffffffffffffffffffffffffffffffffffffffffffffff82141561077f5761077e610712565b5b600182019050919050565b600081519050919050565b600082825260208201905092915050565b60005b838110156107c45780820151818401526020810190506107a9565b838111156107d3576000848401525b50505050565b6000601f19601f8301169050919050565b60006107f58261078a565b6107ff8185610795565b935061080f8185602086016107a6565b610818816107d9565b840191505092915050565b6000602082019050818103600083015261083d81846107ea565b905092915050565b600080fd5b7f4e487b7100000000000000000000000000000000000000000000000000000000600052604160045260246000fd5b610882826107d9565b810181811067ffffffffffffffff821117156108a1576108a061084a565b5b80604052505050565b60006108b4610266565b90506108c08282610879565b919050565b600067ffffffffffffffff8211156108e0576108df61084a565b5b6108e9826107d9565b9050602081019050919050565b6000610909610904846108c5565b6108aa565b90508281526020810184848401111561092557610924610845565b5b6109308482856107a6565b509392505050565b600082601f83011261094d5761094c610471565b5b815161095d8482602086016108f6565b91505092915050565b60006020828403121561097c5761097b610270565b5b600082015167ffffffffffffffff81111561099a57610999610275565b5b6109a684828501610938565b91505092915050565b600081519050919050565b600082825260208201905092915050565b60006109d6826109af565b6109e081856109ba565b93506109f08185602086016107a6565b6109f9816107d9565b840191505092915050565b60006020820190508181036000830152610a1e81846109cb565b90509291505056fea2646970667358221220a0a7c36bf6cd394197ea2d2eefbbfd95cc766542c00c94ae14847583ca73140964736f6c634300080b0033",
  "immutableReferences": {},
  "source": "// SPDX-License-Identifier: MIT\npragma solidity ^0.8.0;\npragma experimental ABIEncoderV2;\n\n// solhint-disable avoid-low-level-calls\n// solhint-disable no-inline-assembly\n\n// WARNING!!!\n// Combining BoringBatchable with msg.value can cause double spending issues\n// https://www.paradigm.xyz/2021/08/two-rights-might-make-a-wrong/\n\nimport \"./interfaces/IERC20.sol\";\n\ncontract BaseBoringBatchable {\n    error BatchError(bytes innerError);\n\n    /// @dev Helper function to extract a useful revert message from a failed call.\n    /// If the returned data is malformed or not correctly abi encoded then this call can fail itself.\n    function _getRevertMsg(bytes memory _returnData) internal pure{\n        // If the _res length is less than 68, then\n        // the transaction failed with custom error or silently (without a revert message)\n        if (_returnData.length < 68) revert BatchError(_returnData);\n\n        assembly {\n            // Slice the sighash.\n            _returnData := add(_returnData, 0x04)\n        }\n        revert(abi.decode(_returnData, (string))); // All that remains is the revert string\n    }\n\n    /// @notice Allows batched call to self (this contract).\n    /// @param calls An array of inputs for each call.\n    /// @param revertOnFail If True then reverts after a failed call and stops doing further calls.\n    // F1: External is ok here because this is the batch function, adding it to a batch makes no sense\n    // F2: Calls in the batch may be payable, delegatecall operates in the same context, so each call in the batch has access to msg.value\n    // C3: The length of the loop is fully under user control, so can't be exploited\n    // C7: Delegatecall is only used on the same contract, so it's safe\n    function batch(bytes[] calldata calls, bool revertOnFail) external payable {\n        for (uint256 i = 0; i < calls.length; i++) {\n            (bool success, bytes memory result) = address(this).delegatecall(calls[i]);\n            if (!success && revertOnFail) {\n                _getRevertMsg(result);\n            }\n        }\n    }\n}\n\ncontract BoringBatchable is BaseBoringBatchable {\n    /// @notice Call wrapper that performs `ERC20.permit` on `token`.\n    /// Lookup `IERC20.permit`.\n    // F6: Parameters can be used front-run the permit and the user's permit will fail (due to nonce or other revert)\n    //     if part of a batch this could be used to grief once as the second call would not need the permit\n    function permitToken(\n        IERC20 token,\n        address from,\n        address to,\n        uint256 amount,\n        uint256 deadline,\n        uint8 v,\n        bytes32 r,\n        bytes32 s\n    ) public {\n        token.permit(from, to, amount, deadline, v, r, s);\n    }\n}\n",
  "sourcePath": "@boringcrypto/boring-solidity/contracts/BoringBatchable.sol",
  "compiler": {
    "name": "solc",
    "version": "0.8.11+commit.d7f03943.Emscripten.clang"
  },
  "schemaVersion": "3.4.4",
  "updatedAt": "2022-07-13T16:48:38.580Z",
  "devdoc": {
    "kind": "dev",
    "methods": {
      "batch(bytes[],bool)": {
        "params": {
          "calls": "An array of inputs for each call.",
          "revertOnFail": "If True then reverts after a failed call and stops doing further calls."
        }
      }
    },
    "version": 1
  },
  "userdoc": {
    "kind": "user",
    "methods": {
      "batch(bytes[],bool)": {
        "notice": "Allows batched call to self (this contract)."
      },
      "permitToken(address,address,address,uint256,uint256,uint8,bytes32,bytes32)": {
        "notice": "Call wrapper that performs `ERC20.permit` on `token`. Lookup `IERC20.permit`."
      }
    },
    "version": 1
  }
}