{
  "contractName": "BoringOwnableData",
  "abi": [
    {
      "inputs": [],
      "name": "owner",
      "outputs": [
        {
          "internalType": "address",
          "name": "",
          "type": "address"
        }
      ],
      "stateMutability": "view",
      "type": "function"
    },
    {
      "inputs": [],
      "name": "pendingOwner",
      "outputs": [
        {
          "internalType": "address",
          "name": "",
          "type": "address"
        }
      ],
      "stateMutability": "view",
      "type": "function"
    }
  ],
  "bytecode": "0x608060405234801561001057600080fd5b50610153806100206000396000f3fe608060405234801561001057600080fd5b50600436106100365760003560e01c80638da5cb5b1461003b578063e30c397814610059575b600080fd5b610043610077565b6040516100509190610102565b60405180910390f35b61006161009b565b60405161006e9190610102565b60405180910390f35b60008054906101000a900473ffffffffffffffffffffffffffffffffffffffff1681565b600160009054906101000a900473ffffffffffffffffffffffffffffffffffffffff1681565b600073ffffffffffffffffffffffffffffffffffffffff82169050919050565b60006100ec826100c1565b9050919050565b6100fc816100e1565b82525050565b600060208201905061011760008301846100f3565b9291505056fea26469706673582212208317a655760a6c9386a5203c039bf9b5900adfcda6f3b6f0afe5c4bdfcafc3f164736f6c634300080f0033",
  "immutableReferences": {},
  "source": "// SPDX-License-Identifier: MIT\npragma solidity ^0.8.0;\n\n// Source: https://github.com/OpenZeppelin/openzeppelin-contracts/blob/master/contracts/access/Ownable.sol + Claimable.sol\n// Simplified by BoringCrypto\n\ncontract BoringOwnableData {\n    address public owner;\n    address public pendingOwner;\n}\n\ncontract BoringOwnable is BoringOwnableData {\n    event OwnershipTransferred(address indexed previousOwner, address indexed newOwner);\n\n    /// @notice `owner` defaults to msg.sender on construction.\n    constructor() {\n        owner = msg.sender;\n        emit OwnershipTransferred(address(0), msg.sender);\n    }\n\n    /// @notice Transfers ownership to `newOwner`. Either directly or claimable by the new pending owner.\n    /// Can only be invoked by the current `owner`.\n    /// @param newOwner Address of the new owner.\n    /// @param direct True if `newOwner` should be set immediately. False if `newOwner` needs to use `claimOwnership`.\n    /// @param renounce Allows the `newOwner` to be `address(0)` if `direct` and `renounce` is True. Has no effect otherwise.\n    function transferOwnership(\n        address newOwner,\n        bool direct,\n        bool renounce\n    ) public onlyOwner {\n        if (direct) {\n            // Checks\n            require(newOwner != address(0) || renounce, \"Ownable: zero address\");\n\n            // Effects\n            emit OwnershipTransferred(owner, newOwner);\n            owner = newOwner;\n            pendingOwner = address(0);\n        } else {\n            // Effects\n            pendingOwner = newOwner;\n        }\n    }\n\n    /// @notice Needs to be called by `pendingOwner` to claim ownership.\n    function claimOwnership() public {\n        address _pendingOwner = pendingOwner;\n\n        // Checks\n        require(msg.sender == _pendingOwner, \"Ownable: caller != pending owner\");\n\n        // Effects\n        emit OwnershipTransferred(owner, _pendingOwner);\n        owner = _pendingOwner;\n        pendingOwner = address(0);\n    }\n\n    /// @notice Only allows the `owner` to execute the function.\n    modifier onlyOwner() {\n        require(msg.sender == owner, \"Ownable: caller is not the owner\");\n        _;\n    }\n}\n",
  "sourcePath": "@boringcrypto/boring-solidity/contracts/BoringOwnable.sol",
  "compiler": {
    "name": "solc",
    "version": "0.8.15+commit.e14f2714.Emscripten.clang"
  },
  "schemaVersion": "3.4.8",
  "updatedAt": "2022-07-12T18:57:31.826Z",
  "devdoc": {
    "kind": "dev",
    "methods": {},
    "version": 1
  },
  "userdoc": {
    "kind": "user",
    "methods": {},
    "version": 1
  }
}