{
  "contractName": "MasterChef",
  "abi": [
    {
      "inputs": [
        {
          "internalType": "contract SushiToken",
          "name": "_sushi",
          "type": "address"
        },
        {
          "internalType": "address",
          "name": "_devaddr",
          "type": "address"
        },
        {
          "internalType": "uint256",
          "name": "_sushiPerBlock",
          "type": "uint256"
        },
        {
          "internalType": "uint256",
          "name": "_startBlock",
          "type": "uint256"
        },
        {
          "internalType": "uint256",
          "name": "_bonusEndBlock",
          "type": "uint256"
        }
      ],
      "stateMutability": "nonpayable",
      "type": "constructor"
    },
    {
      "anonymous": false,
      "inputs": [
        {
          "indexed": true,
          "internalType": "address",
          "name": "user",
          "type": "address"
        },
        {
          "indexed": true,
          "internalType": "uint256",
          "name": "pid",
          "type": "uint256"
        },
        {
          "indexed": false,
          "internalType": "uint256",
          "name": "amount",
          "type": "uint256"
        }
      ],
      "name": "Deposit",
      "type": "event"
    },
    {
      "anonymous": false,
      "inputs": [
        {
          "indexed": true,
          "internalType": "address",
          "name": "user",
          "type": "address"
        },
        {
          "indexed": true,
          "internalType": "uint256",
          "name": "pid",
          "type": "uint256"
        },
        {
          "indexed": false,
          "internalType": "uint256",
          "name": "amount",
          "type": "uint256"
        }
      ],
      "name": "EmergencyWithdraw",
      "type": "event"
    },
    {
      "anonymous": false,
      "inputs": [
        {
          "indexed": true,
          "internalType": "address",
          "name": "previousOwner",
          "type": "address"
        },
        {
          "indexed": true,
          "internalType": "address",
          "name": "newOwner",
          "type": "address"
        }
      ],
      "name": "OwnershipTransferred",
      "type": "event"
    },
    {
      "anonymous": false,
      "inputs": [
        {
          "indexed": true,
          "internalType": "address",
          "name": "user",
          "type": "address"
        },
        {
          "indexed": true,
          "internalType": "uint256",
          "name": "pid",
          "type": "uint256"
        },
        {
          "indexed": false,
          "internalType": "uint256",
          "name": "amount",
          "type": "uint256"
        }
      ],
      "name": "Withdraw",
      "type": "event"
    },
    {
      "inputs": [],
      "name": "BONUS_MULTIPLIER",
      "outputs": [
        {
          "internalType": "uint256",
          "name": "",
          "type": "uint256"
        }
      ],
      "stateMutability": "view",
      "type": "function",
      "constant": true
    },
    {
      "inputs": [],
      "name": "bonusEndBlock",
      "outputs": [
        {
          "internalType": "uint256",
          "name": "",
          "type": "uint256"
        }
      ],
      "stateMutability": "view",
      "type": "function",
      "constant": true
    },
    {
      "inputs": [],
      "name": "devaddr",
      "outputs": [
        {
          "internalType": "address",
          "name": "",
          "type": "address"
        }
      ],
      "stateMutability": "view",
      "type": "function",
      "constant": true
    },
    {
      "inputs": [],
      "name": "migrator",
      "outputs": [
        {
          "internalType": "contract IMigratorChef",
          "name": "",
          "type": "address"
        }
      ],
      "stateMutability": "view",
      "type": "function",
      "constant": true
    },
    {
      "inputs": [],
      "name": "owner",
      "outputs": [
        {
          "internalType": "address",
          "name": "",
          "type": "address"
        }
      ],
      "stateMutability": "view",
      "type": "function",
      "constant": true
    },
    {
      "inputs": [
        {
          "internalType": "uint256",
          "name": "",
          "type": "uint256"
        }
      ],
      "name": "poolInfo",
      "outputs": [
        {
          "internalType": "contract IERC20",
          "name": "lpToken",
          "type": "address"
        },
        {
          "internalType": "uint256",
          "name": "allocPoint",
          "type": "uint256"
        },
        {
          "internalType": "uint256",
          "name": "lastRewardBlock",
          "type": "uint256"
        },
        {
          "internalType": "uint256",
          "name": "accSushiPerShare",
          "type": "uint256"
        }
      ],
      "stateMutability": "view",
      "type": "function",
      "constant": true
    },
    {
      "inputs": [],
      "name": "renounceOwnership",
      "outputs": [],
      "stateMutability": "nonpayable",
      "type": "function"
    },
    {
      "inputs": [],
      "name": "startBlock",
      "outputs": [
        {
          "internalType": "uint256",
          "name": "",
          "type": "uint256"
        }
      ],
      "stateMutability": "view",
      "type": "function",
      "constant": true
    },
    {
      "inputs": [],
      "name": "sushi",
      "outputs": [
        {
          "internalType": "contract SushiToken",
          "name": "",
          "type": "address"
        }
      ],
      "stateMutability": "view",
      "type": "function",
      "constant": true
    },
    {
      "inputs": [],
      "name": "sushiPerBlock",
      "outputs": [
        {
          "internalType": "uint256",
          "name": "",
          "type": "uint256"
        }
      ],
      "stateMutability": "view",
      "type": "function",
      "constant": true
    },
    {
      "inputs": [],
      "name": "totalAllocPoint",
      "outputs": [
        {
          "internalType": "uint256",
          "name": "",
          "type": "uint256"
        }
      ],
      "stateMutability": "view",
      "type": "function",
      "constant": true
    },
    {
      "inputs": [
        {
          "internalType": "address",
          "name": "newOwner",
          "type": "address"
        }
      ],
      "name": "transferOwnership",
      "outputs": [],
      "stateMutability": "nonpayable",
      "type": "function"
    },
    {
      "inputs": [
        {
          "internalType": "uint256",
          "name": "",
          "type": "uint256"
        },
        {
          "internalType": "address",
          "name": "",
          "type": "address"
        }
      ],
      "name": "userInfo",
      "outputs": [
        {
          "internalType": "uint256",
          "name": "amount",
          "type": "uint256"
        },
        {
          "internalType": "uint256",
          "name": "rewardDebt",
          "type": "uint256"
        }
      ],
      "stateMutability": "view",
      "type": "function",
      "constant": true
    },
    {
      "inputs": [],
      "name": "poolLength",
      "outputs": [
        {
          "internalType": "uint256",
          "name": "",
          "type": "uint256"
        }
      ],
      "stateMutability": "view",
      "type": "function",
      "constant": true
    },
    {
      "inputs": [
        {
          "internalType": "uint256",
          "name": "_allocPoint",
          "type": "uint256"
        },
        {
          "internalType": "contract IERC20",
          "name": "_lpToken",
          "type": "address"
        },
        {
          "internalType": "bool",
          "name": "_withUpdate",
          "type": "bool"
        }
      ],
      "name": "add",
      "outputs": [],
      "stateMutability": "nonpayable",
      "type": "function"
    },
    {
      "inputs": [
        {
          "internalType": "uint256",
          "name": "_pid",
          "type": "uint256"
        },
        {
          "internalType": "uint256",
          "name": "_allocPoint",
          "type": "uint256"
        },
        {
          "internalType": "bool",
          "name": "_withUpdate",
          "type": "bool"
        }
      ],
      "name": "set",
      "outputs": [],
      "stateMutability": "nonpayable",
      "type": "function"
    },
    {
      "inputs": [
        {
          "internalType": "contract IMigratorChef",
          "name": "_migrator",
          "type": "address"
        }
      ],
      "name": "setMigrator",
      "outputs": [],
      "stateMutability": "nonpayable",
      "type": "function"
    },
    {
      "inputs": [
        {
          "internalType": "uint256",
          "name": "_pid",
          "type": "uint256"
        }
      ],
      "name": "migrate",
      "outputs": [],
      "stateMutability": "nonpayable",
      "type": "function"
    },
    {
      "inputs": [
        {
          "internalType": "uint256",
          "name": "_from",
          "type": "uint256"
        },
        {
          "internalType": "uint256",
          "name": "_to",
          "type": "uint256"
        }
      ],
      "name": "getMultiplier",
      "outputs": [
        {
          "internalType": "uint256",
          "name": "",
          "type": "uint256"
        }
      ],
      "stateMutability": "view",
      "type": "function",
      "constant": true
    },
    {
      "inputs": [
        {
          "internalType": "uint256",
          "name": "_pid",
          "type": "uint256"
        },
        {
          "internalType": "address",
          "name": "_user",
          "type": "address"
        }
      ],
      "name": "pendingSushi",
      "outputs": [
        {
          "internalType": "uint256",
          "name": "",
          "type": "uint256"
        }
      ],
      "stateMutability": "view",
      "type": "function",
      "constant": true
    },
    {
      "inputs": [],
      "name": "massUpdatePools",
      "outputs": [],
      "stateMutability": "nonpayable",
      "type": "function"
    },
    {
      "inputs": [
        {
          "internalType": "uint256",
          "name": "_pid",
          "type": "uint256"
        }
      ],
      "name": "updatePool",
      "outputs": [],
      "stateMutability": "nonpayable",
      "type": "function"
    },
    {
      "inputs": [
        {
          "internalType": "uint256",
          "name": "_pid",
          "type": "uint256"
        },
        {
          "internalType": "uint256",
          "name": "_amount",
          "type": "uint256"
        }
      ],
      "name": "deposit",
      "outputs": [],
      "stateMutability": "nonpayable",
      "type": "function"
    },
    {
      "inputs": [
        {
          "internalType": "uint256",
          "name": "_pid",
          "type": "uint256"
        },
        {
          "internalType": "uint256",
          "name": "_amount",
          "type": "uint256"
        }
      ],
      "name": "withdraw",
      "outputs": [],
      "stateMutability": "nonpayable",
      "type": "function"
    },
    {
      "inputs": [
        {
          "internalType": "uint256",
          "name": "_pid",
          "type": "uint256"
        }
      ],
      "name": "emergencyWithdraw",
      "outputs": [],
      "stateMutability": "nonpayable",
      "type": "function"
    },
    {
      "inputs": [
        {
          "internalType": "address",
          "name": "_devaddr",
          "type": "address"
        }
      ],
      "name": "dev",
      "outputs": [],
      "stateMutability": "nonpayable",
      "type": "function"
    }
  ],
  "bytecode": "0x608060405260006008553480156200001657600080fd5b50604051620031c1380380620031c183398181016040528101906200003c9190620002b4565b6200005c62000050620000fe60201b60201c565b6200010660201b60201c565b84600160006101000a81548173ffffffffffffffffffffffffffffffffffffffff021916908373ffffffffffffffffffffffffffffffffffffffff16021790555083600260006101000a81548173ffffffffffffffffffffffffffffffffffffffff021916908373ffffffffffffffffffffffffffffffffffffffff16021790555082600481905550806003819055508160098190555050505050506200033c565b600033905090565b60008060009054906101000a900473ffffffffffffffffffffffffffffffffffffffff169050816000806101000a81548173ffffffffffffffffffffffffffffffffffffffff021916908373ffffffffffffffffffffffffffffffffffffffff1602179055508173ffffffffffffffffffffffffffffffffffffffff168173ffffffffffffffffffffffffffffffffffffffff167f8be0079c531659141344cd1fd0a4f28419497f9722a3daafe3b4186f6b6457e060405160405180910390a35050565b600080fd5b600073ffffffffffffffffffffffffffffffffffffffff82169050919050565b6000620001fc82620001cf565b9050919050565b60006200021082620001ef565b9050919050565b620002228162000203565b81146200022e57600080fd5b50565b600081519050620002428162000217565b92915050565b6200025381620001ef565b81146200025f57600080fd5b50565b600081519050620002738162000248565b92915050565b6000819050919050565b6200028e8162000279565b81146200029a57600080fd5b50565b600081519050620002ae8162000283565b92915050565b600080600080600060a08688031215620002d357620002d2620001ca565b5b6000620002e38882890162000231565b9550506020620002f68882890162000262565b945050604062000309888289016200029d565b93505060606200031c888289016200029d565b92505060806200032f888289016200029d565b9150509295509295909350565b612e75806200034c6000396000f3fe608060405234801561001057600080fd5b506004361061018e5760003560e01c8063630b5ba1116100de5780638da5cb5b11610097578063b0bcf42a11610071578063b0bcf42a1461043b578063d49e77cd14610459578063e2bbb15814610477578063f2fde38b146104935761018e565b80638da5cb5b146103bc5780638dbb1e3a146103da57806393f1a40b1461040a5761018e565b8063630b5ba11461033457806364482f791461033e578063715018a61461035a5780637cd07e47146103645780638aa28550146103825780638d88a90e146103a05761018e565b80631eaaa0451161014b578063454b060811610125578063454b0608146102c257806348cd4cb1146102de57806351eb05a6146102fc5780635312ea8e146103185761018e565b80631eaaa0451461026e57806323cf31181461028a578063441a3e70146102a65761018e565b8063081e3eda146101935780630a087903146101b15780631526fe27146101cf57806317caf6f114610202578063195426ec146102205780631aed655314610250575b600080fd5b61019b6104af565b6040516101a89190612087565b60405180910390f35b6101b96104bc565b6040516101c69190612121565b60405180910390f35b6101e960048036038101906101e4919061216d565b6104e2565b6040516101f994939291906121bb565b60405180910390f35b61020a610542565b6040516102179190612087565b60405180910390f35b61023a6004803603810190610235919061223e565b610548565b6040516102479190612087565b60405180910390f35b61025861076d565b6040516102659190612087565b60405180910390f35b610288600480360381019061028391906122f4565b610773565b005b6102a4600480360381019061029f9190612385565b61088c565b005b6102c060048036038101906102bb91906123b2565b6108d8565b005b6102dc60048036038101906102d7919061216d565b610af6565b005b6102e6610e49565b6040516102f39190612087565b60405180910390f35b6103166004803603810190610311919061216d565b610e4f565b005b610332600480360381019061032d919061216d565b611142565b005b61033c61127b565b005b610358600480360381019061035391906123f2565b6112ae565b005b610362611346565b005b61036c61135a565b6040516103799190612466565b60405180910390f35b61038a611380565b6040516103979190612087565b60405180910390f35b6103ba60048036038101906103b59190612481565b611385565b005b6103c4611459565b6040516103d191906124bd565b60405180910390f35b6103f460048036038101906103ef91906123b2565b611482565b6040516104019190612087565b60405180910390f35b610424600480360381019061041f919061223e565b611534565b6040516104329291906124d8565b60405180910390f35b610443611565565b6040516104509190612087565b60405180910390f35b61046161156b565b60405161046e91906124bd565b60405180910390f35b610491600480360381019061048c91906123b2565b611591565b005b6104ad60048036038101906104a89190612481565b611778565b005b6000600680549050905090565b600160009054906101000a900473ffffffffffffffffffffffffffffffffffffffff1681565b600681815481106104f257600080fd5b90600052602060002090600402016000915090508060000160009054906101000a900473ffffffffffffffffffffffffffffffffffffffff16908060010154908060020154908060030154905084565b60085481565b6000806006848154811061055f5761055e612501565b5b9060005260206000209060040201905060006007600086815260200190815260200160002060008573ffffffffffffffffffffffffffffffffffffffff1673ffffffffffffffffffffffffffffffffffffffff168152602001908152602001600020905060008260030154905060008360000160009054906101000a900473ffffffffffffffffffffffffffffffffffffffff1673ffffffffffffffffffffffffffffffffffffffff166370a08231306040518263ffffffff1660e01b815260040161062b91906124bd565b602060405180830381865afa158015610648573d6000803e3d6000fd5b505050506040513d601f19601f8201168201806040525081019061066c9190612545565b9050836002015443118015610682575060008114155b1561071d576000610697856002015443611482565b905060006106da6008546106cc88600101546106be600454876117fc90919063ffffffff16565b6117fc90919063ffffffff16565b61181290919063ffffffff16565b9050610718610709846106fb64e8d4a51000856117fc90919063ffffffff16565b61181290919063ffffffff16565b8561182890919063ffffffff16565b935050505b610761836001015461075364e8d4a510006107458688600001546117fc90919063ffffffff16565b61181290919063ffffffff16565b61183e90919063ffffffff16565b94505050505092915050565b60035481565b61077b611854565b801561078a5761078961127b565b5b6000600954431161079d5760095461079f565b435b90506107b68460085461182890919063ffffffff16565b600881905550600660405180608001604052808573ffffffffffffffffffffffffffffffffffffffff1681526020018681526020018381526020016000815250908060018154018082558091505060019003906000526020600020906004020160009091909190915060008201518160000160006101000a81548173ffffffffffffffffffffffffffffffffffffffff021916908373ffffffffffffffffffffffffffffffffffffffff160217905550602082015181600101556040820151816002015560608201518160030155505050505050565b610894611854565b80600560006101000a81548173ffffffffffffffffffffffffffffffffffffffff021916908373ffffffffffffffffffffffffffffffffffffffff16021790555050565b6000600683815481106108ee576108ed612501565b5b9060005260206000209060040201905060006007600085815260200190815260200160002060003373ffffffffffffffffffffffffffffffffffffffff1673ffffffffffffffffffffffffffffffffffffffff16815260200190815260200160002090508281600001541015610999576040517f08c379a0000000000000000000000000000000000000000000000000000000008152600401610990906125cf565b60405180910390fd5b6109a284610e4f565b60006109ec82600101546109de64e8d4a510006109d0876003015487600001546117fc90919063ffffffff16565b61181290919063ffffffff16565b61183e90919063ffffffff16565b90506109f833826118d2565b610a0f84836000015461183e90919063ffffffff16565b8260000181905550610a4964e8d4a51000610a3b856003015485600001546117fc90919063ffffffff16565b61181290919063ffffffff16565b8260010181905550610aa033858560000160009054906101000a900473ffffffffffffffffffffffffffffffffffffffff1673ffffffffffffffffffffffffffffffffffffffff16611ac79092919063ffffffff16565b843373ffffffffffffffffffffffffffffffffffffffff167ff279e6a1f5e320cca91135676d9cb6e44ca8a08c0b88342bcdb1144f6511b56886604051610ae79190612087565b60405180910390a35050505050565b600073ffffffffffffffffffffffffffffffffffffffff16600560009054906101000a900473ffffffffffffffffffffffffffffffffffffffff1673ffffffffffffffffffffffffffffffffffffffff161415610b88576040517f08c379a0000000000000000000000000000000000000000000000000000000008152600401610b7f9061263b565b60405180910390fd5b600060068281548110610b9e57610b9d612501565b5b9060005260206000209060040201905060008160000160009054906101000a900473ffffffffffffffffffffffffffffffffffffffff16905060008173ffffffffffffffffffffffffffffffffffffffff166370a08231306040518263ffffffff1660e01b8152600401610c1291906124bd565b602060405180830381865afa158015610c2f573d6000803e3d6000fd5b505050506040513d601f19601f82011682018060405250810190610c539190612545565b9050610ca2600560009054906101000a900473ffffffffffffffffffffffffffffffffffffffff16828473ffffffffffffffffffffffffffffffffffffffff16611b4d9092919063ffffffff16565b6000600560009054906101000a900473ffffffffffffffffffffffffffffffffffffffff1673ffffffffffffffffffffffffffffffffffffffff1663ce5494bb846040518263ffffffff1660e01b8152600401610cff919061265b565b6020604051808303816000875af1158015610d1e573d6000803e3d6000fd5b505050506040513d601f19601f82011682018060405250810190610d42919061268b565b90508073ffffffffffffffffffffffffffffffffffffffff166370a08231306040518263ffffffff1660e01b8152600401610d7d91906124bd565b602060405180830381865afa158015610d9a573d6000803e3d6000fd5b505050506040513d601f19601f82011682018060405250810190610dbe9190612545565b8214610dff576040517f08c379a0000000000000000000000000000000000000000000000000000000008152600401610df690612704565b60405180910390fd5b808460000160006101000a81548173ffffffffffffffffffffffffffffffffffffffff021916908373ffffffffffffffffffffffffffffffffffffffff1602179055505050505050565b60095481565b600060068281548110610e6557610e64612501565b5b9060005260206000209060040201905080600201544311610e86575061113f565b60008160000160009054906101000a900473ffffffffffffffffffffffffffffffffffffffff1673ffffffffffffffffffffffffffffffffffffffff166370a08231306040518263ffffffff1660e01b8152600401610ee591906124bd565b602060405180830381865afa158015610f02573d6000803e3d6000fd5b505050506040513d601f19601f82011682018060405250810190610f269190612545565b90506000811415610f4157438260020181905550505061113f565b6000610f51836002015443611482565b90506000610f94600854610f868660010154610f78600454876117fc90919063ffffffff16565b6117fc90919063ffffffff16565b61181290919063ffffffff16565b9050600160009054906101000a900473ffffffffffffffffffffffffffffffffffffffff1673ffffffffffffffffffffffffffffffffffffffff166340c10f19600260009054906101000a900473ffffffffffffffffffffffffffffffffffffffff1661100b600a8561181290919063ffffffff16565b6040518363ffffffff1660e01b8152600401611028929190612724565b600060405180830381600087803b15801561104257600080fd5b505af1158015611056573d6000803e3d6000fd5b50505050600160009054906101000a900473ffffffffffffffffffffffffffffffffffffffff1673ffffffffffffffffffffffffffffffffffffffff166340c10f1930836040518363ffffffff1660e01b81526004016110b7929190612724565b600060405180830381600087803b1580156110d157600080fd5b505af11580156110e5573d6000803e3d6000fd5b505050506111296111168461110864e8d4a51000856117fc90919063ffffffff16565b61181290919063ffffffff16565b856003015461182890919063ffffffff16565b8460030181905550438460020181905550505050505b50565b60006006828154811061115857611157612501565b5b9060005260206000209060040201905060006007600084815260200190815260200160002060003373ffffffffffffffffffffffffffffffffffffffff1673ffffffffffffffffffffffffffffffffffffffff168152602001908152602001600020905061120f3382600001548460000160009054906101000a900473ffffffffffffffffffffffffffffffffffffffff1673ffffffffffffffffffffffffffffffffffffffff16611ac79092919063ffffffff16565b823373ffffffffffffffffffffffffffffffffffffffff167fbb757047c2b5f3974fe26b7c10f732e7bce710b0952a71082702781e62ae0595836000015460405161125a9190612087565b60405180910390a36000816000018190555060008160010181905550505050565b6000600680549050905060005b818110156112aa5761129981610e4f565b806112a39061277c565b9050611288565b5050565b6112b6611854565b80156112c5576112c461127b565b5b61131182611303600686815481106112e0576112df612501565b5b90600052602060002090600402016001015460085461183e90919063ffffffff16565b61182890919063ffffffff16565b600881905550816006848154811061132c5761132b612501565b5b906000526020600020906004020160010181905550505050565b61134e611854565b6113586000611c9c565b565b600560009054906101000a900473ffffffffffffffffffffffffffffffffffffffff1681565b600a81565b600260009054906101000a900473ffffffffffffffffffffffffffffffffffffffff1673ffffffffffffffffffffffffffffffffffffffff163373ffffffffffffffffffffffffffffffffffffffff1614611415576040517f08c379a000000000000000000000000000000000000000000000000000000000815260040161140c90612811565b60405180910390fd5b80600260006101000a81548173ffffffffffffffffffffffffffffffffffffffff021916908373ffffffffffffffffffffffffffffffffffffffff16021790555050565b60008060009054906101000a900473ffffffffffffffffffffffffffffffffffffffff16905090565b600060035482116114ba576114b3600a6114a5858561183e90919063ffffffff16565b6117fc90919063ffffffff16565b905061152e565b60035483106114dd576114d6838361183e90919063ffffffff16565b905061152e565b61152b6114f56003548461183e90919063ffffffff16565b61151d600a61150f8760035461183e90919063ffffffff16565b6117fc90919063ffffffff16565b61182890919063ffffffff16565b90505b92915050565b6007602052816000526040600020602052806000526040600020600091509150508060000154908060010154905082565b60045481565b600260009054906101000a900473ffffffffffffffffffffffffffffffffffffffff1681565b6000600683815481106115a7576115a6612501565b5b9060005260206000209060040201905060006007600085815260200190815260200160002060003373ffffffffffffffffffffffffffffffffffffffff1673ffffffffffffffffffffffffffffffffffffffff168152602001908152602001600020905061161484610e4f565b60008160000154111561167957600061166b826001015461165d64e8d4a5100061164f876003015487600001546117fc90919063ffffffff16565b61181290919063ffffffff16565b61183e90919063ffffffff16565b905061167733826118d2565b505b6116ca3330858560000160009054906101000a900473ffffffffffffffffffffffffffffffffffffffff1673ffffffffffffffffffffffffffffffffffffffff16611d60909392919063ffffffff16565b6116e183826000015461182890919063ffffffff16565b816000018190555061171b64e8d4a5100061170d846003015484600001546117fc90919063ffffffff16565b61181290919063ffffffff16565b8160010181905550833373ffffffffffffffffffffffffffffffffffffffff167f90890809c654f11d6e72a28fa60149770a0d11ec6c92319d6ceb2bb0a4ea1a158560405161176a9190612087565b60405180910390a350505050565b611780611854565b600073ffffffffffffffffffffffffffffffffffffffff168173ffffffffffffffffffffffffffffffffffffffff1614156117f0576040517f08c379a00000000000000000000000000000000000000000000000000000000081526004016117e7906128a3565b60405180910390fd5b6117f981611c9c565b50565b6000818361180a91906128c3565b905092915050565b60008183611820919061294c565b905092915050565b60008183611836919061297d565b905092915050565b6000818361184c91906129d3565b905092915050565b61185c611de9565b73ffffffffffffffffffffffffffffffffffffffff1661187a611459565b73ffffffffffffffffffffffffffffffffffffffff16146118d0576040517f08c379a00000000000000000000000000000000000000000000000000000000081526004016118c790612a53565b60405180910390fd5b565b6000600160009054906101000a900473ffffffffffffffffffffffffffffffffffffffff1673ffffffffffffffffffffffffffffffffffffffff166370a08231306040518263ffffffff1660e01b815260040161192f91906124bd565b602060405180830381865afa15801561194c573d6000803e3d6000fd5b505050506040513d601f19601f820116820180604052508101906119709190612545565b905080821115611a2057600160009054906101000a900473ffffffffffffffffffffffffffffffffffffffff1673ffffffffffffffffffffffffffffffffffffffff1663a9059cbb84836040518363ffffffff1660e01b81526004016119d7929190612724565b6020604051808303816000875af11580156119f6573d6000803e3d6000fd5b505050506040513d601f19601f82011682018060405250810190611a1a9190612a88565b50611ac2565b600160009054906101000a900473ffffffffffffffffffffffffffffffffffffffff1673ffffffffffffffffffffffffffffffffffffffff1663a9059cbb84846040518363ffffffff1660e01b8152600401611a7d929190612724565b6020604051808303816000875af1158015611a9c573d6000803e3d6000fd5b505050506040513d601f19601f82011682018060405250810190611ac09190612a88565b505b505050565b611b488363a9059cbb60e01b8484604051602401611ae6929190612724565b604051602081830303815290604052907bffffffffffffffffffffffffffffffffffffffffffffffffffffffff19166020820180517bffffffffffffffffffffffffffffffffffffffffffffffffffffffff8381831617835250505050611df1565b505050565b6000811480611bd7575060008373ffffffffffffffffffffffffffffffffffffffff1663dd62ed3e30856040518363ffffffff1660e01b8152600401611b94929190612ab5565b602060405180830381865afa158015611bb1573d6000803e3d6000fd5b505050506040513d601f19601f82011682018060405250810190611bd59190612545565b145b611c16576040517f08c379a0000000000000000000000000000000000000000000000000000000008152600401611c0d90612b50565b60405180910390fd5b611c978363095ea7b360e01b8484604051602401611c35929190612724565b604051602081830303815290604052907bffffffffffffffffffffffffffffffffffffffffffffffffffffffff19166020820180517bffffffffffffffffffffffffffffffffffffffffffffffffffffffff8381831617835250505050611df1565b505050565b60008060009054906101000a900473ffffffffffffffffffffffffffffffffffffffff169050816000806101000a81548173ffffffffffffffffffffffffffffffffffffffff021916908373ffffffffffffffffffffffffffffffffffffffff1602179055508173ffffffffffffffffffffffffffffffffffffffff168173ffffffffffffffffffffffffffffffffffffffff167f8be0079c531659141344cd1fd0a4f28419497f9722a3daafe3b4186f6b6457e060405160405180910390a35050565b611de3846323b872dd60e01b858585604051602401611d8193929190612b70565b604051602081830303815290604052907bffffffffffffffffffffffffffffffffffffffffffffffffffffffff19166020820180517bffffffffffffffffffffffffffffffffffffffffffffffffffffffff8381831617835250505050611df1565b50505050565b600033905090565b6000611e53826040518060400160405280602081526020017f5361666545524332303a206c6f772d6c6576656c2063616c6c206661696c65648152508573ffffffffffffffffffffffffffffffffffffffff16611eb89092919063ffffffff16565b9050600081511115611eb35780806020019051810190611e739190612a88565b611eb2576040517f08c379a0000000000000000000000000000000000000000000000000000000008152600401611ea990612c19565b60405180910390fd5b5b505050565b6060611ec78484600085611ed0565b90509392505050565b606082471015611f15576040517f08c379a0000000000000000000000000000000000000000000000000000000008152600401611f0c90612cab565b60405180910390fd5b611f1e85611fe4565b611f5d576040517f08c379a0000000000000000000000000000000000000000000000000000000008152600401611f5490612d17565b60405180910390fd5b6000808673ffffffffffffffffffffffffffffffffffffffff168587604051611f869190612db1565b60006040518083038185875af1925050503d8060008114611fc3576040519150601f19603f3d011682016040523d82523d6000602084013e611fc8565b606091505b5091509150611fd8828286612007565b92505050949350505050565b6000808273ffffffffffffffffffffffffffffffffffffffff163b119050919050565b6060831561201757829050612067565b60008351111561202a5782518084602001fd5b816040517f08c379a000000000000000000000000000000000000000000000000000000000815260040161205e9190612e1d565b60405180910390fd5b9392505050565b6000819050919050565b6120818161206e565b82525050565b600060208201905061209c6000830184612078565b92915050565b600073ffffffffffffffffffffffffffffffffffffffff82169050919050565b6000819050919050565b60006120e76120e26120dd846120a2565b6120c2565b6120a2565b9050919050565b60006120f9826120cc565b9050919050565b600061210b826120ee565b9050919050565b61211b81612100565b82525050565b60006020820190506121366000830184612112565b92915050565b600080fd5b61214a8161206e565b811461215557600080fd5b50565b60008135905061216781612141565b92915050565b6000602082840312156121835761218261213c565b5b600061219184828501612158565b91505092915050565b60006121a5826120ee565b9050919050565b6121b58161219a565b82525050565b60006080820190506121d060008301876121ac565b6121dd6020830186612078565b6121ea6040830185612078565b6121f76060830184612078565b95945050505050565b600061220b826120a2565b9050919050565b61221b81612200565b811461222657600080fd5b50565b60008135905061223881612212565b92915050565b600080604083850312156122555761225461213c565b5b600061226385828601612158565b925050602061227485828601612229565b9150509250929050565b600061228982612200565b9050919050565b6122998161227e565b81146122a457600080fd5b50565b6000813590506122b681612290565b92915050565b60008115159050919050565b6122d1816122bc565b81146122dc57600080fd5b50565b6000813590506122ee816122c8565b92915050565b60008060006060848603121561230d5761230c61213c565b5b600061231b86828701612158565b935050602061232c868287016122a7565b925050604061233d868287016122df565b9150509250925092565b600061235282612200565b9050919050565b61236281612347565b811461236d57600080fd5b50565b60008135905061237f81612359565b92915050565b60006020828403121561239b5761239a61213c565b5b60006123a984828501612370565b91505092915050565b600080604083850312156123c9576123c861213c565b5b60006123d785828601612158565b92505060206123e885828601612158565b9150509250929050565b60008060006060848603121561240b5761240a61213c565b5b600061241986828701612158565b935050602061242a86828701612158565b925050604061243b868287016122df565b9150509250925092565b6000612450826120ee565b9050919050565b61246081612445565b82525050565b600060208201905061247b6000830184612457565b92915050565b6000602082840312156124975761249661213c565b5b60006124a584828501612229565b91505092915050565b6124b781612200565b82525050565b60006020820190506124d260008301846124ae565b92915050565b60006040820190506124ed6000830185612078565b6124fa6020830184612078565b9392505050565b7f4e487b7100000000000000000000000000000000000000000000000000000000600052603260045260246000fd5b60008151905061253f81612141565b92915050565b60006020828403121561255b5761255a61213c565b5b600061256984828501612530565b91505092915050565b600082825260208201905092915050565b7f77697468647261773a206e6f7420676f6f640000000000000000000000000000600082015250565b60006125b9601283612572565b91506125c482612583565b602082019050919050565b600060208201905081810360008301526125e8816125ac565b9050919050565b7f6d6967726174653a206e6f206d69677261746f72000000000000000000000000600082015250565b6000612625601483612572565b9150612630826125ef565b602082019050919050565b6000602082019050818103600083015261265481612618565b9050919050565b600060208201905061267060008301846121ac565b92915050565b60008151905061268581612290565b92915050565b6000602082840312156126a1576126a061213c565b5b60006126af84828501612676565b91505092915050565b7f6d6967726174653a206261640000000000000000000000000000000000000000600082015250565b60006126ee600c83612572565b91506126f9826126b8565b602082019050919050565b6000602082019050818103600083015261271d816126e1565b9050919050565b600060408201905061273960008301856124ae565b6127466020830184612078565b9392505050565b7f4e487b7100000000000000000000000000000000000000000000000000000000600052601160045260246000fd5b60006127878261206e565b91507fffffffffffffffffffffffffffffffffffffffffffffffffffffffffffffffff8214156127ba576127b961274d565b5b600182019050919050565b7f6465763a207775743f0000000000000000000000000000000000000000000000600082015250565b60006127fb600983612572565b9150612806826127c5565b602082019050919050565b6000602082019050818103600083015261282a816127ee565b9050919050565b7f4f776e61626c653a206e6577206f776e657220697320746865207a65726f206160008201527f6464726573730000000000000000000000000000000000000000000000000000602082015250565b600061288d602683612572565b915061289882612831565b604082019050919050565b600060208201905081810360008301526128bc81612880565b9050919050565b60006128ce8261206e565b91506128d98361206e565b9250817fffffffffffffffffffffffffffffffffffffffffffffffffffffffffffffffff04831182151516156129125761291161274d565b5b828202905092915050565b7f4e487b7100000000000000000000000000000000000000000000000000000000600052601260045260246000fd5b60006129578261206e565b91506129628361206e565b9250826129725761297161291d565b5b828204905092915050565b60006129888261206e565b91506129938361206e565b9250827fffffffffffffffffffffffffffffffffffffffffffffffffffffffffffffffff038211156129c8576129c761274d565b5b828201905092915050565b60006129de8261206e565b91506129e98361206e565b9250828210156129fc576129fb61274d565b5b828203905092915050565b7f4f776e61626c653a2063616c6c6572206973206e6f7420746865206f776e6572600082015250565b6000612a3d602083612572565b9150612a4882612a07565b602082019050919050565b60006020820190508181036000830152612a6c81612a30565b9050919050565b600081519050612a82816122c8565b92915050565b600060208284031215612a9e57612a9d61213c565b5b6000612aac84828501612a73565b91505092915050565b6000604082019050612aca60008301856124ae565b612ad760208301846124ae565b9392505050565b7f5361666545524332303a20617070726f76652066726f6d206e6f6e2d7a65726f60008201527f20746f206e6f6e2d7a65726f20616c6c6f77616e636500000000000000000000602082015250565b6000612b3a603683612572565b9150612b4582612ade565b604082019050919050565b60006020820190508181036000830152612b6981612b2d565b9050919050565b6000606082019050612b8560008301866124ae565b612b9260208301856124ae565b612b9f6040830184612078565b949350505050565b7f5361666545524332303a204552433230206f7065726174696f6e20646964206e60008201527f6f74207375636365656400000000000000000000000000000000000000000000602082015250565b6000612c03602a83612572565b9150612c0e82612ba7565b604082019050919050565b60006020820190508181036000830152612c3281612bf6565b9050919050565b7f416464726573733a20696e73756666696369656e742062616c616e636520666f60008201527f722063616c6c0000000000000000000000000000000000000000000000000000602082015250565b6000612c95602683612572565b9150612ca082612c39565b604082019050919050565b60006020820190508181036000830152612cc481612c88565b9050919050565b7f416464726573733a2063616c6c20746f206e6f6e2d636f6e7472616374000000600082015250565b6000612d01601d83612572565b9150612d0c82612ccb565b602082019050919050565b60006020820190508181036000830152612d3081612cf4565b9050919050565b600081519050919050565b600081905092915050565b60005b83811015612d6b578082015181840152602081019050612d50565b83811115612d7a576000848401525b50505050565b6000612d8b82612d37565b612d958185612d42565b9350612da5818560208601612d4d565b80840191505092915050565b6000612dbd8284612d80565b915081905092915050565b600081519050919050565b6000601f19601f8301169050919050565b6000612def82612dc8565b612df98185612572565b9350612e09818560208601612d4d565b612e1281612dd3565b840191505092915050565b60006020820190508181036000830152612e378184612de4565b90509291505056fea26469706673582212201d5dfc0a0e5a37c228d68a5d8b69c95c8396e6a19a5e759b8f56f0eba1aa20ef64736f6c634300080b0033",
  "immutableReferences": {},
  "source": "// SPDX-License-Identifier: MIT\n\npragma solidity ^0.8.0;\n\nimport \"@openzeppelin/contracts/token/ERC20/IERC20.sol\";\nimport \"@openzeppelin/contracts/token/ERC20/utils/SafeERC20.sol\";\nimport \"@openzeppelin/contracts/utils/structs/EnumerableSet.sol\";\nimport \"@openzeppelin/contracts/utils/math/SafeMath.sol\";\nimport \"@openzeppelin/contracts/access/Ownable.sol\";\nimport \"./SushiToken.sol\";\n\ninterface IMigratorChef {\n    // Perform LP token migration from legacy UniswapV2 to SushiSwap.\n    // Take the current LP token address and return the new LP token address.\n    // Migrator should have full access to the caller's LP token.\n    // Return the new LP token address.\n    //\n    // XXX Migrator must have allowance access to UniswapV2 LP tokens.\n    // SushiSwap must mint EXACTLY the same amount of SushiSwap LP tokens or\n    // else something bad will happen. Traditional UniswapV2 does not\n    // do that so be careful!\n    function migrate(IERC20 token) external returns (IERC20);\n}\n\n// MasterChef is the master of Sushi. He can make Sushi and he is a fair guy.\n//\n// Note that it's ownable and the owner wields tremendous power. The ownership\n// will be transferred to a governance smart contract once SUSHI is sufficiently\n// distributed and the community can show to govern itself.\n//\n// Have fun reading it. Hopefully it's bug-free. God bless.\ncontract MasterChef is Ownable {\n    using SafeMath for uint256;\n    using SafeERC20 for IERC20;\n    // Info of each user.\n    struct UserInfo {\n        uint256 amount; // How many LP tokens the user has provided.\n        uint256 rewardDebt; // Reward debt. See explanation below.\n        //\n        // We do some fancy math here. Basically, any point in time, the amount of SUSHIs\n        // entitled to a user but is pending to be distributed is:\n        //\n        //   pending reward = (user.amount * pool.accSushiPerShare) - user.rewardDebt\n        //\n        // Whenever a user deposits or withdraws LP tokens to a pool. Here's what happens:\n        //   1. The pool's `accSushiPerShare` (and `lastRewardBlock`) gets updated.\n        //   2. User receives the pending reward sent to his/her address.\n        //   3. User's `amount` gets updated.\n        //   4. User's `rewardDebt` gets updated.\n    }\n    // Info of each pool.\n    struct PoolInfo {\n        IERC20 lpToken; // Address of LP token contract.\n        uint256 allocPoint; // How many allocation points assigned to this pool. SUSHIs to distribute per block.\n        uint256 lastRewardBlock; // Last block number that SUSHIs distribution occurs.\n        uint256 accSushiPerShare; // Accumulated SUSHIs per share, times 1e12. See below.\n    }\n    // The SUSHI TOKEN!\n    SushiToken public sushi;\n    // Dev address.\n    address public devaddr;\n    // Block number when bonus SUSHI period ends.\n    uint256 public bonusEndBlock;\n    // SUSHI tokens created per block.\n    uint256 public sushiPerBlock;\n    // Bonus muliplier for early sushi makers.\n    uint256 public constant BONUS_MULTIPLIER = 10;\n    // The migrator contract. It has a lot of power. Can only be set through governance (owner).\n    IMigratorChef public migrator;\n    // Info of each pool.\n    PoolInfo[] public poolInfo;\n    // Info of each user that stakes LP tokens.\n    mapping(uint256 => mapping(address => UserInfo)) public userInfo;\n    // Total allocation poitns. Must be the sum of all allocation points in all pools.\n    uint256 public totalAllocPoint = 0;\n    // The block number when SUSHI mining starts.\n    uint256 public startBlock;\n    event Deposit(address indexed user, uint256 indexed pid, uint256 amount);\n    event Withdraw(address indexed user, uint256 indexed pid, uint256 amount);\n    event EmergencyWithdraw(\n        address indexed user,\n        uint256 indexed pid,\n        uint256 amount\n    );\n\n    constructor(\n        SushiToken _sushi,\n        address _devaddr,\n        uint256 _sushiPerBlock,\n        uint256 _startBlock,\n        uint256 _bonusEndBlock\n    ) {\n        sushi = _sushi;\n        devaddr = _devaddr;\n        sushiPerBlock = _sushiPerBlock;\n        bonusEndBlock = _bonusEndBlock;\n        startBlock = _startBlock;\n    }\n\n    function poolLength() external view returns (uint256) {\n        return poolInfo.length;\n    }\n\n    // Add a new lp to the pool. Can only be called by the owner.\n    // XXX DO NOT add the same LP token more than once. Rewards will be messed up if you do.\n    function add(\n        uint256 _allocPoint,\n        IERC20 _lpToken,\n        bool _withUpdate\n    ) public onlyOwner {\n        if (_withUpdate) {\n            massUpdatePools();\n        }\n        uint256 lastRewardBlock =\n            block.number > startBlock ? block.number : startBlock;\n        totalAllocPoint = totalAllocPoint.add(_allocPoint);\n        poolInfo.push(\n            PoolInfo({\n                lpToken: _lpToken,\n                allocPoint: _allocPoint,\n                lastRewardBlock: lastRewardBlock,\n                accSushiPerShare: 0\n            })\n        );\n    }\n\n    // Update the given pool's SUSHI allocation point. Can only be called by the owner.\n    function set(\n        uint256 _pid,\n        uint256 _allocPoint,\n        bool _withUpdate\n    ) public onlyOwner {\n        if (_withUpdate) {\n            massUpdatePools();\n        }\n        totalAllocPoint = totalAllocPoint.sub(poolInfo[_pid].allocPoint).add(\n            _allocPoint\n        );\n        poolInfo[_pid].allocPoint = _allocPoint;\n    }\n\n    // Set the migrator contract. Can only be called by the owner.\n    function setMigrator(IMigratorChef _migrator) public onlyOwner {\n        migrator = _migrator;\n    }\n\n    // Migrate lp token to another lp contract. Can be called by anyone. We trust that migrator contract is good.\n    function migrate(uint256 _pid) public {\n        require(address(migrator) != address(0), \"migrate: no migrator\");\n        PoolInfo storage pool = poolInfo[_pid];\n        IERC20 lpToken = pool.lpToken;\n        uint256 bal = lpToken.balanceOf(address(this));\n        lpToken.safeApprove(address(migrator), bal);\n        IERC20 newLpToken = migrator.migrate(lpToken);\n        require(bal == newLpToken.balanceOf(address(this)), \"migrate: bad\");\n        pool.lpToken = newLpToken;\n    }\n\n    // Return reward multiplier over the given _from to _to block.\n    function getMultiplier(uint256 _from, uint256 _to)\n        public\n        view\n        returns (uint256)\n    {\n        if (_to <= bonusEndBlock) {\n            return _to.sub(_from).mul(BONUS_MULTIPLIER);\n        } else if (_from >= bonusEndBlock) {\n            return _to.sub(_from);\n        } else {\n            return\n                bonusEndBlock.sub(_from).mul(BONUS_MULTIPLIER).add(\n                    _to.sub(bonusEndBlock)\n                );\n        }\n    }\n\n    // View function to see pending SUSHIs on frontend.\n    function pendingSushi(uint256 _pid, address _user)\n        external\n        view\n        returns (uint256)\n    {\n        PoolInfo storage pool = poolInfo[_pid];\n        UserInfo storage user = userInfo[_pid][_user];\n        uint256 accSushiPerShare = pool.accSushiPerShare;\n        uint256 lpSupply = pool.lpToken.balanceOf(address(this));\n        if (block.number > pool.lastRewardBlock && lpSupply != 0) {\n            uint256 multiplier =\n                getMultiplier(pool.lastRewardBlock, block.number);\n            uint256 sushiReward =\n                multiplier.mul(sushiPerBlock).mul(pool.allocPoint).div(\n                    totalAllocPoint\n                );\n            accSushiPerShare = accSushiPerShare.add(\n                sushiReward.mul(1e12).div(lpSupply)\n            );\n        }\n        return user.amount.mul(accSushiPerShare).div(1e12).sub(user.rewardDebt);\n    }\n\n    // Update reward vairables for all pools. Be careful of gas spending!\n    function massUpdatePools() public {\n        uint256 length = poolInfo.length;\n        for (uint256 pid = 0; pid < length; ++pid) {\n            updatePool(pid);\n        }\n    }\n\n    // Update reward variables of the given pool to be up-to-date.\n    function updatePool(uint256 _pid) public {\n        PoolInfo storage pool = poolInfo[_pid];\n        if (block.number <= pool.lastRewardBlock) {\n            return;\n        }\n        uint256 lpSupply = pool.lpToken.balanceOf(address(this));\n        if (lpSupply == 0) {\n            pool.lastRewardBlock = block.number;\n            return;\n        }\n        uint256 multiplier = getMultiplier(pool.lastRewardBlock, block.number);\n        uint256 sushiReward =\n            multiplier.mul(sushiPerBlock).mul(pool.allocPoint).div(\n                totalAllocPoint\n            );\n        sushi.mint(devaddr, sushiReward.div(10));\n        sushi.mint(address(this), sushiReward);\n        pool.accSushiPerShare = pool.accSushiPerShare.add(\n            sushiReward.mul(1e12).div(lpSupply)\n        );\n        pool.lastRewardBlock = block.number;\n    }\n\n    // Deposit LP tokens to MasterChef for SUSHI allocation.\n    function deposit(uint256 _pid, uint256 _amount) public {\n        PoolInfo storage pool = poolInfo[_pid];\n        UserInfo storage user = userInfo[_pid][msg.sender];\n        updatePool(_pid);\n        if (user.amount > 0) {\n            uint256 pending =\n                user.amount.mul(pool.accSushiPerShare).div(1e12).sub(\n                    user.rewardDebt\n                );\n            safeSushiTransfer(msg.sender, pending);\n        }\n        pool.lpToken.safeTransferFrom(\n            address(msg.sender),\n            address(this),\n            _amount\n        );\n        user.amount = user.amount.add(_amount);\n        user.rewardDebt = user.amount.mul(pool.accSushiPerShare).div(1e12);\n        emit Deposit(msg.sender, _pid, _amount);\n    }\n\n    // Withdraw LP tokens from MasterChef.\n    function withdraw(uint256 _pid, uint256 _amount) public {\n        PoolInfo storage pool = poolInfo[_pid];\n        UserInfo storage user = userInfo[_pid][msg.sender];\n        require(user.amount >= _amount, \"withdraw: not good\");\n        updatePool(_pid);\n        uint256 pending =\n            user.amount.mul(pool.accSushiPerShare).div(1e12).sub(\n                user.rewardDebt\n            );\n        safeSushiTransfer(msg.sender, pending);\n        user.amount = user.amount.sub(_amount);\n        user.rewardDebt = user.amount.mul(pool.accSushiPerShare).div(1e12);\n        pool.lpToken.safeTransfer(address(msg.sender), _amount);\n        emit Withdraw(msg.sender, _pid, _amount);\n    }\n\n    // Withdraw without caring about rewards. EMERGENCY ONLY.\n    function emergencyWithdraw(uint256 _pid) public {\n        PoolInfo storage pool = poolInfo[_pid];\n        UserInfo storage user = userInfo[_pid][msg.sender];\n        pool.lpToken.safeTransfer(address(msg.sender), user.amount);\n        emit EmergencyWithdraw(msg.sender, _pid, user.amount);\n        user.amount = 0;\n        user.rewardDebt = 0;\n    }\n\n    // Safe sushi transfer function, just in case if rounding error causes pool to not have enough SUSHIs.\n    function safeSushiTransfer(address _to, uint256 _amount) internal {\n        uint256 sushiBal = sushi.balanceOf(address(this));\n        if (_amount > sushiBal) {\n            sushi.transfer(_to, sushiBal);\n        } else {\n            sushi.transfer(_to, _amount);\n        }\n    }\n\n    // Update dev address by the previous dev.\n    function dev(address _devaddr) public {\n        require(msg.sender == devaddr, \"dev: wut?\");\n        devaddr = _devaddr;\n    }\n}",
  "sourcePath": "/mnt/d/CubeProject/sushiswap_cube/contracts/MasterChef.sol",
  "compiler": {
    "name": "solc",
    "version": "0.8.11+commit.d7f03943.Emscripten.clang"
  },
  "schemaVersion": "3.4.8",
  "updatedAt": "2022-07-13T18:26:11.075Z",
  "networkType": "ethereum",
  "devdoc": {
    "kind": "dev",
    "methods": {
      "owner()": {
        "details": "Returns the address of the current owner."
      },
      "renounceOwnership()": {
        "details": "Leaves the contract without owner. It will not be possible to call `onlyOwner` functions anymore. Can only be called by the current owner. NOTE: Renouncing ownership will leave the contract without an owner, thereby removing any functionality that is only available to the owner."
      },
      "transferOwnership(address)": {
        "details": "Transfers ownership of the contract to a new account (`newOwner`). Can only be called by the current owner."
      }
    },
    "version": 1
  },
  "userdoc": {
    "kind": "user",
    "methods": {},
    "version": 1
  }
}