{
  "contractName": "MasterChefV2",
  "abi": [
    {
      "inputs": [
        {
          "internalType": "contract IMasterChef",
          "name": "_MASTER_CHEF",
          "type": "address"
        },
        {
          "internalType": "contract IERC20",
          "name": "_sushi",
          "type": "address"
        },
        {
          "internalType": "uint256",
          "name": "_MASTER_PID",
          "type": "uint256"
        }
      ],
      "stateMutability": "nonpayable",
      "type": "constructor"
    },
    {
      "inputs": [
        {
          "internalType": "bytes",
          "name": "innerError",
          "type": "bytes"
        }
      ],
      "name": "BatchError",
      "type": "error"
    },
    {
      "anonymous": false,
      "inputs": [
        {
          "indexed": true,
          "internalType": "address",
          "name": "user",
          "type": "address"
        },
        {
          "indexed": true,
          "internalType": "uint256",
          "name": "pid",
          "type": "uint256"
        },
        {
          "indexed": false,
          "internalType": "uint256",
          "name": "amount",
          "type": "uint256"
        },
        {
          "indexed": true,
          "internalType": "address",
          "name": "to",
          "type": "address"
        }
      ],
      "name": "Deposit",
      "type": "event"
    },
    {
      "anonymous": false,
      "inputs": [
        {
          "indexed": true,
          "internalType": "address",
          "name": "user",
          "type": "address"
        },
        {
          "indexed": true,
          "internalType": "uint256",
          "name": "pid",
          "type": "uint256"
        },
        {
          "indexed": false,
          "internalType": "uint256",
          "name": "amount",
          "type": "uint256"
        },
        {
          "indexed": true,
          "internalType": "address",
          "name": "to",
          "type": "address"
        }
      ],
      "name": "EmergencyWithdraw",
      "type": "event"
    },
    {
      "anonymous": false,
      "inputs": [
        {
          "indexed": true,
          "internalType": "address",
          "name": "user",
          "type": "address"
        },
        {
          "indexed": true,
          "internalType": "uint256",
          "name": "pid",
          "type": "uint256"
        },
        {
          "indexed": false,
          "internalType": "uint256",
          "name": "amount",
          "type": "uint256"
        }
      ],
      "name": "Harvest",
      "type": "event"
    },
    {
      "anonymous": false,
      "inputs": [],
      "name": "LogInit",
      "type": "event"
    },
    {
      "anonymous": false,
      "inputs": [
        {
          "indexed": true,
          "internalType": "uint256",
          "name": "pid",
          "type": "uint256"
        },
        {
          "indexed": false,
          "internalType": "uint256",
          "name": "allocPoint",
          "type": "uint256"
        },
        {
          "indexed": true,
          "internalType": "contract IERC20",
          "name": "lpToken",
          "type": "address"
        },
        {
          "indexed": true,
          "internalType": "contract IRewarder",
          "name": "rewarder",
          "type": "address"
        }
      ],
      "name": "LogPoolAddition",
      "type": "event"
    },
    {
      "anonymous": false,
      "inputs": [
        {
          "indexed": true,
          "internalType": "uint256",
          "name": "pid",
          "type": "uint256"
        },
        {
          "indexed": false,
          "internalType": "uint256",
          "name": "allocPoint",
          "type": "uint256"
        },
        {
          "indexed": true,
          "internalType": "contract IRewarder",
          "name": "rewarder",
          "type": "address"
        },
        {
          "indexed": false,
          "internalType": "bool",
          "name": "overwrite",
          "type": "bool"
        }
      ],
      "name": "LogSetPool",
      "type": "event"
    },
    {
      "anonymous": false,
      "inputs": [
        {
          "indexed": true,
          "internalType": "uint256",
          "name": "pid",
          "type": "uint256"
        },
        {
          "indexed": false,
          "internalType": "uint64",
          "name": "lastRewardBlock",
          "type": "uint64"
        },
        {
          "indexed": false,
          "internalType": "uint256",
          "name": "lpSupply",
          "type": "uint256"
        },
        {
          "indexed": false,
          "internalType": "uint256",
          "name": "accSushiPerShare",
          "type": "uint256"
        }
      ],
      "name": "LogUpdatePool",
      "type": "event"
    },
    {
      "anonymous": false,
      "inputs": [
        {
          "indexed": true,
          "internalType": "address",
          "name": "previousOwner",
          "type": "address"
        },
        {
          "indexed": true,
          "internalType": "address",
          "name": "newOwner",
          "type": "address"
        }
      ],
      "name": "OwnershipTransferred",
      "type": "event"
    },
    {
      "anonymous": false,
      "inputs": [
        {
          "indexed": true,
          "internalType": "address",
          "name": "user",
          "type": "address"
        },
        {
          "indexed": true,
          "internalType": "uint256",
          "name": "pid",
          "type": "uint256"
        },
        {
          "indexed": false,
          "internalType": "uint256",
          "name": "amount",
          "type": "uint256"
        },
        {
          "indexed": true,
          "internalType": "address",
          "name": "to",
          "type": "address"
        }
      ],
      "name": "Withdraw",
      "type": "event"
    },
    {
      "inputs": [],
      "name": "MASTER_CHEF",
      "outputs": [
        {
          "internalType": "contract IMasterChef",
          "name": "",
          "type": "address"
        }
      ],
      "stateMutability": "view",
      "type": "function"
    },
    {
      "inputs": [],
      "name": "MASTER_PID",
      "outputs": [
        {
          "internalType": "uint256",
          "name": "",
          "type": "uint256"
        }
      ],
      "stateMutability": "view",
      "type": "function"
    },
    {
      "inputs": [],
      "name": "SUSHI",
      "outputs": [
        {
          "internalType": "contract IERC20",
          "name": "",
          "type": "address"
        }
      ],
      "stateMutability": "view",
      "type": "function"
    },
    {
      "inputs": [
        {
          "internalType": "bytes[]",
          "name": "calls",
          "type": "bytes[]"
        },
        {
          "internalType": "bool",
          "name": "revertOnFail",
          "type": "bool"
        }
      ],
      "name": "batch",
      "outputs": [],
      "stateMutability": "payable",
      "type": "function"
    },
    {
      "inputs": [],
      "name": "claimOwnership",
      "outputs": [],
      "stateMutability": "nonpayable",
      "type": "function"
    },
    {
      "inputs": [
        {
          "internalType": "uint256",
          "name": "",
          "type": "uint256"
        }
      ],
      "name": "lpToken",
      "outputs": [
        {
          "internalType": "contract IERC20",
          "name": "",
          "type": "address"
        }
      ],
      "stateMutability": "view",
      "type": "function"
    },
    {
      "inputs": [],
      "name": "migrator",
      "outputs": [
        {
          "internalType": "contract IMigratorChef",
          "name": "",
          "type": "address"
        }
      ],
      "stateMutability": "view",
      "type": "function"
    },
    {
      "inputs": [],
      "name": "owner",
      "outputs": [
        {
          "internalType": "address",
          "name": "",
          "type": "address"
        }
      ],
      "stateMutability": "view",
      "type": "function"
    },
    {
      "inputs": [],
      "name": "pendingOwner",
      "outputs": [
        {
          "internalType": "address",
          "name": "",
          "type": "address"
        }
      ],
      "stateMutability": "view",
      "type": "function"
    },
    {
      "inputs": [
        {
          "internalType": "contract IERC20",
          "name": "token",
          "type": "address"
        },
        {
          "internalType": "address",
          "name": "from",
          "type": "address"
        },
        {
          "internalType": "address",
          "name": "to",
          "type": "address"
        },
        {
          "internalType": "uint256",
          "name": "amount",
          "type": "uint256"
        },
        {
          "internalType": "uint256",
          "name": "deadline",
          "type": "uint256"
        },
        {
          "internalType": "uint8",
          "name": "v",
          "type": "uint8"
        },
        {
          "internalType": "bytes32",
          "name": "r",
          "type": "bytes32"
        },
        {
          "internalType": "bytes32",
          "name": "s",
          "type": "bytes32"
        }
      ],
      "name": "permitToken",
      "outputs": [],
      "stateMutability": "nonpayable",
      "type": "function"
    },
    {
      "inputs": [
        {
          "internalType": "uint256",
          "name": "",
          "type": "uint256"
        }
      ],
      "name": "poolInfo",
      "outputs": [
        {
          "internalType": "uint128",
          "name": "accSushiPerShare",
          "type": "uint128"
        },
        {
          "internalType": "uint64",
          "name": "lastRewardBlock",
          "type": "uint64"
        },
        {
          "internalType": "uint64",
          "name": "allocPoint",
          "type": "uint64"
        }
      ],
      "stateMutability": "view",
      "type": "function"
    },
    {
      "inputs": [
        {
          "internalType": "uint256",
          "name": "",
          "type": "uint256"
        }
      ],
      "name": "rewarder",
      "outputs": [
        {
          "internalType": "contract IRewarder",
          "name": "",
          "type": "address"
        }
      ],
      "stateMutability": "view",
      "type": "function"
    },
    {
      "inputs": [],
      "name": "totalAllocPoint",
      "outputs": [
        {
          "internalType": "uint256",
          "name": "",
          "type": "uint256"
        }
      ],
      "stateMutability": "view",
      "type": "function"
    },
    {
      "inputs": [
        {
          "internalType": "address",
          "name": "newOwner",
          "type": "address"
        },
        {
          "internalType": "bool",
          "name": "direct",
          "type": "bool"
        },
        {
          "internalType": "bool",
          "name": "renounce",
          "type": "bool"
        }
      ],
      "name": "transferOwnership",
      "outputs": [],
      "stateMutability": "nonpayable",
      "type": "function"
    },
    {
      "inputs": [
        {
          "internalType": "uint256",
          "name": "",
          "type": "uint256"
        },
        {
          "internalType": "address",
          "name": "",
          "type": "address"
        }
      ],
      "name": "userInfo",
      "outputs": [
        {
          "internalType": "uint256",
          "name": "amount",
          "type": "uint256"
        },
        {
          "internalType": "int256",
          "name": "rewardDebt",
          "type": "int256"
        }
      ],
      "stateMutability": "view",
      "type": "function"
    },
    {
      "inputs": [
        {
          "internalType": "contract IERC20",
          "name": "dummyToken",
          "type": "address"
        }
      ],
      "name": "init",
      "outputs": [],
      "stateMutability": "nonpayable",
      "type": "function"
    },
    {
      "inputs": [],
      "name": "poolLength",
      "outputs": [
        {
          "internalType": "uint256",
          "name": "pools",
          "type": "uint256"
        }
      ],
      "stateMutability": "view",
      "type": "function"
    },
    {
      "inputs": [
        {
          "internalType": "uint256",
          "name": "allocPoint",
          "type": "uint256"
        },
        {
          "internalType": "contract IERC20",
          "name": "_lpToken",
          "type": "address"
        },
        {
          "internalType": "contract IRewarder",
          "name": "_rewarder",
          "type": "address"
        }
      ],
      "name": "add",
      "outputs": [],
      "stateMutability": "nonpayable",
      "type": "function"
    },
    {
      "inputs": [
        {
          "internalType": "uint256",
          "name": "_pid",
          "type": "uint256"
        },
        {
          "internalType": "uint256",
          "name": "_allocPoint",
          "type": "uint256"
        },
        {
          "internalType": "contract IRewarder",
          "name": "_rewarder",
          "type": "address"
        },
        {
          "internalType": "bool",
          "name": "overwrite",
          "type": "bool"
        }
      ],
      "name": "set",
      "outputs": [],
      "stateMutability": "nonpayable",
      "type": "function"
    },
    {
      "inputs": [
        {
          "internalType": "contract IMigratorChef",
          "name": "_migrator",
          "type": "address"
        }
      ],
      "name": "setMigrator",
      "outputs": [],
      "stateMutability": "nonpayable",
      "type": "function"
    },
    {
      "inputs": [
        {
          "internalType": "uint256",
          "name": "_pid",
          "type": "uint256"
        }
      ],
      "name": "migrate",
      "outputs": [],
      "stateMutability": "nonpayable",
      "type": "function"
    },
    {
      "inputs": [
        {
          "internalType": "uint256",
          "name": "_pid",
          "type": "uint256"
        },
        {
          "internalType": "address",
          "name": "_user",
          "type": "address"
        }
      ],
      "name": "pendingSushi",
      "outputs": [
        {
          "internalType": "uint256",
          "name": "pending",
          "type": "uint256"
        }
      ],
      "stateMutability": "view",
      "type": "function"
    },
    {
      "inputs": [
        {
          "internalType": "uint256[]",
          "name": "pids",
          "type": "uint256[]"
        }
      ],
      "name": "massUpdatePools",
      "outputs": [],
      "stateMutability": "nonpayable",
      "type": "function"
    },
    {
      "inputs": [],
      "name": "sushiPerBlock",
      "outputs": [
        {
          "internalType": "uint256",
          "name": "amount",
          "type": "uint256"
        }
      ],
      "stateMutability": "view",
      "type": "function"
    },
    {
      "inputs": [
        {
          "internalType": "uint256",
          "name": "pid",
          "type": "uint256"
        }
      ],
      "name": "updatePool",
      "outputs": [
        {
          "components": [
            {
              "internalType": "uint128",
              "name": "accSushiPerShare",
              "type": "uint128"
            },
            {
              "internalType": "uint64",
              "name": "lastRewardBlock",
              "type": "uint64"
            },
            {
              "internalType": "uint64",
              "name": "allocPoint",
              "type": "uint64"
            }
          ],
          "internalType": "struct MasterChefV2.PoolInfo",
          "name": "pool",
          "type": "tuple"
        }
      ],
      "stateMutability": "nonpayable",
      "type": "function"
    },
    {
      "inputs": [
        {
          "internalType": "uint256",
          "name": "pid",
          "type": "uint256"
        },
        {
          "internalType": "uint256",
          "name": "amount",
          "type": "uint256"
        },
        {
          "internalType": "address",
          "name": "to",
          "type": "address"
        }
      ],
      "name": "deposit",
      "outputs": [],
      "stateMutability": "nonpayable",
      "type": "function"
    },
    {
      "inputs": [
        {
          "internalType": "uint256",
          "name": "pid",
          "type": "uint256"
        },
        {
          "internalType": "uint256",
          "name": "amount",
          "type": "uint256"
        },
        {
          "internalType": "address",
          "name": "to",
          "type": "address"
        }
      ],
      "name": "withdraw",
      "outputs": [],
      "stateMutability": "nonpayable",
      "type": "function"
    },
    {
      "inputs": [
        {
          "internalType": "uint256",
          "name": "pid",
          "type": "uint256"
        },
        {
          "internalType": "address",
          "name": "to",
          "type": "address"
        }
      ],
      "name": "harvest",
      "outputs": [],
      "stateMutability": "nonpayable",
      "type": "function"
    },
    {
      "inputs": [
        {
          "internalType": "uint256",
          "name": "pid",
          "type": "uint256"
        },
        {
          "internalType": "uint256",
          "name": "amount",
          "type": "uint256"
        },
        {
          "internalType": "address",
          "name": "to",
          "type": "address"
        }
      ],
      "name": "withdrawAndHarvest",
      "outputs": [],
      "stateMutability": "nonpayable",
      "type": "function"
    },
    {
      "inputs": [],
      "name": "harvestFromMasterChef",
      "outputs": [],
      "stateMutability": "nonpayable",
      "type": "function"
    },
    {
      "inputs": [
        {
          "internalType": "uint256",
          "name": "pid",
          "type": "uint256"
        },
        {
          "internalType": "address",
          "name": "to",
          "type": "address"
        }
      ],
      "name": "emergencyWithdraw",
      "outputs": [],
      "stateMutability": "nonpayable",
      "type": "function"
    }
  ],
  "bytecode": "0x60e06040523480156200001157600080fd5b5060405162004fca38038062004fca833981810160405281019062000037919062000249565b336000806101000a81548173ffffffffffffffffffffffffffffffffffffffff021916908373ffffffffffffffffffffffffffffffffffffffff1602179055503373ffffffffffffffffffffffffffffffffffffffff16600073ffffffffffffffffffffffffffffffffffffffff167f8be0079c531659141344cd1fd0a4f28419497f9722a3daafe3b4186f6b6457e060405160405180910390a38273ffffffffffffffffffffffffffffffffffffffff1660808173ffffffffffffffffffffffffffffffffffffffff16815250508173ffffffffffffffffffffffffffffffffffffffff1660a08173ffffffffffffffffffffffffffffffffffffffff16815250508060c08181525050505050620002a5565b600080fd5b600073ffffffffffffffffffffffffffffffffffffffff82169050919050565b60006200017d8262000150565b9050919050565b6000620001918262000170565b9050919050565b620001a38162000184565b8114620001af57600080fd5b50565b600081519050620001c38162000198565b92915050565b6000620001d68262000170565b9050919050565b620001e881620001c9565b8114620001f457600080fd5b50565b6000815190506200020881620001dd565b92915050565b6000819050919050565b62000223816200020e565b81146200022f57600080fd5b50565b600081519050620002438162000218565b92915050565b6000806000606084860312156200026557620002646200014b565b5b60006200027586828701620001b2565b93505060206200028886828701620001f7565b92505060406200029b8682870162000232565b9150509250925092565b60805160a05160c051614caf6200031b600039600081816113a401528181611ccd0152818161212c0152612b32015260008181610d610152818161274f0152612d270152600081816112e50152818161136801528181611c9101528181612a6701528181612af6015261307f0152614caf6000f3fe6080604052600436106101d85760003560e01c806361621aaa11610102578063ab560e1011610095578063d1abb90711610064578063d1abb90714610695578063d2423b51146106be578063e30c3978146106da578063edd8b17014610705576101d8565b8063ab560e10146105d9578063ab7de09814610604578063b0bcf42a1461062d578063c346253d14610658576101d8565b806388bba42f116100d157806388bba42f1461051e5780638da5cb5b146105475780638dbdbe6d1461057257806393f1a40b1461059b576101d8565b806361621aaa1461046257806378ed5d1f1461048d5780637c516e94146104ca5780637cd07e47146104f3576101d8565b806319ab453c1161017a5780634e71e0c8116101495780634e71e0c8146103ce5780634f70b15a146103e557806351eb05a6146103fc57806357a5b58c14610439576101d8565b806319ab453c1461032a57806323cf3118146103535780632f940c701461037c578063454b0608146103a5576101d8565b80631526fe27116101b65780631526fe271461025a57806317caf6f11461029957806318fccc76146102c4578063195426ec146102ed576101d8565b8063078dfbe7146101dd578063081e3eda146102065780630ad58d2f14610231575b600080fd5b3480156101e957600080fd5b5061020460048036038101906101ff91906134dc565b610730565b005b34801561021257600080fd5b5061021b610984565b6040516102289190613548565b60405180910390f35b34801561023d57600080fd5b506102586004803603810190610253919061358f565b610991565b005b34801561026657600080fd5b50610281600480360381019061027c91906135e2565b610c1a565b6040516102909392919061365d565b60405180910390f35b3480156102a557600080fd5b506102ae610c94565b6040516102bb9190613548565b60405180910390f35b3480156102d057600080fd5b506102eb60048036038101906102e69190613694565b610c9a565b005b3480156102f957600080fd5b50610314600480360381019061030f9190613694565b610eed565b6040516103219190613548565b60405180910390f35b34801561033657600080fd5b50610351600480360381019061034c9190613712565b6111d9565b005b34801561035f57600080fd5b5061037a6004803603810190610375919061377d565b611443565b005b34801561038857600080fd5b506103a3600480360381019061039e9190613694565b611515565b005b3480156103b157600080fd5b506103cc60048036038101906103c791906135e2565b611748565b005b3480156103da57600080fd5b506103e3611afb565b005b3480156103f157600080fd5b506103fa611c8f565b005b34801561040857600080fd5b50610423600480360381019061041e91906135e2565b611d3f565b604051610430919061380a565b60405180910390f35b34801561044557600080fd5b50610460600480360381019061045b919061388a565b6120dd565b005b34801561046e57600080fd5b5061047761212a565b6040516104849190613548565b60405180910390f35b34801561049957600080fd5b506104b460048036038101906104af91906135e2565b61214e565b6040516104c19190613936565b60405180910390f35b3480156104d657600080fd5b506104f160048036038101906104ec91906139c0565b61218d565b005b3480156104ff57600080fd5b5061050861220e565b6040516105159190613a97565b60405180910390f35b34801561052a57600080fd5b5061054560048036038101906105409190613af0565b612234565b005b34801561055357600080fd5b5061055c61246d565b6040516105699190613b66565b60405180910390f35b34801561057e57600080fd5b506105996004803603810190610594919061358f565b612491565b005b3480156105a757600080fd5b506105c260048036038101906105bd9190613694565b61271c565b6040516105d0929190613b9a565b60405180910390f35b3480156105e557600080fd5b506105ee61274d565b6040516105fb9190613936565b60405180910390f35b34801561061057600080fd5b5061062b60048036038101906106269190613bc3565b612771565b005b34801561063957600080fd5b50610642612a63565b60405161064f9190613548565b60405180910390f35b34801561066457600080fd5b5061067f600480360381019061067a91906135e2565b612bd5565b60405161068c9190613c37565b60405180910390f35b3480156106a157600080fd5b506106bc60048036038101906106b7919061358f565b612c14565b005b6106d860048036038101906106d39190613ca8565b612f82565b005b3480156106e657600080fd5b506106ef613057565b6040516106fc9190613b66565b60405180910390f35b34801561071157600080fd5b5061071a61307d565b6040516107279190613d29565b60405180910390f35b60008054906101000a900473ffffffffffffffffffffffffffffffffffffffff1673ffffffffffffffffffffffffffffffffffffffff163373ffffffffffffffffffffffffffffffffffffffff16146107be576040517f08c379a00000000000000000000000000000000000000000000000000000000081526004016107b590613da1565b60405180910390fd5b811561093d57600073ffffffffffffffffffffffffffffffffffffffff168373ffffffffffffffffffffffffffffffffffffffff161415806107fd5750805b61083c576040517f08c379a000000000000000000000000000000000000000000000000000000000815260040161083390613e0d565b60405180910390fd5b8273ffffffffffffffffffffffffffffffffffffffff1660008054906101000a900473ffffffffffffffffffffffffffffffffffffffff1673ffffffffffffffffffffffffffffffffffffffff167f8be0079c531659141344cd1fd0a4f28419497f9722a3daafe3b4186f6b6457e060405160405180910390a3826000806101000a81548173ffffffffffffffffffffffffffffffffffffffff021916908373ffffffffffffffffffffffffffffffffffffffff1602179055506000600160006101000a81548173ffffffffffffffffffffffffffffffffffffffff021916908373ffffffffffffffffffffffffffffffffffffffff16021790555061097f565b82600160006101000a81548173ffffffffffffffffffffffffffffffffffffffff021916908373ffffffffffffffffffffffffffffffffffffffff1602179055505b505050565b6000600380549050905090565b600061099c84611d3f565b905060006006600086815260200190815260200160002060003373ffffffffffffffffffffffffffffffffffffffff1673ffffffffffffffffffffffffffffffffffffffff168152602001908152602001600020905064e8d4a5100082600001516fffffffffffffffffffffffffffffffff1685610a1a9190613e5c565b610a249190613ee5565b8160010154610a339190613f16565b8160010181905550838160000154610a4b9190613faa565b8160000181905550600060058681548110610a6957610a68613fde565b5b9060005260206000200160009054906101000a900473ffffffffffffffffffffffffffffffffffffffff169050600073ffffffffffffffffffffffffffffffffffffffff168173ffffffffffffffffffffffffffffffffffffffff1614610b43578073ffffffffffffffffffffffffffffffffffffffff16638bf63742873387600087600001546040518663ffffffff1660e01b8152600401610b10959493929190614048565b600060405180830381600087803b158015610b2a57600080fd5b505af1158015610b3e573d6000803e3d6000fd5b505050505b610bac848660048981548110610b5c57610b5b613fde565b5b9060005260206000200160009054906101000a900473ffffffffffffffffffffffffffffffffffffffff1673ffffffffffffffffffffffffffffffffffffffff166130a19092919063ffffffff16565b8373ffffffffffffffffffffffffffffffffffffffff16863373ffffffffffffffffffffffffffffffffffffffff167f8166bf25f8a2b7ed3c85049207da4358d16edbed977d23fa2ee6f0dde3ec213288604051610c0a9190613548565b60405180910390a4505050505050565b60038181548110610c2a57600080fd5b906000526020600020016000915090508060000160009054906101000a90046fffffffffffffffffffffffffffffffff16908060000160109054906101000a900467ffffffffffffffff16908060000160189054906101000a900467ffffffffffffffff16905083565b60075481565b6000610ca583611d3f565b905060006006600085815260200190815260200160002060003373ffffffffffffffffffffffffffffffffffffffff1673ffffffffffffffffffffffffffffffffffffffff1681526020019081526020016000209050600064e8d4a5100083600001516fffffffffffffffffffffffffffffffff168360000154610d299190613e5c565b610d339190613ee5565b90506000826001015482610d479190613f16565b905081836001018190555060008114610da657610da585827f000000000000000000000000000000000000000000000000000000000000000073ffffffffffffffffffffffffffffffffffffffff166130a19092919063ffffffff16565b5b600060058781548110610dbc57610dbb613fde565b5b9060005260206000200160009054906101000a900473ffffffffffffffffffffffffffffffffffffffff169050600073ffffffffffffffffffffffffffffffffffffffff168173ffffffffffffffffffffffffffffffffffffffff1614610e95578073ffffffffffffffffffffffffffffffffffffffff16638bf637428833898689600001546040518663ffffffff1660e01b8152600401610e6295949392919061409b565b600060405180830381600087803b158015610e7c57600080fd5b505af1158015610e90573d6000803e3d6000fd5b505050505b863373ffffffffffffffffffffffffffffffffffffffff167f71bab65ced2e5750775a0613be067df48ef06cf92a496ebf7663ae066092495484604051610edc9190613548565b60405180910390a350505050505050565b60008060038481548110610f0457610f03613fde565b5b906000526020600020016040518060600160405290816000820160009054906101000a90046fffffffffffffffffffffffffffffffff166fffffffffffffffffffffffffffffffff166fffffffffffffffffffffffffffffffff1681526020016000820160109054906101000a900467ffffffffffffffff1667ffffffffffffffff1667ffffffffffffffff1681526020016000820160189054906101000a900467ffffffffffffffff1667ffffffffffffffff1667ffffffffffffffff1681525050905060006006600086815260200190815260200160002060008573ffffffffffffffffffffffffffffffffffffffff1673ffffffffffffffffffffffffffffffffffffffff1681526020019081526020016000209050600082600001516fffffffffffffffffffffffffffffffff16905060006004878154811061104e5761104d613fde565b5b9060005260206000200160009054906101000a900473ffffffffffffffffffffffffffffffffffffffff1673ffffffffffffffffffffffffffffffffffffffff166370a08231306040518263ffffffff1660e01b81526004016110b19190613b66565b602060405180830381865afa1580156110ce573d6000803e3d6000fd5b505050506040513d601f19601f820116820180604052508101906110f29190614103565b9050836020015167ffffffffffffffff1643118015611112575060008114155b1561119e576000846020015167ffffffffffffffff16436111339190614130565b90506000600754866040015167ffffffffffffffff16611151612a63565b8461115c9190613e5c565b6111669190613e5c565b6111709190613ee5565b90508264e8d4a51000826111849190613e5c565b61118e9190613ee5565b846111999190614130565b935050505b826001015464e8d4a510008385600001546111b99190613e5c565b6111c39190613ee5565b6111cd9190613faa565b94505050505092915050565b60008173ffffffffffffffffffffffffffffffffffffffff166370a08231336040518263ffffffff1660e01b81526004016112149190613b66565b602060405180830381865afa158015611231573d6000803e3d6000fd5b505050506040513d601f19601f820116820180604052508101906112559190614103565b90506000810361129a576040517f08c379a0000000000000000000000000000000000000000000000000000000008152600401611291906141f8565b60405180910390fd5b6112c73330838573ffffffffffffffffffffffffffffffffffffffff166131f6909392919063ffffffff16565b8173ffffffffffffffffffffffffffffffffffffffff1663095ea7b37f0000000000000000000000000000000000000000000000000000000000000000836040518363ffffffff1660e01b8152600401611322929190614218565b6020604051808303816000875af1158015611341573d6000803e3d6000fd5b505050506040513d601f19601f820116820180604052508101906113659190614256565b507f000000000000000000000000000000000000000000000000000000000000000073ffffffffffffffffffffffffffffffffffffffff1663e2bbb1587f0000000000000000000000000000000000000000000000000000000000000000836040518363ffffffff1660e01b81526004016113e1929190614283565b600060405180830381600087803b1580156113fb57600080fd5b505af115801561140f573d6000803e3d6000fd5b505050507f98a9bd3b7a617581fc53b1e2992534e0e0cb5091c9d44aa1a7fc978f706caa8360405160405180910390a15050565b60008054906101000a900473ffffffffffffffffffffffffffffffffffffffff1673ffffffffffffffffffffffffffffffffffffffff163373ffffffffffffffffffffffffffffffffffffffff16146114d1576040517f08c379a00000000000000000000000000000000000000000000000000000000081526004016114c890613da1565b60405180910390fd5b80600260006101000a81548173ffffffffffffffffffffffffffffffffffffffff021916908373ffffffffffffffffffffffffffffffffffffffff16021790555050565b60006006600084815260200190815260200160002060003373ffffffffffffffffffffffffffffffffffffffff1673ffffffffffffffffffffffffffffffffffffffff1681526020019081526020016000209050600081600001549050600082600001819055506000826001018190555060006005858154811061159c5761159b613fde565b5b9060005260206000200160009054906101000a900473ffffffffffffffffffffffffffffffffffffffff169050600073ffffffffffffffffffffffffffffffffffffffff168173ffffffffffffffffffffffffffffffffffffffff1614611672578073ffffffffffffffffffffffffffffffffffffffff16638bf637428633876000806040518663ffffffff1660e01b815260040161163f9594939291906142ac565b600060405180830381600087803b15801561165957600080fd5b505af115801561166d573d6000803e3d6000fd5b505050505b6116db84836004888154811061168b5761168a613fde565b5b9060005260206000200160009054906101000a900473ffffffffffffffffffffffffffffffffffffffff1673ffffffffffffffffffffffffffffffffffffffff166130a19092919063ffffffff16565b8373ffffffffffffffffffffffffffffffffffffffff16853373ffffffffffffffffffffffffffffffffffffffff167f2cac5e20e1541d836381527a43f651851e302817b71dc8e810284e69210c1c6b856040516117399190613548565b60405180910390a45050505050565b600073ffffffffffffffffffffffffffffffffffffffff16600260009054906101000a900473ffffffffffffffffffffffffffffffffffffffff1673ffffffffffffffffffffffffffffffffffffffff16036117d9576040517f08c379a00000000000000000000000000000000000000000000000000000000081526004016117d09061434b565b60405180910390fd5b6000600482815481106117ef576117ee613fde565b5b9060005260206000200160009054906101000a900473ffffffffffffffffffffffffffffffffffffffff16905060008173ffffffffffffffffffffffffffffffffffffffff166370a08231306040518263ffffffff1660e01b81526004016118579190613b66565b602060405180830381865afa158015611874573d6000803e3d6000fd5b505050506040513d601f19601f820116820180604052508101906118989190614103565b90508173ffffffffffffffffffffffffffffffffffffffff1663095ea7b3600260009054906101000a900473ffffffffffffffffffffffffffffffffffffffff16836040518363ffffffff1660e01b81526004016118f7929190614218565b6020604051808303816000875af1158015611916573d6000803e3d6000fd5b505050506040513d601f19601f8201168201806040525081019061193a9190614256565b506000600260009054906101000a900473ffffffffffffffffffffffffffffffffffffffff1673ffffffffffffffffffffffffffffffffffffffff1663ce5494bb846040518263ffffffff1660e01b81526004016119989190613936565b6020604051808303816000875af11580156119b7573d6000803e3d6000fd5b505050506040513d601f19601f820116820180604052508101906119db9190614380565b90508073ffffffffffffffffffffffffffffffffffffffff166370a08231306040518263ffffffff1660e01b8152600401611a169190613b66565b602060405180830381865afa158015611a33573d6000803e3d6000fd5b505050506040513d601f19601f82011682018060405250810190611a579190614103565b8214611a98576040517f08c379a0000000000000000000000000000000000000000000000000000000008152600401611a8f9061441f565b60405180910390fd5b8060048581548110611aad57611aac613fde565b5b9060005260206000200160006101000a81548173ffffffffffffffffffffffffffffffffffffffff021916908373ffffffffffffffffffffffffffffffffffffffff16021790555050505050565b6000600160009054906101000a900473ffffffffffffffffffffffffffffffffffffffff1690508073ffffffffffffffffffffffffffffffffffffffff163373ffffffffffffffffffffffffffffffffffffffff1614611b90576040517f08c379a0000000000000000000000000000000000000000000000000000000008152600401611b879061448b565b60405180910390fd5b8073ffffffffffffffffffffffffffffffffffffffff1660008054906101000a900473ffffffffffffffffffffffffffffffffffffffff1673ffffffffffffffffffffffffffffffffffffffff167f8be0079c531659141344cd1fd0a4f28419497f9722a3daafe3b4186f6b6457e060405160405180910390a3806000806101000a81548173ffffffffffffffffffffffffffffffffffffffff021916908373ffffffffffffffffffffffffffffffffffffffff1602179055506000600160006101000a81548173ffffffffffffffffffffffffffffffffffffffff021916908373ffffffffffffffffffffffffffffffffffffffff16021790555050565b7f000000000000000000000000000000000000000000000000000000000000000073ffffffffffffffffffffffffffffffffffffffff1663e2bbb1587f000000000000000000000000000000000000000000000000000000000000000060006040518363ffffffff1660e01b8152600401611d0b9291906144ab565b600060405180830381600087803b158015611d2557600080fd5b505af1158015611d39573d6000803e3d6000fd5b50505050565b611d476133eb565b60038281548110611d5b57611d5a613fde565b5b906000526020600020016040518060600160405290816000820160009054906101000a90046fffffffffffffffffffffffffffffffff166fffffffffffffffffffffffffffffffff166fffffffffffffffffffffffffffffffff1681526020016000820160109054906101000a900467ffffffffffffffff1667ffffffffffffffff1667ffffffffffffffff1681526020016000820160189054906101000a900467ffffffffffffffff1667ffffffffffffffff1667ffffffffffffffff16815250509050806020015167ffffffffffffffff164311156120d857600060048381548110611e4c57611e4b613fde565b5b9060005260206000200160009054906101000a900473ffffffffffffffffffffffffffffffffffffffff1673ffffffffffffffffffffffffffffffffffffffff166370a08231306040518263ffffffff1660e01b8152600401611eaf9190613b66565b602060405180830381865afa158015611ecc573d6000803e3d6000fd5b505050506040513d601f19601f82011682018060405250810190611ef09190614103565b90506000811115611fb3576000826020015167ffffffffffffffff1643611f179190613faa565b90506000600754846040015167ffffffffffffffff16611f35612a63565b84611f409190613e5c565b611f4a9190613e5c565b611f549190613ee5565b90508264e8d4a5100082611f689190613e5c565b611f729190613ee5565b8460000151611f8191906144d4565b84600001906fffffffffffffffffffffffffffffffff1690816fffffffffffffffffffffffffffffffff168152505050505b43826020019067ffffffffffffffff16908167ffffffffffffffff16815250508160038481548110611fe857611fe7613fde565b5b9060005260206000200160008201518160000160006101000a8154816fffffffffffffffffffffffffffffffff02191690836fffffffffffffffffffffffffffffffff16021790555060208201518160000160106101000a81548167ffffffffffffffff021916908367ffffffffffffffff16021790555060408201518160000160186101000a81548167ffffffffffffffff021916908367ffffffffffffffff160217905550905050827f0fc9545022a542541ad085d091fb09a2ab36fee366a4576ab63714ea907ad35383602001518385600001516040516120ce9392919061454b565b60405180910390a2505b919050565b600082829050905060005b818110156121245761211284848381811061210657612105613fde565b5b90506020020135611d3f565b508061211d90614582565b90506120e8565b50505050565b7f000000000000000000000000000000000000000000000000000000000000000081565b6004818154811061215e57600080fd5b906000526020600020016000915054906101000a900473ffffffffffffffffffffffffffffffffffffffff1681565b8773ffffffffffffffffffffffffffffffffffffffff1663d505accf888888888888886040518863ffffffff1660e01b81526004016121d297969594939291906145e8565b600060405180830381600087803b1580156121ec57600080fd5b505af1158015612200573d6000803e3d6000fd5b505050505050505050505050565b600260009054906101000a900473ffffffffffffffffffffffffffffffffffffffff1681565b60008054906101000a900473ffffffffffffffffffffffffffffffffffffffff1673ffffffffffffffffffffffffffffffffffffffff163373ffffffffffffffffffffffffffffffffffffffff16146122c2576040517f08c379a00000000000000000000000000000000000000000000000000000000081526004016122b990613da1565b60405180910390fd5b82600385815481106122d7576122d6613fde565b5b9060005260206000200160000160189054906101000a900467ffffffffffffffff1667ffffffffffffffff166007546123109190613faa565b61231a9190614130565b600781905550826003858154811061233557612334613fde565b5b9060005260206000200160000160186101000a81548167ffffffffffffffff021916908367ffffffffffffffff16021790555080156123cc57816005858154811061238357612382613fde565b5b9060005260206000200160006101000a81548173ffffffffffffffffffffffffffffffffffffffff021916908373ffffffffffffffffffffffffffffffffffffffff1602179055505b8061241557600584815481106123e5576123e4613fde565b5b9060005260206000200160009054906101000a900473ffffffffffffffffffffffffffffffffffffffff16612417565b815b73ffffffffffffffffffffffffffffffffffffffff16847f95895a6ab1df54420d241b55243258a33e61b2194db66c1179ec521aae8e1865858460405161245f929190614666565b60405180910390a350505050565b60008054906101000a900473ffffffffffffffffffffffffffffffffffffffff1681565b600061249c84611d3f565b905060006006600086815260200190815260200160002060008473ffffffffffffffffffffffffffffffffffffffff1673ffffffffffffffffffffffffffffffffffffffff16815260200190815260200160002090508381600001546125029190614130565b816000018190555064e8d4a5100082600001516fffffffffffffffffffffffffffffffff16856125329190613e5c565b61253c9190613ee5565b816001015461254b919061468f565b816001018190555060006005868154811061256957612568613fde565b5b9060005260206000200160009054906101000a900473ffffffffffffffffffffffffffffffffffffffff169050600073ffffffffffffffffffffffffffffffffffffffff168173ffffffffffffffffffffffffffffffffffffffff1614612643578073ffffffffffffffffffffffffffffffffffffffff16638bf63742878687600087600001546040518663ffffffff1660e01b8152600401612610959493929190614048565b600060405180830381600087803b15801561262a57600080fd5b505af115801561263e573d6000803e3d6000fd5b505050505b6126ae33308760048a8154811061265d5761265c613fde565b5b9060005260206000200160009054906101000a900473ffffffffffffffffffffffffffffffffffffffff1673ffffffffffffffffffffffffffffffffffffffff166131f6909392919063ffffffff16565b8373ffffffffffffffffffffffffffffffffffffffff16863373ffffffffffffffffffffffffffffffffffffffff167f02d7e648dd130fc184d383e55bb126ac4c9c60e8f94bf05acdf557ba2d540b478860405161270c9190613548565b60405180910390a4505050505050565b6006602052816000526040600020602052806000526040600020600091509150508060000154908060010154905082565b7f000000000000000000000000000000000000000000000000000000000000000081565b60008054906101000a900473ffffffffffffffffffffffffffffffffffffffff1673ffffffffffffffffffffffffffffffffffffffff163373ffffffffffffffffffffffffffffffffffffffff16146127ff576040517f08c379a00000000000000000000000000000000000000000000000000000000081526004016127f690613da1565b60405180910390fd5b6000439050836007546128129190614130565b6007819055506004839080600181540180825580915050600190039060005260206000200160009091909190916101000a81548173ffffffffffffffffffffffffffffffffffffffff021916908373ffffffffffffffffffffffffffffffffffffffff1602179055506005829080600181540180825580915050600190039060005260206000200160009091909190916101000a81548173ffffffffffffffffffffffffffffffffffffffff021916908373ffffffffffffffffffffffffffffffffffffffff1602179055506003604051806060016040528060006fffffffffffffffffffffffffffffffff1681526020018367ffffffffffffffff1681526020018667ffffffffffffffff168152509080600181540180825580915050600190039060005260206000200160009091909190915060008201518160000160006101000a8154816fffffffffffffffffffffffffffffffff02191690836fffffffffffffffffffffffffffffffff16021790555060208201518160000160106101000a81548167ffffffffffffffff021916908367ffffffffffffffff16021790555060408201518160000160186101000a81548167ffffffffffffffff021916908367ffffffffffffffff16021790555050508173ffffffffffffffffffffffffffffffffffffffff168373ffffffffffffffffffffffffffffffffffffffff166001600480549050612a269190613faa565b7f81ee0f8c5c46e2cb41984886f77a84181724abb86c32a5f6de539b07509d45e587604051612a559190613548565b60405180910390a450505050565b60007f000000000000000000000000000000000000000000000000000000000000000073ffffffffffffffffffffffffffffffffffffffff166317caf6f16040518163ffffffff1660e01b8152600401602060405180830381865afa158015612ad0573d6000803e3d6000fd5b505050506040513d601f19601f82011682018060405250810190612af49190614103565b7f000000000000000000000000000000000000000000000000000000000000000073ffffffffffffffffffffffffffffffffffffffff16631526fe277f00000000000000000000000000000000000000000000000000000000000000006040518263ffffffff1660e01b8152600401612b6d9190613548565b608060405180830381865afa158015612b8a573d6000803e3d6000fd5b505050506040513d601f19601f82011682018060405250810190612bae919061482c565b6020015168056bc75e2d63100000612bc69190613e5c565b612bd09190613ee5565b905090565b60058181548110612be557600080fd5b906000526020600020016000915054906101000a900473ffffffffffffffffffffffffffffffffffffffff1681565b6000612c1f84611d3f565b905060006006600086815260200190815260200160002060003373ffffffffffffffffffffffffffffffffffffffff1673ffffffffffffffffffffffffffffffffffffffff1681526020019081526020016000209050600064e8d4a5100083600001516fffffffffffffffffffffffffffffffff168360000154612ca39190613e5c565b612cad9190613ee5565b90506000826001015482612cc19190613f16565b905064e8d4a5100084600001516fffffffffffffffffffffffffffffffff1687612ceb9190613e5c565b612cf59190613ee5565b82612d009190613f16565b8360010181905550858360000154612d189190613faa565b8360000181905550612d6b85827f000000000000000000000000000000000000000000000000000000000000000073ffffffffffffffffffffffffffffffffffffffff166130a19092919063ffffffff16565b600060058881548110612d8157612d80613fde565b5b9060005260206000200160009054906101000a900473ffffffffffffffffffffffffffffffffffffffff169050600073ffffffffffffffffffffffffffffffffffffffff168173ffffffffffffffffffffffffffffffffffffffff1614612e5a578073ffffffffffffffffffffffffffffffffffffffff16638bf637428933898689600001546040518663ffffffff1660e01b8152600401612e2795949392919061409b565b600060405180830381600087803b158015612e4157600080fd5b505af1158015612e55573d6000803e3d6000fd5b505050505b612ec3868860048b81548110612e7357612e72613fde565b5b9060005260206000200160009054906101000a900473ffffffffffffffffffffffffffffffffffffffff1673ffffffffffffffffffffffffffffffffffffffff166130a19092919063ffffffff16565b8573ffffffffffffffffffffffffffffffffffffffff16883373ffffffffffffffffffffffffffffffffffffffff167f8166bf25f8a2b7ed3c85049207da4358d16edbed977d23fa2ee6f0dde3ec21328a604051612f219190613548565b60405180910390a4873373ffffffffffffffffffffffffffffffffffffffff167f71bab65ced2e5750775a0613be067df48ef06cf92a496ebf7663ae066092495484604051612f709190613548565b60405180910390a35050505050505050565b60005b83839050811015613051576000803073ffffffffffffffffffffffffffffffffffffffff16868685818110612fbd57612fbc613fde565b5b9050602002810190612fcf9190614868565b604051612fdd92919061490a565b600060405180830381855af49150503d8060008114613018576040519150601f19603f3d011682016040523d82523d6000602084013e61301d565b606091505b50915091508115801561302d5750835b1561303c5761303b8161334e565b5b5050808061304990614582565b915050612f85565b50505050565b600160009054906101000a900473ffffffffffffffffffffffffffffffffffffffff1681565b7f000000000000000000000000000000000000000000000000000000000000000081565b6000808473ffffffffffffffffffffffffffffffffffffffff1663a9059cbb60e01b85856040516024016130d6929190614218565b604051602081830303815290604052907bffffffffffffffffffffffffffffffffffffffffffffffffffffffff19166020820180517bffffffffffffffffffffffffffffffffffffffffffffffffffffffff83818316178352505050506040516131409190614992565b6000604051808303816000865af19150503d806000811461317d576040519150601f19603f3d011682016040523d82523d6000602084013e613182565b606091505b50915091508180156131b057506000815114806131af5750808060200190518101906131ae9190614256565b5b5b6131ef576040517f08c379a00000000000000000000000000000000000000000000000000000000081526004016131e6906149f5565b60405180910390fd5b5050505050565b6000808573ffffffffffffffffffffffffffffffffffffffff166323b872dd60e01b86868660405160240161322d93929190614a15565b604051602081830303815290604052907bffffffffffffffffffffffffffffffffffffffffffffffffffffffff19166020820180517bffffffffffffffffffffffffffffffffffffffffffffffffffffffff83818316178352505050506040516132979190614992565b6000604051808303816000865af19150503d80600081146132d4576040519150601f19603f3d011682016040523d82523d6000602084013e6132d9565b606091505b509150915081801561330757506000815114806133065750808060200190518101906133059190614256565b5b5b613346576040517f08c379a000000000000000000000000000000000000000000000000000000000815260040161333d90614a98565b60405180910390fd5b505050505050565b60448151101561339557806040517fd935448500000000000000000000000000000000000000000000000000000000815260040161338c9190614b02565b60405180910390fd5b600481019050808060200190518101906133af9190614bca565b6040517f08c379a00000000000000000000000000000000000000000000000000000000081526004016133e29190614c57565b60405180910390fd5b604051806060016040528060006fffffffffffffffffffffffffffffffff168152602001600067ffffffffffffffff168152602001600067ffffffffffffffff1681525090565b6000604051905090565b600080fd5b600080fd5b600073ffffffffffffffffffffffffffffffffffffffff82169050919050565b600061347182613446565b9050919050565b61348181613466565b811461348c57600080fd5b50565b60008135905061349e81613478565b92915050565b60008115159050919050565b6134b9816134a4565b81146134c457600080fd5b50565b6000813590506134d6816134b0565b92915050565b6000806000606084860312156134f5576134f461343c565b5b60006135038682870161348f565b9350506020613514868287016134c7565b9250506040613525868287016134c7565b9150509250925092565b6000819050919050565b6135428161352f565b82525050565b600060208201905061355d6000830184613539565b92915050565b61356c8161352f565b811461357757600080fd5b50565b60008135905061358981613563565b92915050565b6000806000606084860312156135a8576135a761343c565b5b60006135b68682870161357a565b93505060206135c78682870161357a565b92505060406135d88682870161348f565b9150509250925092565b6000602082840312156135f8576135f761343c565b5b60006136068482850161357a565b91505092915050565b60006fffffffffffffffffffffffffffffffff82169050919050565b6136348161360f565b82525050565b600067ffffffffffffffff82169050919050565b6136578161363a565b82525050565b6000606082019050613672600083018661362b565b61367f602083018561364e565b61368c604083018461364e565b949350505050565b600080604083850312156136ab576136aa61343c565b5b60006136b98582860161357a565b92505060206136ca8582860161348f565b9150509250929050565b60006136df82613466565b9050919050565b6136ef816136d4565b81146136fa57600080fd5b50565b60008135905061370c816136e6565b92915050565b6000602082840312156137285761372761343c565b5b6000613736848285016136fd565b91505092915050565b600061374a82613466565b9050919050565b61375a8161373f565b811461376557600080fd5b50565b60008135905061377781613751565b92915050565b6000602082840312156137935761379261343c565b5b60006137a184828501613768565b91505092915050565b6137b38161360f565b82525050565b6137c28161363a565b82525050565b6060820160008201516137de60008501826137aa565b5060208201516137f160208501826137b9565b50604082015161380460408501826137b9565b50505050565b600060608201905061381f60008301846137c8565b92915050565b600080fd5b600080fd5b600080fd5b60008083601f84011261384a57613849613825565b5b8235905067ffffffffffffffff8111156138675761386661382a565b5b6020830191508360208202830111156138835761388261382f565b5b9250929050565b600080602083850312156138a1576138a061343c565b5b600083013567ffffffffffffffff8111156138bf576138be613441565b5b6138cb85828601613834565b92509250509250929050565b6000819050919050565b60006138fc6138f76138f284613446565b6138d7565b613446565b9050919050565b600061390e826138e1565b9050919050565b600061392082613903565b9050919050565b61393081613915565b82525050565b600060208201905061394b6000830184613927565b92915050565b600060ff82169050919050565b61396781613951565b811461397257600080fd5b50565b6000813590506139848161395e565b92915050565b6000819050919050565b61399d8161398a565b81146139a857600080fd5b50565b6000813590506139ba81613994565b92915050565b600080600080600080600080610100898b0312156139e1576139e061343c565b5b60006139ef8b828c016136fd565b9850506020613a008b828c0161348f565b9750506040613a118b828c0161348f565b9650506060613a228b828c0161357a565b9550506080613a338b828c0161357a565b94505060a0613a448b828c01613975565b93505060c0613a558b828c016139ab565b92505060e0613a668b828c016139ab565b9150509295985092959890939650565b6000613a8182613903565b9050919050565b613a9181613a76565b82525050565b6000602082019050613aac6000830184613a88565b92915050565b6000613abd82613466565b9050919050565b613acd81613ab2565b8114613ad857600080fd5b50565b600081359050613aea81613ac4565b92915050565b60008060008060808587031215613b0a57613b0961343c565b5b6000613b188782880161357a565b9450506020613b298782880161357a565b9350506040613b3a87828801613adb565b9250506060613b4b878288016134c7565b91505092959194509250565b613b6081613466565b82525050565b6000602082019050613b7b6000830184613b57565b92915050565b6000819050919050565b613b9481613b81565b82525050565b6000604082019050613baf6000830185613539565b613bbc6020830184613b8b565b9392505050565b600080600060608486031215613bdc57613bdb61343c565b5b6000613bea8682870161357a565b9350506020613bfb868287016136fd565b9250506040613c0c86828701613adb565b9150509250925092565b6000613c2182613903565b9050919050565b613c3181613c16565b82525050565b6000602082019050613c4c6000830184613c28565b92915050565b60008083601f840112613c6857613c67613825565b5b8235905067ffffffffffffffff811115613c8557613c8461382a565b5b602083019150836020820283011115613ca157613ca061382f565b5b9250929050565b600080600060408486031215613cc157613cc061343c565b5b600084013567ffffffffffffffff811115613cdf57613cde613441565b5b613ceb86828701613c52565b93509350506020613cfe868287016134c7565b9150509250925092565b6000613d1382613903565b9050919050565b613d2381613d08565b82525050565b6000602082019050613d3e6000830184613d1a565b92915050565b600082825260208201905092915050565b7f4f776e61626c653a2063616c6c6572206973206e6f7420746865206f776e6572600082015250565b6000613d8b602083613d44565b9150613d9682613d55565b602082019050919050565b60006020820190508181036000830152613dba81613d7e565b9050919050565b7f4f776e61626c653a207a65726f20616464726573730000000000000000000000600082015250565b6000613df7601583613d44565b9150613e0282613dc1565b602082019050919050565b60006020820190508181036000830152613e2681613dea565b9050919050565b7f4e487b7100000000000000000000000000000000000000000000000000000000600052601160045260246000fd5b6000613e678261352f565b9150613e728361352f565b9250817fffffffffffffffffffffffffffffffffffffffffffffffffffffffffffffffff0483118215151615613eab57613eaa613e2d565b5b828202905092915050565b7f4e487b7100000000000000000000000000000000000000000000000000000000600052601260045260246000fd5b6000613ef08261352f565b9150613efb8361352f565b925082613f0b57613f0a613eb6565b5b828204905092915050565b6000613f2182613b81565b9150613f2c83613b81565b9250827f800000000000000000000000000000000000000000000000000000000000000001821260008412151615613f6757613f66613e2d565b5b827f7fffffffffffffffffffffffffffffffffffffffffffffffffffffffffffffff018213600084121615613f9f57613f9e613e2d565b5b828203905092915050565b6000613fb58261352f565b9150613fc08361352f565b925082821015613fd357613fd2613e2d565b5b828203905092915050565b7f4e487b7100000000000000000000000000000000000000000000000000000000600052603260045260246000fd5b6000819050919050565b600061403261402d6140288461400d565b6138d7565b61352f565b9050919050565b61404281614017565b82525050565b600060a08201905061405d6000830188613539565b61406a6020830187613b57565b6140776040830186613b57565b6140846060830185614039565b6140916080830184613539565b9695505050505050565b600060a0820190506140b06000830188613539565b6140bd6020830187613b57565b6140ca6040830186613b57565b6140d76060830185613539565b6140e46080830184613539565b9695505050505050565b6000815190506140fd81613563565b92915050565b6000602082840312156141195761411861343c565b5b6000614127848285016140ee565b91505092915050565b600061413b8261352f565b91506141468361352f565b9250827fffffffffffffffffffffffffffffffffffffffffffffffffffffffffffffffff0382111561417b5761417a613e2d565b5b828201905092915050565b7f4d61737465724368656656323a2042616c616e6365206d75737420657863656560008201527f6420300000000000000000000000000000000000000000000000000000000000602082015250565b60006141e2602383613d44565b91506141ed82614186565b604082019050919050565b60006020820190508181036000830152614211816141d5565b9050919050565b600060408201905061422d6000830185613b57565b61423a6020830184613539565b9392505050565b600081519050614250816134b0565b92915050565b60006020828403121561426c5761426b61343c565b5b600061427a84828501614241565b91505092915050565b60006040820190506142986000830185613539565b6142a56020830184613539565b9392505050565b600060a0820190506142c16000830188613539565b6142ce6020830187613b57565b6142db6040830186613b57565b6142e86060830185614039565b6142f56080830184614039565b9695505050505050565b7f4d61737465724368656656323a206e6f206d69677261746f7220736574000000600082015250565b6000614335601d83613d44565b9150614340826142ff565b602082019050919050565b6000602082019050818103600083015261436481614328565b9050919050565b60008151905061437a816136e6565b92915050565b6000602082840312156143965761439561343c565b5b60006143a48482850161436b565b91505092915050565b7f4d61737465724368656656323a206d696772617465642062616c616e6365206d60008201527f757374206d617463680000000000000000000000000000000000000000000000602082015250565b6000614409602983613d44565b9150614414826143ad565b604082019050919050565b60006020820190508181036000830152614438816143fc565b9050919050565b7f4f776e61626c653a2063616c6c657220213d2070656e64696e67206f776e6572600082015250565b6000614475602083613d44565b91506144808261443f565b602082019050919050565b600060208201905081810360008301526144a481614468565b9050919050565b60006040820190506144c06000830185613539565b6144cd6020830184614039565b9392505050565b60006144df8261360f565b91506144ea8361360f565b9250826fffffffffffffffffffffffffffffffff0382111561450f5761450e613e2d565b5b828201905092915050565b600061453561453061452b8461360f565b6138d7565b61352f565b9050919050565b6145458161451a565b82525050565b6000606082019050614560600083018661364e565b61456d6020830185613539565b61457a604083018461453c565b949350505050565b600061458d8261352f565b91507fffffffffffffffffffffffffffffffffffffffffffffffffffffffffffffffff82036145bf576145be613e2d565b5b600182019050919050565b6145d381613951565b82525050565b6145e28161398a565b82525050565b600060e0820190506145fd600083018a613b57565b61460a6020830189613b57565b6146176040830188613539565b6146246060830187613539565b61463160808301866145ca565b61463e60a08301856145d9565b61464b60c08301846145d9565b98975050505050505050565b614660816134a4565b82525050565b600060408201905061467b6000830185613539565b6146886020830184614657565b9392505050565b600061469a82613b81565b91506146a583613b81565b9250817f7fffffffffffffffffffffffffffffffffffffffffffffffffffffffffffffff038313600083121516156146e0576146df613e2d565b5b817f800000000000000000000000000000000000000000000000000000000000000003831260008312161561471857614717613e2d565b5b828201905092915050565b600080fd5b6000601f19601f8301169050919050565b7f4e487b7100000000000000000000000000000000000000000000000000000000600052604160045260246000fd5b61477182614728565b810181811067ffffffffffffffff821117156147905761478f614739565b5b80604052505050565b60006147a3613432565b90506147af8282614768565b919050565b6000608082840312156147ca576147c9614723565b5b6147d46080614799565b905060006147e48482850161436b565b60008301525060206147f8848285016140ee565b602083015250604061480c848285016140ee565b6040830152506060614820848285016140ee565b60608301525092915050565b6000608082840312156148425761484161343c565b5b6000614850848285016147b4565b91505092915050565b600080fd5b600080fd5b600080fd5b6000808335600160200384360303811261488557614884614859565b5b80840192508235915067ffffffffffffffff8211156148a7576148a661485e565b5b6020830192506001820236038313156148c3576148c2614863565b5b509250929050565b600081905092915050565b82818337600083830152505050565b60006148f183856148cb565b93506148fe8385846148d6565b82840190509392505050565b60006149178284866148e5565b91508190509392505050565b600081519050919050565b60005b8381101561494c578082015181840152602081019050614931565b8381111561495b576000848401525b50505050565b600061496c82614923565b61497681856148cb565b935061498681856020860161492e565b80840191505092915050565b600061499e8284614961565b915081905092915050565b7f426f72696e6745524332303a205472616e73666572206661696c656400000000600082015250565b60006149df601c83613d44565b91506149ea826149a9565b602082019050919050565b60006020820190508181036000830152614a0e816149d2565b9050919050565b6000606082019050614a2a6000830186613b57565b614a376020830185613b57565b614a446040830184613539565b949350505050565b7f426f72696e6745524332303a205472616e7366657246726f6d206661696c6564600082015250565b6000614a82602083613d44565b9150614a8d82614a4c565b602082019050919050565b60006020820190508181036000830152614ab181614a75565b9050919050565b600082825260208201905092915050565b6000614ad482614923565b614ade8185614ab8565b9350614aee81856020860161492e565b614af781614728565b840191505092915050565b60006020820190508181036000830152614b1c8184614ac9565b905092915050565b600080fd5b600067ffffffffffffffff821115614b4457614b43614739565b5b614b4d82614728565b9050602081019050919050565b6000614b6d614b6884614b29565b614799565b905082815260208101848484011115614b8957614b88614b24565b5b614b9484828561492e565b509392505050565b600082601f830112614bb157614bb0613825565b5b8151614bc1848260208601614b5a565b91505092915050565b600060208284031215614be057614bdf61343c565b5b600082015167ffffffffffffffff811115614bfe57614bfd613441565b5b614c0a84828501614b9c565b91505092915050565b600081519050919050565b6000614c2982614c13565b614c338185613d44565b9350614c4381856020860161492e565b614c4c81614728565b840191505092915050565b60006020820190508181036000830152614c718184614c1e565b90509291505056fea26469706673582212207832a4613d8ee099ae301569d1a2830cd64f56ae9a1d1fc6886ef56f4f5168af64736f6c634300080f0033",
  "immutableReferences": {
    "2619": [
      {
        "length": 32,
        "start": 4837
      },
      {
        "length": 32,
        "start": 4968
      },
      {
        "length": 32,
        "start": 7313
      },
      {
        "length": 32,
        "start": 10855
      },
      {
        "length": 32,
        "start": 10998
      },
      {
        "length": 32,
        "start": 12415
      }
    ],
    "2623": [
      {
        "length": 32,
        "start": 3425
      },
      {
        "length": 32,
        "start": 10063
      },
      {
        "length": 32,
        "start": 11559
      }
    ],
    "2626": [
      {
        "length": 32,
        "start": 5028
      },
      {
        "length": 32,
        "start": 7373
      },
      {
        "length": 32,
        "start": 8492
      },
      {
        "length": 32,
        "start": 11058
      }
    ]
  },
  "source": "// SPDX-License-Identifier: MIT\n\npragma solidity ^0.8.0;\npragma experimental ABIEncoderV2;\n\n//import \"@boringcrypto/boring-solidity/contracts/libraries/BoringMath.sol\";\nimport \"@boringcrypto/boring-solidity/contracts/BoringBatchable.sol\";\nimport \"@boringcrypto/boring-solidity/contracts/BoringOwnable.sol\";\nimport \"./libraries/SignedSafeMath.sol\";\nimport \"./interfaces/IRewarder.sol\";\nimport \"./interfaces/IMasterChef.sol\";\n\ninterface IMigratorChef {\n    // Take the current LP token address and return the new LP token address.\n    // Migrator should have full access to the caller's LP token.\n    function migrate(IERC20 token) external returns (IERC20);\n}\n\n/// @notice The (older) MasterChef contract gives out a constant number of SUSHI tokens per block.\n/// It is the only address with minting rights for SUSHI.\n/// The idea for this MasterChef V2 (MCV2) contract is therefore to be the owner of a dummy token\n/// that is deposited into the MasterChef V1 (MCV1) contract.\n/// The allocation point for this pool on MCV1 is the total allocation point for all pools that receive double incentives.\ncontract MasterChefV2 is BoringOwnable, BoringBatchable {\n    //using BoringMath for uint256;\n    //using BoringMath128 for uint128;\n    using BoringERC20 for IERC20;\n    using SignedSafeMath for int256;\n\n    /// @notice Info of each MCV2 user.\n    /// `amount` LP token amount the user has provided.\n    /// `rewardDebt` The amount of SUSHI entitled to the user.\n    struct UserInfo {\n        uint256 amount;\n        int256 rewardDebt;\n    }\n\n    /// @notice Info of each MCV2 pool.\n    /// `allocPoint` The amount of allocation points assigned to the pool.\n    /// Also known as the amount of SUSHI to distribute per block.\n    struct PoolInfo {\n        uint128 accSushiPerShare;\n        uint64 lastRewardBlock;\n        uint64 allocPoint;\n    }\n\n    /// @notice Address of MCV1 contract.\n    IMasterChef public immutable MASTER_CHEF;\n    /// @notice Address of SUSHI contract.\n    IERC20 public immutable SUSHI;\n    /// @notice The index of MCV2 master pool in MCV1.\n    uint256 public immutable MASTER_PID;\n    // @notice The migrator contract. It has a lot of power. Can only be set through governance (owner).\n    IMigratorChef public migrator;\n\n    /// @notice Info of each MCV2 pool.\n    PoolInfo[] public poolInfo;\n    /// @notice Address of the LP token for each MCV2 pool.\n    IERC20[] public lpToken;\n    /// @notice Address of each `IRewarder` contract in MCV2.\n    IRewarder[] public rewarder;\n\n    /// @notice Info of each user that stakes LP tokens.\n    mapping (uint256 => mapping (address => UserInfo)) public userInfo;\n    /// @dev Total allocation points. Must be the sum of all allocation points in all pools.\n    uint256 public totalAllocPoint;\n\n    uint256 private constant MASTERCHEF_SUSHI_PER_BLOCK = 1e20;\n    uint256 private constant ACC_SUSHI_PRECISION = 1e12;\n\n    event Deposit(address indexed user, uint256 indexed pid, uint256 amount, address indexed to);\n    event Withdraw(address indexed user, uint256 indexed pid, uint256 amount, address indexed to);\n    event EmergencyWithdraw(address indexed user, uint256 indexed pid, uint256 amount, address indexed to);\n    event Harvest(address indexed user, uint256 indexed pid, uint256 amount);\n    event LogPoolAddition(uint256 indexed pid, uint256 allocPoint, IERC20 indexed lpToken, IRewarder indexed rewarder);\n    event LogSetPool(uint256 indexed pid, uint256 allocPoint, IRewarder indexed rewarder, bool overwrite);\n    event LogUpdatePool(uint256 indexed pid, uint64 lastRewardBlock, uint256 lpSupply, uint256 accSushiPerShare);\n    event LogInit();\n\n    /// @param _MASTER_CHEF The SushiSwap MCV1 contract address.\n    /// @param _sushi The SUSHI token contract address.\n    /// @param _MASTER_PID The pool ID of the dummy token on the base MCV1 contract.\n    constructor(IMasterChef _MASTER_CHEF, IERC20 _sushi, uint256 _MASTER_PID) public {\n        MASTER_CHEF = _MASTER_CHEF;\n        SUSHI = _sushi;\n        MASTER_PID = _MASTER_PID;\n    }\n\n    /// @notice Deposits a dummy token to `MASTER_CHEF` MCV1. This is required because MCV1 holds the minting rights for SUSHI.\n    /// Any balance of transaction sender in `dummyToken` is transferred.\n    /// The allocation point for the pool on MCV1 is the total allocation point for all pools that receive double incentives.\n    /// @param dummyToken The address of the ERC-20 token to deposit into MCV1.\n    function init(IERC20 dummyToken) external {\n        uint256 balance = dummyToken.balanceOf(msg.sender);\n        require(balance != 0, \"MasterChefV2: Balance must exceed 0\");\n        dummyToken.safeTransferFrom(msg.sender, address(this), balance);\n        dummyToken.approve(address(MASTER_CHEF), balance);\n        MASTER_CHEF.deposit(MASTER_PID, balance);\n        emit LogInit();\n    }\n\n    /// @notice Returns the number of MCV2 pools.\n    function poolLength() public view returns (uint256 pools) {\n        pools = poolInfo.length;\n    }\n\n    /// @notice Add a new LP to the pool. Can only be called by the owner.\n    /// DO NOT add the same LP token more than once. Rewards will be messed up if you do.\n    /// @param allocPoint AP of the new pool.\n    /// @param _lpToken Address of the LP ERC-20 token.\n    /// @param _rewarder Address of the rewarder delegate.\n    function add(uint256 allocPoint, IERC20 _lpToken, IRewarder _rewarder) public onlyOwner {\n        uint256 lastRewardBlock = block.number;\n        totalAllocPoint = totalAllocPoint + allocPoint;\n        lpToken.push(_lpToken);\n        rewarder.push(_rewarder);\n\n        poolInfo.push(PoolInfo({\n            allocPoint: uint64(allocPoint),//allocPoint.to64(),\n            lastRewardBlock: uint64(lastRewardBlock),//lastRewardBlock.to64(),\n            accSushiPerShare: 0\n        }));\n        emit LogPoolAddition(lpToken.length - 1, allocPoint, _lpToken, _rewarder);\n    }\n\n    /// @notice Update the given pool's SUSHI allocation point and `IRewarder` contract. Can only be called by the owner.\n    /// @param _pid The index of the pool. See `poolInfo`.\n    /// @param _allocPoint New AP of the pool.\n    /// @param _rewarder Address of the rewarder delegate.\n    /// @param overwrite True if _rewarder should be `set`. Otherwise `_rewarder` is ignored.\n    function set(uint256 _pid, uint256 _allocPoint, IRewarder _rewarder, bool overwrite) public onlyOwner {\n        totalAllocPoint = totalAllocPoint - poolInfo[_pid].allocPoint + (_allocPoint);\n        poolInfo[_pid].allocPoint = uint64(_allocPoint);//.to64();\n        if (overwrite) { rewarder[_pid] = _rewarder; }\n        emit LogSetPool(_pid, _allocPoint, overwrite ? _rewarder : rewarder[_pid], overwrite);\n    }\n\n    /// @notice Set the `migrator` contract. Can only be called by the owner.\n    /// @param _migrator The contract address to set.\n    function setMigrator(IMigratorChef _migrator) public onlyOwner {\n        migrator = _migrator;\n    }\n\n    /// @notice Migrate LP token to another LP contract through the `migrator` contract.\n    /// @param _pid The index of the pool. See `poolInfo`.\n    function migrate(uint256 _pid) public {\n        require(address(migrator) != address(0), \"MasterChefV2: no migrator set\");\n        IERC20 _lpToken = lpToken[_pid];\n        uint256 bal = _lpToken.balanceOf(address(this));\n        _lpToken.approve(address(migrator), bal);\n        IERC20 newLpToken = migrator.migrate(_lpToken);\n        require(bal == newLpToken.balanceOf(address(this)), \"MasterChefV2: migrated balance must match\");\n        lpToken[_pid] = newLpToken;\n    }\n\n    /// @notice View function to see pending SUSHI on frontend.\n    /// @param _pid The index of the pool. See `poolInfo`.\n    /// @param _user Address of user.\n    /// @return pending SUSHI reward for a given user.\n    function pendingSushi(uint256 _pid, address _user) external view returns (uint256 pending) {\n        PoolInfo memory pool = poolInfo[_pid];\n        UserInfo storage user = userInfo[_pid][_user];\n        uint256 accSushiPerShare = pool.accSushiPerShare;\n        uint256 lpSupply = lpToken[_pid].balanceOf(address(this));\n        if (block.number > pool.lastRewardBlock && lpSupply != 0) {\n            uint256 blocks = block.number + pool.lastRewardBlock;\n            uint256 sushiReward = blocks* sushiPerBlock()*(pool.allocPoint) / totalAllocPoint;\n            accSushiPerShare = accSushiPerShare+(sushiReward*(ACC_SUSHI_PRECISION) / lpSupply);\n        }\n        pending = uint256(uint(user.amount*(accSushiPerShare) / ACC_SUSHI_PRECISION)-(uint(user.rewardDebt)));\n    }\n\n    /// @notice Update reward variables for all pools. Be careful of gas spending!\n    /// @param pids Pool IDs of all to be updated. Make sure to update all active pools.\n    function massUpdatePools(uint256[] calldata pids) external {\n        uint256 len = pids.length;\n        for (uint256 i = 0; i < len; ++i) {\n            updatePool(pids[i]);\n        }\n    }\n\n    /// @notice Calculates and returns the `amount` of SUSHI per block.\n    function sushiPerBlock() public view returns (uint256 amount) {\n        amount = uint256(MASTERCHEF_SUSHI_PER_BLOCK)\n            *(MASTER_CHEF.poolInfo(MASTER_PID).allocPoint) / MASTER_CHEF.totalAllocPoint();\n    }\n\n    /// @notice Update reward variables of the given pool.\n    /// @param pid The index of the pool. See `poolInfo`.\n    /// @return pool Returns the pool that was updated.\n    function updatePool(uint256 pid) public returns (PoolInfo memory pool) {\n        pool = poolInfo[pid];\n        if (block.number > pool.lastRewardBlock) {\n            uint256 lpSupply = lpToken[pid].balanceOf(address(this));\n            if (lpSupply > 0) {\n                uint256 blocks = block.number-(pool.lastRewardBlock);\n                uint256 sushiReward = blocks*(sushiPerBlock())*(pool.allocPoint) / totalAllocPoint;\n                pool.accSushiPerShare = pool.accSushiPerShare+(uint128((sushiReward*(ACC_SUSHI_PRECISION) / lpSupply)));\n            }\n            pool.lastRewardBlock = uint64(block.number);\n            poolInfo[pid] = pool;\n            emit LogUpdatePool(pid, pool.lastRewardBlock, lpSupply, pool.accSushiPerShare);\n        }\n    }\n\n    /// @notice Deposit LP tokens to MCV2 for SUSHI allocation.\n    /// @param pid The index of the pool. See `poolInfo`.\n    /// @param amount LP token amount to deposit.\n    /// @param to The receiver of `amount` deposit benefit.\n    function deposit(uint256 pid, uint256 amount, address to) public {\n        PoolInfo memory pool = updatePool(pid);\n        UserInfo storage user = userInfo[pid][to];\n\n        // Effects\n        user.amount = user.amount+(amount);\n        user.rewardDebt = user.rewardDebt+(int256(amount*(pool.accSushiPerShare) / ACC_SUSHI_PRECISION));\n\n        // Interactions\n        IRewarder _rewarder = rewarder[pid];\n        if (address(_rewarder) != address(0)) {\n            _rewarder.onSushiReward(pid, to, to, 0, user.amount);\n        }\n\n        lpToken[pid].safeTransferFrom(msg.sender, address(this), amount);\n\n        emit Deposit(msg.sender, pid, amount, to);\n    }\n\n    /// @notice Withdraw LP tokens from MCV2.\n    /// @param pid The index of the pool. See `poolInfo`.\n    /// @param amount LP token amount to withdraw.\n    /// @param to Receiver of the LP tokens.\n    function withdraw(uint256 pid, uint256 amount, address to) public {\n        PoolInfo memory pool = updatePool(pid);\n        UserInfo storage user = userInfo[pid][msg.sender];\n\n        // Effects\n        user.rewardDebt = user.rewardDebt-(int256(amount*(pool.accSushiPerShare) / ACC_SUSHI_PRECISION));\n        user.amount = user.amount-(amount);\n\n        // Interactions\n        IRewarder _rewarder = rewarder[pid];\n        if (address(_rewarder) != address(0)) {\n            _rewarder.onSushiReward(pid, msg.sender, to, 0, user.amount);\n        }\n        \n        lpToken[pid].safeTransfer(to, amount);\n\n        emit Withdraw(msg.sender, pid, amount, to);\n    }\n\n    /// @notice Harvest proceeds for transaction sender to `to`.\n    /// @param pid The index of the pool. See `poolInfo`.\n    /// @param to Receiver of SUSHI rewards.\n    function harvest(uint256 pid, address to) public {\n        PoolInfo memory pool = updatePool(pid);\n        UserInfo storage user = userInfo[pid][msg.sender];\n        int256 accumulatedSushi = int256(user.amount*(pool.accSushiPerShare) / ACC_SUSHI_PRECISION);\n        uint256 _pendingSushi = uint256(accumulatedSushi-(user.rewardDebt));\n\n        // Effects\n        user.rewardDebt = accumulatedSushi;\n\n        // Interactions\n        if (_pendingSushi != 0) {\n            SUSHI.safeTransfer(to, _pendingSushi);\n        }\n        \n        IRewarder _rewarder = rewarder[pid];\n        if (address(_rewarder) != address(0)) {\n            _rewarder.onSushiReward( pid, msg.sender, to, _pendingSushi, user.amount);\n        }\n\n        emit Harvest(msg.sender, pid, _pendingSushi);\n    }\n    \n    /// @notice Withdraw LP tokens from MCV2 and harvest proceeds for transaction sender to `to`.\n    /// @param pid The index of the pool. See `poolInfo`.\n    /// @param amount LP token amount to withdraw.\n    /// @param to Receiver of the LP tokens and SUSHI rewards.\n    function withdrawAndHarvest(uint256 pid, uint256 amount, address to) public {\n        PoolInfo memory pool = updatePool(pid);\n        UserInfo storage user = userInfo[pid][msg.sender];\n        int256 accumulatedSushi = int256(user.amount*(pool.accSushiPerShare) / ACC_SUSHI_PRECISION);\n        uint256 _pendingSushi = uint256(accumulatedSushi-(user.rewardDebt));\n\n        // Effects\n        user.rewardDebt = accumulatedSushi-(int256(amount*(pool.accSushiPerShare) / ACC_SUSHI_PRECISION));\n        user.amount = user.amount-(amount);\n        \n        // Interactions\n        SUSHI.safeTransfer(to, _pendingSushi);\n\n        IRewarder _rewarder = rewarder[pid];\n        if (address(_rewarder) != address(0)) {\n            _rewarder.onSushiReward(pid, msg.sender, to, _pendingSushi, user.amount);\n        }\n\n        lpToken[pid].safeTransfer(to, amount);\n\n        emit Withdraw(msg.sender, pid, amount, to);\n        emit Harvest(msg.sender, pid, _pendingSushi);\n    }\n\n    /// @notice Harvests SUSHI from `MASTER_CHEF` MCV1 and pool `MASTER_PID` to this MCV2 contract.\n    function harvestFromMasterChef() public {\n        MASTER_CHEF.deposit(MASTER_PID, 0);\n    }\n\n    /// @notice Withdraw without caring about rewards. EMERGENCY ONLY.\n    /// @param pid The index of the pool. See `poolInfo`.\n    /// @param to Receiver of the LP tokens.\n    function emergencyWithdraw(uint256 pid, address to) public {\n        UserInfo storage user = userInfo[pid][msg.sender];\n        uint256 amount = user.amount;\n        user.amount = 0;\n        user.rewardDebt = 0;\n\n        IRewarder _rewarder = rewarder[pid];\n        if (address(_rewarder) != address(0)) {\n            _rewarder.onSushiReward(pid, msg.sender, to, 0, 0);\n        }\n\n        // Note: transfer can fail or succeed if `amount` is zero.\n        lpToken[pid].safeTransfer(to, amount);\n        emit EmergencyWithdraw(msg.sender, pid, amount, to);\n    }\n}\n",
  "sourcePath": "/mnt/d/CubeProject/sushiswap_cube/contracts/MasterChefV2.sol",
  "compiler": {
    "name": "solc",
    "version": "0.8.15+commit.e14f2714.Emscripten.clang"
  },
  "schemaVersion": "3.4.8",
  "updatedAt": "2022-07-12T18:57:32.162Z",
  "devdoc": {
    "kind": "dev",
    "methods": {
      "add(uint256,address,address)": {
        "params": {
          "_lpToken": "Address of the LP ERC-20 token.",
          "_rewarder": "Address of the rewarder delegate.",
          "allocPoint": "AP of the new pool."
        }
      },
      "batch(bytes[],bool)": {
        "params": {
          "calls": "An array of inputs for each call.",
          "revertOnFail": "If True then reverts after a failed call and stops doing further calls."
        }
      },
      "constructor": {
        "params": {
          "_MASTER_CHEF": "The SushiSwap MCV1 contract address.",
          "_MASTER_PID": "The pool ID of the dummy token on the base MCV1 contract.",
          "_sushi": "The SUSHI token contract address."
        }
      },
      "deposit(uint256,uint256,address)": {
        "params": {
          "amount": "LP token amount to deposit.",
          "pid": "The index of the pool. See `poolInfo`.",
          "to": "The receiver of `amount` deposit benefit."
        }
      },
      "emergencyWithdraw(uint256,address)": {
        "params": {
          "pid": "The index of the pool. See `poolInfo`.",
          "to": "Receiver of the LP tokens."
        }
      },
      "harvest(uint256,address)": {
        "params": {
          "pid": "The index of the pool. See `poolInfo`.",
          "to": "Receiver of SUSHI rewards."
        }
      },
      "init(address)": {
        "params": {
          "dummyToken": "The address of the ERC-20 token to deposit into MCV1."
        }
      },
      "massUpdatePools(uint256[])": {
        "params": {
          "pids": "Pool IDs of all to be updated. Make sure to update all active pools."
        }
      },
      "migrate(uint256)": {
        "params": {
          "_pid": "The index of the pool. See `poolInfo`."
        }
      },
      "pendingSushi(uint256,address)": {
        "params": {
          "_pid": "The index of the pool. See `poolInfo`.",
          "_user": "Address of user."
        },
        "returns": {
          "pending": "SUSHI reward for a given user."
        }
      },
      "set(uint256,uint256,address,bool)": {
        "params": {
          "_allocPoint": "New AP of the pool.",
          "_pid": "The index of the pool. See `poolInfo`.",
          "_rewarder": "Address of the rewarder delegate.",
          "overwrite": "True if _rewarder should be `set`. Otherwise `_rewarder` is ignored."
        }
      },
      "setMigrator(address)": {
        "params": {
          "_migrator": "The contract address to set."
        }
      },
      "transferOwnership(address,bool,bool)": {
        "params": {
          "direct": "True if `newOwner` should be set immediately. False if `newOwner` needs to use `claimOwnership`.",
          "newOwner": "Address of the new owner.",
          "renounce": "Allows the `newOwner` to be `address(0)` if `direct` and `renounce` is True. Has no effect otherwise."
        }
      },
      "updatePool(uint256)": {
        "params": {
          "pid": "The index of the pool. See `poolInfo`."
        },
        "returns": {
          "pool": "Returns the pool that was updated."
        }
      },
      "withdraw(uint256,uint256,address)": {
        "params": {
          "amount": "LP token amount to withdraw.",
          "pid": "The index of the pool. See `poolInfo`.",
          "to": "Receiver of the LP tokens."
        }
      },
      "withdrawAndHarvest(uint256,uint256,address)": {
        "params": {
          "amount": "LP token amount to withdraw.",
          "pid": "The index of the pool. See `poolInfo`.",
          "to": "Receiver of the LP tokens and SUSHI rewards."
        }
      }
    },
    "stateVariables": {
      "totalAllocPoint": {
        "details": "Total allocation points. Must be the sum of all allocation points in all pools."
      }
    },
    "version": 1
  },
  "userdoc": {
    "kind": "user",
    "methods": {
      "MASTER_CHEF()": {
        "notice": "Address of MCV1 contract."
      },
      "MASTER_PID()": {
        "notice": "The index of MCV2 master pool in MCV1."
      },
      "SUSHI()": {
        "notice": "Address of SUSHI contract."
      },
      "add(uint256,address,address)": {
        "notice": "Add a new LP to the pool. Can only be called by the owner. DO NOT add the same LP token more than once. Rewards will be messed up if you do."
      },
      "batch(bytes[],bool)": {
        "notice": "Allows batched call to self (this contract)."
      },
      "claimOwnership()": {
        "notice": "Needs to be called by `pendingOwner` to claim ownership."
      },
      "deposit(uint256,uint256,address)": {
        "notice": "Deposit LP tokens to MCV2 for SUSHI allocation."
      },
      "emergencyWithdraw(uint256,address)": {
        "notice": "Withdraw without caring about rewards. EMERGENCY ONLY."
      },
      "harvest(uint256,address)": {
        "notice": "Harvest proceeds for transaction sender to `to`."
      },
      "harvestFromMasterChef()": {
        "notice": "Harvests SUSHI from `MASTER_CHEF` MCV1 and pool `MASTER_PID` to this MCV2 contract."
      },
      "init(address)": {
        "notice": "Deposits a dummy token to `MASTER_CHEF` MCV1. This is required because MCV1 holds the minting rights for SUSHI. Any balance of transaction sender in `dummyToken` is transferred. The allocation point for the pool on MCV1 is the total allocation point for all pools that receive double incentives."
      },
      "lpToken(uint256)": {
        "notice": "Address of the LP token for each MCV2 pool."
      },
      "massUpdatePools(uint256[])": {
        "notice": "Update reward variables for all pools. Be careful of gas spending!"
      },
      "migrate(uint256)": {
        "notice": "Migrate LP token to another LP contract through the `migrator` contract."
      },
      "pendingSushi(uint256,address)": {
        "notice": "View function to see pending SUSHI on frontend."
      },
      "permitToken(address,address,address,uint256,uint256,uint8,bytes32,bytes32)": {
        "notice": "Call wrapper that performs `ERC20.permit` on `token`. Lookup `IERC20.permit`."
      },
      "poolInfo(uint256)": {
        "notice": "Info of each MCV2 pool."
      },
      "poolLength()": {
        "notice": "Returns the number of MCV2 pools."
      },
      "rewarder(uint256)": {
        "notice": "Address of each `IRewarder` contract in MCV2."
      },
      "set(uint256,uint256,address,bool)": {
        "notice": "Update the given pool's SUSHI allocation point and `IRewarder` contract. Can only be called by the owner."
      },
      "setMigrator(address)": {
        "notice": "Set the `migrator` contract. Can only be called by the owner."
      },
      "sushiPerBlock()": {
        "notice": "Calculates and returns the `amount` of SUSHI per block."
      },
      "transferOwnership(address,bool,bool)": {
        "notice": "Transfers ownership to `newOwner`. Either directly or claimable by the new pending owner. Can only be invoked by the current `owner`."
      },
      "updatePool(uint256)": {
        "notice": "Update reward variables of the given pool."
      },
      "userInfo(uint256,address)": {
        "notice": "Info of each user that stakes LP tokens."
      },
      "withdraw(uint256,uint256,address)": {
        "notice": "Withdraw LP tokens from MCV2."
      },
      "withdrawAndHarvest(uint256,uint256,address)": {
        "notice": "Withdraw LP tokens from MCV2 and harvest proceeds for transaction sender to `to`."
      }
    },
    "notice": "The (older) MasterChef contract gives out a constant number of SUSHI tokens per block. It is the only address with minting rights for SUSHI. The idea for this MasterChef V2 (MCV2) contract is therefore to be the owner of a dummy token that is deposited into the MasterChef V1 (MCV1) contract. The allocation point for this pool on MCV1 is the total allocation point for all pools that receive double incentives.",
    "version": 1
  }
}