{
  "contractName": "MiniChefV2",
  "abi": [
    {
      "inputs": [
        {
          "internalType": "contract IERC20",
          "name": "_sushi",
          "type": "address"
        }
      ],
      "stateMutability": "nonpayable",
      "type": "constructor"
    },
    {
      "inputs": [
        {
          "internalType": "bytes",
          "name": "innerError",
          "type": "bytes"
        }
      ],
      "name": "BatchError",
      "type": "error"
    },
    {
      "anonymous": false,
      "inputs": [
        {
          "indexed": true,
          "internalType": "address",
          "name": "user",
          "type": "address"
        },
        {
          "indexed": true,
          "internalType": "uint256",
          "name": "pid",
          "type": "uint256"
        },
        {
          "indexed": false,
          "internalType": "uint256",
          "name": "amount",
          "type": "uint256"
        },
        {
          "indexed": true,
          "internalType": "address",
          "name": "to",
          "type": "address"
        }
      ],
      "name": "Deposit",
      "type": "event"
    },
    {
      "anonymous": false,
      "inputs": [
        {
          "indexed": true,
          "internalType": "address",
          "name": "user",
          "type": "address"
        },
        {
          "indexed": true,
          "internalType": "uint256",
          "name": "pid",
          "type": "uint256"
        },
        {
          "indexed": false,
          "internalType": "uint256",
          "name": "amount",
          "type": "uint256"
        },
        {
          "indexed": true,
          "internalType": "address",
          "name": "to",
          "type": "address"
        }
      ],
      "name": "EmergencyWithdraw",
      "type": "event"
    },
    {
      "anonymous": false,
      "inputs": [
        {
          "indexed": true,
          "internalType": "address",
          "name": "user",
          "type": "address"
        },
        {
          "indexed": true,
          "internalType": "uint256",
          "name": "pid",
          "type": "uint256"
        },
        {
          "indexed": false,
          "internalType": "uint256",
          "name": "amount",
          "type": "uint256"
        }
      ],
      "name": "Harvest",
      "type": "event"
    },
    {
      "anonymous": false,
      "inputs": [
        {
          "indexed": true,
          "internalType": "uint256",
          "name": "pid",
          "type": "uint256"
        },
        {
          "indexed": false,
          "internalType": "uint256",
          "name": "allocPoint",
          "type": "uint256"
        },
        {
          "indexed": true,
          "internalType": "contract IERC20",
          "name": "lpToken",
          "type": "address"
        },
        {
          "indexed": true,
          "internalType": "contract IRewarder",
          "name": "rewarder",
          "type": "address"
        }
      ],
      "name": "LogPoolAddition",
      "type": "event"
    },
    {
      "anonymous": false,
      "inputs": [
        {
          "indexed": true,
          "internalType": "uint256",
          "name": "pid",
          "type": "uint256"
        },
        {
          "indexed": false,
          "internalType": "uint256",
          "name": "allocPoint",
          "type": "uint256"
        },
        {
          "indexed": true,
          "internalType": "contract IRewarder",
          "name": "rewarder",
          "type": "address"
        },
        {
          "indexed": false,
          "internalType": "bool",
          "name": "overwrite",
          "type": "bool"
        }
      ],
      "name": "LogSetPool",
      "type": "event"
    },
    {
      "anonymous": false,
      "inputs": [
        {
          "indexed": false,
          "internalType": "uint256",
          "name": "sushiPerSecond",
          "type": "uint256"
        }
      ],
      "name": "LogSushiPerSecond",
      "type": "event"
    },
    {
      "anonymous": false,
      "inputs": [
        {
          "indexed": true,
          "internalType": "uint256",
          "name": "pid",
          "type": "uint256"
        },
        {
          "indexed": false,
          "internalType": "uint64",
          "name": "lastRewardTime",
          "type": "uint64"
        },
        {
          "indexed": false,
          "internalType": "uint256",
          "name": "lpSupply",
          "type": "uint256"
        },
        {
          "indexed": false,
          "internalType": "uint256",
          "name": "accSushiPerShare",
          "type": "uint256"
        }
      ],
      "name": "LogUpdatePool",
      "type": "event"
    },
    {
      "anonymous": false,
      "inputs": [
        {
          "indexed": true,
          "internalType": "address",
          "name": "previousOwner",
          "type": "address"
        },
        {
          "indexed": true,
          "internalType": "address",
          "name": "newOwner",
          "type": "address"
        }
      ],
      "name": "OwnershipTransferred",
      "type": "event"
    },
    {
      "anonymous": false,
      "inputs": [
        {
          "indexed": true,
          "internalType": "address",
          "name": "user",
          "type": "address"
        },
        {
          "indexed": true,
          "internalType": "uint256",
          "name": "pid",
          "type": "uint256"
        },
        {
          "indexed": false,
          "internalType": "uint256",
          "name": "amount",
          "type": "uint256"
        },
        {
          "indexed": true,
          "internalType": "address",
          "name": "to",
          "type": "address"
        }
      ],
      "name": "Withdraw",
      "type": "event"
    },
    {
      "inputs": [],
      "name": "SUSHI",
      "outputs": [
        {
          "internalType": "contract IERC20",
          "name": "",
          "type": "address"
        }
      ],
      "stateMutability": "view",
      "type": "function"
    },
    {
      "inputs": [
        {
          "internalType": "address",
          "name": "",
          "type": "address"
        }
      ],
      "name": "addedTokens",
      "outputs": [
        {
          "internalType": "bool",
          "name": "",
          "type": "bool"
        }
      ],
      "stateMutability": "view",
      "type": "function"
    },
    {
      "inputs": [
        {
          "internalType": "bytes[]",
          "name": "calls",
          "type": "bytes[]"
        },
        {
          "internalType": "bool",
          "name": "revertOnFail",
          "type": "bool"
        }
      ],
      "name": "batch",
      "outputs": [],
      "stateMutability": "payable",
      "type": "function"
    },
    {
      "inputs": [],
      "name": "claimOwnership",
      "outputs": [],
      "stateMutability": "nonpayable",
      "type": "function"
    },
    {
      "inputs": [
        {
          "internalType": "uint256",
          "name": "",
          "type": "uint256"
        }
      ],
      "name": "lpToken",
      "outputs": [
        {
          "internalType": "contract IERC20",
          "name": "",
          "type": "address"
        }
      ],
      "stateMutability": "view",
      "type": "function"
    },
    {
      "inputs": [],
      "name": "migrator",
      "outputs": [
        {
          "internalType": "contract IMigratorChef",
          "name": "",
          "type": "address"
        }
      ],
      "stateMutability": "view",
      "type": "function"
    },
    {
      "inputs": [],
      "name": "owner",
      "outputs": [
        {
          "internalType": "address",
          "name": "",
          "type": "address"
        }
      ],
      "stateMutability": "view",
      "type": "function"
    },
    {
      "inputs": [],
      "name": "pendingOwner",
      "outputs": [
        {
          "internalType": "address",
          "name": "",
          "type": "address"
        }
      ],
      "stateMutability": "view",
      "type": "function"
    },
    {
      "inputs": [
        {
          "internalType": "contract IERC20",
          "name": "token",
          "type": "address"
        },
        {
          "internalType": "address",
          "name": "from",
          "type": "address"
        },
        {
          "internalType": "address",
          "name": "to",
          "type": "address"
        },
        {
          "internalType": "uint256",
          "name": "amount",
          "type": "uint256"
        },
        {
          "internalType": "uint256",
          "name": "deadline",
          "type": "uint256"
        },
        {
          "internalType": "uint8",
          "name": "v",
          "type": "uint8"
        },
        {
          "internalType": "bytes32",
          "name": "r",
          "type": "bytes32"
        },
        {
          "internalType": "bytes32",
          "name": "s",
          "type": "bytes32"
        }
      ],
      "name": "permitToken",
      "outputs": [],
      "stateMutability": "nonpayable",
      "type": "function"
    },
    {
      "inputs": [
        {
          "internalType": "uint256",
          "name": "",
          "type": "uint256"
        }
      ],
      "name": "poolInfo",
      "outputs": [
        {
          "internalType": "uint128",
          "name": "accSushiPerShare",
          "type": "uint128"
        },
        {
          "internalType": "uint64",
          "name": "lastRewardTime",
          "type": "uint64"
        },
        {
          "internalType": "uint64",
          "name": "allocPoint",
          "type": "uint64"
        }
      ],
      "stateMutability": "view",
      "type": "function"
    },
    {
      "inputs": [
        {
          "internalType": "uint256",
          "name": "",
          "type": "uint256"
        }
      ],
      "name": "rewarder",
      "outputs": [
        {
          "internalType": "contract IRewarder",
          "name": "",
          "type": "address"
        }
      ],
      "stateMutability": "view",
      "type": "function"
    },
    {
      "inputs": [],
      "name": "sushiPerSecond",
      "outputs": [
        {
          "internalType": "uint256",
          "name": "",
          "type": "uint256"
        }
      ],
      "stateMutability": "view",
      "type": "function"
    },
    {
      "inputs": [],
      "name": "totalAllocPoint",
      "outputs": [
        {
          "internalType": "uint256",
          "name": "",
          "type": "uint256"
        }
      ],
      "stateMutability": "view",
      "type": "function"
    },
    {
      "inputs": [
        {
          "internalType": "address",
          "name": "newOwner",
          "type": "address"
        },
        {
          "internalType": "bool",
          "name": "direct",
          "type": "bool"
        },
        {
          "internalType": "bool",
          "name": "renounce",
          "type": "bool"
        }
      ],
      "name": "transferOwnership",
      "outputs": [],
      "stateMutability": "nonpayable",
      "type": "function"
    },
    {
      "inputs": [
        {
          "internalType": "uint256",
          "name": "",
          "type": "uint256"
        },
        {
          "internalType": "address",
          "name": "",
          "type": "address"
        }
      ],
      "name": "userInfo",
      "outputs": [
        {
          "internalType": "uint256",
          "name": "amount",
          "type": "uint256"
        },
        {
          "internalType": "int256",
          "name": "rewardDebt",
          "type": "int256"
        }
      ],
      "stateMutability": "view",
      "type": "function"
    },
    {
      "inputs": [],
      "name": "poolLength",
      "outputs": [
        {
          "internalType": "uint256",
          "name": "pools",
          "type": "uint256"
        }
      ],
      "stateMutability": "view",
      "type": "function"
    },
    {
      "inputs": [
        {
          "internalType": "uint256",
          "name": "allocPoint",
          "type": "uint256"
        },
        {
          "internalType": "contract IERC20",
          "name": "_lpToken",
          "type": "address"
        },
        {
          "internalType": "contract IRewarder",
          "name": "_rewarder",
          "type": "address"
        }
      ],
      "name": "add",
      "outputs": [],
      "stateMutability": "nonpayable",
      "type": "function"
    },
    {
      "inputs": [
        {
          "internalType": "uint256",
          "name": "_pid",
          "type": "uint256"
        },
        {
          "internalType": "uint256",
          "name": "_allocPoint",
          "type": "uint256"
        },
        {
          "internalType": "contract IRewarder",
          "name": "_rewarder",
          "type": "address"
        },
        {
          "internalType": "bool",
          "name": "overwrite",
          "type": "bool"
        }
      ],
      "name": "set",
      "outputs": [],
      "stateMutability": "nonpayable",
      "type": "function"
    },
    {
      "inputs": [
        {
          "internalType": "uint256",
          "name": "_sushiPerSecond",
          "type": "uint256"
        }
      ],
      "name": "setSushiPerSecond",
      "outputs": [],
      "stateMutability": "nonpayable",
      "type": "function"
    },
    {
      "inputs": [
        {
          "internalType": "contract IMigratorChef",
          "name": "_migrator",
          "type": "address"
        }
      ],
      "name": "setMigrator",
      "outputs": [],
      "stateMutability": "nonpayable",
      "type": "function"
    },
    {
      "inputs": [
        {
          "internalType": "uint256",
          "name": "_pid",
          "type": "uint256"
        }
      ],
      "name": "migrate",
      "outputs": [],
      "stateMutability": "nonpayable",
      "type": "function"
    },
    {
      "inputs": [
        {
          "internalType": "uint256",
          "name": "_pid",
          "type": "uint256"
        },
        {
          "internalType": "address",
          "name": "_user",
          "type": "address"
        }
      ],
      "name": "pendingSushi",
      "outputs": [
        {
          "internalType": "uint256",
          "name": "pending",
          "type": "uint256"
        }
      ],
      "stateMutability": "view",
      "type": "function"
    },
    {
      "inputs": [
        {
          "internalType": "uint256[]",
          "name": "pids",
          "type": "uint256[]"
        }
      ],
      "name": "massUpdatePools",
      "outputs": [],
      "stateMutability": "nonpayable",
      "type": "function"
    },
    {
      "inputs": [
        {
          "internalType": "uint256",
          "name": "pid",
          "type": "uint256"
        }
      ],
      "name": "updatePool",
      "outputs": [
        {
          "components": [
            {
              "internalType": "uint128",
              "name": "accSushiPerShare",
              "type": "uint128"
            },
            {
              "internalType": "uint64",
              "name": "lastRewardTime",
              "type": "uint64"
            },
            {
              "internalType": "uint64",
              "name": "allocPoint",
              "type": "uint64"
            }
          ],
          "internalType": "struct MiniChefV2.PoolInfo",
          "name": "pool",
          "type": "tuple"
        }
      ],
      "stateMutability": "nonpayable",
      "type": "function"
    },
    {
      "inputs": [
        {
          "internalType": "uint256",
          "name": "pid",
          "type": "uint256"
        },
        {
          "internalType": "uint256",
          "name": "amount",
          "type": "uint256"
        },
        {
          "internalType": "address",
          "name": "to",
          "type": "address"
        }
      ],
      "name": "deposit",
      "outputs": [],
      "stateMutability": "nonpayable",
      "type": "function"
    },
    {
      "inputs": [
        {
          "internalType": "uint256",
          "name": "pid",
          "type": "uint256"
        },
        {
          "internalType": "uint256",
          "name": "amount",
          "type": "uint256"
        },
        {
          "internalType": "address",
          "name": "to",
          "type": "address"
        }
      ],
      "name": "withdraw",
      "outputs": [],
      "stateMutability": "nonpayable",
      "type": "function"
    },
    {
      "inputs": [
        {
          "internalType": "uint256",
          "name": "pid",
          "type": "uint256"
        },
        {
          "internalType": "address",
          "name": "to",
          "type": "address"
        }
      ],
      "name": "harvest",
      "outputs": [],
      "stateMutability": "nonpayable",
      "type": "function"
    },
    {
      "inputs": [
        {
          "internalType": "uint256",
          "name": "pid",
          "type": "uint256"
        },
        {
          "internalType": "uint256",
          "name": "amount",
          "type": "uint256"
        },
        {
          "internalType": "address",
          "name": "to",
          "type": "address"
        }
      ],
      "name": "withdrawAndHarvest",
      "outputs": [],
      "stateMutability": "nonpayable",
      "type": "function"
    },
    {
      "inputs": [
        {
          "internalType": "uint256",
          "name": "pid",
          "type": "uint256"
        },
        {
          "internalType": "address",
          "name": "to",
          "type": "address"
        }
      ],
      "name": "emergencyWithdraw",
      "outputs": [],
      "stateMutability": "nonpayable",
      "type": "function"
    }
  ],
  "bytecode": "0x60a06040523480156200001157600080fd5b5060405162004b4e38038062004b4e83398181016040528101906200003791906200018b565b336000806101000a81548173ffffffffffffffffffffffffffffffffffffffff021916908373ffffffffffffffffffffffffffffffffffffffff1602179055503373ffffffffffffffffffffffffffffffffffffffff16600073ffffffffffffffffffffffffffffffffffffffff167f8be0079c531659141344cd1fd0a4f28419497f9722a3daafe3b4186f6b6457e060405160405180910390a38073ffffffffffffffffffffffffffffffffffffffff1660808173ffffffffffffffffffffffffffffffffffffffff168152505050620001bd565b600080fd5b600073ffffffffffffffffffffffffffffffffffffffff82169050919050565b60006200013f8262000112565b9050919050565b6000620001538262000132565b9050919050565b620001658162000146565b81146200017157600080fd5b50565b60008151905062000185816200015a565b92915050565b600060208284031215620001a457620001a36200010d565b5b6000620001b48482850162000174565b91505092915050565b608051614967620001e760003960008181610d1b015281816125fa0152612b4501526149676000f3fe6080604052600436106101c25760003560e01c806379d12ffb116100f75780639baf58c311610095578063c346253d11610064578063c346253d1461063d578063d1abb9071461067a578063d2423b51146106a3578063e30c3978146106bf576101c2565b80639baf58c314610595578063a06e408b146105be578063ab560e10146105e9578063ab7de09814610614576101c2565b806388bba42f116100d157806388bba42f146104da5780638da5cb5b146105035780638dbdbe6d1461052e57806393f1a40b14610557576101c2565b806379d12ffb146104495780637c516e94146104865780637cd07e47146104af576101c2565b806323cf3118116101645780634e71e0c81161013e5780634e71e0c81461038f57806351eb05a6146103a657806357a5b58c146103e357806378ed5d1f1461040c576101c2565b806323cf3118146103145780632f940c701461033d578063454b060814610366576101c2565b80631526fe27116101a05780631526fe271461024457806317caf6f11461028357806318fccc76146102ae578063195426ec146102d7576101c2565b8063078dfbe7146101c7578063081e3eda146101f05780630ad58d2f1461021b575b600080fd5b3480156101d357600080fd5b506101ee60048036038101906101e991906132d6565b6106ea565b005b3480156101fc57600080fd5b5061020561093e565b6040516102129190613342565b60405180910390f35b34801561022757600080fd5b50610242600480360381019061023d9190613389565b61094b565b005b34801561025057600080fd5b5061026b600480360381019061026691906133dc565b610bd4565b60405161027a93929190613457565b60405180910390f35b34801561028f57600080fd5b50610298610c4e565b6040516102a59190613342565b60405180910390f35b3480156102ba57600080fd5b506102d560048036038101906102d0919061348e565b610c54565b005b3480156102e357600080fd5b506102fe60048036038101906102f9919061348e565b610ea7565b60405161030b9190613342565b60405180910390f35b34801561032057600080fd5b5061033b6004803603810190610336919061350c565b61118e565b005b34801561034957600080fd5b50610364600480360381019061035f919061348e565b611260565b005b34801561037257600080fd5b5061038d600480360381019061038891906133dc565b611493565b005b34801561039b57600080fd5b506103a461198a565b005b3480156103b257600080fd5b506103cd60048036038101906103c891906133dc565b611b1e565b6040516103da9190613599565b60405180910390f35b3480156103ef57600080fd5b5061040a60048036038101906104059190613619565b611eb7565b005b34801561041857600080fd5b50610433600480360381019061042e91906133dc565b611f04565b60405161044091906136c5565b60405180910390f35b34801561045557600080fd5b50610470600480360381019061046b91906136e0565b611f43565b60405161047d919061371c565b60405180910390f35b34801561049257600080fd5b506104ad60048036038101906104a891906137e4565b611f63565b005b3480156104bb57600080fd5b506104c4611fe4565b6040516104d191906138bb565b60405180910390f35b3480156104e657600080fd5b5061050160048036038101906104fc9190613914565b61200a565b005b34801561050f57600080fd5b50610518612243565b604051610525919061398a565b60405180910390f35b34801561053a57600080fd5b5061055560048036038101906105509190613389565b612267565b005b34801561056357600080fd5b5061057e6004803603810190610579919061348e565b6124f2565b60405161058c9291906139be565b60405180910390f35b3480156105a157600080fd5b506105bc60048036038101906105b791906133dc565b612523565b005b3480156105ca57600080fd5b506105d36125f2565b6040516105e09190613342565b60405180910390f35b3480156105f557600080fd5b506105fe6125f8565b60405161060b91906136c5565b60405180910390f35b34801561062057600080fd5b5061063b600480360381019061063691906139e7565b61261c565b005b34801561064957600080fd5b50610664600480360381019061065f91906133dc565b6129f3565b6040516106719190613a5b565b60405180910390f35b34801561068657600080fd5b506106a1600480360381019061069c9190613389565b612a32565b005b6106bd60048036038101906106b89190613acc565b612da0565b005b3480156106cb57600080fd5b506106d4612e75565b6040516106e1919061398a565b60405180910390f35b60008054906101000a900473ffffffffffffffffffffffffffffffffffffffff1673ffffffffffffffffffffffffffffffffffffffff163373ffffffffffffffffffffffffffffffffffffffff1614610778576040517f08c379a000000000000000000000000000000000000000000000000000000000815260040161076f90613b89565b60405180910390fd5b81156108f757600073ffffffffffffffffffffffffffffffffffffffff168373ffffffffffffffffffffffffffffffffffffffff161415806107b75750805b6107f6576040517f08c379a00000000000000000000000000000000000000000000000000000000081526004016107ed90613bf5565b60405180910390fd5b8273ffffffffffffffffffffffffffffffffffffffff1660008054906101000a900473ffffffffffffffffffffffffffffffffffffffff1673ffffffffffffffffffffffffffffffffffffffff167f8be0079c531659141344cd1fd0a4f28419497f9722a3daafe3b4186f6b6457e060405160405180910390a3826000806101000a81548173ffffffffffffffffffffffffffffffffffffffff021916908373ffffffffffffffffffffffffffffffffffffffff1602179055506000600160006101000a81548173ffffffffffffffffffffffffffffffffffffffff021916908373ffffffffffffffffffffffffffffffffffffffff160217905550610939565b82600160006101000a81548173ffffffffffffffffffffffffffffffffffffffff021916908373ffffffffffffffffffffffffffffffffffffffff1602179055505b505050565b6000600380549050905090565b600061095684611b1e565b905060006006600086815260200190815260200160002060003373ffffffffffffffffffffffffffffffffffffffff1673ffffffffffffffffffffffffffffffffffffffff168152602001908152602001600020905064e8d4a5100082600001516fffffffffffffffffffffffffffffffff16856109d49190613c44565b6109de9190613ccd565b81600101546109ed9190613cfe565b8160010181905550838160000154610a059190613d92565b8160000181905550600060058681548110610a2357610a22613dc6565b5b9060005260206000200160009054906101000a900473ffffffffffffffffffffffffffffffffffffffff169050600073ffffffffffffffffffffffffffffffffffffffff168173ffffffffffffffffffffffffffffffffffffffff1614610afd578073ffffffffffffffffffffffffffffffffffffffff16638bf63742873387600087600001546040518663ffffffff1660e01b8152600401610aca959493929190613e30565b600060405180830381600087803b158015610ae457600080fd5b505af1158015610af8573d6000803e3d6000fd5b505050505b610b66848660048981548110610b1657610b15613dc6565b5b9060005260206000200160009054906101000a900473ffffffffffffffffffffffffffffffffffffffff1673ffffffffffffffffffffffffffffffffffffffff16612e9b9092919063ffffffff16565b8373ffffffffffffffffffffffffffffffffffffffff16863373ffffffffffffffffffffffffffffffffffffffff167f8166bf25f8a2b7ed3c85049207da4358d16edbed977d23fa2ee6f0dde3ec213288604051610bc49190613342565b60405180910390a4505050505050565b60038181548110610be457600080fd5b906000526020600020016000915090508060000160009054906101000a90046fffffffffffffffffffffffffffffffff16908060000160109054906101000a900467ffffffffffffffff16908060000160189054906101000a900467ffffffffffffffff16905083565b60085481565b6000610c5f83611b1e565b905060006006600085815260200190815260200160002060003373ffffffffffffffffffffffffffffffffffffffff1673ffffffffffffffffffffffffffffffffffffffff1681526020019081526020016000209050600064e8d4a5100083600001516fffffffffffffffffffffffffffffffff168360000154610ce39190613c44565b610ced9190613ccd565b90506000826001015482610d019190613cfe565b905081836001018190555060008114610d6057610d5f85827f000000000000000000000000000000000000000000000000000000000000000073ffffffffffffffffffffffffffffffffffffffff16612e9b9092919063ffffffff16565b5b600060058781548110610d7657610d75613dc6565b5b9060005260206000200160009054906101000a900473ffffffffffffffffffffffffffffffffffffffff169050600073ffffffffffffffffffffffffffffffffffffffff168173ffffffffffffffffffffffffffffffffffffffff1614610e4f578073ffffffffffffffffffffffffffffffffffffffff16638bf637428833898689600001546040518663ffffffff1660e01b8152600401610e1c959493929190613e83565b600060405180830381600087803b158015610e3657600080fd5b505af1158015610e4a573d6000803e3d6000fd5b505050505b863373ffffffffffffffffffffffffffffffffffffffff167f71bab65ced2e5750775a0613be067df48ef06cf92a496ebf7663ae066092495484604051610e969190613342565b60405180910390a350505050505050565b60008060038481548110610ebe57610ebd613dc6565b5b906000526020600020016040518060600160405290816000820160009054906101000a90046fffffffffffffffffffffffffffffffff166fffffffffffffffffffffffffffffffff166fffffffffffffffffffffffffffffffff1681526020016000820160109054906101000a900467ffffffffffffffff1667ffffffffffffffff1667ffffffffffffffff1681526020016000820160189054906101000a900467ffffffffffffffff1667ffffffffffffffff1667ffffffffffffffff1681525050905060006006600086815260200190815260200160002060008573ffffffffffffffffffffffffffffffffffffffff1673ffffffffffffffffffffffffffffffffffffffff1681526020019081526020016000209050600082600001516fffffffffffffffffffffffffffffffff16905060006004878154811061100857611007613dc6565b5b9060005260206000200160009054906101000a900473ffffffffffffffffffffffffffffffffffffffff1673ffffffffffffffffffffffffffffffffffffffff166370a08231306040518263ffffffff1660e01b815260040161106b919061398a565b602060405180830381865afa158015611088573d6000803e3d6000fd5b505050506040513d601f19601f820116820180604052508101906110ac9190613eeb565b9050836020015167ffffffffffffffff16421180156110cc575060008114155b15611153576000846020015167ffffffffffffffff16426110ed9190613d92565b90506000600854866040015167ffffffffffffffff16600954846111119190613c44565b61111b9190613c44565b6111259190613ccd565b90508264e8d4a51000826111399190613c44565b6111439190613ccd565b8461114e9190613f18565b935050505b826001015464e8d4a5100083856000015461116e9190613c44565b6111789190613ccd565b6111829190613d92565b94505050505092915050565b60008054906101000a900473ffffffffffffffffffffffffffffffffffffffff1673ffffffffffffffffffffffffffffffffffffffff163373ffffffffffffffffffffffffffffffffffffffff161461121c576040517f08c379a000000000000000000000000000000000000000000000000000000000815260040161121390613b89565b60405180910390fd5b80600260006101000a81548173ffffffffffffffffffffffffffffffffffffffff021916908373ffffffffffffffffffffffffffffffffffffffff16021790555050565b60006006600084815260200190815260200160002060003373ffffffffffffffffffffffffffffffffffffffff1673ffffffffffffffffffffffffffffffffffffffff168152602001908152602001600020905060008160000154905060008260000181905550600082600101819055506000600585815481106112e7576112e6613dc6565b5b9060005260206000200160009054906101000a900473ffffffffffffffffffffffffffffffffffffffff169050600073ffffffffffffffffffffffffffffffffffffffff168173ffffffffffffffffffffffffffffffffffffffff16146113bd578073ffffffffffffffffffffffffffffffffffffffff16638bf637428633876000806040518663ffffffff1660e01b815260040161138a959493929190613f6e565b600060405180830381600087803b1580156113a457600080fd5b505af11580156113b8573d6000803e3d6000fd5b505050505b6114268483600488815481106113d6576113d5613dc6565b5b9060005260206000200160009054906101000a900473ffffffffffffffffffffffffffffffffffffffff1673ffffffffffffffffffffffffffffffffffffffff16612e9b9092919063ffffffff16565b8373ffffffffffffffffffffffffffffffffffffffff16853373ffffffffffffffffffffffffffffffffffffffff167f2cac5e20e1541d836381527a43f651851e302817b71dc8e810284e69210c1c6b856040516114849190613342565b60405180910390a45050505050565b600073ffffffffffffffffffffffffffffffffffffffff16600260009054906101000a900473ffffffffffffffffffffffffffffffffffffffff1673ffffffffffffffffffffffffffffffffffffffff161415611525576040517f08c379a000000000000000000000000000000000000000000000000000000000815260040161151c9061400d565b60405180910390fd5b60006004828154811061153b5761153a613dc6565b5b9060005260206000200160009054906101000a900473ffffffffffffffffffffffffffffffffffffffff16905060008173ffffffffffffffffffffffffffffffffffffffff166370a08231306040518263ffffffff1660e01b81526004016115a3919061398a565b602060405180830381865afa1580156115c0573d6000803e3d6000fd5b505050506040513d601f19601f820116820180604052508101906115e49190613eeb565b90508173ffffffffffffffffffffffffffffffffffffffff1663095ea7b3600260009054906101000a900473ffffffffffffffffffffffffffffffffffffffff16836040518363ffffffff1660e01b815260040161164392919061402d565b6020604051808303816000875af1158015611662573d6000803e3d6000fd5b505050506040513d601f19601f82011682018060405250810190611686919061406b565b506000600260009054906101000a900473ffffffffffffffffffffffffffffffffffffffff1673ffffffffffffffffffffffffffffffffffffffff1663ce5494bb846040518263ffffffff1660e01b81526004016116e491906136c5565b6020604051808303816000875af1158015611703573d6000803e3d6000fd5b505050506040513d601f19601f8201168201806040525081019061172791906140ad565b90508073ffffffffffffffffffffffffffffffffffffffff166370a08231306040518263ffffffff1660e01b8152600401611762919061398a565b602060405180830381865afa15801561177f573d6000803e3d6000fd5b505050506040513d601f19601f820116820180604052508101906117a39190613eeb565b82146117e4576040517f08c379a00000000000000000000000000000000000000000000000000000000081526004016117db9061414c565b60405180910390fd5b60001515600760008373ffffffffffffffffffffffffffffffffffffffff1673ffffffffffffffffffffffffffffffffffffffff16815260200190815260200160002060009054906101000a900460ff16151514611877576040517f08c379a000000000000000000000000000000000000000000000000000000000815260040161186e906141b8565b60405180910390fd5b6001600760008373ffffffffffffffffffffffffffffffffffffffff1673ffffffffffffffffffffffffffffffffffffffff16815260200190815260200160002060006101000a81548160ff0219169083151502179055506000600760008573ffffffffffffffffffffffffffffffffffffffff1673ffffffffffffffffffffffffffffffffffffffff16815260200190815260200160002060006101000a81548160ff021916908315150217905550806004858154811061193c5761193b613dc6565b5b9060005260206000200160006101000a81548173ffffffffffffffffffffffffffffffffffffffff021916908373ffffffffffffffffffffffffffffffffffffffff16021790555050505050565b6000600160009054906101000a900473ffffffffffffffffffffffffffffffffffffffff1690508073ffffffffffffffffffffffffffffffffffffffff163373ffffffffffffffffffffffffffffffffffffffff1614611a1f576040517f08c379a0000000000000000000000000000000000000000000000000000000008152600401611a1690614224565b60405180910390fd5b8073ffffffffffffffffffffffffffffffffffffffff1660008054906101000a900473ffffffffffffffffffffffffffffffffffffffff1673ffffffffffffffffffffffffffffffffffffffff167f8be0079c531659141344cd1fd0a4f28419497f9722a3daafe3b4186f6b6457e060405160405180910390a3806000806101000a81548173ffffffffffffffffffffffffffffffffffffffff021916908373ffffffffffffffffffffffffffffffffffffffff1602179055506000600160006101000a81548173ffffffffffffffffffffffffffffffffffffffff021916908373ffffffffffffffffffffffffffffffffffffffff16021790555050565b611b266131e5565b60038281548110611b3a57611b39613dc6565b5b906000526020600020016040518060600160405290816000820160009054906101000a90046fffffffffffffffffffffffffffffffff166fffffffffffffffffffffffffffffffff166fffffffffffffffffffffffffffffffff1681526020016000820160109054906101000a900467ffffffffffffffff1667ffffffffffffffff1667ffffffffffffffff1681526020016000820160189054906101000a900467ffffffffffffffff1667ffffffffffffffff1667ffffffffffffffff16815250509050806020015167ffffffffffffffff16421115611eb257600060048381548110611c2b57611c2a613dc6565b5b9060005260206000200160009054906101000a900473ffffffffffffffffffffffffffffffffffffffff1673ffffffffffffffffffffffffffffffffffffffff166370a08231306040518263ffffffff1660e01b8152600401611c8e919061398a565b602060405180830381865afa158015611cab573d6000803e3d6000fd5b505050506040513d601f19601f82011682018060405250810190611ccf9190613eeb565b90506000811115611d8d576000826020015167ffffffffffffffff1642611cf69190613d92565b90506000600854846040015167ffffffffffffffff1660095484611d1a9190613c44565b611d249190613c44565b611d2e9190613ccd565b90508264e8d4a5100082611d429190613c44565b611d4c9190613ccd565b8460000151611d5b9190614244565b84600001906fffffffffffffffffffffffffffffffff1690816fffffffffffffffffffffffffffffffff168152505050505b42826020019067ffffffffffffffff16908167ffffffffffffffff16815250508160038481548110611dc257611dc1613dc6565b5b9060005260206000200160008201518160000160006101000a8154816fffffffffffffffffffffffffffffffff02191690836fffffffffffffffffffffffffffffffff16021790555060208201518160000160106101000a81548167ffffffffffffffff021916908367ffffffffffffffff16021790555060408201518160000160186101000a81548167ffffffffffffffff021916908367ffffffffffffffff160217905550905050827f0fc9545022a542541ad085d091fb09a2ab36fee366a4576ab63714ea907ad3538360200151838560000151604051611ea8939291906142bb565b60405180910390a2505b919050565b600082829050905060005b81811015611efe57611eec848483818110611ee057611edf613dc6565b5b90506020020135611b1e565b5080611ef7906142f2565b9050611ec2565b50505050565b60048181548110611f1457600080fd5b906000526020600020016000915054906101000a900473ffffffffffffffffffffffffffffffffffffffff1681565b60076020528060005260406000206000915054906101000a900460ff1681565b8773ffffffffffffffffffffffffffffffffffffffff1663d505accf888888888888886040518863ffffffff1660e01b8152600401611fa89796959493929190614359565b600060405180830381600087803b158015611fc257600080fd5b505af1158015611fd6573d6000803e3d6000fd5b505050505050505050505050565b600260009054906101000a900473ffffffffffffffffffffffffffffffffffffffff1681565b60008054906101000a900473ffffffffffffffffffffffffffffffffffffffff1673ffffffffffffffffffffffffffffffffffffffff163373ffffffffffffffffffffffffffffffffffffffff1614612098576040517f08c379a000000000000000000000000000000000000000000000000000000000815260040161208f90613b89565b60405180910390fd5b82600385815481106120ad576120ac613dc6565b5b9060005260206000200160000160189054906101000a900467ffffffffffffffff1667ffffffffffffffff166008546120e69190613d92565b6120f09190613f18565b600881905550826003858154811061210b5761210a613dc6565b5b9060005260206000200160000160186101000a81548167ffffffffffffffff021916908367ffffffffffffffff16021790555080156121a257816005858154811061215957612158613dc6565b5b9060005260206000200160006101000a81548173ffffffffffffffffffffffffffffffffffffffff021916908373ffffffffffffffffffffffffffffffffffffffff1602179055505b806121eb57600584815481106121bb576121ba613dc6565b5b9060005260206000200160009054906101000a900473ffffffffffffffffffffffffffffffffffffffff166121ed565b815b73ffffffffffffffffffffffffffffffffffffffff16847f95895a6ab1df54420d241b55243258a33e61b2194db66c1179ec521aae8e186585846040516122359291906143c8565b60405180910390a350505050565b60008054906101000a900473ffffffffffffffffffffffffffffffffffffffff1681565b600061227284611b1e565b905060006006600086815260200190815260200160002060008473ffffffffffffffffffffffffffffffffffffffff1673ffffffffffffffffffffffffffffffffffffffff16815260200190815260200160002090508381600001546122d89190613f18565b816000018190555064e8d4a5100082600001516fffffffffffffffffffffffffffffffff16856123089190613c44565b6123129190613ccd565b816001015461232191906143f1565b816001018190555060006005868154811061233f5761233e613dc6565b5b9060005260206000200160009054906101000a900473ffffffffffffffffffffffffffffffffffffffff169050600073ffffffffffffffffffffffffffffffffffffffff168173ffffffffffffffffffffffffffffffffffffffff1614612419578073ffffffffffffffffffffffffffffffffffffffff16638bf63742878687600087600001546040518663ffffffff1660e01b81526004016123e6959493929190613e30565b600060405180830381600087803b15801561240057600080fd5b505af1158015612414573d6000803e3d6000fd5b505050505b61248433308760048a8154811061243357612432613dc6565b5b9060005260206000200160009054906101000a900473ffffffffffffffffffffffffffffffffffffffff1673ffffffffffffffffffffffffffffffffffffffff16612ff0909392919063ffffffff16565b8373ffffffffffffffffffffffffffffffffffffffff16863373ffffffffffffffffffffffffffffffffffffffff167f02d7e648dd130fc184d383e55bb126ac4c9c60e8f94bf05acdf557ba2d540b47886040516124e29190613342565b60405180910390a4505050505050565b6006602052816000526040600020602052806000526040600020600091509150508060000154908060010154905082565b60008054906101000a900473ffffffffffffffffffffffffffffffffffffffff1673ffffffffffffffffffffffffffffffffffffffff163373ffffffffffffffffffffffffffffffffffffffff16146125b1576040517f08c379a00000000000000000000000000000000000000000000000000000000081526004016125a890613b89565b60405180910390fd5b806009819055507fc6ce5eff3291fb2c1517b943daa5067ea76c83816bbf674307fbc7fea3b311d0816040516125e79190613342565b60405180910390a150565b60095481565b7f000000000000000000000000000000000000000000000000000000000000000081565b60008054906101000a900473ffffffffffffffffffffffffffffffffffffffff1673ffffffffffffffffffffffffffffffffffffffff163373ffffffffffffffffffffffffffffffffffffffff16146126aa576040517f08c379a00000000000000000000000000000000000000000000000000000000081526004016126a190613b89565b60405180910390fd5b60001515600760008473ffffffffffffffffffffffffffffffffffffffff1673ffffffffffffffffffffffffffffffffffffffff16815260200190815260200160002060009054906101000a900460ff1615151461273d576040517f08c379a0000000000000000000000000000000000000000000000000000000008152600401612734906141b8565b60405180910390fd5b8260085461274b9190613f18565b6008819055506004829080600181540180825580915050600190039060005260206000200160009091909190916101000a81548173ffffffffffffffffffffffffffffffffffffffff021916908373ffffffffffffffffffffffffffffffffffffffff1602179055506005819080600181540180825580915050600190039060005260206000200160009091909190916101000a81548173ffffffffffffffffffffffffffffffffffffffff021916908373ffffffffffffffffffffffffffffffffffffffff1602179055506003604051806060016040528060006fffffffffffffffffffffffffffffffff1681526020014267ffffffffffffffff1681526020018567ffffffffffffffff168152509080600181540180825580915050600190039060005260206000200160009091909190915060008201518160000160006101000a8154816fffffffffffffffffffffffffffffffff02191690836fffffffffffffffffffffffffffffffff16021790555060208201518160000160106101000a81548167ffffffffffffffff021916908367ffffffffffffffff16021790555060408201518160000160186101000a81548167ffffffffffffffff021916908367ffffffffffffffff16021790555050506001600760008473ffffffffffffffffffffffffffffffffffffffff1673ffffffffffffffffffffffffffffffffffffffff16815260200190815260200160002060006101000a81548160ff0219169083151502179055508073ffffffffffffffffffffffffffffffffffffffff168273ffffffffffffffffffffffffffffffffffffffff1660016004805490506129b79190613d92565b7f81ee0f8c5c46e2cb41984886f77a84181724abb86c32a5f6de539b07509d45e5866040516129e69190613342565b60405180910390a4505050565b60058181548110612a0357600080fd5b906000526020600020016000915054906101000a900473ffffffffffffffffffffffffffffffffffffffff1681565b6000612a3d84611b1e565b905060006006600086815260200190815260200160002060003373ffffffffffffffffffffffffffffffffffffffff1673ffffffffffffffffffffffffffffffffffffffff1681526020019081526020016000209050600064e8d4a5100083600001516fffffffffffffffffffffffffffffffff168360000154612ac19190613c44565b612acb9190613ccd565b90506000826001015482612adf9190613cfe565b905064e8d4a5100084600001516fffffffffffffffffffffffffffffffff1687612b099190613c44565b612b139190613ccd565b82612b1e9190613cfe565b8360010181905550858360000154612b369190613d92565b8360000181905550612b8985827f000000000000000000000000000000000000000000000000000000000000000073ffffffffffffffffffffffffffffffffffffffff16612e9b9092919063ffffffff16565b600060058881548110612b9f57612b9e613dc6565b5b9060005260206000200160009054906101000a900473ffffffffffffffffffffffffffffffffffffffff169050600073ffffffffffffffffffffffffffffffffffffffff168173ffffffffffffffffffffffffffffffffffffffff1614612c78578073ffffffffffffffffffffffffffffffffffffffff16638bf637428933898689600001546040518663ffffffff1660e01b8152600401612c45959493929190613e83565b600060405180830381600087803b158015612c5f57600080fd5b505af1158015612c73573d6000803e3d6000fd5b505050505b612ce1868860048b81548110612c9157612c90613dc6565b5b9060005260206000200160009054906101000a900473ffffffffffffffffffffffffffffffffffffffff1673ffffffffffffffffffffffffffffffffffffffff16612e9b9092919063ffffffff16565b8573ffffffffffffffffffffffffffffffffffffffff16883373ffffffffffffffffffffffffffffffffffffffff167f8166bf25f8a2b7ed3c85049207da4358d16edbed977d23fa2ee6f0dde3ec21328a604051612d3f9190613342565b60405180910390a4873373ffffffffffffffffffffffffffffffffffffffff167f71bab65ced2e5750775a0613be067df48ef06cf92a496ebf7663ae066092495484604051612d8e9190613342565b60405180910390a35050505050505050565b60005b83839050811015612e6f576000803073ffffffffffffffffffffffffffffffffffffffff16868685818110612ddb57612dda613dc6565b5b9050602002810190612ded9190614494565b604051612dfb929190614536565b600060405180830381855af49150503d8060008114612e36576040519150601f19603f3d011682016040523d82523d6000602084013e612e3b565b606091505b509150915081158015612e4b5750835b15612e5a57612e5981613148565b5b50508080612e67906142f2565b915050612da3565b50505050565b600160009054906101000a900473ffffffffffffffffffffffffffffffffffffffff1681565b6000808473ffffffffffffffffffffffffffffffffffffffff1663a9059cbb60e01b8585604051602401612ed092919061402d565b604051602081830303815290604052907bffffffffffffffffffffffffffffffffffffffffffffffffffffffff19166020820180517bffffffffffffffffffffffffffffffffffffffffffffffffffffffff8381831617835250505050604051612f3a91906145be565b6000604051808303816000865af19150503d8060008114612f77576040519150601f19603f3d011682016040523d82523d6000602084013e612f7c565b606091505b5091509150818015612faa5750600081511480612fa9575080806020019051810190612fa8919061406b565b5b5b612fe9576040517f08c379a0000000000000000000000000000000000000000000000000000000008152600401612fe090614621565b60405180910390fd5b5050505050565b6000808573ffffffffffffffffffffffffffffffffffffffff166323b872dd60e01b86868660405160240161302793929190614641565b604051602081830303815290604052907bffffffffffffffffffffffffffffffffffffffffffffffffffffffff19166020820180517bffffffffffffffffffffffffffffffffffffffffffffffffffffffff838183161783525050505060405161309191906145be565b6000604051808303816000865af19150503d80600081146130ce576040519150601f19603f3d011682016040523d82523d6000602084013e6130d3565b606091505b509150915081801561310157506000815114806131005750808060200190518101906130ff919061406b565b5b5b613140576040517f08c379a0000000000000000000000000000000000000000000000000000000008152600401613137906146c4565b60405180910390fd5b505050505050565b60448151101561318f57806040517fd9354485000000000000000000000000000000000000000000000000000000008152600401613186919061473f565b60405180910390fd5b600481019050808060200190518101906131a99190614882565b6040517f08c379a00000000000000000000000000000000000000000000000000000000081526004016131dc919061490f565b60405180910390fd5b604051806060016040528060006fffffffffffffffffffffffffffffffff168152602001600067ffffffffffffffff168152602001600067ffffffffffffffff1681525090565b6000604051905090565b600080fd5b600080fd5b600073ffffffffffffffffffffffffffffffffffffffff82169050919050565b600061326b82613240565b9050919050565b61327b81613260565b811461328657600080fd5b50565b60008135905061329881613272565b92915050565b60008115159050919050565b6132b38161329e565b81146132be57600080fd5b50565b6000813590506132d0816132aa565b92915050565b6000806000606084860312156132ef576132ee613236565b5b60006132fd86828701613289565b935050602061330e868287016132c1565b925050604061331f868287016132c1565b9150509250925092565b6000819050919050565b61333c81613329565b82525050565b60006020820190506133576000830184613333565b92915050565b61336681613329565b811461337157600080fd5b50565b6000813590506133838161335d565b92915050565b6000806000606084860312156133a2576133a1613236565b5b60006133b086828701613374565b93505060206133c186828701613374565b92505060406133d286828701613289565b9150509250925092565b6000602082840312156133f2576133f1613236565b5b600061340084828501613374565b91505092915050565b60006fffffffffffffffffffffffffffffffff82169050919050565b61342e81613409565b82525050565b600067ffffffffffffffff82169050919050565b61345181613434565b82525050565b600060608201905061346c6000830186613425565b6134796020830185613448565b6134866040830184613448565b949350505050565b600080604083850312156134a5576134a4613236565b5b60006134b385828601613374565b92505060206134c485828601613289565b9150509250929050565b60006134d982613260565b9050919050565b6134e9816134ce565b81146134f457600080fd5b50565b600081359050613506816134e0565b92915050565b60006020828403121561352257613521613236565b5b6000613530848285016134f7565b91505092915050565b61354281613409565b82525050565b61355181613434565b82525050565b60608201600082015161356d6000850182613539565b5060208201516135806020850182613548565b5060408201516135936040850182613548565b50505050565b60006060820190506135ae6000830184613557565b92915050565b600080fd5b600080fd5b600080fd5b60008083601f8401126135d9576135d86135b4565b5b8235905067ffffffffffffffff8111156135f6576135f56135b9565b5b602083019150836020820283011115613612576136116135be565b5b9250929050565b600080602083850312156136305761362f613236565b5b600083013567ffffffffffffffff81111561364e5761364d61323b565b5b61365a858286016135c3565b92509250509250929050565b6000819050919050565b600061368b61368661368184613240565b613666565b613240565b9050919050565b600061369d82613670565b9050919050565b60006136af82613692565b9050919050565b6136bf816136a4565b82525050565b60006020820190506136da60008301846136b6565b92915050565b6000602082840312156136f6576136f5613236565b5b600061370484828501613289565b91505092915050565b6137168161329e565b82525050565b6000602082019050613731600083018461370d565b92915050565b600061374282613260565b9050919050565b61375281613737565b811461375d57600080fd5b50565b60008135905061376f81613749565b92915050565b600060ff82169050919050565b61378b81613775565b811461379657600080fd5b50565b6000813590506137a881613782565b92915050565b6000819050919050565b6137c1816137ae565b81146137cc57600080fd5b50565b6000813590506137de816137b8565b92915050565b600080600080600080600080610100898b03121561380557613804613236565b5b60006138138b828c01613760565b98505060206138248b828c01613289565b97505060406138358b828c01613289565b96505060606138468b828c01613374565b95505060806138578b828c01613374565b94505060a06138688b828c01613799565b93505060c06138798b828c016137cf565b92505060e061388a8b828c016137cf565b9150509295985092959890939650565b60006138a582613692565b9050919050565b6138b58161389a565b82525050565b60006020820190506138d060008301846138ac565b92915050565b60006138e182613260565b9050919050565b6138f1816138d6565b81146138fc57600080fd5b50565b60008135905061390e816138e8565b92915050565b6000806000806080858703121561392e5761392d613236565b5b600061393c87828801613374565b945050602061394d87828801613374565b935050604061395e878288016138ff565b925050606061396f878288016132c1565b91505092959194509250565b61398481613260565b82525050565b600060208201905061399f600083018461397b565b92915050565b6000819050919050565b6139b8816139a5565b82525050565b60006040820190506139d36000830185613333565b6139e060208301846139af565b9392505050565b600080600060608486031215613a00576139ff613236565b5b6000613a0e86828701613374565b9350506020613a1f86828701613760565b9250506040613a30868287016138ff565b9150509250925092565b6000613a4582613692565b9050919050565b613a5581613a3a565b82525050565b6000602082019050613a706000830184613a4c565b92915050565b60008083601f840112613a8c57613a8b6135b4565b5b8235905067ffffffffffffffff811115613aa957613aa86135b9565b5b602083019150836020820283011115613ac557613ac46135be565b5b9250929050565b600080600060408486031215613ae557613ae4613236565b5b600084013567ffffffffffffffff811115613b0357613b0261323b565b5b613b0f86828701613a76565b93509350506020613b22868287016132c1565b9150509250925092565b600082825260208201905092915050565b7f4f776e61626c653a2063616c6c6572206973206e6f7420746865206f776e6572600082015250565b6000613b73602083613b2c565b9150613b7e82613b3d565b602082019050919050565b60006020820190508181036000830152613ba281613b66565b9050919050565b7f4f776e61626c653a207a65726f20616464726573730000000000000000000000600082015250565b6000613bdf601583613b2c565b9150613bea82613ba9565b602082019050919050565b60006020820190508181036000830152613c0e81613bd2565b9050919050565b7f4e487b7100000000000000000000000000000000000000000000000000000000600052601160045260246000fd5b6000613c4f82613329565b9150613c5a83613329565b9250817fffffffffffffffffffffffffffffffffffffffffffffffffffffffffffffffff0483118215151615613c9357613c92613c15565b5b828202905092915050565b7f4e487b7100000000000000000000000000000000000000000000000000000000600052601260045260246000fd5b6000613cd882613329565b9150613ce383613329565b925082613cf357613cf2613c9e565b5b828204905092915050565b6000613d09826139a5565b9150613d14836139a5565b9250827f800000000000000000000000000000000000000000000000000000000000000001821260008412151615613d4f57613d4e613c15565b5b827f7fffffffffffffffffffffffffffffffffffffffffffffffffffffffffffffff018213600084121615613d8757613d86613c15565b5b828203905092915050565b6000613d9d82613329565b9150613da883613329565b925082821015613dbb57613dba613c15565b5b828203905092915050565b7f4e487b7100000000000000000000000000000000000000000000000000000000600052603260045260246000fd5b6000819050919050565b6000613e1a613e15613e1084613df5565b613666565b613329565b9050919050565b613e2a81613dff565b82525050565b600060a082019050613e456000830188613333565b613e52602083018761397b565b613e5f604083018661397b565b613e6c6060830185613e21565b613e796080830184613333565b9695505050505050565b600060a082019050613e986000830188613333565b613ea5602083018761397b565b613eb2604083018661397b565b613ebf6060830185613333565b613ecc6080830184613333565b9695505050505050565b600081519050613ee58161335d565b92915050565b600060208284031215613f0157613f00613236565b5b6000613f0f84828501613ed6565b91505092915050565b6000613f2382613329565b9150613f2e83613329565b9250827fffffffffffffffffffffffffffffffffffffffffffffffffffffffffffffffff03821115613f6357613f62613c15565b5b828201905092915050565b600060a082019050613f836000830188613333565b613f90602083018761397b565b613f9d604083018661397b565b613faa6060830185613e21565b613fb76080830184613e21565b9695505050505050565b7f4d61737465724368656656323a206e6f206d69677261746f7220736574000000600082015250565b6000613ff7601d83613b2c565b915061400282613fc1565b602082019050919050565b6000602082019050818103600083015261402681613fea565b9050919050565b6000604082019050614042600083018561397b565b61404f6020830184613333565b9392505050565b600081519050614065816132aa565b92915050565b60006020828403121561408157614080613236565b5b600061408f84828501614056565b91505092915050565b6000815190506140a781613749565b92915050565b6000602082840312156140c3576140c2613236565b5b60006140d184828501614098565b91505092915050565b7f4d61737465724368656656323a206d696772617465642062616c616e6365206d60008201527f757374206d617463680000000000000000000000000000000000000000000000602082015250565b6000614136602983613b2c565b9150614141826140da565b604082019050919050565b6000602082019050818103600083015261416581614129565b9050919050565b7f546f6b656e20616c726561647920616464656400000000000000000000000000600082015250565b60006141a2601383613b2c565b91506141ad8261416c565b602082019050919050565b600060208201905081810360008301526141d181614195565b9050919050565b7f4f776e61626c653a2063616c6c657220213d2070656e64696e67206f776e6572600082015250565b600061420e602083613b2c565b9150614219826141d8565b602082019050919050565b6000602082019050818103600083015261423d81614201565b9050919050565b600061424f82613409565b915061425a83613409565b9250826fffffffffffffffffffffffffffffffff0382111561427f5761427e613c15565b5b828201905092915050565b60006142a56142a061429b84613409565b613666565b613329565b9050919050565b6142b58161428a565b82525050565b60006060820190506142d06000830186613448565b6142dd6020830185613333565b6142ea60408301846142ac565b949350505050565b60006142fd82613329565b91507fffffffffffffffffffffffffffffffffffffffffffffffffffffffffffffffff8214156143305761432f613c15565b5b600182019050919050565b61434481613775565b82525050565b614353816137ae565b82525050565b600060e08201905061436e600083018a61397b565b61437b602083018961397b565b6143886040830188613333565b6143956060830187613333565b6143a2608083018661433b565b6143af60a083018561434a565b6143bc60c083018461434a565b98975050505050505050565b60006040820190506143dd6000830185613333565b6143ea602083018461370d565b9392505050565b60006143fc826139a5565b9150614407836139a5565b9250817f7fffffffffffffffffffffffffffffffffffffffffffffffffffffffffffffff0383136000831215161561444257614441613c15565b5b817f800000000000000000000000000000000000000000000000000000000000000003831260008312161561447a57614479613c15565b5b828201905092915050565b600080fd5b600080fd5b600080fd5b600080833560016020038436030381126144b1576144b0614485565b5b80840192508235915067ffffffffffffffff8211156144d3576144d261448a565b5b6020830192506001820236038313156144ef576144ee61448f565b5b509250929050565b600081905092915050565b82818337600083830152505050565b600061451d83856144f7565b935061452a838584614502565b82840190509392505050565b6000614543828486614511565b91508190509392505050565b600081519050919050565b60005b8381101561457857808201518184015260208101905061455d565b83811115614587576000848401525b50505050565b60006145988261454f565b6145a281856144f7565b93506145b281856020860161455a565b80840191505092915050565b60006145ca828461458d565b915081905092915050565b7f426f72696e6745524332303a205472616e73666572206661696c656400000000600082015250565b600061460b601c83613b2c565b9150614616826145d5565b602082019050919050565b6000602082019050818103600083015261463a816145fe565b9050919050565b6000606082019050614656600083018661397b565b614663602083018561397b565b6146706040830184613333565b949350505050565b7f426f72696e6745524332303a205472616e7366657246726f6d206661696c6564600082015250565b60006146ae602083613b2c565b91506146b982614678565b602082019050919050565b600060208201905081810360008301526146dd816146a1565b9050919050565b600082825260208201905092915050565b6000601f19601f8301169050919050565b60006147118261454f565b61471b81856146e4565b935061472b81856020860161455a565b614734816146f5565b840191505092915050565b600060208201905081810360008301526147598184614706565b905092915050565b600080fd5b7f4e487b7100000000000000000000000000000000000000000000000000000000600052604160045260246000fd5b61479e826146f5565b810181811067ffffffffffffffff821117156147bd576147bc614766565b5b80604052505050565b60006147d061322c565b90506147dc8282614795565b919050565b600067ffffffffffffffff8211156147fc576147fb614766565b5b614805826146f5565b9050602081019050919050565b6000614825614820846147e1565b6147c6565b90508281526020810184848401111561484157614840614761565b5b61484c84828561455a565b509392505050565b600082601f830112614869576148686135b4565b5b8151614879848260208601614812565b91505092915050565b60006020828403121561489857614897613236565b5b600082015167ffffffffffffffff8111156148b6576148b561323b565b5b6148c284828501614854565b91505092915050565b600081519050919050565b60006148e1826148cb565b6148eb8185613b2c565b93506148fb81856020860161455a565b614904816146f5565b840191505092915050565b6000602082019050818103600083015261492981846148d6565b90509291505056fea26469706673582212203913d0d86922af983da48d3f397a3c3a450528b35a8064a0e387aaba24b71ea864736f6c634300080b0033",
  "immutableReferences": {
    "5685": [
      {
        "length": 32,
        "start": 3355
      },
      {
        "length": 32,
        "start": 9722
      },
      {
        "length": 32,
        "start": 11077
      }
    ]
  },
  "source": "// SPDX-License-Identifier: MIT\n\npragma solidity ^0.8.0;\npragma experimental ABIEncoderV2;\n\n//import \"@boringcrypto/boring-solidity/contracts/libraries/BoringMath.sol\";\nimport \"@boringcrypto/boring-solidity/contracts/BoringBatchable.sol\";\nimport \"@boringcrypto/boring-solidity/contracts/BoringOwnable.sol\";\nimport \"./libraries/SignedSafeMath.sol\";\nimport \"./interfaces/IRewarder.sol\";\nimport \"./interfaces/IMasterChef.sol\";\n\ninterface IMigratorChef {\n    // Take the current LP token address and return the new LP token address.\n    // Migrator should have full access to the caller's LP token.\n    function migrate(IERC20 token) external returns (IERC20);\n}\n\n/// @notice The (older) MasterChef contract gives out a constant number of SUSHI tokens per block.\n/// It is the only address with minting rights for SUSHI.\n/// The idea for this MasterChef V2 (MCV2) contract is therefore to be the owner of a dummy token\n/// that is deposited into the MasterChef V1 (MCV1) contract.\n/// The allocation point for this pool on MCV1 is the total allocation point for all pools that receive double incentives.\ncontract MiniChefV2 is BoringOwnable, BoringBatchable {\n    //using BoringMath for uint256;\n    //using BoringMath128 for uint128;\n    using BoringERC20 for IERC20;\n    using SignedSafeMath for int256;\n\n    /// @notice Info of each MCV2 user.\n    /// `amount` LP token amount the user has provided.\n    /// `rewardDebt` The amount of SUSHI entitled to the user.\n    struct UserInfo {\n        uint256 amount;\n        int256 rewardDebt;\n    }\n\n    /// @notice Info of each MCV2 pool.\n    /// `allocPoint` The amount of allocation points assigned to the pool.\n    /// Also known as the amount of SUSHI to distribute per block.\n    struct PoolInfo {\n        uint128 accSushiPerShare;\n        uint64 lastRewardTime;\n        uint64 allocPoint;\n    }\n\n    /// @notice Address of SUSHI contract.\n    IERC20 public immutable SUSHI;\n    // @notice The migrator contract. It has a lot of power. Can only be set through governance (owner).\n    IMigratorChef public migrator;\n\n    /// @notice Info of each MCV2 pool.\n    PoolInfo[] public poolInfo;\n    /// @notice Address of the LP token for each MCV2 pool.\n    IERC20[] public lpToken;\n    /// @notice Address of each `IRewarder` contract in MCV2.\n    IRewarder[] public rewarder;\n\n    /// @notice Info of each user that stakes LP tokens.\n    mapping (uint256 => mapping (address => UserInfo)) public userInfo;\n\n    /// @dev Tokens added\n    mapping (address => bool) public addedTokens;\n\n    /// @dev Total allocation points. Must be the sum of all allocation points in all pools.\n    uint256 public totalAllocPoint;\n\n    uint256 public sushiPerSecond;\n    uint256 private constant ACC_SUSHI_PRECISION = 1e12;\n\n    event Deposit(address indexed user, uint256 indexed pid, uint256 amount, address indexed to);\n    event Withdraw(address indexed user, uint256 indexed pid, uint256 amount, address indexed to);\n    event EmergencyWithdraw(address indexed user, uint256 indexed pid, uint256 amount, address indexed to);\n    event Harvest(address indexed user, uint256 indexed pid, uint256 amount);\n    event LogPoolAddition(uint256 indexed pid, uint256 allocPoint, IERC20 indexed lpToken, IRewarder indexed rewarder);\n    event LogSetPool(uint256 indexed pid, uint256 allocPoint, IRewarder indexed rewarder, bool overwrite);\n    event LogUpdatePool(uint256 indexed pid, uint64 lastRewardTime, uint256 lpSupply, uint256 accSushiPerShare);\n    event LogSushiPerSecond(uint256 sushiPerSecond);\n\n    /// @param _sushi The SUSHI token contract address.\n    constructor(IERC20 _sushi) public {\n        SUSHI = _sushi;\n    }\n\n    /// @notice Returns the number of MCV2 pools.\n    function poolLength() public view returns (uint256 pools) {\n        pools = poolInfo.length;\n    }\n\n    /// @notice Add a new LP to the pool. Can only be called by the owner.\n    /// DO NOT add the same LP token more than once. Rewards will be messed up if you do.\n    /// @param allocPoint AP of the new pool.\n    /// @param _lpToken Address of the LP ERC-20 token.\n    /// @param _rewarder Address of the rewarder delegate.\n    function add(uint256 allocPoint, IERC20 _lpToken, IRewarder _rewarder) public onlyOwner {\n        require(addedTokens[address(_lpToken)] == false, \"Token already added\");\n        totalAllocPoint = totalAllocPoint + allocPoint;\n        lpToken.push(_lpToken);\n        rewarder.push(_rewarder);\n\n        poolInfo.push(PoolInfo({\n            allocPoint: uint64(allocPoint),//allocPoint.to64(),\n            lastRewardTime: uint64(block.timestamp),\n            accSushiPerShare: 0\n        }));\n        addedTokens[address(_lpToken)] = true;\n        emit LogPoolAddition(lpToken.length - 1, allocPoint, _lpToken, _rewarder);\n    }\n\n    /// @notice Update the given pool's SUSHI allocation point and `IRewarder` contract. Can only be called by the owner.\n    /// @param _pid The index of the pool. See `poolInfo`.\n    /// @param _allocPoint New AP of the pool.\n    /// @param _rewarder Address of the rewarder delegate.\n    /// @param overwrite True if _rewarder should be `set`. Otherwise `_rewarder` is ignored.\n    function set(uint256 _pid, uint256 _allocPoint, IRewarder _rewarder, bool overwrite) public onlyOwner {\n        totalAllocPoint = totalAllocPoint-(poolInfo[_pid].allocPoint)+(_allocPoint);\n        poolInfo[_pid].allocPoint = uint64(_allocPoint);\n        if (overwrite) { rewarder[_pid] = _rewarder; }\n        emit LogSetPool(_pid, _allocPoint, overwrite ? _rewarder : rewarder[_pid], overwrite);\n    }\n\n    /// @notice Sets the sushi per second to be distributed. Can only be called by the owner.\n    /// @param _sushiPerSecond The amount of Sushi to be distributed per second.\n    function setSushiPerSecond(uint256 _sushiPerSecond) public onlyOwner {\n        sushiPerSecond = _sushiPerSecond;\n        emit LogSushiPerSecond(_sushiPerSecond);\n    }\n\n    /// @notice Set the `migrator` contract. Can only be called by the owner.\n    /// @param _migrator The contract address to set.\n    function setMigrator(IMigratorChef _migrator) public onlyOwner {\n        migrator = _migrator;\n    }\n\n    /// @notice Migrate LP token to another LP contract through the `migrator` contract.\n    /// @param _pid The index of the pool. See `poolInfo`.\n    function migrate(uint256 _pid) public {\n        require(address(migrator) != address(0), \"MasterChefV2: no migrator set\");\n        IERC20 _lpToken = lpToken[_pid];\n        uint256 bal = _lpToken.balanceOf(address(this));\n        _lpToken.approve(address(migrator), bal);\n        IERC20 newLpToken = migrator.migrate(_lpToken);\n        require(bal == newLpToken.balanceOf(address(this)), \"MasterChefV2: migrated balance must match\");\n        require(addedTokens[address(newLpToken)] == false, \"Token already added\");\n        addedTokens[address(newLpToken)] = true;\n        addedTokens[address(_lpToken)] = false;\n        lpToken[_pid] = newLpToken;\n    }\n\n    /// @notice View function to see pending SUSHI on frontend.\n    /// @param _pid The index of the pool. See `poolInfo`.\n    /// @param _user Address of user.\n    /// @return pending SUSHI reward for a given user.\n    function pendingSushi(uint256 _pid, address _user) external view returns (uint256 pending) {\n        PoolInfo memory pool = poolInfo[_pid];\n        UserInfo storage user = userInfo[_pid][_user];\n        uint256 accSushiPerShare = pool.accSushiPerShare;\n        uint256 lpSupply = lpToken[_pid].balanceOf(address(this));\n        if (block.timestamp > pool.lastRewardTime && lpSupply != 0) {\n            uint256 time = block.timestamp-(pool.lastRewardTime);\n            uint256 sushiReward = time*(sushiPerSecond)*(pool.allocPoint) / totalAllocPoint;\n            accSushiPerShare = accSushiPerShare+(sushiReward*(ACC_SUSHI_PRECISION) / lpSupply);\n        }\n        pending = uint256(uint(user.amount*(accSushiPerShare) / ACC_SUSHI_PRECISION)-(uint(user.rewardDebt)));\n    }\n\n    /// @notice Update reward variables for all pools. Be careful of gas spending!\n    /// @param pids Pool IDs of all to be updated. Make sure to update all active pools.\n    function massUpdatePools(uint256[] calldata pids) external {\n        uint256 len = pids.length;\n        for (uint256 i = 0; i < len; ++i) {\n            updatePool(pids[i]);\n        }\n    }\n\n    /// @notice Update reward variables of the given pool.\n    /// @param pid The index of the pool. See `poolInfo`.\n    /// @return pool Returns the pool that was updated.\n    function updatePool(uint256 pid) public returns (PoolInfo memory pool) {\n        pool = poolInfo[pid];\n        if (block.timestamp > pool.lastRewardTime) {\n            uint256 lpSupply = lpToken[pid].balanceOf(address(this));\n            if (lpSupply > 0) {\n                uint256 time = block.timestamp-(pool.lastRewardTime);\n                uint256 sushiReward = time*(sushiPerSecond)*(pool.allocPoint) / totalAllocPoint;\n                pool.accSushiPerShare = pool.accSushiPerShare+(uint128(sushiReward*(ACC_SUSHI_PRECISION) / lpSupply));\n            }\n            pool.lastRewardTime = uint64(block.timestamp);\n            poolInfo[pid] = pool;\n            emit LogUpdatePool(pid, pool.lastRewardTime, lpSupply, pool.accSushiPerShare);\n        }\n    }\n\n    /// @notice Deposit LP tokens to MCV2 for SUSHI allocation.\n    /// @param pid The index of the pool. See `poolInfo`.\n    /// @param amount LP token amount to deposit.\n    /// @param to The receiver of `amount` deposit benefit.\n    function deposit(uint256 pid, uint256 amount, address to) public {\n        PoolInfo memory pool = updatePool(pid);\n        UserInfo storage user = userInfo[pid][to];\n\n        // Effects\n        user.amount = user.amount+(amount);\n        user.rewardDebt = user.rewardDebt+(int256(amount*(pool.accSushiPerShare) / ACC_SUSHI_PRECISION));\n\n        // Interactions\n        IRewarder _rewarder = rewarder[pid];\n        if (address(_rewarder) != address(0)) {\n            _rewarder.onSushiReward(pid, to, to, 0, user.amount);\n        }\n\n        lpToken[pid].safeTransferFrom(msg.sender, address(this), amount);\n\n        emit Deposit(msg.sender, pid, amount, to);\n    }\n\n    /// @notice Withdraw LP tokens from MCV2.\n    /// @param pid The index of the pool. See `poolInfo`.\n    /// @param amount LP token amount to withdraw.\n    /// @param to Receiver of the LP tokens.\n    function withdraw(uint256 pid, uint256 amount, address to) public {\n        PoolInfo memory pool = updatePool(pid);\n        UserInfo storage user = userInfo[pid][msg.sender];\n\n        // Effects\n        user.rewardDebt = user.rewardDebt-(int256(amount*(pool.accSushiPerShare) / ACC_SUSHI_PRECISION));\n        user.amount = user.amount-(amount);\n\n        // Interactions\n        IRewarder _rewarder = rewarder[pid];\n        if (address(_rewarder) != address(0)) {\n            _rewarder.onSushiReward(pid, msg.sender, to, 0, user.amount);\n        }\n\n        lpToken[pid].safeTransfer(to, amount);\n\n        emit Withdraw(msg.sender, pid, amount, to);\n    }\n\n    /// @notice Harvest proceeds for transaction sender to `to`.\n    /// @param pid The index of the pool. See `poolInfo`.\n    /// @param to Receiver of SUSHI rewards.\n    function harvest(uint256 pid, address to) public {\n        PoolInfo memory pool = updatePool(pid);\n        UserInfo storage user = userInfo[pid][msg.sender];\n        int256 accumulatedSushi = int256(user.amount*(pool.accSushiPerShare) / ACC_SUSHI_PRECISION);\n        uint256 _pendingSushi = uint256(accumulatedSushi-(user.rewardDebt));\n\n        // Effects\n        user.rewardDebt = accumulatedSushi;\n\n        // Interactions\n        if (_pendingSushi != 0) {\n            SUSHI.safeTransfer(to, _pendingSushi);\n        }\n\n        IRewarder _rewarder = rewarder[pid];\n        if (address(_rewarder) != address(0)) {\n            _rewarder.onSushiReward( pid, msg.sender, to, _pendingSushi, user.amount);\n        }\n\n        emit Harvest(msg.sender, pid, _pendingSushi);\n    }\n\n    /// @notice Withdraw LP tokens from MCV2 and harvest proceeds for transaction sender to `to`.\n    /// @param pid The index of the pool. See `poolInfo`.\n    /// @param amount LP token amount to withdraw.\n    /// @param to Receiver of the LP tokens and SUSHI rewards.\n    function withdrawAndHarvest(uint256 pid, uint256 amount, address to) public {\n        PoolInfo memory pool = updatePool(pid);\n        UserInfo storage user = userInfo[pid][msg.sender];\n        int256 accumulatedSushi = int256(user.amount*(pool.accSushiPerShare) / ACC_SUSHI_PRECISION);\n        uint256 _pendingSushi = uint256(accumulatedSushi-(user.rewardDebt));\n\n        // Effects\n        user.rewardDebt = accumulatedSushi-(int256(amount*(pool.accSushiPerShare) / ACC_SUSHI_PRECISION));\n        user.amount = user.amount-(amount);\n\n        // Interactions\n        SUSHI.safeTransfer(to, _pendingSushi);\n\n        IRewarder _rewarder = rewarder[pid];\n        if (address(_rewarder) != address(0)) {\n            _rewarder.onSushiReward(pid, msg.sender, to, _pendingSushi, user.amount);\n        }\n\n        lpToken[pid].safeTransfer(to, amount);\n\n        emit Withdraw(msg.sender, pid, amount, to);\n        emit Harvest(msg.sender, pid, _pendingSushi);\n    }\n\n    /// @notice Withdraw without caring about rewards. EMERGENCY ONLY.\n    /// @param pid The index of the pool. See `poolInfo`.\n    /// @param to Receiver of the LP tokens.\n    function emergencyWithdraw(uint256 pid, address to) public {\n        UserInfo storage user = userInfo[pid][msg.sender];\n        uint256 amount = user.amount;\n        user.amount = 0;\n        user.rewardDebt = 0;\n\n        IRewarder _rewarder = rewarder[pid];\n        if (address(_rewarder) != address(0)) {\n            _rewarder.onSushiReward(pid, msg.sender, to, 0, 0);\n        }\n\n        // Note: transfer can fail or succeed if `amount` is zero.\n        lpToken[pid].safeTransfer(to, amount);\n        emit EmergencyWithdraw(msg.sender, pid, amount, to);\n    }\n}\n",
  "sourcePath": "/Users/gauravkumar/Documents/sushiswap_cube/contracts/MiniChefV2.sol",
  "compiler": {
    "name": "solc",
    "version": "0.8.11+commit.d7f03943.Emscripten.clang"
  },
  "schemaVersion": "3.4.4",
  "updatedAt": "2022-07-13T16:48:38.778Z",
  "devdoc": {
    "kind": "dev",
    "methods": {
      "add(uint256,address,address)": {
        "params": {
          "_lpToken": "Address of the LP ERC-20 token.",
          "_rewarder": "Address of the rewarder delegate.",
          "allocPoint": "AP of the new pool."
        }
      },
      "batch(bytes[],bool)": {
        "params": {
          "calls": "An array of inputs for each call.",
          "revertOnFail": "If True then reverts after a failed call and stops doing further calls."
        }
      },
      "constructor": {
        "params": {
          "_sushi": "The SUSHI token contract address."
        }
      },
      "deposit(uint256,uint256,address)": {
        "params": {
          "amount": "LP token amount to deposit.",
          "pid": "The index of the pool. See `poolInfo`.",
          "to": "The receiver of `amount` deposit benefit."
        }
      },
      "emergencyWithdraw(uint256,address)": {
        "params": {
          "pid": "The index of the pool. See `poolInfo`.",
          "to": "Receiver of the LP tokens."
        }
      },
      "harvest(uint256,address)": {
        "params": {
          "pid": "The index of the pool. See `poolInfo`.",
          "to": "Receiver of SUSHI rewards."
        }
      },
      "massUpdatePools(uint256[])": {
        "params": {
          "pids": "Pool IDs of all to be updated. Make sure to update all active pools."
        }
      },
      "migrate(uint256)": {
        "params": {
          "_pid": "The index of the pool. See `poolInfo`."
        }
      },
      "pendingSushi(uint256,address)": {
        "params": {
          "_pid": "The index of the pool. See `poolInfo`.",
          "_user": "Address of user."
        },
        "returns": {
          "pending": "SUSHI reward for a given user."
        }
      },
      "set(uint256,uint256,address,bool)": {
        "params": {
          "_allocPoint": "New AP of the pool.",
          "_pid": "The index of the pool. See `poolInfo`.",
          "_rewarder": "Address of the rewarder delegate.",
          "overwrite": "True if _rewarder should be `set`. Otherwise `_rewarder` is ignored."
        }
      },
      "setMigrator(address)": {
        "params": {
          "_migrator": "The contract address to set."
        }
      },
      "setSushiPerSecond(uint256)": {
        "params": {
          "_sushiPerSecond": "The amount of Sushi to be distributed per second."
        }
      },
      "transferOwnership(address,bool,bool)": {
        "params": {
          "direct": "True if `newOwner` should be set immediately. False if `newOwner` needs to use `claimOwnership`.",
          "newOwner": "Address of the new owner.",
          "renounce": "Allows the `newOwner` to be `address(0)` if `direct` and `renounce` is True. Has no effect otherwise."
        }
      },
      "updatePool(uint256)": {
        "params": {
          "pid": "The index of the pool. See `poolInfo`."
        },
        "returns": {
          "pool": "Returns the pool that was updated."
        }
      },
      "withdraw(uint256,uint256,address)": {
        "params": {
          "amount": "LP token amount to withdraw.",
          "pid": "The index of the pool. See `poolInfo`.",
          "to": "Receiver of the LP tokens."
        }
      },
      "withdrawAndHarvest(uint256,uint256,address)": {
        "params": {
          "amount": "LP token amount to withdraw.",
          "pid": "The index of the pool. See `poolInfo`.",
          "to": "Receiver of the LP tokens and SUSHI rewards."
        }
      }
    },
    "stateVariables": {
      "addedTokens": {
        "details": "Tokens added"
      },
      "totalAllocPoint": {
        "details": "Total allocation points. Must be the sum of all allocation points in all pools."
      }
    },
    "version": 1
  },
  "userdoc": {
    "kind": "user",
    "methods": {
      "SUSHI()": {
        "notice": "Address of SUSHI contract."
      },
      "add(uint256,address,address)": {
        "notice": "Add a new LP to the pool. Can only be called by the owner. DO NOT add the same LP token more than once. Rewards will be messed up if you do."
      },
      "batch(bytes[],bool)": {
        "notice": "Allows batched call to self (this contract)."
      },
      "claimOwnership()": {
        "notice": "Needs to be called by `pendingOwner` to claim ownership."
      },
      "deposit(uint256,uint256,address)": {
        "notice": "Deposit LP tokens to MCV2 for SUSHI allocation."
      },
      "emergencyWithdraw(uint256,address)": {
        "notice": "Withdraw without caring about rewards. EMERGENCY ONLY."
      },
      "harvest(uint256,address)": {
        "notice": "Harvest proceeds for transaction sender to `to`."
      },
      "lpToken(uint256)": {
        "notice": "Address of the LP token for each MCV2 pool."
      },
      "massUpdatePools(uint256[])": {
        "notice": "Update reward variables for all pools. Be careful of gas spending!"
      },
      "migrate(uint256)": {
        "notice": "Migrate LP token to another LP contract through the `migrator` contract."
      },
      "pendingSushi(uint256,address)": {
        "notice": "View function to see pending SUSHI on frontend."
      },
      "permitToken(address,address,address,uint256,uint256,uint8,bytes32,bytes32)": {
        "notice": "Call wrapper that performs `ERC20.permit` on `token`. Lookup `IERC20.permit`."
      },
      "poolInfo(uint256)": {
        "notice": "Info of each MCV2 pool."
      },
      "poolLength()": {
        "notice": "Returns the number of MCV2 pools."
      },
      "rewarder(uint256)": {
        "notice": "Address of each `IRewarder` contract in MCV2."
      },
      "set(uint256,uint256,address,bool)": {
        "notice": "Update the given pool's SUSHI allocation point and `IRewarder` contract. Can only be called by the owner."
      },
      "setMigrator(address)": {
        "notice": "Set the `migrator` contract. Can only be called by the owner."
      },
      "setSushiPerSecond(uint256)": {
        "notice": "Sets the sushi per second to be distributed. Can only be called by the owner."
      },
      "transferOwnership(address,bool,bool)": {
        "notice": "Transfers ownership to `newOwner`. Either directly or claimable by the new pending owner. Can only be invoked by the current `owner`."
      },
      "updatePool(uint256)": {
        "notice": "Update reward variables of the given pool."
      },
      "userInfo(uint256,address)": {
        "notice": "Info of each user that stakes LP tokens."
      },
      "withdraw(uint256,uint256,address)": {
        "notice": "Withdraw LP tokens from MCV2."
      },
      "withdrawAndHarvest(uint256,uint256,address)": {
        "notice": "Withdraw LP tokens from MCV2 and harvest proceeds for transaction sender to `to`."
      }
    },
    "notice": "The (older) MasterChef contract gives out a constant number of SUSHI tokens per block. It is the only address with minting rights for SUSHI. The idea for this MasterChef V2 (MCV2) contract is therefore to be the owner of a dummy token that is deposited into the MasterChef V1 (MCV1) contract. The allocation point for this pool on MCV1 is the total allocation point for all pools that receive double incentives.",
    "version": 1
  }
}