{
  "contractName": "SushiMaker",
  "abi": [
    {
      "inputs": [
        {
          "internalType": "address",
          "name": "_factory",
          "type": "address"
        },
        {
          "internalType": "address",
          "name": "_bar",
          "type": "address"
        },
        {
          "internalType": "address",
          "name": "_sushi",
          "type": "address"
        },
        {
          "internalType": "address",
          "name": "_weth",
          "type": "address"
        }
      ],
      "stateMutability": "nonpayable",
      "type": "constructor"
    },
    {
      "anonymous": false,
      "inputs": [
        {
          "indexed": true,
          "internalType": "address",
          "name": "token",
          "type": "address"
        },
        {
          "indexed": true,
          "internalType": "address",
          "name": "bridge",
          "type": "address"
        }
      ],
      "name": "LogBridgeSet",
      "type": "event"
    },
    {
      "anonymous": false,
      "inputs": [
        {
          "indexed": true,
          "internalType": "address",
          "name": "server",
          "type": "address"
        },
        {
          "indexed": true,
          "internalType": "address",
          "name": "token0",
          "type": "address"
        },
        {
          "indexed": true,
          "internalType": "address",
          "name": "token1",
          "type": "address"
        },
        {
          "indexed": false,
          "internalType": "uint256",
          "name": "amount0",
          "type": "uint256"
        },
        {
          "indexed": false,
          "internalType": "uint256",
          "name": "amount1",
          "type": "uint256"
        },
        {
          "indexed": false,
          "internalType": "uint256",
          "name": "amountSUSHI",
          "type": "uint256"
        }
      ],
      "name": "LogConvert",
      "type": "event"
    },
    {
      "anonymous": false,
      "inputs": [
        {
          "indexed": true,
          "internalType": "address",
          "name": "previousOwner",
          "type": "address"
        },
        {
          "indexed": true,
          "internalType": "address",
          "name": "newOwner",
          "type": "address"
        }
      ],
      "name": "OwnershipTransferred",
      "type": "event"
    },
    {
      "inputs": [],
      "name": "bar",
      "outputs": [
        {
          "internalType": "address",
          "name": "",
          "type": "address"
        }
      ],
      "stateMutability": "view",
      "type": "function"
    },
    {
      "inputs": [],
      "name": "claimOwnership",
      "outputs": [],
      "stateMutability": "nonpayable",
      "type": "function"
    },
    {
      "inputs": [],
      "name": "factory",
      "outputs": [
        {
          "internalType": "contract IUniswapV2Factory",
          "name": "",
          "type": "address"
        }
      ],
      "stateMutability": "view",
      "type": "function"
    },
    {
      "inputs": [],
      "name": "owner",
      "outputs": [
        {
          "internalType": "address",
          "name": "",
          "type": "address"
        }
      ],
      "stateMutability": "view",
      "type": "function"
    },
    {
      "inputs": [],
      "name": "pendingOwner",
      "outputs": [
        {
          "internalType": "address",
          "name": "",
          "type": "address"
        }
      ],
      "stateMutability": "view",
      "type": "function"
    },
    {
      "inputs": [
        {
          "internalType": "address",
          "name": "newOwner",
          "type": "address"
        },
        {
          "internalType": "bool",
          "name": "direct",
          "type": "bool"
        },
        {
          "internalType": "bool",
          "name": "renounce",
          "type": "bool"
        }
      ],
      "name": "transferOwnership",
      "outputs": [],
      "stateMutability": "nonpayable",
      "type": "function"
    },
    {
      "inputs": [
        {
          "internalType": "address",
          "name": "token",
          "type": "address"
        }
      ],
      "name": "bridgeFor",
      "outputs": [
        {
          "internalType": "address",
          "name": "bridge",
          "type": "address"
        }
      ],
      "stateMutability": "view",
      "type": "function"
    },
    {
      "inputs": [
        {
          "internalType": "address",
          "name": "token",
          "type": "address"
        },
        {
          "internalType": "address",
          "name": "bridge",
          "type": "address"
        }
      ],
      "name": "setBridge",
      "outputs": [],
      "stateMutability": "nonpayable",
      "type": "function"
    },
    {
      "inputs": [
        {
          "internalType": "address",
          "name": "token0",
          "type": "address"
        },
        {
          "internalType": "address",
          "name": "token1",
          "type": "address"
        }
      ],
      "name": "convert",
      "outputs": [],
      "stateMutability": "nonpayable",
      "type": "function"
    },
    {
      "inputs": [
        {
          "internalType": "address[]",
          "name": "token0",
          "type": "address[]"
        },
        {
          "internalType": "address[]",
          "name": "token1",
          "type": "address[]"
        }
      ],
      "name": "convertMultiple",
      "outputs": [],
      "stateMutability": "nonpayable",
      "type": "function"
    }
  ],
  "bytecode": "0x6101006040523480156200001257600080fd5b5060405162002c4b38038062002c4b833981810160405281019062000038919062000217565b336000806101000a81548173ffffffffffffffffffffffffffffffffffffffff021916908373ffffffffffffffffffffffffffffffffffffffff1602179055503373ffffffffffffffffffffffffffffffffffffffff16600073ffffffffffffffffffffffffffffffffffffffff167f8be0079c531659141344cd1fd0a4f28419497f9722a3daafe3b4186f6b6457e060405160405180910390a38373ffffffffffffffffffffffffffffffffffffffff1660808173ffffffffffffffffffffffffffffffffffffffff16815250508273ffffffffffffffffffffffffffffffffffffffff1660a08173ffffffffffffffffffffffffffffffffffffffff16815250508173ffffffffffffffffffffffffffffffffffffffff1660c08173ffffffffffffffffffffffffffffffffffffffff16815250508073ffffffffffffffffffffffffffffffffffffffff1660e08173ffffffffffffffffffffffffffffffffffffffff16815250505050505062000289565b600080fd5b600073ffffffffffffffffffffffffffffffffffffffff82169050919050565b6000620001df82620001b2565b9050919050565b620001f181620001d2565b8114620001fd57600080fd5b50565b6000815190506200021181620001e6565b92915050565b60008060008060808587031215620002345762000233620001ad565b5b6000620002448782880162000200565b9450506020620002578782880162000200565b93505060406200026a8782880162000200565b92505060606200027d8782880162000200565b91505092959194509250565b60805160a05160c05160e0516128ee6200035d6000396000818161076a015281816109a601528181611074015281816110ca015281816112ed015281816113430152818161136c015281816113ae01528181611404015261142d01526000818161071301528181610fae015281816110260152818161112b015281816111a30152818161120c0152818161128401526115bf015260008181610a9501528181611004015281816111810152818161126201526115e1015260008181610a4b01528181610abb015261161201526128ee6000f3fe608060405234801561001057600080fd5b506004361061009e5760003560e01c8063a761a93911610066578063a761a9391461011f578063bd1b820c1461014f578063c45a01551461016b578063e30c397814610189578063febb0f7e146101a75761009e565b8063078dfbe7146100a3578063303e6aa4146100bf5780634e71e0c8146100db5780638da5cb5b146100e55780639d22ae8c14610103575b600080fd5b6100bd60048036038101906100b89190611bed565b6101c5565b005b6100d960048036038101906100d49190611ca5565b6103d7565b005b6100e36104cb565b005b6100ed61065f565b6040516100fa9190611d35565b60405180910390f35b61011d60048036038101906101189190611d50565b610683565b005b61013960048036038101906101349190611d90565b61090c565b6040516101469190611d35565b60405180910390f35b61016960048036038101906101649190611d50565b6109cd565b005b610173610a49565b6040516101809190611e1c565b60405180910390f35b610191610a6d565b60405161019e9190611d35565b60405180910390f35b6101af610a93565b6040516101bc9190611d35565b60405180910390f35b60008054906101000a900473ffffffffffffffffffffffffffffffffffffffff1673ffffffffffffffffffffffffffffffffffffffff163373ffffffffffffffffffffffffffffffffffffffff1614610253576040517f08c379a000000000000000000000000000000000000000000000000000000000815260040161024a90611e94565b60405180910390fd5b811561039057600073ffffffffffffffffffffffffffffffffffffffff168373ffffffffffffffffffffffffffffffffffffffff161415806102925750805b6102d1576040517f08c379a00000000000000000000000000000000000000000000000000000000081526004016102c890611f00565b60405180910390fd5b8273ffffffffffffffffffffffffffffffffffffffff1660008054906101000a900473ffffffffffffffffffffffffffffffffffffffff1673ffffffffffffffffffffffffffffffffffffffff167f8be0079c531659141344cd1fd0a4f28419497f9722a3daafe3b4186f6b6457e060405160405180910390a3826000806101000a81548173ffffffffffffffffffffffffffffffffffffffff021916908373ffffffffffffffffffffffffffffffffffffffff1602179055506103d2565b82600160006101000a81548173ffffffffffffffffffffffffffffffffffffffff021916908373ffffffffffffffffffffffffffffffffffffffff1602179055505b505050565b3273ffffffffffffffffffffffffffffffffffffffff163373ffffffffffffffffffffffffffffffffffffffff1614610445576040517f08c379a000000000000000000000000000000000000000000000000000000000815260040161043c90611f6c565b60405180910390fd5b600084849050905060005b818110156104c3576104b086868381811061046e5761046d611f8c565b5b90506020020160208101906104839190611d90565b85858481811061049657610495611f8c565b5b90506020020160208101906104ab9190611d90565b610ab7565b80806104bb90611ff4565b915050610450565b505050505050565b6000600160009054906101000a900473ffffffffffffffffffffffffffffffffffffffff1690508073ffffffffffffffffffffffffffffffffffffffff163373ffffffffffffffffffffffffffffffffffffffff1614610560576040517f08c379a000000000000000000000000000000000000000000000000000000000815260040161055790612088565b60405180910390fd5b8073ffffffffffffffffffffffffffffffffffffffff1660008054906101000a900473ffffffffffffffffffffffffffffffffffffffff1673ffffffffffffffffffffffffffffffffffffffff167f8be0079c531659141344cd1fd0a4f28419497f9722a3daafe3b4186f6b6457e060405160405180910390a3806000806101000a81548173ffffffffffffffffffffffffffffffffffffffff021916908373ffffffffffffffffffffffffffffffffffffffff1602179055506000600160006101000a81548173ffffffffffffffffffffffffffffffffffffffff021916908373ffffffffffffffffffffffffffffffffffffffff16021790555050565b60008054906101000a900473ffffffffffffffffffffffffffffffffffffffff1681565b60008054906101000a900473ffffffffffffffffffffffffffffffffffffffff1673ffffffffffffffffffffffffffffffffffffffff163373ffffffffffffffffffffffffffffffffffffffff1614610711576040517f08c379a000000000000000000000000000000000000000000000000000000000815260040161070890611e94565b60405180910390fd5b7f000000000000000000000000000000000000000000000000000000000000000073ffffffffffffffffffffffffffffffffffffffff168273ffffffffffffffffffffffffffffffffffffffff16141580156107b957507f000000000000000000000000000000000000000000000000000000000000000073ffffffffffffffffffffffffffffffffffffffff168273ffffffffffffffffffffffffffffffffffffffff1614155b80156107f157508073ffffffffffffffffffffffffffffffffffffffff168273ffffffffffffffffffffffffffffffffffffffff1614155b610830576040517f08c379a0000000000000000000000000000000000000000000000000000000008152600401610827906120f4565b60405180910390fd5b80600260008473ffffffffffffffffffffffffffffffffffffffff1673ffffffffffffffffffffffffffffffffffffffff16815260200190815260200160002060006101000a81548173ffffffffffffffffffffffffffffffffffffffff021916908373ffffffffffffffffffffffffffffffffffffffff1602179055508073ffffffffffffffffffffffffffffffffffffffff168273ffffffffffffffffffffffffffffffffffffffff167f2e103aa707acc565f9a1547341914802b2bfe977fd79c595209f248ae4b0061360405160405180910390a35050565b6000600260008373ffffffffffffffffffffffffffffffffffffffff1673ffffffffffffffffffffffffffffffffffffffff16815260200190815260200160002060009054906101000a900473ffffffffffffffffffffffffffffffffffffffff169050600073ffffffffffffffffffffffffffffffffffffffff168173ffffffffffffffffffffffffffffffffffffffff16036109c8577f000000000000000000000000000000000000000000000000000000000000000090505b919050565b3273ffffffffffffffffffffffffffffffffffffffff163373ffffffffffffffffffffffffffffffffffffffff1614610a3b576040517f08c379a0000000000000000000000000000000000000000000000000000000008152600401610a3290611f6c565b60405180910390fd5b610a458282610ab7565b5050565b7f000000000000000000000000000000000000000000000000000000000000000081565b600160009054906101000a900473ffffffffffffffffffffffffffffffffffffffff1681565b7f000000000000000000000000000000000000000000000000000000000000000081565b60007f000000000000000000000000000000000000000000000000000000000000000073ffffffffffffffffffffffffffffffffffffffff1663e6a4390584846040518363ffffffff1660e01b8152600401610b14929190612114565b602060405180830381865afa158015610b31573d6000803e3d6000fd5b505050506040513d601f19601f82011682018060405250810190610b559190612152565b9050600073ffffffffffffffffffffffffffffffffffffffff168173ffffffffffffffffffffffffffffffffffffffff1603610bc6576040517f08c379a0000000000000000000000000000000000000000000000000000000008152600401610bbd906121cb565b60405180910390fd5b610c6a818273ffffffffffffffffffffffffffffffffffffffff166370a08231306040518263ffffffff1660e01b8152600401610c039190611d35565b602060405180830381865afa158015610c20573d6000803e3d6000fd5b505050506040513d601f19601f82011682018060405250810190610c449190612217565b8373ffffffffffffffffffffffffffffffffffffffff16610e2a9092919063ffffffff16565b6000808273ffffffffffffffffffffffffffffffffffffffff166389afcb44306040518263ffffffff1660e01b8152600401610ca69190611d35565b60408051808303816000875af1158015610cc4573d6000803e3d6000fd5b505050506040513d601f19601f82011682018060405250810190610ce89190612244565b915091508273ffffffffffffffffffffffffffffffffffffffff16630dfe16816040518163ffffffff1660e01b8152600401602060405180830381865afa158015610d37573d6000803e3d6000fd5b505050506040513d601f19601f82011682018060405250810190610d5b9190612152565b73ffffffffffffffffffffffffffffffffffffffff168573ffffffffffffffffffffffffffffffffffffffff1614610d9857808280925081935050505b8373ffffffffffffffffffffffffffffffffffffffff168573ffffffffffffffffffffffffffffffffffffffff163373ffffffffffffffffffffffffffffffffffffffff167fd06b1d7ed79b664d17472c6f6997b929f1abe463ccccb4e5b6a0038f2f730c158585610e0c8b8b8a8a610f60565b604051610e1b93929190612293565b60405180910390a45050505050565b6000808473ffffffffffffffffffffffffffffffffffffffff1663a9059cbb8585604051602401610e5c9291906122ca565b6040516020818303038152906040529060e01b6020820180517bffffffffffffffffffffffffffffffffffffffffffffffffffffffff8381831617835250505050604051610eaa919061236d565b6000604051808303816000865af19150503d8060008114610ee7576040519150601f19603f3d011682016040523d82523d6000602084013e610eec565b606091505b5091509150818015610f1a5750600081511480610f19575080806020019051810190610f189190612399565b5b5b610f59576040517f08c379a0000000000000000000000000000000000000000000000000000000008152600401610f5090612412565b60405180910390fd5b5050505050565b60008373ffffffffffffffffffffffffffffffffffffffff168573ffffffffffffffffffffffffffffffffffffffff1603611129576000610faa838561155e90919063ffffffff16565b90507f000000000000000000000000000000000000000000000000000000000000000073ffffffffffffffffffffffffffffffffffffffff168673ffffffffffffffffffffffffffffffffffffffff16036110725761106a7f0000000000000000000000000000000000000000000000000000000000000000827f000000000000000000000000000000000000000000000000000000000000000073ffffffffffffffffffffffffffffffffffffffff16610e2a9092919063ffffffff16565b809150611123565b7f000000000000000000000000000000000000000000000000000000000000000073ffffffffffffffffffffffffffffffffffffffff168673ffffffffffffffffffffffffffffffffffffffff16036110f6576110ef7f0000000000000000000000000000000000000000000000000000000000000000826115b7565b9150611122565b60006111018761090c565b905061110f8782843061160d565b915061111e8182846000610f60565b9250505b5b50611556565b7f000000000000000000000000000000000000000000000000000000000000000073ffffffffffffffffffffffffffffffffffffffff168573ffffffffffffffffffffffffffffffffffffffff160361120a576111e77f0000000000000000000000000000000000000000000000000000000000000000847f000000000000000000000000000000000000000000000000000000000000000073ffffffffffffffffffffffffffffffffffffffff16610e2a9092919063ffffffff16565b611203836111f586856115b7565b61155e90919063ffffffff16565b9050611555565b7f000000000000000000000000000000000000000000000000000000000000000073ffffffffffffffffffffffffffffffffffffffff168473ffffffffffffffffffffffffffffffffffffffff16036112eb576112c87f0000000000000000000000000000000000000000000000000000000000000000837f000000000000000000000000000000000000000000000000000000000000000073ffffffffffffffffffffffffffffffffffffffff16610e2a9092919063ffffffff16565b6112e4826112d687866115b7565b61155e90919063ffffffff16565b9050611554565b7f000000000000000000000000000000000000000000000000000000000000000073ffffffffffffffffffffffffffffffffffffffff168573ffffffffffffffffffffffffffffffffffffffff16036113ac576113a57f00000000000000000000000000000000000000000000000000000000000000006113a085611392887f0000000000000000000000000000000000000000000000000000000000000000883061160d565b61155e90919063ffffffff16565b6115b7565b9050611553565b7f000000000000000000000000000000000000000000000000000000000000000073ffffffffffffffffffffffffffffffffffffffff168473ffffffffffffffffffffffffffffffffffffffff160361146d576114667f000000000000000000000000000000000000000000000000000000000000000061146184611453897f0000000000000000000000000000000000000000000000000000000000000000893061160d565b61155e90919063ffffffff16565b6115b7565b9050611552565b60006114788661090c565b905060006114858661090c565b90508573ffffffffffffffffffffffffffffffffffffffff168273ffffffffffffffffffffffffffffffffffffffff16036114d8576114d182876114cb8a868a3061160d565b87610f60565b925061154f565b8673ffffffffffffffffffffffffffffffffffffffff168173ffffffffffffffffffffffffffffffffffffffff16036115295761152287828761151d8a868a3061160d565b610f60565b925061154e565b61154b828261153a8a868a3061160d565b6115468a868a3061160d565b610f60565b92505b5b50505b5b5b5b5b949350505050565b600081828461156d9190612432565b91508110156115b1576040517f08c379a00000000000000000000000000000000000000000000000000000000081526004016115a8906124d4565b60405180910390fd5b92915050565b6000611605837f0000000000000000000000000000000000000000000000000000000000000000847f000000000000000000000000000000000000000000000000000000000000000061160d565b905092915050565b6000807f000000000000000000000000000000000000000000000000000000000000000073ffffffffffffffffffffffffffffffffffffffff1663e6a4390587876040518363ffffffff1660e01b815260040161166b929190612114565b602060405180830381865afa158015611688573d6000803e3d6000fd5b505050506040513d601f19601f820116820180604052508101906116ac9190612152565b9050600073ffffffffffffffffffffffffffffffffffffffff168173ffffffffffffffffffffffffffffffffffffffff160361171d576040517f08c379a000000000000000000000000000000000000000000000000000000000815260040161171490612540565b60405180910390fd5b6000808273ffffffffffffffffffffffffffffffffffffffff16630902f1ac6040518163ffffffff1660e01b8152600401606060405180830381865afa15801561176b573d6000803e3d6000fd5b505050506040513d601f19601f8201168201806040525081019061178f91906125e2565b506dffffffffffffffffffffffffffff1691506dffffffffffffffffffffffffffff16915060006117cb6103e588611ae090919063ffffffff16565b90508373ffffffffffffffffffffffffffffffffffffffff16630dfe16816040518163ffffffff1660e01b8152600401602060405180830381865afa158015611818573d6000803e3d6000fd5b505050506040513d601f19601f8201168201806040525081019061183c9190612152565b73ffffffffffffffffffffffffffffffffffffffff168973ffffffffffffffffffffffffffffffffffffffff16036119a357611895816118876103e886611ae090919063ffffffff16565b61155e90919063ffffffff16565b6118a88383611ae090919063ffffffff16565b6118b29190612664565b94506118df84888b73ffffffffffffffffffffffffffffffffffffffff16610e2a9092919063ffffffff16565b8373ffffffffffffffffffffffffffffffffffffffff1663022c0d9f60008789600067ffffffffffffffff81111561191a57611919612695565b5b6040519080825280601f01601f19166020018201604052801561194c5781602001600182028036833780820191505090505b506040518563ffffffff1660e01b815260040161196c949392919061275a565b600060405180830381600087803b15801561198657600080fd5b505af115801561199a573d6000803e3d6000fd5b50505050611ad4565b6119ca816119bc6103e885611ae090919063ffffffff16565b61155e90919063ffffffff16565b6119dd8483611ae090919063ffffffff16565b6119e79190612664565b9450611a1484888b73ffffffffffffffffffffffffffffffffffffffff16610e2a9092919063ffffffff16565b8373ffffffffffffffffffffffffffffffffffffffff1663022c0d9f86600089600067ffffffffffffffff811115611a4f57611a4e612695565b5b6040519080825280601f01601f191660200182016040528015611a815781602001600182028036833780820191505090505b506040518563ffffffff1660e01b8152600401611aa194939291906127a6565b600060405180830381600087803b158015611abb57600080fd5b505af1158015611acf573d6000803e3d6000fd5b505050505b50505050949350505050565b600080821480611b08575082828385611af991906127f2565b925082611b069190612664565b145b611b47576040517f08c379a0000000000000000000000000000000000000000000000000000000008152600401611b3e90612898565b60405180910390fd5b92915050565b600080fd5b600080fd5b600073ffffffffffffffffffffffffffffffffffffffff82169050919050565b6000611b8282611b57565b9050919050565b611b9281611b77565b8114611b9d57600080fd5b50565b600081359050611baf81611b89565b92915050565b60008115159050919050565b611bca81611bb5565b8114611bd557600080fd5b50565b600081359050611be781611bc1565b92915050565b600080600060608486031215611c0657611c05611b4d565b5b6000611c1486828701611ba0565b9350506020611c2586828701611bd8565b9250506040611c3686828701611bd8565b9150509250925092565b600080fd5b600080fd5b600080fd5b60008083601f840112611c6557611c64611c40565b5b8235905067ffffffffffffffff811115611c8257611c81611c45565b5b602083019150836020820283011115611c9e57611c9d611c4a565b5b9250929050565b60008060008060408587031215611cbf57611cbe611b4d565b5b600085013567ffffffffffffffff811115611cdd57611cdc611b52565b5b611ce987828801611c4f565b9450945050602085013567ffffffffffffffff811115611d0c57611d0b611b52565b5b611d1887828801611c4f565b925092505092959194509250565b611d2f81611b77565b82525050565b6000602082019050611d4a6000830184611d26565b92915050565b60008060408385031215611d6757611d66611b4d565b5b6000611d7585828601611ba0565b9250506020611d8685828601611ba0565b9150509250929050565b600060208284031215611da657611da5611b4d565b5b6000611db484828501611ba0565b91505092915050565b6000819050919050565b6000611de2611ddd611dd884611b57565b611dbd565b611b57565b9050919050565b6000611df482611dc7565b9050919050565b6000611e0682611de9565b9050919050565b611e1681611dfb565b82525050565b6000602082019050611e316000830184611e0d565b92915050565b600082825260208201905092915050565b7f4f776e61626c653a2063616c6c6572206973206e6f7420746865206f776e6572600082015250565b6000611e7e602083611e37565b9150611e8982611e48565b602082019050919050565b60006020820190508181036000830152611ead81611e71565b9050919050565b7f4f776e61626c653a207a65726f20616464726573730000000000000000000000600082015250565b6000611eea601583611e37565b9150611ef582611eb4565b602082019050919050565b60006020820190508181036000830152611f1981611edd565b9050919050565b7f53757368694d616b65723a206d7573742075736520454f410000000000000000600082015250565b6000611f56601883611e37565b9150611f6182611f20565b602082019050919050565b60006020820190508181036000830152611f8581611f49565b9050919050565b7f4e487b7100000000000000000000000000000000000000000000000000000000600052603260045260246000fd5b7f4e487b7100000000000000000000000000000000000000000000000000000000600052601160045260246000fd5b6000819050919050565b6000611fff82611fea565b91507fffffffffffffffffffffffffffffffffffffffffffffffffffffffffffffffff820361203157612030611fbb565b5b600182019050919050565b7f4f776e61626c653a2063616c6c657220213d2070656e64696e67206f776e6572600082015250565b6000612072602083611e37565b915061207d8261203c565b602082019050919050565b600060208201905081810360008301526120a181612065565b9050919050565b7f53757368694d616b65723a20496e76616c696420627269646765000000000000600082015250565b60006120de601a83611e37565b91506120e9826120a8565b602082019050919050565b6000602082019050818103600083015261210d816120d1565b9050919050565b60006040820190506121296000830185611d26565b6121366020830184611d26565b9392505050565b60008151905061214c81611b89565b92915050565b60006020828403121561216857612167611b4d565b5b60006121768482850161213d565b91505092915050565b7f53757368694d616b65723a20496e76616c696420706169720000000000000000600082015250565b60006121b5601883611e37565b91506121c08261217f565b602082019050919050565b600060208201905081810360008301526121e4816121a8565b9050919050565b6121f481611fea565b81146121ff57600080fd5b50565b600081519050612211816121eb565b92915050565b60006020828403121561222d5761222c611b4d565b5b600061223b84828501612202565b91505092915050565b6000806040838503121561225b5761225a611b4d565b5b600061226985828601612202565b925050602061227a85828601612202565b9150509250929050565b61228d81611fea565b82525050565b60006060820190506122a86000830186612284565b6122b56020830185612284565b6122c26040830184612284565b949350505050565b60006040820190506122df6000830185611d26565b6122ec6020830184612284565b9392505050565b600081519050919050565b600081905092915050565b60005b8381101561232757808201518184015260208101905061230c565b83811115612336576000848401525b50505050565b6000612347826122f3565b61235181856122fe565b9350612361818560208601612309565b80840191505092915050565b6000612379828461233c565b915081905092915050565b60008151905061239381611bc1565b92915050565b6000602082840312156123af576123ae611b4d565b5b60006123bd84828501612384565b91505092915050565b7f5361666545524332303a205472616e73666572206661696c6564000000000000600082015250565b60006123fc601a83611e37565b9150612407826123c6565b602082019050919050565b6000602082019050818103600083015261242b816123ef565b9050919050565b600061243d82611fea565b915061244883611fea565b9250827fffffffffffffffffffffffffffffffffffffffffffffffffffffffffffffffff0382111561247d5761247c611fbb565b5b828201905092915050565b7f536166654d6174683a20416464204f766572666c6f7700000000000000000000600082015250565b60006124be601683611e37565b91506124c982612488565b602082019050919050565b600060208201905081810360008301526124ed816124b1565b9050919050565b7f53757368694d616b65723a2043616e6e6f7420636f6e76657274000000000000600082015250565b600061252a601a83611e37565b9150612535826124f4565b602082019050919050565b600060208201905081810360008301526125598161251d565b9050919050565b60006dffffffffffffffffffffffffffff82169050919050565b61258381612560565b811461258e57600080fd5b50565b6000815190506125a08161257a565b92915050565b600063ffffffff82169050919050565b6125bf816125a6565b81146125ca57600080fd5b50565b6000815190506125dc816125b6565b92915050565b6000806000606084860312156125fb576125fa611b4d565b5b600061260986828701612591565b935050602061261a86828701612591565b925050604061262b868287016125cd565b9150509250925092565b7f4e487b7100000000000000000000000000000000000000000000000000000000600052601260045260246000fd5b600061266f82611fea565b915061267a83611fea565b92508261268a57612689612635565b5b828204905092915050565b7f4e487b7100000000000000000000000000000000000000000000000000000000600052604160045260246000fd5b6000819050919050565b60006126e96126e46126df846126c4565b611dbd565b611fea565b9050919050565b6126f9816126ce565b82525050565b600082825260208201905092915050565b6000601f19601f8301169050919050565b600061272c826122f3565b61273681856126ff565b9350612746818560208601612309565b61274f81612710565b840191505092915050565b600060808201905061276f60008301876126f0565b61277c6020830186612284565b6127896040830185611d26565b818103606083015261279b8184612721565b905095945050505050565b60006080820190506127bb6000830187612284565b6127c860208301866126f0565b6127d56040830185611d26565b81810360608301526127e78184612721565b905095945050505050565b60006127fd82611fea565b915061280883611fea565b9250817fffffffffffffffffffffffffffffffffffffffffffffffffffffffffffffffff048311821515161561284157612840611fbb565b5b828202905092915050565b7f536166654d6174683a204d756c204f766572666c6f7700000000000000000000600082015250565b6000612882601683611e37565b915061288d8261284c565b602082019050919050565b600060208201905081810360008301526128b181612875565b905091905056fea2646970667358221220145ceabaa663345b85833d6e31ecc0fd73ded7228e78d34e3afe70f772890e3764736f6c634300080f0033",
  "immutableReferences": {
    "5412": [
      {
        "length": 32,
        "start": 2635
      },
      {
        "length": 32,
        "start": 2747
      },
      {
        "length": 32,
        "start": 5650
      }
    ],
    "5414": [
      {
        "length": 32,
        "start": 2709
      },
      {
        "length": 32,
        "start": 4100
      },
      {
        "length": 32,
        "start": 4481
      },
      {
        "length": 32,
        "start": 4706
      },
      {
        "length": 32,
        "start": 5601
      }
    ],
    "5416": [
      {
        "length": 32,
        "start": 1811
      },
      {
        "length": 32,
        "start": 4014
      },
      {
        "length": 32,
        "start": 4134
      },
      {
        "length": 32,
        "start": 4395
      },
      {
        "length": 32,
        "start": 4515
      },
      {
        "length": 32,
        "start": 4620
      },
      {
        "length": 32,
        "start": 4740
      },
      {
        "length": 32,
        "start": 5567
      }
    ],
    "5418": [
      {
        "length": 32,
        "start": 1898
      },
      {
        "length": 32,
        "start": 2470
      },
      {
        "length": 32,
        "start": 4212
      },
      {
        "length": 32,
        "start": 4298
      },
      {
        "length": 32,
        "start": 4845
      },
      {
        "length": 32,
        "start": 4931
      },
      {
        "length": 32,
        "start": 4972
      },
      {
        "length": 32,
        "start": 5038
      },
      {
        "length": 32,
        "start": 5124
      },
      {
        "length": 32,
        "start": 5165
      }
    ]
  },
  "source": "// SPDX-License-Identifier: MIT\n\n// P1 - P3: OK\npragma solidity ^0.8.0;\nimport \"./libraries/SafeMath.sol\";\nimport \"./libraries/SafeERC20.sol\";\n\nimport \"./uniswapv2/interfaces/IUniswapV2ERC20.sol\";\nimport \"./uniswapv2/interfaces/IUniswapV2Pair.sol\";\nimport \"./uniswapv2/interfaces/IUniswapV2Factory.sol\";\n\nimport \"./Ownable.sol\";\n\n// SushiMaker is MasterChef's left hand and kinda a wizard. He can cook up Sushi from pretty much anything!\n// This contract handles \"serving up\" rewards for xSushi holders by trading tokens collected from fees for Sushi.\n\n// T1 - T4: OK\ncontract SushiMaker is Ownable {\n    using SafeMath for uint256;\n    using SafeERC20 for IERC20;\n\n    // V1 - V5: OK\n    IUniswapV2Factory public immutable factory;\n    //0xC0AEe478e3658e2610c5F7A4A2E1777cE9e4f2Ac\n    // V1 - V5: OK\n    address public immutable bar;\n    //0x8798249c2E607446EfB7Ad49eC89dD1865Ff4272\n    // V1 - V5: OK\n    address private immutable sushi;\n    //0x6B3595068778DD592e39A122f4f5a5cF09C90fE2\n    // V1 - V5: OK\n    address private immutable weth;\n    //0xC02aaA39b223FE8D0A0e5C4F27eAD9083C756Cc2\n\n    // V1 - V5: OK\n    mapping(address => address) internal _bridges;\n\n    // E1: OK\n    event LogBridgeSet(address indexed token, address indexed bridge);\n    // E1: OK\n    event LogConvert(\n        address indexed server,\n        address indexed token0,\n        address indexed token1,\n        uint256 amount0,\n        uint256 amount1,\n        uint256 amountSUSHI\n    );\n\n    constructor(\n        address _factory,\n        address _bar,\n        address _sushi,\n        address _weth\n    ) public {\n        factory = IUniswapV2Factory(_factory);\n        bar = _bar;\n        sushi = _sushi;\n        weth = _weth;\n    }\n\n    // F1 - F10: OK\n    // C1 - C24: OK\n    function bridgeFor(address token) public view returns (address bridge) {\n        bridge = _bridges[token];\n        if (bridge == address(0)) {\n            bridge = weth;\n        }\n    }\n\n    // F1 - F10: OK\n    // C1 - C24: OK\n    function setBridge(address token, address bridge) external onlyOwner {\n        // Checks\n        require(\n            token != sushi && token != weth && token != bridge,\n            \"SushiMaker: Invalid bridge\"\n        );\n\n        // Effects\n        _bridges[token] = bridge;\n        emit LogBridgeSet(token, bridge);\n    }\n\n    // M1 - M5: OK\n    // C1 - C24: OK\n    // C6: It's not a fool proof solution, but it prevents flash loans, so here it's ok to use tx.origin\n    modifier onlyEOA() {\n        // Try to make flash-loan exploit harder to do by only allowing externally owned addresses.\n        require(msg.sender == tx.origin, \"SushiMaker: must use EOA\");\n        _;\n    }\n\n    // F1 - F10: OK\n    // F3: _convert is separate to save gas by only checking the 'onlyEOA' modifier once in case of convertMultiple\n    // F6: There is an exploit to add lots of SUSHI to the bar, run convert, then remove the SUSHI again.\n    //     As the size of the SushiBar has grown, this requires large amounts of funds and isn't super profitable anymore\n    //     The onlyEOA modifier prevents this being done with a flash loan.\n    // C1 - C24: OK\n    function convert(address token0, address token1) external onlyEOA() {\n        _convert(token0, token1);\n    }\n\n    // F1 - F10: OK, see convert\n    // C1 - C24: OK\n    // C3: Loop is under control of the caller\n    function convertMultiple(\n        address[] calldata token0,\n        address[] calldata token1\n    ) external onlyEOA() {\n        // TODO: This can be optimized a fair bit, but this is safer and simpler for now\n        uint256 len = token0.length;\n        for (uint256 i = 0; i < len; i++) {\n            _convert(token0[i], token1[i]);\n        }\n    }\n\n    // F1 - F10: OK\n    // C1- C24: OK\n    function _convert(address token0, address token1) internal {\n        // Interactions\n        // S1 - S4: OK\n        IUniswapV2Pair pair = IUniswapV2Pair(factory.getPair(token0, token1));\n        require(address(pair) != address(0), \"SushiMaker: Invalid pair\");\n        // balanceOf: S1 - S4: OK\n        // transfer: X1 - X5: OK\n        IERC20(address(pair)).safeTransfer(\n            address(pair),\n            pair.balanceOf(address(this))\n        );\n        // X1 - X5: OK\n        (uint256 amount0, uint256 amount1) = pair.burn(address(this));\n        if (token0 != pair.token0()) {\n            (amount0, amount1) = (amount1, amount0);\n        }\n        emit LogConvert(\n            msg.sender,\n            token0,\n            token1,\n            amount0,\n            amount1,\n            _convertStep(token0, token1, amount0, amount1)\n        );\n    }\n\n    // F1 - F10: OK\n    // C1 - C24: OK\n    // All safeTransfer, _swap, _toSUSHI, _convertStep: X1 - X5: OK\n    function _convertStep(\n        address token0,\n        address token1,\n        uint256 amount0,\n        uint256 amount1\n    ) internal returns (uint256 sushiOut) {\n        // Interactions\n        if (token0 == token1) {\n            uint256 amount = amount0.add(amount1);\n            if (token0 == sushi) {\n                IERC20(sushi).safeTransfer(bar, amount);\n                sushiOut = amount;\n            } else if (token0 == weth) {\n                sushiOut = _toSUSHI(weth, amount);\n            } else {\n                address bridge = bridgeFor(token0);\n                amount = _swap(token0, bridge, amount, address(this));\n                sushiOut = _convertStep(bridge, bridge, amount, 0);\n            }\n        } else if (token0 == sushi) {\n            // eg. SUSHI - ETH\n            IERC20(sushi).safeTransfer(bar, amount0);\n            sushiOut = _toSUSHI(token1, amount1).add(amount0);\n        } else if (token1 == sushi) {\n            // eg. USDT - SUSHI\n            IERC20(sushi).safeTransfer(bar, amount1);\n            sushiOut = _toSUSHI(token0, amount0).add(amount1);\n        } else if (token0 == weth) {\n            // eg. ETH - USDC\n            sushiOut = _toSUSHI(\n                weth,\n                _swap(token1, weth, amount1, address(this)).add(amount0)\n            );\n        } else if (token1 == weth) {\n            // eg. USDT - ETH\n            sushiOut = _toSUSHI(\n                weth,\n                _swap(token0, weth, amount0, address(this)).add(amount1)\n            );\n        } else {\n            // eg. MIC - USDT\n            address bridge0 = bridgeFor(token0);\n            address bridge1 = bridgeFor(token1);\n            if (bridge0 == token1) {\n                // eg. MIC - USDT - and bridgeFor(MIC) = USDT\n                sushiOut = _convertStep(\n                    bridge0,\n                    token1,\n                    _swap(token0, bridge0, amount0, address(this)),\n                    amount1\n                );\n            } else if (bridge1 == token0) {\n                // eg. WBTC - DSD - and bridgeFor(DSD) = WBTC\n                sushiOut = _convertStep(\n                    token0,\n                    bridge1,\n                    amount0,\n                    _swap(token1, bridge1, amount1, address(this))\n                );\n            } else {\n                sushiOut = _convertStep(\n                    bridge0,\n                    bridge1, // eg. USDT - DSD - and bridgeFor(DSD) = WBTC\n                    _swap(token0, bridge0, amount0, address(this)),\n                    _swap(token1, bridge1, amount1, address(this))\n                );\n            }\n        }\n    }\n\n    // F1 - F10: OK\n    // C1 - C24: OK\n    // All safeTransfer, swap: X1 - X5: OK\n    function _swap(\n        address fromToken,\n        address toToken,\n        uint256 amountIn,\n        address to\n    ) internal returns (uint256 amountOut) {\n        // Checks\n        // X1 - X5: OK\n        IUniswapV2Pair pair =\n            IUniswapV2Pair(factory.getPair(fromToken, toToken));\n        require(address(pair) != address(0), \"SushiMaker: Cannot convert\");\n\n        // Interactions\n        // X1 - X5: OK\n        (uint256 reserve0, uint256 reserve1, ) = pair.getReserves();\n        uint256 amountInWithFee = amountIn.mul(997);\n        if (fromToken == pair.token0()) {\n            amountOut =\n                amountInWithFee.mul(reserve1) /\n                reserve0.mul(1000).add(amountInWithFee);\n            IERC20(fromToken).safeTransfer(address(pair), amountIn);\n            pair.swap(0, amountOut, to, new bytes(0));\n            // TODO: Add maximum slippage?\n        } else {\n            amountOut =\n                amountInWithFee.mul(reserve0) /\n                reserve1.mul(1000).add(amountInWithFee);\n            IERC20(fromToken).safeTransfer(address(pair), amountIn);\n            pair.swap(amountOut, 0, to, new bytes(0));\n            // TODO: Add maximum slippage?\n        }\n    }\n\n    // F1 - F10: OK\n    // C1 - C24: OK\n    function _toSUSHI(address token, uint256 amountIn)\n        internal\n        returns (uint256 amountOut)\n    {\n        // X1 - X5: OK\n        amountOut = _swap(token, sushi, amountIn, bar);\n    }\n}\n",
  "sourcePath": "/mnt/d/CubeProject/sushiswap_cube/contracts/SushiMaker.sol",
  "compiler": {
    "name": "solc",
    "version": "0.8.15+commit.e14f2714.Emscripten.clang"
  },
  "schemaVersion": "3.4.8",
  "updatedAt": "2022-07-12T18:57:32.469Z",
  "devdoc": {
    "kind": "dev",
    "methods": {},
    "version": 1
  },
  "userdoc": {
    "kind": "user",
    "methods": {},
    "version": 1
  }
}