{
  "contractName": "SushiMakerKashi",
  "abi": [
    {
      "inputs": [
        {
          "internalType": "contract IUniswapV2Factory",
          "name": "_factory",
          "type": "address"
        },
        {
          "internalType": "address",
          "name": "_bar",
          "type": "address"
        },
        {
          "internalType": "contract IBentoBoxWithdraw",
          "name": "_bentoBox",
          "type": "address"
        },
        {
          "internalType": "address",
          "name": "_sushi",
          "type": "address"
        },
        {
          "internalType": "address",
          "name": "_weth",
          "type": "address"
        },
        {
          "internalType": "bytes32",
          "name": "_pairCodeHash",
          "type": "bytes32"
        }
      ],
      "stateMutability": "nonpayable",
      "type": "constructor"
    },
    {
      "anonymous": false,
      "inputs": [
        {
          "indexed": true,
          "internalType": "address",
          "name": "token",
          "type": "address"
        },
        {
          "indexed": true,
          "internalType": "address",
          "name": "bridge",
          "type": "address"
        }
      ],
      "name": "LogBridgeSet",
      "type": "event"
    },
    {
      "anonymous": false,
      "inputs": [
        {
          "indexed": true,
          "internalType": "address",
          "name": "server",
          "type": "address"
        },
        {
          "indexed": true,
          "internalType": "address",
          "name": "token0",
          "type": "address"
        },
        {
          "indexed": false,
          "internalType": "uint256",
          "name": "amount0",
          "type": "uint256"
        },
        {
          "indexed": false,
          "internalType": "uint256",
          "name": "amountBENTO",
          "type": "uint256"
        },
        {
          "indexed": false,
          "internalType": "uint256",
          "name": "amountSUSHI",
          "type": "uint256"
        }
      ],
      "name": "LogConvert",
      "type": "event"
    },
    {
      "anonymous": false,
      "inputs": [
        {
          "indexed": true,
          "internalType": "address",
          "name": "previousOwner",
          "type": "address"
        },
        {
          "indexed": true,
          "internalType": "address",
          "name": "newOwner",
          "type": "address"
        }
      ],
      "name": "OwnershipTransferred",
      "type": "event"
    },
    {
      "inputs": [],
      "name": "claimOwnership",
      "outputs": [],
      "stateMutability": "nonpayable",
      "type": "function"
    },
    {
      "inputs": [],
      "name": "owner",
      "outputs": [
        {
          "internalType": "address",
          "name": "",
          "type": "address"
        }
      ],
      "stateMutability": "view",
      "type": "function"
    },
    {
      "inputs": [],
      "name": "pendingOwner",
      "outputs": [
        {
          "internalType": "address",
          "name": "",
          "type": "address"
        }
      ],
      "stateMutability": "view",
      "type": "function"
    },
    {
      "inputs": [
        {
          "internalType": "address",
          "name": "newOwner",
          "type": "address"
        },
        {
          "internalType": "bool",
          "name": "direct",
          "type": "bool"
        },
        {
          "internalType": "bool",
          "name": "renounce",
          "type": "bool"
        }
      ],
      "name": "transferOwnership",
      "outputs": [],
      "stateMutability": "nonpayable",
      "type": "function"
    },
    {
      "inputs": [
        {
          "internalType": "address",
          "name": "token",
          "type": "address"
        },
        {
          "internalType": "address",
          "name": "bridge",
          "type": "address"
        }
      ],
      "name": "setBridge",
      "outputs": [],
      "stateMutability": "nonpayable",
      "type": "function"
    },
    {
      "inputs": [
        {
          "internalType": "contract IKashiWithdrawFee",
          "name": "kashiPair",
          "type": "address"
        }
      ],
      "name": "convert",
      "outputs": [],
      "stateMutability": "nonpayable",
      "type": "function"
    },
    {
      "inputs": [
        {
          "internalType": "contract IKashiWithdrawFee[]",
          "name": "kashiPair",
          "type": "address[]"
        }
      ],
      "name": "convertMultiple",
      "outputs": [],
      "stateMutability": "nonpayable",
      "type": "function"
    }
  ],
  "bytecode": "0x6101406040523480156200001257600080fd5b50604051620025c1380380620025c183398181016040528101906200003891906200031c565b336000806101000a81548173ffffffffffffffffffffffffffffffffffffffff021916908373ffffffffffffffffffffffffffffffffffffffff1602179055503373ffffffffffffffffffffffffffffffffffffffff16600073ffffffffffffffffffffffffffffffffffffffff167f8be0079c531659141344cd1fd0a4f28419497f9722a3daafe3b4186f6b6457e060405160405180910390a38573ffffffffffffffffffffffffffffffffffffffff1660808173ffffffffffffffffffffffffffffffffffffffff16815250508473ffffffffffffffffffffffffffffffffffffffff1660a08173ffffffffffffffffffffffffffffffffffffffff16815250508373ffffffffffffffffffffffffffffffffffffffff1660c08173ffffffffffffffffffffffffffffffffffffffff16815250508273ffffffffffffffffffffffffffffffffffffffff1660e08173ffffffffffffffffffffffffffffffffffffffff16815250508173ffffffffffffffffffffffffffffffffffffffff166101008173ffffffffffffffffffffffffffffffffffffffff1681525050806101208181525050505050505050620003b8565b600080fd5b600073ffffffffffffffffffffffffffffffffffffffff82169050919050565b60006200021f82620001f2565b9050919050565b6000620002338262000212565b9050919050565b620002458162000226565b81146200025157600080fd5b50565b60008151905062000265816200023a565b92915050565b620002768162000212565b81146200028257600080fd5b50565b60008151905062000296816200026b565b92915050565b6000620002a98262000212565b9050919050565b620002bb816200029c565b8114620002c757600080fd5b50565b600081519050620002db81620002b0565b92915050565b6000819050919050565b620002f681620002e1565b81146200030257600080fd5b50565b6000815190506200031681620002eb565b92915050565b60008060008060008060c087890312156200033c576200033b620001ed565b5b60006200034c89828a0162000254565b96505060206200035f89828a0162000285565b95505060406200037289828a01620002ca565b94505060606200038589828a0162000285565b93505060806200039889828a0162000285565b92505060a0620003ab89828a0162000305565b9150509295509295509295565b60805160a05160c05160e05161010051610120516121966200042b6000396000610fd80152600081816105e901528181610c880152610dc601526000818161059201528181610be20152610cdf01526000610ac1015260008181610c380152610d0101526000610f8e01526121966000f3fe608060405234801561001057600080fd5b506004361061007d5760003560e01c80639d22ae8c1161005b5780639d22ae8c146100c6578063b11e93a9146100e2578063def2489b146100fe578063e30c39781461011a5761007d565b8063078dfbe7146100825780634e71e0c81461009e5780638da5cb5b146100a8575b600080fd5b61009c60048036038101906100979190611444565b610138565b005b6100a661034a565b005b6100b06104de565b6040516100bd91906114a6565b60405180910390f35b6100e060048036038101906100db91906114c1565b610502565b005b6100fc60048036038101906100f79190611566565b61078b565b005b610118600480360381019061011391906115f1565b61084f565b005b6101226108c9565b60405161012f91906114a6565b60405180910390f35b60008054906101000a900473ffffffffffffffffffffffffffffffffffffffff1673ffffffffffffffffffffffffffffffffffffffff163373ffffffffffffffffffffffffffffffffffffffff16146101c6576040517f08c379a00000000000000000000000000000000000000000000000000000000081526004016101bd9061167b565b60405180910390fd5b811561030357600073ffffffffffffffffffffffffffffffffffffffff168373ffffffffffffffffffffffffffffffffffffffff161415806102055750805b610244576040517f08c379a000000000000000000000000000000000000000000000000000000000815260040161023b906116e7565b60405180910390fd5b8273ffffffffffffffffffffffffffffffffffffffff1660008054906101000a900473ffffffffffffffffffffffffffffffffffffffff1673ffffffffffffffffffffffffffffffffffffffff167f8be0079c531659141344cd1fd0a4f28419497f9722a3daafe3b4186f6b6457e060405160405180910390a3826000806101000a81548173ffffffffffffffffffffffffffffffffffffffff021916908373ffffffffffffffffffffffffffffffffffffffff160217905550610345565b82600160006101000a81548173ffffffffffffffffffffffffffffffffffffffff021916908373ffffffffffffffffffffffffffffffffffffffff1602179055505b505050565b6000600160009054906101000a900473ffffffffffffffffffffffffffffffffffffffff1690508073ffffffffffffffffffffffffffffffffffffffff163373ffffffffffffffffffffffffffffffffffffffff16146103df576040517f08c379a00000000000000000000000000000000000000000000000000000000081526004016103d690611753565b60405180910390fd5b8073ffffffffffffffffffffffffffffffffffffffff1660008054906101000a900473ffffffffffffffffffffffffffffffffffffffff1673ffffffffffffffffffffffffffffffffffffffff167f8be0079c531659141344cd1fd0a4f28419497f9722a3daafe3b4186f6b6457e060405160405180910390a3806000806101000a81548173ffffffffffffffffffffffffffffffffffffffff021916908373ffffffffffffffffffffffffffffffffffffffff1602179055506000600160006101000a81548173ffffffffffffffffffffffffffffffffffffffff021916908373ffffffffffffffffffffffffffffffffffffffff16021790555050565b60008054906101000a900473ffffffffffffffffffffffffffffffffffffffff1681565b60008054906101000a900473ffffffffffffffffffffffffffffffffffffffff1673ffffffffffffffffffffffffffffffffffffffff163373ffffffffffffffffffffffffffffffffffffffff1614610590576040517f08c379a00000000000000000000000000000000000000000000000000000000081526004016105879061167b565b60405180910390fd5b7f000000000000000000000000000000000000000000000000000000000000000073ffffffffffffffffffffffffffffffffffffffff168273ffffffffffffffffffffffffffffffffffffffff161415801561063857507f000000000000000000000000000000000000000000000000000000000000000073ffffffffffffffffffffffffffffffffffffffff168273ffffffffffffffffffffffffffffffffffffffff1614155b801561067057508073ffffffffffffffffffffffffffffffffffffffff168273ffffffffffffffffffffffffffffffffffffffff1614155b6106af576040517f08c379a00000000000000000000000000000000000000000000000000000000081526004016106a6906117bf565b60405180910390fd5b80600260008473ffffffffffffffffffffffffffffffffffffffff1673ffffffffffffffffffffffffffffffffffffffff16815260200190815260200160002060006101000a81548173ffffffffffffffffffffffffffffffffffffffff021916908373ffffffffffffffffffffffffffffffffffffffff1602179055508073ffffffffffffffffffffffffffffffffffffffff168273ffffffffffffffffffffffffffffffffffffffff167f2e103aa707acc565f9a1547341914802b2bfe977fd79c595209f248ae4b0061360405160405180910390a35050565b3273ffffffffffffffffffffffffffffffffffffffff163373ffffffffffffffffffffffffffffffffffffffff16146107f9576040517f08c379a00000000000000000000000000000000000000000000000000000000081526004016107f09061182b565b60405180910390fd5b60005b8282905081101561084a5761083783838381811061081d5761081c61184b565b5b905060200201602081019061083291906115f1565b6108ef565b8080610842906118b3565b9150506107fc565b505050565b3273ffffffffffffffffffffffffffffffffffffffff163373ffffffffffffffffffffffffffffffffffffffff16146108bd576040517f08c379a00000000000000000000000000000000000000000000000000000000081526004016108b49061182b565b60405180910390fd5b6108c6816108ef565b50565b600160009054906101000a900473ffffffffffffffffffffffffffffffffffffffff1681565b8073ffffffffffffffffffffffffffffffffffffffff1663476343ee6040518163ffffffff1660e01b8152600401600060405180830381600087803b15801561093757600080fd5b505af115801561094b573d6000803e3d6000fd5b5050505060008173ffffffffffffffffffffffffffffffffffffffff16632317ef67308473ffffffffffffffffffffffffffffffffffffffff166370a08231306040518263ffffffff1660e01b81526004016109a791906114a6565b602060405180830381865afa1580156109c4573d6000803e3d6000fd5b505050506040513d601f19601f820116820180604052508101906109e89190611927565b6040518363ffffffff1660e01b8152600401610a05929190611963565b6020604051808303816000875af1158015610a24573d6000803e3d6000fd5b505050506040513d601f19601f82011682018060405250810190610a489190611927565b905060008273ffffffffffffffffffffffffffffffffffffffff166338d52e0f6040518163ffffffff1660e01b8152600401602060405180830381865afa158015610a97573d6000803e3d6000fd5b505050506040513d601f19601f82011682018060405250810190610abb91906119a1565b905060007f000000000000000000000000000000000000000000000000000000000000000073ffffffffffffffffffffffffffffffffffffffff166397da6d308330306000886040518663ffffffff1660e01b8152600401610b21959493929190611a68565b60408051808303816000875af1158015610b3f573d6000803e3d6000fd5b505050506040513d601f19601f82011682018060405250810190610b639190611abb565b5090508173ffffffffffffffffffffffffffffffffffffffff163373ffffffffffffffffffffffffffffffffffffffff167f478cd2df03921485edb4ef53f1cd6747ea7527ef8eb1b27be969115a0964edfb8386610bc18787610bde565b604051610bd093929190611afb565b60405180910390a350505050565b60007f000000000000000000000000000000000000000000000000000000000000000073ffffffffffffffffffffffffffffffffffffffff168373ffffffffffffffffffffffffffffffffffffffff1603610c8657610c7e7f0000000000000000000000000000000000000000000000000000000000000000838573ffffffffffffffffffffffffffffffffffffffff16610e0e9092919063ffffffff16565b819050610e08565b7f000000000000000000000000000000000000000000000000000000000000000073ffffffffffffffffffffffffffffffffffffffff168373ffffffffffffffffffffffffffffffffffffffff1603610d2c57610d25837f0000000000000000000000000000000000000000000000000000000000000000847f0000000000000000000000000000000000000000000000000000000000000000610f44565b9050610e07565b6000600260008573ffffffffffffffffffffffffffffffffffffffff1673ffffffffffffffffffffffffffffffffffffffff16815260200190815260200160002060009054906101000a900473ffffffffffffffffffffffffffffffffffffffff169050600073ffffffffffffffffffffffffffffffffffffffff168173ffffffffffffffffffffffffffffffffffffffff1603610de8577f000000000000000000000000000000000000000000000000000000000000000090505b6000610df685838630610f44565b9050610e028282610bde565b925050505b5b92915050565b6000808473ffffffffffffffffffffffffffffffffffffffff1663a9059cbb8585604051602401610e40929190611963565b6040516020818303038152906040529060e01b6020820180517bffffffffffffffffffffffffffffffffffffffffffffffffffffffff8381831617835250505050604051610e8e9190611bac565b6000604051808303816000865af19150503d8060008114610ecb576040519150601f19603f3d011682016040523d82523d6000602084013e610ed0565b606091505b5091509150818015610efe5750600081511480610efd575080806020019051810190610efc9190611bd8565b5b5b610f3d576040517f08c379a0000000000000000000000000000000000000000000000000000000008152600401610f3490611c51565b60405180910390fd5b5050505050565b60008060008573ffffffffffffffffffffffffffffffffffffffff168773ffffffffffffffffffffffffffffffffffffffff1610610f83578587610f86565b86865b9150915060007f00000000000000000000000000000000000000000000000000000000000000008383604051602001610fc0929190611cb9565b604051602081830303815290604052805190602001207f000000000000000000000000000000000000000000000000000000000000000060405160200161100993929190611d90565b6040516020818303038152906040528051906020012060001c90506000808273ffffffffffffffffffffffffffffffffffffffff16630902f1ac6040518163ffffffff1660e01b8152600401606060405180830381865afa158015611072573d6000803e3d6000fd5b505050506040513d601f19601f820116820180604052508101906110969190611e5a565b506dffffffffffffffffffffffffffff1691506dffffffffffffffffffffffffffff16915060006110d26103e58a6112de90919063ffffffff16565b90508a73ffffffffffffffffffffffffffffffffffffffff168a73ffffffffffffffffffffffffffffffffffffffff1611156111ee5761112f816111216103e8866112de90919063ffffffff16565b61134b90919063ffffffff16565b61114283836112de90919063ffffffff16565b61114c9190611edc565b9650611179848a8d73ffffffffffffffffffffffffffffffffffffffff16610e0e9092919063ffffffff16565b8373ffffffffffffffffffffffffffffffffffffffff1663022c0d9f6000898b6040518463ffffffff1660e01b81526004016111b793929190611f44565b600060405180830381600087803b1580156111d157600080fd5b505af11580156111e5573d6000803e3d6000fd5b505050506112d0565b611215816112076103e8856112de90919063ffffffff16565b61134b90919063ffffffff16565b61122884836112de90919063ffffffff16565b6112329190611edc565b965061125f848a8d73ffffffffffffffffffffffffffffffffffffffff16610e0e9092919063ffffffff16565b8373ffffffffffffffffffffffffffffffffffffffff1663022c0d9f8860008b6040518463ffffffff1660e01b815260040161129d93929190611f8e565b600060405180830381600087803b1580156112b757600080fd5b505af11580156112cb573d6000803e3d6000fd5b505050505b505050505050949350505050565b6000808214806113065750828283856112f79190611fd8565b9250826113049190611edc565b145b611345576040517f08c379a000000000000000000000000000000000000000000000000000000000815260040161133c9061207e565b60405180910390fd5b92915050565b600081828461135a919061209e565b915081101561139e576040517f08c379a000000000000000000000000000000000000000000000000000000000815260040161139590612140565b60405180910390fd5b92915050565b600080fd5b600080fd5b600073ffffffffffffffffffffffffffffffffffffffff82169050919050565b60006113d9826113ae565b9050919050565b6113e9816113ce565b81146113f457600080fd5b50565b600081359050611406816113e0565b92915050565b60008115159050919050565b6114218161140c565b811461142c57600080fd5b50565b60008135905061143e81611418565b92915050565b60008060006060848603121561145d5761145c6113a4565b5b600061146b868287016113f7565b935050602061147c8682870161142f565b925050604061148d8682870161142f565b9150509250925092565b6114a0816113ce565b82525050565b60006020820190506114bb6000830184611497565b92915050565b600080604083850312156114d8576114d76113a4565b5b60006114e6858286016113f7565b92505060206114f7858286016113f7565b9150509250929050565b600080fd5b600080fd5b600080fd5b60008083601f84011261152657611525611501565b5b8235905067ffffffffffffffff81111561154357611542611506565b5b60208301915083602082028301111561155f5761155e61150b565b5b9250929050565b6000806020838503121561157d5761157c6113a4565b5b600083013567ffffffffffffffff81111561159b5761159a6113a9565b5b6115a785828601611510565b92509250509250929050565b60006115be826113ce565b9050919050565b6115ce816115b3565b81146115d957600080fd5b50565b6000813590506115eb816115c5565b92915050565b600060208284031215611607576116066113a4565b5b6000611615848285016115dc565b91505092915050565b600082825260208201905092915050565b7f4f776e61626c653a2063616c6c6572206973206e6f7420746865206f776e6572600082015250565b600061166560208361161e565b91506116708261162f565b602082019050919050565b6000602082019050818103600083015261169481611658565b9050919050565b7f4f776e61626c653a207a65726f20616464726573730000000000000000000000600082015250565b60006116d160158361161e565b91506116dc8261169b565b602082019050919050565b60006020820190508181036000830152611700816116c4565b9050919050565b7f4f776e61626c653a2063616c6c657220213d2070656e64696e67206f776e6572600082015250565b600061173d60208361161e565b915061174882611707565b602082019050919050565b6000602082019050818103600083015261176c81611730565b9050919050565b7f4d616b65723a20496e76616c6964206272696467650000000000000000000000600082015250565b60006117a960158361161e565b91506117b482611773565b602082019050919050565b600060208201905081810360008301526117d88161179c565b9050919050565b7f4d616b65723a204d7573742075736520454f4100000000000000000000000000600082015250565b600061181560138361161e565b9150611820826117df565b602082019050919050565b6000602082019050818103600083015261184481611808565b9050919050565b7f4e487b7100000000000000000000000000000000000000000000000000000000600052603260045260246000fd5b7f4e487b7100000000000000000000000000000000000000000000000000000000600052601160045260246000fd5b6000819050919050565b60006118be826118a9565b91507fffffffffffffffffffffffffffffffffffffffffffffffffffffffffffffffff82036118f0576118ef61187a565b5b600182019050919050565b611904816118a9565b811461190f57600080fd5b50565b600081519050611921816118fb565b92915050565b60006020828403121561193d5761193c6113a4565b5b600061194b84828501611912565b91505092915050565b61195d816118a9565b82525050565b60006040820190506119786000830185611497565b6119856020830184611954565b9392505050565b60008151905061199b816113e0565b92915050565b6000602082840312156119b7576119b66113a4565b5b60006119c58482850161198c565b91505092915050565b6000819050919050565b60006119f36119ee6119e9846113ae565b6119ce565b6113ae565b9050919050565b6000611a05826119d8565b9050919050565b6000611a17826119fa565b9050919050565b611a2781611a0c565b82525050565b6000819050919050565b6000611a52611a4d611a4884611a2d565b6119ce565b6118a9565b9050919050565b611a6281611a37565b82525050565b600060a082019050611a7d6000830188611a1e565b611a8a6020830187611497565b611a976040830186611497565b611aa46060830185611a59565b611ab16080830184611954565b9695505050505050565b60008060408385031215611ad257611ad16113a4565b5b6000611ae085828601611912565b9250506020611af185828601611912565b9150509250929050565b6000606082019050611b106000830186611954565b611b1d6020830185611954565b611b2a6040830184611954565b949350505050565b600081519050919050565b600081905092915050565b60005b83811015611b66578082015181840152602081019050611b4b565b83811115611b75576000848401525b50505050565b6000611b8682611b32565b611b908185611b3d565b9350611ba0818560208601611b48565b80840191505092915050565b6000611bb88284611b7b565b915081905092915050565b600081519050611bd281611418565b92915050565b600060208284031215611bee57611bed6113a4565b5b6000611bfc84828501611bc3565b91505092915050565b7f5361666545524332303a205472616e73666572206661696c6564000000000000600082015250565b6000611c3b601a8361161e565b9150611c4682611c05565b602082019050919050565b60006020820190508181036000830152611c6a81611c2e565b9050919050565b60008160601b9050919050565b6000611c8982611c71565b9050919050565b6000611c9b82611c7e565b9050919050565b611cb3611cae826113ce565b611c90565b82525050565b6000611cc58285611ca2565b601482019150611cd58284611ca2565b6014820191508190509392505050565b600081905092915050565b7fff00000000000000000000000000000000000000000000000000000000000000600082015250565b6000611d26600183611ce5565b9150611d3182611cf0565b600182019050919050565b6000611d47826119fa565b9050919050565b611d5f611d5a82611d3c565b611c90565b82525050565b6000819050919050565b6000819050919050565b611d8a611d8582611d65565b611d6f565b82525050565b6000611d9b82611d19565b9150611da78286611d4e565b601482019150611db78285611d79565b602082019150611dc78284611d79565b602082019150819050949350505050565b60006dffffffffffffffffffffffffffff82169050919050565b611dfb81611dd8565b8114611e0657600080fd5b50565b600081519050611e1881611df2565b92915050565b600063ffffffff82169050919050565b611e3781611e1e565b8114611e4257600080fd5b50565b600081519050611e5481611e2e565b92915050565b600080600060608486031215611e7357611e726113a4565b5b6000611e8186828701611e09565b9350506020611e9286828701611e09565b9250506040611ea386828701611e45565b9150509250925092565b7f4e487b7100000000000000000000000000000000000000000000000000000000600052601260045260246000fd5b6000611ee7826118a9565b9150611ef2836118a9565b925082611f0257611f01611ead565b5b828204905092915050565b600082825260208201905092915050565b50565b6000611f2e600083611f0d565b9150611f3982611f1e565b600082019050919050565b6000608082019050611f596000830186611a59565b611f666020830185611954565b611f736040830184611497565b8181036060830152611f8481611f21565b9050949350505050565b6000608082019050611fa36000830186611954565b611fb06020830185611a59565b611fbd6040830184611497565b8181036060830152611fce81611f21565b9050949350505050565b6000611fe3826118a9565b9150611fee836118a9565b9250817fffffffffffffffffffffffffffffffffffffffffffffffffffffffffffffffff04831182151516156120275761202661187a565b5b828202905092915050565b7f536166654d6174683a204d756c204f766572666c6f7700000000000000000000600082015250565b600061206860168361161e565b915061207382612032565b602082019050919050565b600060208201905081810360008301526120978161205b565b9050919050565b60006120a9826118a9565b91506120b4836118a9565b9250827fffffffffffffffffffffffffffffffffffffffffffffffffffffffffffffffff038211156120e9576120e861187a565b5b828201905092915050565b7f536166654d6174683a20416464204f766572666c6f7700000000000000000000600082015250565b600061212a60168361161e565b9150612135826120f4565b602082019050919050565b600060208201905081810360008301526121598161211d565b905091905056fea26469706673582212206395e0d806c2ac1cfe7dcbf131d9a7eb75eb273fb00c61d3e44a6cc24a944a2c64736f6c634300080f0033",
  "immutableReferences": {
    "6172": [
      {
        "length": 32,
        "start": 3982
      }
    ],
    "6174": [
      {
        "length": 32,
        "start": 3128
      },
      {
        "length": 32,
        "start": 3329
      }
    ],
    "6177": [
      {
        "length": 32,
        "start": 2753
      }
    ],
    "6179": [
      {
        "length": 32,
        "start": 1426
      },
      {
        "length": 32,
        "start": 3042
      },
      {
        "length": 32,
        "start": 3295
      }
    ],
    "6181": [
      {
        "length": 32,
        "start": 1513
      },
      {
        "length": 32,
        "start": 3208
      },
      {
        "length": 32,
        "start": 3526
      }
    ],
    "6183": [
      {
        "length": 32,
        "start": 4056
      }
    ]
  },
  "source": "// SPDX-License-Identifier: MIT\n\npragma solidity ^0.8.0;\nimport \"./libraries/SafeMath.sol\";\nimport \"./libraries/SafeERC20.sol\";\n\nimport \"./uniswapv2/interfaces/IUniswapV2Pair.sol\";\nimport \"./uniswapv2/interfaces/IUniswapV2Factory.sol\";\n\nimport \"./Ownable.sol\";\n\ninterface IBentoBoxWithdraw {\n    function withdraw(\n        IERC20 token_,\n        address from,\n        address to,\n        uint256 amount,\n        uint256 share\n    ) external returns (uint256 amountOut, uint256 shareOut);\n}\n\ninterface IKashiWithdrawFee {\n    function asset() external view returns (address);\n    function balanceOf(address account) external view returns (uint256);\n    function withdrawFees() external;\n    function removeAsset(address to, uint256 fraction) external returns (uint256 share);\n}\n\n// SushiMakerKashi is MasterChef's left hand and kinda a wizard. He can cook up Sushi from pretty much anything!\n// This contract handles \"serving up\" rewards for xSushi holders by trading tokens collected from Kashi fees for Sushi.\ncontract SushiMakerKashi is Ownable {\n    using SafeMath for uint256;\n    using SafeERC20 for IERC20;\n\n    IUniswapV2Factory private immutable factory;\n    //0xC0AEe478e3658e2610c5F7A4A2E1777cE9e4f2Ac\n    address private immutable bar;\n    //0x8798249c2E607446EfB7Ad49eC89dD1865Ff4272\n    IBentoBoxWithdraw private immutable bentoBox;\n    //0xF5BCE5077908a1b7370B9ae04AdC565EBd643966 \n    address private immutable sushi;\n    //0x6B3595068778DD592e39A122f4f5a5cF09C90fE2\n    address private immutable weth;\n    //0xC02aaA39b223FE8D0A0e5C4F27eAD9083C756Cc2\n    bytes32 private immutable pairCodeHash;\n    //0xe18a34eb0e04b04f7a0ac29a6e80748dca96319b42c54d679cb821dca90c6303\n\n    mapping(address => address) private _bridges;\n\n    event LogBridgeSet(address indexed token, address indexed bridge);\n    event LogConvert(\n        address indexed server,\n        address indexed token0,\n        uint256 amount0,\n        uint256 amountBENTO,\n        uint256 amountSUSHI\n    );\n\n    constructor(\n        IUniswapV2Factory _factory,\n        address _bar,\n        IBentoBoxWithdraw _bentoBox,\n        address _sushi,\n        address _weth,\n        bytes32 _pairCodeHash\n    ){\n        factory = _factory;\n        bar = _bar;\n        bentoBox = _bentoBox;\n        sushi = _sushi;\n        weth = _weth;\n        pairCodeHash = _pairCodeHash;\n    }\n\n    function setBridge(address token, address bridge) external onlyOwner {\n        // Checks\n        require(\n            token != sushi && token != weth && token != bridge,\n            \"Maker: Invalid bridge\"\n        );\n        // Effects\n        _bridges[token] = bridge;\n        emit LogBridgeSet(token, bridge);\n    }\n\n    modifier onlyEOA() {\n        // Try to make flash-loan exploit harder to do by only allowing externally-owned addresses.\n        require(msg.sender == tx.origin, \"Maker: Must use EOA\");\n        _;\n    }\n\n    function convert(IKashiWithdrawFee kashiPair) external onlyEOA {\n        _convert(kashiPair);\n    }\n\n    function convertMultiple(IKashiWithdrawFee[] calldata kashiPair) external onlyEOA {\n        for (uint256 i = 0; i < kashiPair.length; i++) {\n            _convert(kashiPair[i]);\n        }\n    }\n\n    function _convert(IKashiWithdrawFee kashiPair) private {\n        // update Kashi fees for this Maker contract (`feeTo`)\n        kashiPair.withdrawFees();\n\n        // convert updated Kashi balance to Bento shares\n        uint256 bentoShares = kashiPair.removeAsset(address(this), kashiPair.balanceOf(address(this)));\n\n        // convert Bento shares to underlying Kashi asset (`token0`) balance (`amount0`) for Maker\n        address token0 = kashiPair.asset();\n        (uint256 amount0, ) = bentoBox.withdraw(IERC20(token0), address(this), address(this), 0, bentoShares);\n\n        emit LogConvert(\n            msg.sender,\n            token0,\n            amount0,\n            bentoShares,\n            _convertStep(token0, amount0)\n        );\n    }\n\n    function _convertStep(address token0, uint256 amount0) private returns (uint256 sushiOut) {\n        if (token0 == sushi) {\n            IERC20(token0).safeTransfer(bar, amount0);\n            sushiOut = amount0;\n        } else if (token0 == weth) {\n            sushiOut = _swap(token0, sushi, amount0, bar);\n        } else {\n            address bridge = _bridges[token0];\n            if (bridge == address(0)) {\n                bridge = weth;\n            }\n            uint256 amountOut = _swap(token0, bridge, amount0, address(this));\n            sushiOut = _convertStep(bridge, amountOut);\n        }\n    }\n\n    function _swap(\n        address fromToken,\n        address toToken,\n        uint256 amountIn,\n        address to\n    ) private returns (uint256 amountOut) {\n        (address token0, address token1) = fromToken < toToken ? (fromToken, toToken) : (toToken, fromToken);\n        IUniswapV2Pair pair =\n            IUniswapV2Pair(\n                address(uint160(uint(\n                    keccak256(abi.encodePacked(hex\"ff\", factory, keccak256(abi.encodePacked(token0, token1)), pairCodeHash))\n                )))\n            );\n        \n        (uint256 reserve0, uint256 reserve1, ) = pair.getReserves();\n        uint256 amountInWithFee = amountIn.mul(997);\n        \n        if (toToken > fromToken) {\n            amountOut =\n                amountInWithFee.mul(reserve1) /\n                reserve0.mul(1000).add(amountInWithFee);\n            IERC20(fromToken).safeTransfer(address(pair), amountIn);\n            pair.swap(0, amountOut, to, \"\");\n        } else {\n            amountOut =\n                amountInWithFee.mul(reserve0) /\n                reserve1.mul(1000).add(amountInWithFee);\n            IERC20(fromToken).safeTransfer(address(pair), amountIn);\n            pair.swap(amountOut, 0, to, \"\");\n        }\n    }\n}\n",
  "sourcePath": "/mnt/d/CubeProject/sushiswap_cube/contracts/SushiMakerKashi.sol",
  "compiler": {
    "name": "solc",
    "version": "0.8.15+commit.e14f2714.Emscripten.clang"
  },
  "schemaVersion": "3.4.8",
  "updatedAt": "2022-07-12T18:57:32.598Z",
  "devdoc": {
    "kind": "dev",
    "methods": {},
    "version": 1
  },
  "userdoc": {
    "kind": "user",
    "methods": {},
    "version": 1
  }
}