{
  "contractName": "SushiRoll",
  "abi": [
    {
      "inputs": [
        {
          "internalType": "contract IUniswapV2Router01",
          "name": "_oldRouter",
          "type": "address"
        },
        {
          "internalType": "contract IUniswapV2Router01",
          "name": "_router",
          "type": "address"
        }
      ],
      "stateMutability": "nonpayable",
      "type": "constructor"
    },
    {
      "inputs": [],
      "name": "oldRouter",
      "outputs": [
        {
          "internalType": "contract IUniswapV2Router01",
          "name": "",
          "type": "address"
        }
      ],
      "stateMutability": "view",
      "type": "function"
    },
    {
      "inputs": [],
      "name": "router",
      "outputs": [
        {
          "internalType": "contract IUniswapV2Router01",
          "name": "",
          "type": "address"
        }
      ],
      "stateMutability": "view",
      "type": "function"
    },
    {
      "inputs": [
        {
          "internalType": "address",
          "name": "tokenA",
          "type": "address"
        },
        {
          "internalType": "address",
          "name": "tokenB",
          "type": "address"
        },
        {
          "internalType": "uint256",
          "name": "liquidity",
          "type": "uint256"
        },
        {
          "internalType": "uint256",
          "name": "amountAMin",
          "type": "uint256"
        },
        {
          "internalType": "uint256",
          "name": "amountBMin",
          "type": "uint256"
        },
        {
          "internalType": "uint256",
          "name": "deadline",
          "type": "uint256"
        },
        {
          "internalType": "uint8",
          "name": "v",
          "type": "uint8"
        },
        {
          "internalType": "bytes32",
          "name": "r",
          "type": "bytes32"
        },
        {
          "internalType": "bytes32",
          "name": "s",
          "type": "bytes32"
        }
      ],
      "name": "migrateWithPermit",
      "outputs": [],
      "stateMutability": "nonpayable",
      "type": "function"
    },
    {
      "inputs": [
        {
          "internalType": "address",
          "name": "tokenA",
          "type": "address"
        },
        {
          "internalType": "address",
          "name": "tokenB",
          "type": "address"
        },
        {
          "internalType": "uint256",
          "name": "liquidity",
          "type": "uint256"
        },
        {
          "internalType": "uint256",
          "name": "amountAMin",
          "type": "uint256"
        },
        {
          "internalType": "uint256",
          "name": "amountBMin",
          "type": "uint256"
        },
        {
          "internalType": "uint256",
          "name": "deadline",
          "type": "uint256"
        }
      ],
      "name": "migrate",
      "outputs": [],
      "stateMutability": "nonpayable",
      "type": "function"
    }
  ],
  "bytecode": "0x60806040523480156200001157600080fd5b50604051620022193803806200221983398181016040528101906200003791906200013e565b816000806101000a81548173ffffffffffffffffffffffffffffffffffffffff021916908373ffffffffffffffffffffffffffffffffffffffff16021790555080600160006101000a81548173ffffffffffffffffffffffffffffffffffffffff021916908373ffffffffffffffffffffffffffffffffffffffff160217905550505062000185565b600080fd5b600073ffffffffffffffffffffffffffffffffffffffff82169050919050565b6000620000f282620000c5565b9050919050565b60006200010682620000e5565b9050919050565b6200011881620000f9565b81146200012457600080fd5b50565b60008151905062000138816200010d565b92915050565b60008060408385031215620001585762000157620000c0565b5b6000620001688582860162000127565b92505060206200017b8582860162000127565b9150509250929050565b61208480620001956000396000f3fe608060405234801561001057600080fd5b506004361061004c5760003560e01c8063396ac32814610051578063964c1f981461006d578063aac55b391461008b578063f887ea40146100a7575b600080fd5b61006b60048036038101906100669190611161565b6100c5565b005b610075610164565b604051610082919061128a565b60405180910390f35b6100a560048036038101906100a091906112a5565b610188565b005b6100af61027d565b6040516100bc919061128a565b60405180910390f35b60006100d18a8a6102a3565b90508073ffffffffffffffffffffffffffffffffffffffff1663d505accf33308b898989896040518863ffffffff1660e01b8152600401610118979695949392919061136e565b600060405180830381600087803b15801561013257600080fd5b505af1158015610146573d6000803e3d6000fd5b505050506101588a8a8a8a8a8a610188565b50505050505050505050565b60008054906101000a900473ffffffffffffffffffffffffffffffffffffffff1681565b428110156101cb576040517f08c379a00000000000000000000000000000000000000000000000000000000081526004016101c29061143a565b60405180910390fd5b6000806101dc8888888888886103a2565b915091506000806101ef8a8a868661059f565b91509150818411156102325761023133838661020b9190611489565b8c73ffffffffffffffffffffffffffffffffffffffff166107329092919063ffffffff16565b5b808311156102715761027033828561024a9190611489565b8b73ffffffffffffffffffffffffffffffffffffffff166107329092919063ffffffff16565b5b50505050505050505050565b600160009054906101000a900473ffffffffffffffffffffffffffffffffffffffff1681565b60008060006102b285856107b8565b9150915060008054906101000a900473ffffffffffffffffffffffffffffffffffffffff1673ffffffffffffffffffffffffffffffffffffffff1663c45a01556040518163ffffffff1660e01b8152600401602060405180830381865afa158015610321573d6000803e3d6000fd5b505050506040513d601f19601f8201168201806040525081019061034591906114d2565b8282604051602001610358929190611547565b6040516020818303038152906040528051906020012060405160200161037f929190611637565b6040516020818303038152906040528051906020012060001c9250505092915050565b60008060006103b189896102a3565b90508073ffffffffffffffffffffffffffffffffffffffff166323b872dd33838a6040518463ffffffff1660e01b81526004016103f093929190611679565b6020604051808303816000875af115801561040f573d6000803e3d6000fd5b505050506040513d601f19601f8201168201806040525081019061043391906116e8565b506000808273ffffffffffffffffffffffffffffffffffffffff166389afcb44306040518263ffffffff1660e01b81526004016104709190611715565b60408051808303816000875af115801561048e573d6000803e3d6000fd5b505050506040513d601f19601f820116820180604052508101906104b29190611745565b9150915060006104c28c8c6107b8565b5090508073ffffffffffffffffffffffffffffffffffffffff168c73ffffffffffffffffffffffffffffffffffffffff16146104ff578183610502565b82825b80965081975050508886101561054d576040517f08c379a0000000000000000000000000000000000000000000000000000000008152600401610544906117d1565b60405180910390fd5b87851015610590576040517f08c379a00000000000000000000000000000000000000000000000000000000081526004016105879061183d565b60405180910390fd5b50505050965096945050505050565b6000806105ae868686866108e4565b80925081935050506000610653600160009054906101000a900473ffffffffffffffffffffffffffffffffffffffff1673ffffffffffffffffffffffffffffffffffffffff1663c45a01556040518163ffffffff1660e01b8152600401602060405180830381865afa158015610628573d6000803e3d6000fd5b505050506040513d601f19601f8201168201806040525081019061064c91906114d2565b8888610b40565b905061068081848973ffffffffffffffffffffffffffffffffffffffff166107329092919063ffffffff16565b6106ab81838873ffffffffffffffffffffffffffffffffffffffff166107329092919063ffffffff16565b8073ffffffffffffffffffffffffffffffffffffffff16636a627842336040518263ffffffff1660e01b81526004016106e49190611715565b6020604051808303816000875af1158015610703573d6000803e3d6000fd5b505050506040513d601f19601f82011682018060405250810190610727919061185d565b505094509492505050565b6107b38363a9059cbb60e01b848460405160240161075192919061188a565b604051602081830303815290604052907bffffffffffffffffffffffffffffffffffffffffffffffffffffffff19166020820180517bffffffffffffffffffffffffffffffffffffffffffffffffffffffff8381831617835250505050610bb2565b505050565b6000808273ffffffffffffffffffffffffffffffffffffffff168473ffffffffffffffffffffffffffffffffffffffff1603610829576040517f08c379a000000000000000000000000000000000000000000000000000000000815260040161082090611925565b60405180910390fd5b8273ffffffffffffffffffffffffffffffffffffffff168473ffffffffffffffffffffffffffffffffffffffff1610610863578284610866565b83835b8092508193505050600073ffffffffffffffffffffffffffffffffffffffff168273ffffffffffffffffffffffffffffffffffffffff16036108dd576040517f08c379a00000000000000000000000000000000000000000000000000000000081526004016108d490611991565b60405180910390fd5b9250929050565b6000806000600160009054906101000a900473ffffffffffffffffffffffffffffffffffffffff1673ffffffffffffffffffffffffffffffffffffffff1663c45a01556040518163ffffffff1660e01b8152600401602060405180830381865afa158015610956573d6000803e3d6000fd5b505050506040513d601f19601f8201168201806040525081019061097a91906114d2565b9050600073ffffffffffffffffffffffffffffffffffffffff168173ffffffffffffffffffffffffffffffffffffffff1663e6a4390589896040518363ffffffff1660e01b81526004016109cf9291906119b1565b602060405180830381865afa1580156109ec573d6000803e3d6000fd5b505050506040513d601f19601f82011682018060405250810190610a1091906114d2565b73ffffffffffffffffffffffffffffffffffffffff1603610aab578073ffffffffffffffffffffffffffffffffffffffff1663c9c6539688886040518363ffffffff1660e01b8152600401610a669291906119b1565b6020604051808303816000875af1158015610a85573d6000803e3d6000fd5b505050506040513d601f19601f82011682018060405250810190610aa991906114d2565b505b600080610ab9838a8a610c79565b91509150600082148015610acd5750600081145b15610ae15786868095508196505050610b34565b6000610aee888484610d7c565b9050868111610b065787818096508197505050610b32565b6000610b13888486610d7c565b905088811115610b2657610b256119da565b5b80888097508198505050505b505b50505094509492505050565b6000806000610b4f85856107b8565b91509150858282604051602001610b67929190611547565b60405160208183030381529060405280519060200120604051602001610b8e929190611a55565b6040516020818303038152906040528051906020012060001c925050509392505050565b6000610c14826040518060400160405280602081526020017f5361666545524332303a206c6f772d6c6576656c2063616c6c206661696c65648152508573ffffffffffffffffffffffffffffffffffffffff16610e369092919063ffffffff16565b9050600081511115610c745780806020019051810190610c3491906116e8565b610c73576040517f08c379a0000000000000000000000000000000000000000000000000000000008152600401610c6a90611b09565b60405180910390fd5b5b505050565b6000806000610c8885856107b8565b509050600080610c99888888610b40565b73ffffffffffffffffffffffffffffffffffffffff16630902f1ac6040518163ffffffff1660e01b8152600401606060405180830381865afa158015610ce3573d6000803e3d6000fd5b505050506040513d601f19601f82011682018060405250810190610d079190611bab565b506dffffffffffffffffffffffffffff1691506dffffffffffffffffffffffffffff1691508273ffffffffffffffffffffffffffffffffffffffff168773ffffffffffffffffffffffffffffffffffffffff1614610d66578082610d69565b81815b8095508196505050505050935093915050565b6000808411610dc0576040517f08c379a0000000000000000000000000000000000000000000000000000000008152600401610db790611c70565b60405180910390fd5b600083118015610dd05750600082115b610e0f576040517f08c379a0000000000000000000000000000000000000000000000000000000008152600401610e0690611d02565b60405180910390fd5b82610e238386610e4e90919063ffffffff16565b610e2d9190611d51565b90509392505050565b6060610e458484600085610ebb565b90509392505050565b600080821480610e76575082828385610e679190611d82565b925082610e749190611d51565b145b610eb5576040517f08c379a0000000000000000000000000000000000000000000000000000000008152600401610eac90611e28565b60405180910390fd5b92915050565b606082471015610f00576040517f08c379a0000000000000000000000000000000000000000000000000000000008152600401610ef790611eba565b60405180910390fd5b610f0985610fcf565b610f48576040517f08c379a0000000000000000000000000000000000000000000000000000000008152600401610f3f90611f26565b60405180910390fd5b6000808673ffffffffffffffffffffffffffffffffffffffff168587604051610f719190611fc0565b60006040518083038185875af1925050503d8060008114610fae576040519150601f19603f3d011682016040523d82523d6000602084013e610fb3565b606091505b5091509150610fc3828286610ff2565b92505050949350505050565b6000808273ffffffffffffffffffffffffffffffffffffffff163b119050919050565b6060831561100257829050611052565b6000835111156110155782518084602001fd5b816040517f08c379a0000000000000000000000000000000000000000000000000000000008152600401611049919061202c565b60405180910390fd5b9392505050565b600080fd5b600073ffffffffffffffffffffffffffffffffffffffff82169050919050565b60006110898261105e565b9050919050565b6110998161107e565b81146110a457600080fd5b50565b6000813590506110b681611090565b92915050565b6000819050919050565b6110cf816110bc565b81146110da57600080fd5b50565b6000813590506110ec816110c6565b92915050565b600060ff82169050919050565b611108816110f2565b811461111357600080fd5b50565b600081359050611125816110ff565b92915050565b6000819050919050565b61113e8161112b565b811461114957600080fd5b50565b60008135905061115b81611135565b92915050565b60008060008060008060008060006101208a8c03121561118457611183611059565b5b60006111928c828d016110a7565b99505060206111a38c828d016110a7565b98505060406111b48c828d016110dd565b97505060606111c58c828d016110dd565b96505060806111d68c828d016110dd565b95505060a06111e78c828d016110dd565b94505060c06111f88c828d01611116565b93505060e06112098c828d0161114c565b92505061010061121b8c828d0161114c565b9150509295985092959850929598565b6000819050919050565b600061125061124b6112468461105e565b61122b565b61105e565b9050919050565b600061126282611235565b9050919050565b600061127482611257565b9050919050565b61128481611269565b82525050565b600060208201905061129f600083018461127b565b92915050565b60008060008060008060c087890312156112c2576112c1611059565b5b60006112d089828a016110a7565b96505060206112e189828a016110a7565b95505060406112f289828a016110dd565b945050606061130389828a016110dd565b935050608061131489828a016110dd565b92505060a061132589828a016110dd565b9150509295509295509295565b61133b8161107e565b82525050565b61134a816110bc565b82525050565b611359816110f2565b82525050565b6113688161112b565b82525050565b600060e082019050611383600083018a611332565b6113906020830189611332565b61139d6040830188611341565b6113aa6060830187611341565b6113b76080830186611350565b6113c460a083018561135f565b6113d160c083018461135f565b98975050505050505050565b600082825260208201905092915050565b7f5375736869537761703a20455850495245440000000000000000000000000000600082015250565b60006114246012836113dd565b915061142f826113ee565b602082019050919050565b6000602082019050818103600083015261145381611417565b9050919050565b7f4e487b7100000000000000000000000000000000000000000000000000000000600052601160045260246000fd5b6000611494826110bc565b915061149f836110bc565b9250828210156114b2576114b161145a565b5b828203905092915050565b6000815190506114cc81611090565b92915050565b6000602082840312156114e8576114e7611059565b5b60006114f6848285016114bd565b91505092915050565b60008160601b9050919050565b6000611517826114ff565b9050919050565b60006115298261150c565b9050919050565b61154161153c8261107e565b61151e565b82525050565b60006115538285611530565b6014820191506115638284611530565b6014820191508190509392505050565b600081905092915050565b7fff00000000000000000000000000000000000000000000000000000000000000600082015250565b60006115b4600183611573565b91506115bf8261157e565b600182019050919050565b6000819050919050565b6115e56115e08261112b565b6115ca565b82525050565b7f96e8ac4277198ff8b6f785478aa9a39f403cb768dd02cbee326c3e7da348845f600082015250565b6000611621602083611573565b915061162c826115eb565b602082019050919050565b6000611642826115a7565b915061164e8285611530565b60148201915061165e82846115d4565b60208201915061166d82611614565b91508190509392505050565b600060608201905061168e6000830186611332565b61169b6020830185611332565b6116a86040830184611341565b949350505050565b60008115159050919050565b6116c5816116b0565b81146116d057600080fd5b50565b6000815190506116e2816116bc565b92915050565b6000602082840312156116fe576116fd611059565b5b600061170c848285016116d3565b91505092915050565b600060208201905061172a6000830184611332565b92915050565b60008151905061173f816110c6565b92915050565b6000806040838503121561175c5761175b611059565b5b600061176a85828601611730565b925050602061177b85828601611730565b9150509250929050565b7f5375736869526f6c6c3a20494e53554646494349454e545f415f414d4f554e54600082015250565b60006117bb6020836113dd565b91506117c682611785565b602082019050919050565b600060208201905081810360008301526117ea816117ae565b9050919050565b7f5375736869526f6c6c3a20494e53554646494349454e545f425f414d4f554e54600082015250565b60006118276020836113dd565b9150611832826117f1565b602082019050919050565b600060208201905081810360008301526118568161181a565b9050919050565b60006020828403121561187357611872611059565b5b600061188184828501611730565b91505092915050565b600060408201905061189f6000830185611332565b6118ac6020830184611341565b9392505050565b7f556e697377617056324c6962726172793a204944454e544943414c5f4144445260008201527f4553534553000000000000000000000000000000000000000000000000000000602082015250565b600061190f6025836113dd565b915061191a826118b3565b604082019050919050565b6000602082019050818103600083015261193e81611902565b9050919050565b7f556e697377617056324c6962726172793a205a45524f5f414444524553530000600082015250565b600061197b601e836113dd565b915061198682611945565b602082019050919050565b600060208201905081810360008301526119aa8161196e565b9050919050565b60006040820190506119c66000830185611332565b6119d36020830184611332565b9392505050565b7f4e487b7100000000000000000000000000000000000000000000000000000000600052600160045260246000fd5b7fe18a34eb0e04b04f7a0ac29a6e80748dca96319b42c54d679cb821dca90c6303600082015250565b6000611a3f602083611573565b9150611a4a82611a09565b602082019050919050565b6000611a60826115a7565b9150611a6c8285611530565b601482019150611a7c82846115d4565b602082019150611a8b82611a32565b91508190509392505050565b7f5361666545524332303a204552433230206f7065726174696f6e20646964206e60008201527f6f74207375636365656400000000000000000000000000000000000000000000602082015250565b6000611af3602a836113dd565b9150611afe82611a97565b604082019050919050565b60006020820190508181036000830152611b2281611ae6565b9050919050565b60006dffffffffffffffffffffffffffff82169050919050565b611b4c81611b29565b8114611b5757600080fd5b50565b600081519050611b6981611b43565b92915050565b600063ffffffff82169050919050565b611b8881611b6f565b8114611b9357600080fd5b50565b600081519050611ba581611b7f565b92915050565b600080600060608486031215611bc457611bc3611059565b5b6000611bd286828701611b5a565b9350506020611be386828701611b5a565b9250506040611bf486828701611b96565b9150509250925092565b7f556e697377617056324c6962726172793a20494e53554646494349454e545f4160008201527f4d4f554e54000000000000000000000000000000000000000000000000000000602082015250565b6000611c5a6025836113dd565b9150611c6582611bfe565b604082019050919050565b60006020820190508181036000830152611c8981611c4d565b9050919050565b7f556e697377617056324c6962726172793a20494e53554646494349454e545f4c60008201527f4951554944495459000000000000000000000000000000000000000000000000602082015250565b6000611cec6028836113dd565b9150611cf782611c90565b604082019050919050565b60006020820190508181036000830152611d1b81611cdf565b9050919050565b7f4e487b7100000000000000000000000000000000000000000000000000000000600052601260045260246000fd5b6000611d5c826110bc565b9150611d67836110bc565b925082611d7757611d76611d22565b5b828204905092915050565b6000611d8d826110bc565b9150611d98836110bc565b9250817fffffffffffffffffffffffffffffffffffffffffffffffffffffffffffffffff0483118215151615611dd157611dd061145a565b5b828202905092915050565b7f64732d6d6174682d6d756c2d6f766572666c6f77000000000000000000000000600082015250565b6000611e126014836113dd565b9150611e1d82611ddc565b602082019050919050565b60006020820190508181036000830152611e4181611e05565b9050919050565b7f416464726573733a20696e73756666696369656e742062616c616e636520666f60008201527f722063616c6c0000000000000000000000000000000000000000000000000000602082015250565b6000611ea46026836113dd565b9150611eaf82611e48565b604082019050919050565b60006020820190508181036000830152611ed381611e97565b9050919050565b7f416464726573733a2063616c6c20746f206e6f6e2d636f6e7472616374000000600082015250565b6000611f10601d836113dd565b9150611f1b82611eda565b602082019050919050565b60006020820190508181036000830152611f3f81611f03565b9050919050565b600081519050919050565b600081905092915050565b60005b83811015611f7a578082015181840152602081019050611f5f565b83811115611f89576000848401525b50505050565b6000611f9a82611f46565b611fa48185611f51565b9350611fb4818560208601611f5c565b80840191505092915050565b6000611fcc8284611f8f565b915081905092915050565b600081519050919050565b6000601f19601f8301169050919050565b6000611ffe82611fd7565b61200881856113dd565b9350612018818560208601611f5c565b61202181611fe2565b840191505092915050565b600060208201905081810360008301526120468184611ff3565b90509291505056fea264697066735822122031104ba08241624f6cb429b3a28168ae71688f9e731afbfdcf7a9d1aa08f70c764736f6c634300080f0033",
  "immutableReferences": {},
  "source": "// SPDX-License-Identifier: MIT\n\npragma solidity ^0.8.0;\n\nimport \"@openzeppelin/contracts/token/ERC20/IERC20.sol\";\nimport \"@openzeppelin/contracts/token/ERC20/utils/SafeERC20.sol\";\nimport \"./uniswapv2/interfaces/IUniswapV2Pair.sol\";\nimport \"./uniswapv2/interfaces/IUniswapV2Router01.sol\";\nimport \"./uniswapv2/interfaces/IUniswapV2Factory.sol\";\nimport \"./uniswapv2/libraries/UniswapV2Library.sol\";\n\n// SushiRoll helps your migrate your existing Uniswap LP tokens to SushiSwap LP ones\ncontract SushiRoll {\n    using SafeERC20 for IERC20;\n\n    IUniswapV2Router01 public oldRouter;\n    IUniswapV2Router01 public router;\n\n    constructor(IUniswapV2Router01 _oldRouter, IUniswapV2Router01 _router) {\n        oldRouter = _oldRouter;\n        router = _router;\n    }\n\n    function migrateWithPermit(\n        address tokenA,\n        address tokenB,\n        uint256 liquidity,\n        uint256 amountAMin,\n        uint256 amountBMin,\n        uint256 deadline,\n        uint8 v,\n        bytes32 r,\n        bytes32 s\n    ) public {\n        IUniswapV2Pair pair = IUniswapV2Pair(pairForOldRouter(tokenA, tokenB));\n        pair.permit(msg.sender, address(this), liquidity, deadline, v, r, s);\n\n        migrate(tokenA, tokenB, liquidity, amountAMin, amountBMin, deadline);\n    }\n\n    // msg.sender should have approved 'liquidity' amount of LP token of 'tokenA' and 'tokenB'\n    function migrate(\n        address tokenA,\n        address tokenB,\n        uint256 liquidity,\n        uint256 amountAMin,\n        uint256 amountBMin,\n        uint256 deadline\n    ) public {\n        require(deadline >= block.timestamp, 'SushiSwap: EXPIRED');\n\n        // Remove liquidity from the old router with permit\n        (uint256 amountA, uint256 amountB) = removeLiquidity(\n            tokenA,\n            tokenB,\n            liquidity,\n            amountAMin,\n            amountBMin,\n            deadline\n        );\n\n        // Add liquidity to the new router\n        (uint256 pooledAmountA, uint256 pooledAmountB) = addLiquidity(tokenA, tokenB, amountA, amountB);\n\n        // Send remaining tokens to msg.sender\n        if (amountA > pooledAmountA) {\n            IERC20(tokenA).safeTransfer(msg.sender, amountA - pooledAmountA);\n        }\n        if (amountB > pooledAmountB) {\n            IERC20(tokenB).safeTransfer(msg.sender, amountB - pooledAmountB);\n        }\n    }\n\n    function removeLiquidity(\n        address tokenA,\n        address tokenB,\n        uint256 liquidity,\n        uint256 amountAMin,\n        uint256 amountBMin,\n        uint256 deadline\n    ) internal returns (uint256 amountA, uint256 amountB) {\n        IUniswapV2Pair pair = IUniswapV2Pair(pairForOldRouter(tokenA, tokenB));\n        pair.transferFrom(msg.sender, address(pair), liquidity);\n        (uint256 amount0, uint256 amount1) = pair.burn(address(this));\n        (address token0,) = UniswapV2Library.sortTokens(tokenA, tokenB);\n        (amountA, amountB) = tokenA == token0 ? (amount0, amount1) : (amount1, amount0);\n        require(amountA >= amountAMin, 'SushiRoll: INSUFFICIENT_A_AMOUNT');\n        require(amountB >= amountBMin, 'SushiRoll: INSUFFICIENT_B_AMOUNT');\n    }\n\n    // calculates the CREATE2 address for a pair without making any external calls\n    function pairForOldRouter(address tokenA, address tokenB) internal view returns (address pair) {\n        (address token0, address token1) = UniswapV2Library.sortTokens(tokenA, tokenB);\n        pair = address(uint160(uint(keccak256(abi.encodePacked(\n                hex'ff',\n                oldRouter.factory(),\n                keccak256(abi.encodePacked(token0, token1)),\n                hex'96e8ac4277198ff8b6f785478aa9a39f403cb768dd02cbee326c3e7da348845f' // init code hash\n            )))));\n    }\n\n    function addLiquidity(\n        address tokenA,\n        address tokenB,\n        uint256 amountADesired,\n        uint256 amountBDesired\n    ) internal returns (uint amountA, uint amountB) {\n        (amountA, amountB) = _addLiquidity(tokenA, tokenB, amountADesired, amountBDesired);\n        address pair = UniswapV2Library.pairFor(router.factory(), tokenA, tokenB);\n        IERC20(tokenA).safeTransfer(pair, amountA);\n        IERC20(tokenB).safeTransfer(pair, amountB);\n        IUniswapV2Pair(pair).mint(msg.sender);\n    }\n\n    function _addLiquidity(\n        address tokenA,\n        address tokenB,\n        uint256 amountADesired,\n        uint256 amountBDesired\n    ) internal returns (uint256 amountA, uint256 amountB) {\n        // create the pair if it doesn't exist yet\n        IUniswapV2Factory factory = IUniswapV2Factory(router.factory());\n        if (factory.getPair(tokenA, tokenB) == address(0)) {\n            factory.createPair(tokenA, tokenB);\n        }\n        (uint256 reserveA, uint256 reserveB) = UniswapV2Library.getReserves(address(factory), tokenA, tokenB);\n        if (reserveA == 0 && reserveB == 0) {\n            (amountA, amountB) = (amountADesired, amountBDesired);\n        } else {\n            uint256 amountBOptimal = UniswapV2Library.quote(amountADesired, reserveA, reserveB);\n            if (amountBOptimal <= amountBDesired) {\n                (amountA, amountB) = (amountADesired, amountBOptimal);\n            } else {\n                uint256 amountAOptimal = UniswapV2Library.quote(amountBDesired, reserveB, reserveA);\n                assert(amountAOptimal <= amountADesired);\n                (amountA, amountB) = (amountAOptimal, amountBDesired);\n            }\n        }\n    }\n}\n",
  "sourcePath": "/mnt/d/CubeProject/sushiswap_cube/contracts/SushiRoll.sol",
  "compiler": {
    "name": "solc",
    "version": "0.8.15+commit.e14f2714.Emscripten.clang"
  },
  "schemaVersion": "3.4.8",
  "updatedAt": "2022-07-12T18:57:32.618Z",
  "devdoc": {
    "kind": "dev",
    "methods": {},
    "version": 1
  },
  "userdoc": {
    "kind": "user",
    "methods": {},
    "version": 1
  }
}