{
  "contractName": "SushiMaker",
  "abi": [
    {
      "inputs": [
        {
          "internalType": "address",
          "name": "_factory",
          "type": "address"
        },
        {
          "internalType": "address",
          "name": "_bar",
          "type": "address"
        },
        {
          "internalType": "address",
          "name": "_sushi",
          "type": "address"
        },
        {
          "internalType": "address",
          "name": "_weth",
          "type": "address"
        }
      ],
      "stateMutability": "nonpayable",
      "type": "constructor"
    },
    {
      "anonymous": false,
      "inputs": [
        {
          "indexed": true,
          "internalType": "address",
          "name": "token",
          "type": "address"
        },
        {
          "indexed": true,
          "internalType": "address",
          "name": "bridge",
          "type": "address"
        }
      ],
      "name": "LogBridgeSet",
      "type": "event"
    },
    {
      "anonymous": false,
      "inputs": [
        {
          "indexed": true,
          "internalType": "address",
          "name": "server",
          "type": "address"
        },
        {
          "indexed": true,
          "internalType": "address",
          "name": "token0",
          "type": "address"
        },
        {
          "indexed": true,
          "internalType": "address",
          "name": "token1",
          "type": "address"
        },
        {
          "indexed": false,
          "internalType": "uint256",
          "name": "amount0",
          "type": "uint256"
        },
        {
          "indexed": false,
          "internalType": "uint256",
          "name": "amount1",
          "type": "uint256"
        },
        {
          "indexed": false,
          "internalType": "uint256",
          "name": "amountSUSHI",
          "type": "uint256"
        }
      ],
      "name": "LogConvert",
      "type": "event"
    },
    {
      "anonymous": false,
      "inputs": [
        {
          "indexed": true,
          "internalType": "address",
          "name": "previousOwner",
          "type": "address"
        },
        {
          "indexed": true,
          "internalType": "address",
          "name": "newOwner",
          "type": "address"
        }
      ],
      "name": "OwnershipTransferred",
      "type": "event"
    },
    {
      "inputs": [],
      "name": "bar",
      "outputs": [
        {
          "internalType": "address",
          "name": "",
          "type": "address"
        }
      ],
      "stateMutability": "view",
      "type": "function"
    },
    {
      "inputs": [],
      "name": "claimOwnership",
      "outputs": [],
      "stateMutability": "nonpayable",
      "type": "function"
    },
    {
      "inputs": [],
      "name": "factory",
      "outputs": [
        {
          "internalType": "contract IUniswapV2Factory",
          "name": "",
          "type": "address"
        }
      ],
      "stateMutability": "view",
      "type": "function"
    },
    {
      "inputs": [],
      "name": "owner",
      "outputs": [
        {
          "internalType": "address",
          "name": "",
          "type": "address"
        }
      ],
      "stateMutability": "view",
      "type": "function"
    },
    {
      "inputs": [],
      "name": "pendingOwner",
      "outputs": [
        {
          "internalType": "address",
          "name": "",
          "type": "address"
        }
      ],
      "stateMutability": "view",
      "type": "function"
    },
    {
      "inputs": [
        {
          "internalType": "address",
          "name": "newOwner",
          "type": "address"
        },
        {
          "internalType": "bool",
          "name": "direct",
          "type": "bool"
        },
        {
          "internalType": "bool",
          "name": "renounce",
          "type": "bool"
        }
      ],
      "name": "transferOwnership",
      "outputs": [],
      "stateMutability": "nonpayable",
      "type": "function"
    },
    {
      "inputs": [
        {
          "internalType": "address",
          "name": "token",
          "type": "address"
        }
      ],
      "name": "bridgeFor",
      "outputs": [
        {
          "internalType": "address",
          "name": "bridge",
          "type": "address"
        }
      ],
      "stateMutability": "view",
      "type": "function"
    },
    {
      "inputs": [
        {
          "internalType": "address",
          "name": "token",
          "type": "address"
        },
        {
          "internalType": "address",
          "name": "bridge",
          "type": "address"
        }
      ],
      "name": "setBridge",
      "outputs": [],
      "stateMutability": "nonpayable",
      "type": "function"
    },
    {
      "inputs": [
        {
          "internalType": "address",
          "name": "token0",
          "type": "address"
        },
        {
          "internalType": "address",
          "name": "token1",
          "type": "address"
        }
      ],
      "name": "convert",
      "outputs": [],
      "stateMutability": "nonpayable",
      "type": "function"
    },
    {
      "inputs": [
        {
          "internalType": "address[]",
          "name": "token0",
          "type": "address[]"
        },
        {
          "internalType": "address[]",
          "name": "token1",
          "type": "address[]"
        }
      ],
      "name": "convertMultiple",
      "outputs": [],
      "stateMutability": "nonpayable",
      "type": "function"
    }
  ],
  "bytecode": "0x6101006040523480156200001257600080fd5b5060405162002c5938038062002c59833981810160405281019062000038919062000217565b336000806101000a81548173ffffffffffffffffffffffffffffffffffffffff021916908373ffffffffffffffffffffffffffffffffffffffff1602179055503373ffffffffffffffffffffffffffffffffffffffff16600073ffffffffffffffffffffffffffffffffffffffff167f8be0079c531659141344cd1fd0a4f28419497f9722a3daafe3b4186f6b6457e060405160405180910390a38373ffffffffffffffffffffffffffffffffffffffff1660808173ffffffffffffffffffffffffffffffffffffffff16815250508273ffffffffffffffffffffffffffffffffffffffff1660a08173ffffffffffffffffffffffffffffffffffffffff16815250508173ffffffffffffffffffffffffffffffffffffffff1660c08173ffffffffffffffffffffffffffffffffffffffff16815250508073ffffffffffffffffffffffffffffffffffffffff1660e08173ffffffffffffffffffffffffffffffffffffffff16815250505050505062000289565b600080fd5b600073ffffffffffffffffffffffffffffffffffffffff82169050919050565b6000620001df82620001b2565b9050919050565b620001f181620001d2565b8114620001fd57600080fd5b50565b6000815190506200021181620001e6565b92915050565b60008060008060808587031215620002345762000233620001ad565b5b6000620002448782880162000200565b9450506020620002578782880162000200565b93505060406200026a8782880162000200565b92505060606200027d8782880162000200565b91505092959194509250565b60805160a05160c05160e0516128fc6200035d6000396000818161076a015281816109a701528181611078015281816110cf015281816112f40152818161134b01528181611374015281816113b60152818161140d015261143601526000818161071301528181610fb10152818161102a01528181611130015281816111a9015281816112120152818161128b01526115ca015260008181610a9601528181611008015281816111870152818161126901526115ec015260008181610a4c01528181610abc015261161d01526128fc6000f3fe608060405234801561001057600080fd5b506004361061009e5760003560e01c8063a761a93911610066578063a761a9391461011f578063bd1b820c1461014f578063c45a01551461016b578063e30c397814610189578063febb0f7e146101a75761009e565b8063078dfbe7146100a3578063303e6aa4146100bf5780634e71e0c8146100db5780638da5cb5b146100e55780639d22ae8c14610103575b600080fd5b6100bd60048036038101906100b89190611bfa565b6101c5565b005b6100d960048036038101906100d49190611cb2565b6103d7565b005b6100e36104cb565b005b6100ed61065f565b6040516100fa9190611d42565b60405180910390f35b61011d60048036038101906101189190611d5d565b610683565b005b61013960048036038101906101349190611d9d565b61090c565b6040516101469190611d42565b60405180910390f35b61016960048036038101906101649190611d5d565b6109ce565b005b610173610a4a565b6040516101809190611e29565b60405180910390f35b610191610a6e565b60405161019e9190611d42565b60405180910390f35b6101af610a94565b6040516101bc9190611d42565b60405180910390f35b60008054906101000a900473ffffffffffffffffffffffffffffffffffffffff1673ffffffffffffffffffffffffffffffffffffffff163373ffffffffffffffffffffffffffffffffffffffff1614610253576040517f08c379a000000000000000000000000000000000000000000000000000000000815260040161024a90611ea1565b60405180910390fd5b811561039057600073ffffffffffffffffffffffffffffffffffffffff168373ffffffffffffffffffffffffffffffffffffffff161415806102925750805b6102d1576040517f08c379a00000000000000000000000000000000000000000000000000000000081526004016102c890611f0d565b60405180910390fd5b8273ffffffffffffffffffffffffffffffffffffffff1660008054906101000a900473ffffffffffffffffffffffffffffffffffffffff1673ffffffffffffffffffffffffffffffffffffffff167f8be0079c531659141344cd1fd0a4f28419497f9722a3daafe3b4186f6b6457e060405160405180910390a3826000806101000a81548173ffffffffffffffffffffffffffffffffffffffff021916908373ffffffffffffffffffffffffffffffffffffffff1602179055506103d2565b82600160006101000a81548173ffffffffffffffffffffffffffffffffffffffff021916908373ffffffffffffffffffffffffffffffffffffffff1602179055505b505050565b3273ffffffffffffffffffffffffffffffffffffffff163373ffffffffffffffffffffffffffffffffffffffff1614610445576040517f08c379a000000000000000000000000000000000000000000000000000000000815260040161043c90611f79565b60405180910390fd5b600084849050905060005b818110156104c3576104b086868381811061046e5761046d611f99565b5b90506020020160208101906104839190611d9d565b85858481811061049657610495611f99565b5b90506020020160208101906104ab9190611d9d565b610ab8565b80806104bb90612001565b915050610450565b505050505050565b6000600160009054906101000a900473ffffffffffffffffffffffffffffffffffffffff1690508073ffffffffffffffffffffffffffffffffffffffff163373ffffffffffffffffffffffffffffffffffffffff1614610560576040517f08c379a000000000000000000000000000000000000000000000000000000000815260040161055790612096565b60405180910390fd5b8073ffffffffffffffffffffffffffffffffffffffff1660008054906101000a900473ffffffffffffffffffffffffffffffffffffffff1673ffffffffffffffffffffffffffffffffffffffff167f8be0079c531659141344cd1fd0a4f28419497f9722a3daafe3b4186f6b6457e060405160405180910390a3806000806101000a81548173ffffffffffffffffffffffffffffffffffffffff021916908373ffffffffffffffffffffffffffffffffffffffff1602179055506000600160006101000a81548173ffffffffffffffffffffffffffffffffffffffff021916908373ffffffffffffffffffffffffffffffffffffffff16021790555050565b60008054906101000a900473ffffffffffffffffffffffffffffffffffffffff1681565b60008054906101000a900473ffffffffffffffffffffffffffffffffffffffff1673ffffffffffffffffffffffffffffffffffffffff163373ffffffffffffffffffffffffffffffffffffffff1614610711576040517f08c379a000000000000000000000000000000000000000000000000000000000815260040161070890611ea1565b60405180910390fd5b7f000000000000000000000000000000000000000000000000000000000000000073ffffffffffffffffffffffffffffffffffffffff168273ffffffffffffffffffffffffffffffffffffffff16141580156107b957507f000000000000000000000000000000000000000000000000000000000000000073ffffffffffffffffffffffffffffffffffffffff168273ffffffffffffffffffffffffffffffffffffffff1614155b80156107f157508073ffffffffffffffffffffffffffffffffffffffff168273ffffffffffffffffffffffffffffffffffffffff1614155b610830576040517f08c379a000000000000000000000000000000000000000000000000000000000815260040161082790612102565b60405180910390fd5b80600260008473ffffffffffffffffffffffffffffffffffffffff1673ffffffffffffffffffffffffffffffffffffffff16815260200190815260200160002060006101000a81548173ffffffffffffffffffffffffffffffffffffffff021916908373ffffffffffffffffffffffffffffffffffffffff1602179055508073ffffffffffffffffffffffffffffffffffffffff168273ffffffffffffffffffffffffffffffffffffffff167f2e103aa707acc565f9a1547341914802b2bfe977fd79c595209f248ae4b0061360405160405180910390a35050565b6000600260008373ffffffffffffffffffffffffffffffffffffffff1673ffffffffffffffffffffffffffffffffffffffff16815260200190815260200160002060009054906101000a900473ffffffffffffffffffffffffffffffffffffffff169050600073ffffffffffffffffffffffffffffffffffffffff168173ffffffffffffffffffffffffffffffffffffffff1614156109c9577f000000000000000000000000000000000000000000000000000000000000000090505b919050565b3273ffffffffffffffffffffffffffffffffffffffff163373ffffffffffffffffffffffffffffffffffffffff1614610a3c576040517f08c379a0000000000000000000000000000000000000000000000000000000008152600401610a3390611f79565b60405180910390fd5b610a468282610ab8565b5050565b7f000000000000000000000000000000000000000000000000000000000000000081565b600160009054906101000a900473ffffffffffffffffffffffffffffffffffffffff1681565b7f000000000000000000000000000000000000000000000000000000000000000081565b60007f000000000000000000000000000000000000000000000000000000000000000073ffffffffffffffffffffffffffffffffffffffff1663e6a4390584846040518363ffffffff1660e01b8152600401610b15929190612122565b602060405180830381865afa158015610b32573d6000803e3d6000fd5b505050506040513d601f19601f82011682018060405250810190610b569190612160565b9050600073ffffffffffffffffffffffffffffffffffffffff168173ffffffffffffffffffffffffffffffffffffffff161415610bc8576040517f08c379a0000000000000000000000000000000000000000000000000000000008152600401610bbf906121d9565b60405180910390fd5b610c6c818273ffffffffffffffffffffffffffffffffffffffff166370a08231306040518263ffffffff1660e01b8152600401610c059190611d42565b602060405180830381865afa158015610c22573d6000803e3d6000fd5b505050506040513d601f19601f82011682018060405250810190610c469190612225565b8373ffffffffffffffffffffffffffffffffffffffff16610e2c9092919063ffffffff16565b6000808273ffffffffffffffffffffffffffffffffffffffff166389afcb44306040518263ffffffff1660e01b8152600401610ca89190611d42565b60408051808303816000875af1158015610cc6573d6000803e3d6000fd5b505050506040513d601f19601f82011682018060405250810190610cea9190612252565b915091508273ffffffffffffffffffffffffffffffffffffffff16630dfe16816040518163ffffffff1660e01b8152600401602060405180830381865afa158015610d39573d6000803e3d6000fd5b505050506040513d601f19601f82011682018060405250810190610d5d9190612160565b73ffffffffffffffffffffffffffffffffffffffff168573ffffffffffffffffffffffffffffffffffffffff1614610d9a57808280925081935050505b8373ffffffffffffffffffffffffffffffffffffffff168573ffffffffffffffffffffffffffffffffffffffff163373ffffffffffffffffffffffffffffffffffffffff167fd06b1d7ed79b664d17472c6f6997b929f1abe463ccccb4e5b6a0038f2f730c158585610e0e8b8b8a8a610f62565b604051610e1d939291906122a1565b60405180910390a45050505050565b6000808473ffffffffffffffffffffffffffffffffffffffff1663a9059cbb8585604051602401610e5e9291906122d8565b6040516020818303038152906040529060e01b6020820180517bffffffffffffffffffffffffffffffffffffffffffffffffffffffff8381831617835250505050604051610eac919061237b565b6000604051808303816000865af19150503d8060008114610ee9576040519150601f19603f3d011682016040523d82523d6000602084013e610eee565b606091505b5091509150818015610f1c5750600081511480610f1b575080806020019051810190610f1a91906123a7565b5b5b610f5b576040517f08c379a0000000000000000000000000000000000000000000000000000000008152600401610f5290612420565b60405180910390fd5b5050505050565b60008373ffffffffffffffffffffffffffffffffffffffff168573ffffffffffffffffffffffffffffffffffffffff16141561112e576000610fad838561156990919063ffffffff16565b90507f000000000000000000000000000000000000000000000000000000000000000073ffffffffffffffffffffffffffffffffffffffff168673ffffffffffffffffffffffffffffffffffffffff1614156110765761106e7f0000000000000000000000000000000000000000000000000000000000000000827f000000000000000000000000000000000000000000000000000000000000000073ffffffffffffffffffffffffffffffffffffffff16610e2c9092919063ffffffff16565b809150611128565b7f000000000000000000000000000000000000000000000000000000000000000073ffffffffffffffffffffffffffffffffffffffff168673ffffffffffffffffffffffffffffffffffffffff1614156110fb576110f47f0000000000000000000000000000000000000000000000000000000000000000826115c2565b9150611127565b60006111068761090c565b905061111487828430611618565b91506111238182846000610f62565b9250505b5b50611561565b7f000000000000000000000000000000000000000000000000000000000000000073ffffffffffffffffffffffffffffffffffffffff168573ffffffffffffffffffffffffffffffffffffffff161415611210576111ed7f0000000000000000000000000000000000000000000000000000000000000000847f000000000000000000000000000000000000000000000000000000000000000073ffffffffffffffffffffffffffffffffffffffff16610e2c9092919063ffffffff16565b611209836111fb86856115c2565b61156990919063ffffffff16565b9050611560565b7f000000000000000000000000000000000000000000000000000000000000000073ffffffffffffffffffffffffffffffffffffffff168473ffffffffffffffffffffffffffffffffffffffff1614156112f2576112cf7f0000000000000000000000000000000000000000000000000000000000000000837f000000000000000000000000000000000000000000000000000000000000000073ffffffffffffffffffffffffffffffffffffffff16610e2c9092919063ffffffff16565b6112eb826112dd87866115c2565b61156990919063ffffffff16565b905061155f565b7f000000000000000000000000000000000000000000000000000000000000000073ffffffffffffffffffffffffffffffffffffffff168573ffffffffffffffffffffffffffffffffffffffff1614156113b4576113ad7f00000000000000000000000000000000000000000000000000000000000000006113a88561139a887f00000000000000000000000000000000000000000000000000000000000000008830611618565b61156990919063ffffffff16565b6115c2565b905061155e565b7f000000000000000000000000000000000000000000000000000000000000000073ffffffffffffffffffffffffffffffffffffffff168473ffffffffffffffffffffffffffffffffffffffff1614156114765761146f7f000000000000000000000000000000000000000000000000000000000000000061146a8461145c897f00000000000000000000000000000000000000000000000000000000000000008930611618565b61156990919063ffffffff16565b6115c2565b905061155d565b60006114818661090c565b9050600061148e8661090c565b90508573ffffffffffffffffffffffffffffffffffffffff168273ffffffffffffffffffffffffffffffffffffffff1614156114e2576114db82876114d58a868a30611618565b87610f62565b925061155a565b8673ffffffffffffffffffffffffffffffffffffffff168173ffffffffffffffffffffffffffffffffffffffff1614156115345761152d8782876115288a868a30611618565b610f62565b9250611559565b61155682826115458a868a30611618565b6115518a868a30611618565b610f62565b92505b5b50505b5b5b5b5b949350505050565b60008182846115789190612440565b91508110156115bc576040517f08c379a00000000000000000000000000000000000000000000000000000000081526004016115b3906124e2565b60405180910390fd5b92915050565b6000611610837f0000000000000000000000000000000000000000000000000000000000000000847f0000000000000000000000000000000000000000000000000000000000000000611618565b905092915050565b6000807f000000000000000000000000000000000000000000000000000000000000000073ffffffffffffffffffffffffffffffffffffffff1663e6a4390587876040518363ffffffff1660e01b8152600401611676929190612122565b602060405180830381865afa158015611693573d6000803e3d6000fd5b505050506040513d601f19601f820116820180604052508101906116b79190612160565b9050600073ffffffffffffffffffffffffffffffffffffffff168173ffffffffffffffffffffffffffffffffffffffff161415611729576040517f08c379a00000000000000000000000000000000000000000000000000000000081526004016117209061254e565b60405180910390fd5b6000808273ffffffffffffffffffffffffffffffffffffffff16630902f1ac6040518163ffffffff1660e01b8152600401606060405180830381865afa158015611777573d6000803e3d6000fd5b505050506040513d601f19601f8201168201806040525081019061179b91906125f0565b506dffffffffffffffffffffffffffff1691506dffffffffffffffffffffffffffff16915060006117d76103e588611aed90919063ffffffff16565b90508373ffffffffffffffffffffffffffffffffffffffff16630dfe16816040518163ffffffff1660e01b8152600401602060405180830381865afa158015611824573d6000803e3d6000fd5b505050506040513d601f19601f820116820180604052508101906118489190612160565b73ffffffffffffffffffffffffffffffffffffffff168973ffffffffffffffffffffffffffffffffffffffff1614156119b0576118a2816118946103e886611aed90919063ffffffff16565b61156990919063ffffffff16565b6118b58383611aed90919063ffffffff16565b6118bf9190612672565b94506118ec84888b73ffffffffffffffffffffffffffffffffffffffff16610e2c9092919063ffffffff16565b8373ffffffffffffffffffffffffffffffffffffffff1663022c0d9f60008789600067ffffffffffffffff811115611927576119266126a3565b5b6040519080825280601f01601f1916602001820160405280156119595781602001600182028036833780820191505090505b506040518563ffffffff1660e01b81526004016119799493929190612768565b600060405180830381600087803b15801561199357600080fd5b505af11580156119a7573d6000803e3d6000fd5b50505050611ae1565b6119d7816119c96103e885611aed90919063ffffffff16565b61156990919063ffffffff16565b6119ea8483611aed90919063ffffffff16565b6119f49190612672565b9450611a2184888b73ffffffffffffffffffffffffffffffffffffffff16610e2c9092919063ffffffff16565b8373ffffffffffffffffffffffffffffffffffffffff1663022c0d9f86600089600067ffffffffffffffff811115611a5c57611a5b6126a3565b5b6040519080825280601f01601f191660200182016040528015611a8e5781602001600182028036833780820191505090505b506040518563ffffffff1660e01b8152600401611aae94939291906127b4565b600060405180830381600087803b158015611ac857600080fd5b505af1158015611adc573d6000803e3d6000fd5b505050505b50505050949350505050565b600080821480611b15575082828385611b069190612800565b925082611b139190612672565b145b611b54576040517f08c379a0000000000000000000000000000000000000000000000000000000008152600401611b4b906128a6565b60405180910390fd5b92915050565b600080fd5b600080fd5b600073ffffffffffffffffffffffffffffffffffffffff82169050919050565b6000611b8f82611b64565b9050919050565b611b9f81611b84565b8114611baa57600080fd5b50565b600081359050611bbc81611b96565b92915050565b60008115159050919050565b611bd781611bc2565b8114611be257600080fd5b50565b600081359050611bf481611bce565b92915050565b600080600060608486031215611c1357611c12611b5a565b5b6000611c2186828701611bad565b9350506020611c3286828701611be5565b9250506040611c4386828701611be5565b9150509250925092565b600080fd5b600080fd5b600080fd5b60008083601f840112611c7257611c71611c4d565b5b8235905067ffffffffffffffff811115611c8f57611c8e611c52565b5b602083019150836020820283011115611cab57611caa611c57565b5b9250929050565b60008060008060408587031215611ccc57611ccb611b5a565b5b600085013567ffffffffffffffff811115611cea57611ce9611b5f565b5b611cf687828801611c5c565b9450945050602085013567ffffffffffffffff811115611d1957611d18611b5f565b5b611d2587828801611c5c565b925092505092959194509250565b611d3c81611b84565b82525050565b6000602082019050611d576000830184611d33565b92915050565b60008060408385031215611d7457611d73611b5a565b5b6000611d8285828601611bad565b9250506020611d9385828601611bad565b9150509250929050565b600060208284031215611db357611db2611b5a565b5b6000611dc184828501611bad565b91505092915050565b6000819050919050565b6000611def611dea611de584611b64565b611dca565b611b64565b9050919050565b6000611e0182611dd4565b9050919050565b6000611e1382611df6565b9050919050565b611e2381611e08565b82525050565b6000602082019050611e3e6000830184611e1a565b92915050565b600082825260208201905092915050565b7f4f776e61626c653a2063616c6c6572206973206e6f7420746865206f776e6572600082015250565b6000611e8b602083611e44565b9150611e9682611e55565b602082019050919050565b60006020820190508181036000830152611eba81611e7e565b9050919050565b7f4f776e61626c653a207a65726f20616464726573730000000000000000000000600082015250565b6000611ef7601583611e44565b9150611f0282611ec1565b602082019050919050565b60006020820190508181036000830152611f2681611eea565b9050919050565b7f53757368694d616b65723a206d7573742075736520454f410000000000000000600082015250565b6000611f63601883611e44565b9150611f6e82611f2d565b602082019050919050565b60006020820190508181036000830152611f9281611f56565b9050919050565b7f4e487b7100000000000000000000000000000000000000000000000000000000600052603260045260246000fd5b7f4e487b7100000000000000000000000000000000000000000000000000000000600052601160045260246000fd5b6000819050919050565b600061200c82611ff7565b91507fffffffffffffffffffffffffffffffffffffffffffffffffffffffffffffffff82141561203f5761203e611fc8565b5b600182019050919050565b7f4f776e61626c653a2063616c6c657220213d2070656e64696e67206f776e6572600082015250565b6000612080602083611e44565b915061208b8261204a565b602082019050919050565b600060208201905081810360008301526120af81612073565b9050919050565b7f53757368694d616b65723a20496e76616c696420627269646765000000000000600082015250565b60006120ec601a83611e44565b91506120f7826120b6565b602082019050919050565b6000602082019050818103600083015261211b816120df565b9050919050565b60006040820190506121376000830185611d33565b6121446020830184611d33565b9392505050565b60008151905061215a81611b96565b92915050565b60006020828403121561217657612175611b5a565b5b60006121848482850161214b565b91505092915050565b7f53757368694d616b65723a20496e76616c696420706169720000000000000000600082015250565b60006121c3601883611e44565b91506121ce8261218d565b602082019050919050565b600060208201905081810360008301526121f2816121b6565b9050919050565b61220281611ff7565b811461220d57600080fd5b50565b60008151905061221f816121f9565b92915050565b60006020828403121561223b5761223a611b5a565b5b600061224984828501612210565b91505092915050565b6000806040838503121561226957612268611b5a565b5b600061227785828601612210565b925050602061228885828601612210565b9150509250929050565b61229b81611ff7565b82525050565b60006060820190506122b66000830186612292565b6122c36020830185612292565b6122d06040830184612292565b949350505050565b60006040820190506122ed6000830185611d33565b6122fa6020830184612292565b9392505050565b600081519050919050565b600081905092915050565b60005b8381101561233557808201518184015260208101905061231a565b83811115612344576000848401525b50505050565b600061235582612301565b61235f818561230c565b935061236f818560208601612317565b80840191505092915050565b6000612387828461234a565b915081905092915050565b6000815190506123a181611bce565b92915050565b6000602082840312156123bd576123bc611b5a565b5b60006123cb84828501612392565b91505092915050565b7f5361666545524332303a205472616e73666572206661696c6564000000000000600082015250565b600061240a601a83611e44565b9150612415826123d4565b602082019050919050565b60006020820190508181036000830152612439816123fd565b9050919050565b600061244b82611ff7565b915061245683611ff7565b9250827fffffffffffffffffffffffffffffffffffffffffffffffffffffffffffffffff0382111561248b5761248a611fc8565b5b828201905092915050565b7f536166654d6174683a20416464204f766572666c6f7700000000000000000000600082015250565b60006124cc601683611e44565b91506124d782612496565b602082019050919050565b600060208201905081810360008301526124fb816124bf565b9050919050565b7f53757368694d616b65723a2043616e6e6f7420636f6e76657274000000000000600082015250565b6000612538601a83611e44565b915061254382612502565b602082019050919050565b600060208201905081810360008301526125678161252b565b9050919050565b60006dffffffffffffffffffffffffffff82169050919050565b6125918161256e565b811461259c57600080fd5b50565b6000815190506125ae81612588565b92915050565b600063ffffffff82169050919050565b6125cd816125b4565b81146125d857600080fd5b50565b6000815190506125ea816125c4565b92915050565b60008060006060848603121561260957612608611b5a565b5b60006126178682870161259f565b93505060206126288682870161259f565b9250506040612639868287016125db565b9150509250925092565b7f4e487b7100000000000000000000000000000000000000000000000000000000600052601260045260246000fd5b600061267d82611ff7565b915061268883611ff7565b92508261269857612697612643565b5b828204905092915050565b7f4e487b7100000000000000000000000000000000000000000000000000000000600052604160045260246000fd5b6000819050919050565b60006126f76126f26126ed846126d2565b611dca565b611ff7565b9050919050565b612707816126dc565b82525050565b600082825260208201905092915050565b6000601f19601f8301169050919050565b600061273a82612301565b612744818561270d565b9350612754818560208601612317565b61275d8161271e565b840191505092915050565b600060808201905061277d60008301876126fe565b61278a6020830186612292565b6127976040830185611d33565b81810360608301526127a9818461272f565b905095945050505050565b60006080820190506127c96000830187612292565b6127d660208301866126fe565b6127e36040830185611d33565b81810360608301526127f5818461272f565b905095945050505050565b600061280b82611ff7565b915061281683611ff7565b9250817fffffffffffffffffffffffffffffffffffffffffffffffffffffffffffffffff048311821515161561284f5761284e611fc8565b5b828202905092915050565b7f536166654d6174683a204d756c204f766572666c6f7700000000000000000000600082015250565b6000612890601683611e44565b915061289b8261285a565b602082019050919050565b600060208201905081810360008301526128bf81612883565b905091905056fea2646970667358221220cf5fd552d16f8c9c8d963a354dab5a9b043716eb3f38251f804d3c778d047ae464736f6c634300080b0033",
  "immutableReferences": {
    "6938": [
      {
        "length": 32,
        "start": 2636
      },
      {
        "length": 32,
        "start": 2748
      },
      {
        "length": 32,
        "start": 5661
      }
    ],
    "6940": [
      {
        "length": 32,
        "start": 2710
      },
      {
        "length": 32,
        "start": 4104
      },
      {
        "length": 32,
        "start": 4487
      },
      {
        "length": 32,
        "start": 4713
      },
      {
        "length": 32,
        "start": 5612
      }
    ],
    "6942": [
      {
        "length": 32,
        "start": 1811
      },
      {
        "length": 32,
        "start": 4017
      },
      {
        "length": 32,
        "start": 4138
      },
      {
        "length": 32,
        "start": 4400
      },
      {
        "length": 32,
        "start": 4521
      },
      {
        "length": 32,
        "start": 4626
      },
      {
        "length": 32,
        "start": 4747
      },
      {
        "length": 32,
        "start": 5578
      }
    ],
    "6944": [
      {
        "length": 32,
        "start": 1898
      },
      {
        "length": 32,
        "start": 2471
      },
      {
        "length": 32,
        "start": 4216
      },
      {
        "length": 32,
        "start": 4303
      },
      {
        "length": 32,
        "start": 4852
      },
      {
        "length": 32,
        "start": 4939
      },
      {
        "length": 32,
        "start": 4980
      },
      {
        "length": 32,
        "start": 5046
      },
      {
        "length": 32,
        "start": 5133
      },
      {
        "length": 32,
        "start": 5174
      }
    ]
  },
  "source": "// SPDX-License-Identifier: MIT\n\n// P1 - P3: OK\npragma solidity ^0.8.0;\nimport \"./libraries/SafeMath.sol\";\nimport \"./libraries/SafeERC20.sol\";\n\nimport \"./uniswapv2/interfaces/IUniswapV2ERC20.sol\";\nimport \"./uniswapv2/interfaces/IUniswapV2Pair.sol\";\nimport \"./uniswapv2/interfaces/IUniswapV2Factory.sol\";\n\nimport \"./Ownable.sol\";\n\n// SushiMaker is MasterChef's left hand and kinda a wizard. He can cook up Sushi from pretty much anything!\n// This contract handles \"serving up\" rewards for xSushi holders by trading tokens collected from fees for Sushi.\n\n// T1 - T4: OK\ncontract SushiMaker is Ownable {\n    using SafeMath for uint256;\n    using SafeERC20 for IERC20;\n\n    // V1 - V5: OK\n    IUniswapV2Factory public immutable factory;\n    //0xC0AEe478e3658e2610c5F7A4A2E1777cE9e4f2Ac\n    // V1 - V5: OK\n    address public immutable bar;\n    //0x8798249c2E607446EfB7Ad49eC89dD1865Ff4272\n    // V1 - V5: OK\n    address private immutable sushi;\n    //0x6B3595068778DD592e39A122f4f5a5cF09C90fE2\n    // V1 - V5: OK\n    address private immutable weth;\n    //0xC02aaA39b223FE8D0A0e5C4F27eAD9083C756Cc2\n\n    // V1 - V5: OK\n    mapping(address => address) internal _bridges;\n\n    // E1: OK\n    event LogBridgeSet(address indexed token, address indexed bridge);\n    // E1: OK\n    event LogConvert(\n        address indexed server,\n        address indexed token0,\n        address indexed token1,\n        uint256 amount0,\n        uint256 amount1,\n        uint256 amountSUSHI\n    );\n\n    constructor(\n        address _factory,\n        address _bar,\n        address _sushi,\n        address _weth\n    ) public {\n        factory = IUniswapV2Factory(_factory);\n        bar = _bar;\n        sushi = _sushi;\n        weth = _weth;\n    }\n\n    // F1 - F10: OK\n    // C1 - C24: OK\n    function bridgeFor(address token) public view returns (address bridge) {\n        bridge = _bridges[token];\n        if (bridge == address(0)) {\n            bridge = weth;\n        }\n    }\n\n    // F1 - F10: OK\n    // C1 - C24: OK\n    function setBridge(address token, address bridge) external onlyOwner {\n        // Checks\n        require(\n            token != sushi && token != weth && token != bridge,\n            \"SushiMaker: Invalid bridge\"\n        );\n\n        // Effects\n        _bridges[token] = bridge;\n        emit LogBridgeSet(token, bridge);\n    }\n\n    // M1 - M5: OK\n    // C1 - C24: OK\n    // C6: It's not a fool proof solution, but it prevents flash loans, so here it's ok to use tx.origin\n    modifier onlyEOA() {\n        // Try to make flash-loan exploit harder to do by only allowing externally owned addresses.\n        require(msg.sender == tx.origin, \"SushiMaker: must use EOA\");\n        _;\n    }\n\n    // F1 - F10: OK\n    // F3: _convert is separate to save gas by only checking the 'onlyEOA' modifier once in case of convertMultiple\n    // F6: There is an exploit to add lots of SUSHI to the bar, run convert, then remove the SUSHI again.\n    //     As the size of the SushiBar has grown, this requires large amounts of funds and isn't super profitable anymore\n    //     The onlyEOA modifier prevents this being done with a flash loan.\n    // C1 - C24: OK\n    function convert(address token0, address token1) external onlyEOA() {\n        _convert(token0, token1);\n    }\n\n    // F1 - F10: OK, see convert\n    // C1 - C24: OK\n    // C3: Loop is under control of the caller\n    function convertMultiple(\n        address[] calldata token0,\n        address[] calldata token1\n    ) external onlyEOA() {\n        // TODO: This can be optimized a fair bit, but this is safer and simpler for now\n        uint256 len = token0.length;\n        for (uint256 i = 0; i < len; i++) {\n            _convert(token0[i], token1[i]);\n        }\n    }\n\n    // F1 - F10: OK\n    // C1- C24: OK\n    function _convert(address token0, address token1) internal {\n        // Interactions\n        // S1 - S4: OK\n        IUniswapV2Pair pair = IUniswapV2Pair(factory.getPair(token0, token1));\n        require(address(pair) != address(0), \"SushiMaker: Invalid pair\");\n        // balanceOf: S1 - S4: OK\n        // transfer: X1 - X5: OK\n        IERC20(address(pair)).safeTransfer(\n            address(pair),\n            pair.balanceOf(address(this))\n        );\n        // X1 - X5: OK\n        (uint256 amount0, uint256 amount1) = pair.burn(address(this));\n        if (token0 != pair.token0()) {\n            (amount0, amount1) = (amount1, amount0);\n        }\n        emit LogConvert(\n            msg.sender,\n            token0,\n            token1,\n            amount0,\n            amount1,\n            _convertStep(token0, token1, amount0, amount1)\n        );\n    }\n\n    // F1 - F10: OK\n    // C1 - C24: OK\n    // All safeTransfer, _swap, _toSUSHI, _convertStep: X1 - X5: OK\n    function _convertStep(\n        address token0,\n        address token1,\n        uint256 amount0,\n        uint256 amount1\n    ) internal returns (uint256 sushiOut) {\n        // Interactions\n        if (token0 == token1) {\n            uint256 amount = amount0.add(amount1);\n            if (token0 == sushi) {\n                IERC20(sushi).safeTransfer(bar, amount);\n                sushiOut = amount;\n            } else if (token0 == weth) {\n                sushiOut = _toSUSHI(weth, amount);\n            } else {\n                address bridge = bridgeFor(token0);\n                amount = _swap(token0, bridge, amount, address(this));\n                sushiOut = _convertStep(bridge, bridge, amount, 0);\n            }\n        } else if (token0 == sushi) {\n            // eg. SUSHI - ETH\n            IERC20(sushi).safeTransfer(bar, amount0);\n            sushiOut = _toSUSHI(token1, amount1).add(amount0);\n        } else if (token1 == sushi) {\n            // eg. USDT - SUSHI\n            IERC20(sushi).safeTransfer(bar, amount1);\n            sushiOut = _toSUSHI(token0, amount0).add(amount1);\n        } else if (token0 == weth) {\n            // eg. ETH - USDC\n            sushiOut = _toSUSHI(\n                weth,\n                _swap(token1, weth, amount1, address(this)).add(amount0)\n            );\n        } else if (token1 == weth) {\n            // eg. USDT - ETH\n            sushiOut = _toSUSHI(\n                weth,\n                _swap(token0, weth, amount0, address(this)).add(amount1)\n            );\n        } else {\n            // eg. MIC - USDT\n            address bridge0 = bridgeFor(token0);\n            address bridge1 = bridgeFor(token1);\n            if (bridge0 == token1) {\n                // eg. MIC - USDT - and bridgeFor(MIC) = USDT\n                sushiOut = _convertStep(\n                    bridge0,\n                    token1,\n                    _swap(token0, bridge0, amount0, address(this)),\n                    amount1\n                );\n            } else if (bridge1 == token0) {\n                // eg. WBTC - DSD - and bridgeFor(DSD) = WBTC\n                sushiOut = _convertStep(\n                    token0,\n                    bridge1,\n                    amount0,\n                    _swap(token1, bridge1, amount1, address(this))\n                );\n            } else {\n                sushiOut = _convertStep(\n                    bridge0,\n                    bridge1, // eg. USDT - DSD - and bridgeFor(DSD) = WBTC\n                    _swap(token0, bridge0, amount0, address(this)),\n                    _swap(token1, bridge1, amount1, address(this))\n                );\n            }\n        }\n    }\n\n    // F1 - F10: OK\n    // C1 - C24: OK\n    // All safeTransfer, swap: X1 - X5: OK\n    function _swap(\n        address fromToken,\n        address toToken,\n        uint256 amountIn,\n        address to\n    ) internal returns (uint256 amountOut) {\n        // Checks\n        // X1 - X5: OK\n        IUniswapV2Pair pair =\n            IUniswapV2Pair(factory.getPair(fromToken, toToken));\n        require(address(pair) != address(0), \"SushiMaker: Cannot convert\");\n\n        // Interactions\n        // X1 - X5: OK\n        (uint256 reserve0, uint256 reserve1, ) = pair.getReserves();\n        uint256 amountInWithFee = amountIn.mul(997);\n        if (fromToken == pair.token0()) {\n            amountOut =\n                amountInWithFee.mul(reserve1) /\n                reserve0.mul(1000).add(amountInWithFee);\n            IERC20(fromToken).safeTransfer(address(pair), amountIn);\n            pair.swap(0, amountOut, to, new bytes(0));\n            // TODO: Add maximum slippage?\n        } else {\n            amountOut =\n                amountInWithFee.mul(reserve0) /\n                reserve1.mul(1000).add(amountInWithFee);\n            IERC20(fromToken).safeTransfer(address(pair), amountIn);\n            pair.swap(amountOut, 0, to, new bytes(0));\n            // TODO: Add maximum slippage?\n        }\n    }\n\n    // F1 - F10: OK\n    // C1 - C24: OK\n    function _toSUSHI(address token, uint256 amountIn)\n        internal\n        returns (uint256 amountOut)\n    {\n        // X1 - X5: OK\n        amountOut = _swap(token, sushi, amountIn, bar);\n    }\n}\n",
  "sourcePath": "/mnt/d/CubeProject/sushiswap_cube/contracts/SushiMaker.sol",
  "compiler": {
    "name": "solc",
    "version": "0.8.11+commit.d7f03943.Emscripten.clang"
  },
  "schemaVersion": "3.4.8",
  "updatedAt": "2022-07-13T18:20:10.080Z",
  "devdoc": {
    "kind": "dev",
    "methods": {},
    "version": 1
  },
  "userdoc": {
    "kind": "user",
    "methods": {},
    "version": 1
  }
}