{
  "contractName": "SushiBar",
  "abi": [
    {
      "inputs": [
        {
          "internalType": "contract IERC20",
          "name": "_sushi",
          "type": "address"
        }
      ],
      "stateMutability": "nonpayable",
      "type": "constructor"
    },
    {
      "anonymous": false,
      "inputs": [
        {
          "indexed": true,
          "internalType": "address",
          "name": "owner",
          "type": "address"
        },
        {
          "indexed": true,
          "internalType": "address",
          "name": "spender",
          "type": "address"
        },
        {
          "indexed": false,
          "internalType": "uint256",
          "name": "value",
          "type": "uint256"
        }
      ],
      "name": "Approval",
      "type": "event"
    },
    {
      "anonymous": false,
      "inputs": [
        {
          "indexed": true,
          "internalType": "address",
          "name": "from",
          "type": "address"
        },
        {
          "indexed": true,
          "internalType": "address",
          "name": "to",
          "type": "address"
        },
        {
          "indexed": false,
          "internalType": "uint256",
          "name": "value",
          "type": "uint256"
        }
      ],
      "name": "Transfer",
      "type": "event"
    },
    {
      "inputs": [
        {
          "internalType": "address",
          "name": "owner",
          "type": "address"
        },
        {
          "internalType": "address",
          "name": "spender",
          "type": "address"
        }
      ],
      "name": "allowance",
      "outputs": [
        {
          "internalType": "uint256",
          "name": "",
          "type": "uint256"
        }
      ],
      "stateMutability": "view",
      "type": "function"
    },
    {
      "inputs": [
        {
          "internalType": "address",
          "name": "spender",
          "type": "address"
        },
        {
          "internalType": "uint256",
          "name": "amount",
          "type": "uint256"
        }
      ],
      "name": "approve",
      "outputs": [
        {
          "internalType": "bool",
          "name": "",
          "type": "bool"
        }
      ],
      "stateMutability": "nonpayable",
      "type": "function"
    },
    {
      "inputs": [
        {
          "internalType": "address",
          "name": "account",
          "type": "address"
        }
      ],
      "name": "balanceOf",
      "outputs": [
        {
          "internalType": "uint256",
          "name": "",
          "type": "uint256"
        }
      ],
      "stateMutability": "view",
      "type": "function"
    },
    {
      "inputs": [],
      "name": "decimals",
      "outputs": [
        {
          "internalType": "uint8",
          "name": "",
          "type": "uint8"
        }
      ],
      "stateMutability": "view",
      "type": "function"
    },
    {
      "inputs": [
        {
          "internalType": "address",
          "name": "spender",
          "type": "address"
        },
        {
          "internalType": "uint256",
          "name": "subtractedValue",
          "type": "uint256"
        }
      ],
      "name": "decreaseAllowance",
      "outputs": [
        {
          "internalType": "bool",
          "name": "",
          "type": "bool"
        }
      ],
      "stateMutability": "nonpayable",
      "type": "function"
    },
    {
      "inputs": [
        {
          "internalType": "address",
          "name": "spender",
          "type": "address"
        },
        {
          "internalType": "uint256",
          "name": "addedValue",
          "type": "uint256"
        }
      ],
      "name": "increaseAllowance",
      "outputs": [
        {
          "internalType": "bool",
          "name": "",
          "type": "bool"
        }
      ],
      "stateMutability": "nonpayable",
      "type": "function"
    },
    {
      "inputs": [],
      "name": "name",
      "outputs": [
        {
          "internalType": "string",
          "name": "",
          "type": "string"
        }
      ],
      "stateMutability": "view",
      "type": "function"
    },
    {
      "inputs": [],
      "name": "sushi",
      "outputs": [
        {
          "internalType": "contract IERC20",
          "name": "",
          "type": "address"
        }
      ],
      "stateMutability": "view",
      "type": "function"
    },
    {
      "inputs": [],
      "name": "symbol",
      "outputs": [
        {
          "internalType": "string",
          "name": "",
          "type": "string"
        }
      ],
      "stateMutability": "view",
      "type": "function"
    },
    {
      "inputs": [],
      "name": "totalSupply",
      "outputs": [
        {
          "internalType": "uint256",
          "name": "",
          "type": "uint256"
        }
      ],
      "stateMutability": "view",
      "type": "function"
    },
    {
      "inputs": [
        {
          "internalType": "address",
          "name": "to",
          "type": "address"
        },
        {
          "internalType": "uint256",
          "name": "amount",
          "type": "uint256"
        }
      ],
      "name": "transfer",
      "outputs": [
        {
          "internalType": "bool",
          "name": "",
          "type": "bool"
        }
      ],
      "stateMutability": "nonpayable",
      "type": "function"
    },
    {
      "inputs": [
        {
          "internalType": "address",
          "name": "from",
          "type": "address"
        },
        {
          "internalType": "address",
          "name": "to",
          "type": "address"
        },
        {
          "internalType": "uint256",
          "name": "amount",
          "type": "uint256"
        }
      ],
      "name": "transferFrom",
      "outputs": [
        {
          "internalType": "bool",
          "name": "",
          "type": "bool"
        }
      ],
      "stateMutability": "nonpayable",
      "type": "function"
    },
    {
      "inputs": [
        {
          "internalType": "uint256",
          "name": "_amount",
          "type": "uint256"
        }
      ],
      "name": "enter",
      "outputs": [],
      "stateMutability": "nonpayable",
      "type": "function"
    },
    {
      "inputs": [
        {
          "internalType": "uint256",
          "name": "_share",
          "type": "uint256"
        }
      ],
      "name": "leave",
      "outputs": [],
      "stateMutability": "nonpayable",
      "type": "function"
    }
  ],
  "bytecode": "0x60806040523480156200001157600080fd5b50604051620020f2380380620020f283398181016040528101906200003791906200024d565b6040518060400160405280600881526020017f53757368694261720000000000000000000000000000000000000000000000008152506040518060400160405280600681526020017f78535553484900000000000000000000000000000000000000000000000000008152508160039080519060200190620000bb9291906200011f565b508060049080519060200190620000d49291906200011f565b50505080600560006101000a81548173ffffffffffffffffffffffffffffffffffffffff021916908373ffffffffffffffffffffffffffffffffffffffff16021790555050620002e4565b8280546200012d90620002ae565b90600052602060002090601f0160209004810192826200015157600085556200019d565b82601f106200016c57805160ff19168380011785556200019d565b828001600101855582156200019d579182015b828111156200019c5782518255916020019190600101906200017f565b5b509050620001ac9190620001b0565b5090565b5b80821115620001cb576000816000905550600101620001b1565b5090565b600080fd5b600073ffffffffffffffffffffffffffffffffffffffff82169050919050565b60006200020182620001d4565b9050919050565b60006200021582620001f4565b9050919050565b620002278162000208565b81146200023357600080fd5b50565b60008151905062000247816200021c565b92915050565b600060208284031215620002665762000265620001cf565b5b6000620002768482850162000236565b91505092915050565b7f4e487b7100000000000000000000000000000000000000000000000000000000600052602260045260246000fd5b60006002820490506001821680620002c757607f821691505b60208210811415620002de57620002dd6200027f565b5b50919050565b611dfe80620002f46000396000f3fe608060405234801561001057600080fd5b50600436106100ea5760003560e01c806367dfd4c91161008c578063a457c2d711610066578063a457c2d714610261578063a59f3e0c14610291578063a9059cbb146102ad578063dd62ed3e146102dd576100ea565b806367dfd4c9146101f757806370a082311461021357806395d89b4114610243576100ea565b806318160ddd116100c857806318160ddd1461015b57806323b872dd14610179578063313ce567146101a957806339509351146101c7576100ea565b806306fdde03146100ef578063095ea7b31461010d5780630a0879031461013d575b600080fd5b6100f761030d565b604051610104919061126e565b60405180910390f35b61012760048036038101906101229190611329565b61039f565b6040516101349190611384565b60405180910390f35b6101456103c2565b60405161015291906113fe565b60405180910390f35b6101636103e8565b6040516101709190611428565b60405180910390f35b610193600480360381019061018e9190611443565b6103f2565b6040516101a09190611384565b60405180910390f35b6101b1610421565b6040516101be91906114b2565b60405180910390f35b6101e160048036038101906101dc9190611329565b61042a565b6040516101ee9190611384565b60405180910390f35b610211600480360381019061020c91906114cd565b610461565b005b61022d600480360381019061022891906114fa565b6105e1565b60405161023a9190611428565b60405180910390f35b61024b610629565b604051610258919061126e565b60405180910390f35b61027b60048036038101906102769190611329565b6106bb565b6040516102889190611384565b60405180910390f35b6102ab60048036038101906102a691906114cd565b610732565b005b6102c760048036038101906102c29190611329565b6108de565b6040516102d49190611384565b60405180910390f35b6102f760048036038101906102f29190611527565b610901565b6040516103049190611428565b60405180910390f35b60606003805461031c90611596565b80601f016020809104026020016040519081016040528092919081815260200182805461034890611596565b80156103955780601f1061036a57610100808354040283529160200191610395565b820191906000526020600020905b81548152906001019060200180831161037857829003601f168201915b5050505050905090565b6000806103aa610988565b90506103b7818585610990565b600191505092915050565b600560009054906101000a900473ffffffffffffffffffffffffffffffffffffffff1681565b6000600254905090565b6000806103fd610988565b905061040a858285610b5b565b610415858585610be7565b60019150509392505050565b60006012905090565b600080610435610988565b90506104568185856104478589610901565b61045191906115f7565b610990565b600191505092915050565b600061046b6103e8565b9050600061052f82610521600560009054906101000a900473ffffffffffffffffffffffffffffffffffffffff1673ffffffffffffffffffffffffffffffffffffffff166370a08231306040518263ffffffff1660e01b81526004016104d1919061165c565b602060405180830381865afa1580156104ee573d6000803e3d6000fd5b505050506040513d601f19601f82011682018060405250810190610512919061168c565b86610e6890919063ffffffff16565b610e7e90919063ffffffff16565b905061053b3384610e94565b600560009054906101000a900473ffffffffffffffffffffffffffffffffffffffff1673ffffffffffffffffffffffffffffffffffffffff1663a9059cbb33836040518363ffffffff1660e01b81526004016105989291906116b9565b6020604051808303816000875af11580156105b7573d6000803e3d6000fd5b505050506040513d601f19601f820116820180604052508101906105db919061170e565b50505050565b60008060008373ffffffffffffffffffffffffffffffffffffffff1673ffffffffffffffffffffffffffffffffffffffff168152602001908152602001600020549050919050565b60606004805461063890611596565b80601f016020809104026020016040519081016040528092919081815260200182805461066490611596565b80156106b15780601f10610686576101008083540402835291602001916106b1565b820191906000526020600020905b81548152906001019060200180831161069457829003601f168201915b5050505050905090565b6000806106c6610988565b905060006106d48286610901565b905083811015610719576040517f08c379a0000000000000000000000000000000000000000000000000000000008152600401610710906117ad565b60405180910390fd5b6107268286868403610990565b60019250505092915050565b6000600560009054906101000a900473ffffffffffffffffffffffffffffffffffffffff1673ffffffffffffffffffffffffffffffffffffffff166370a08231306040518263ffffffff1660e01b815260040161078f919061165c565b602060405180830381865afa1580156107ac573d6000803e3d6000fd5b505050506040513d601f19601f820116820180604052508101906107d0919061168c565b905060006107dc6103e8565b905060008114806107ed5750600082145b15610801576107fc338461106b565b610836565b60006108288361081a8487610e6890919063ffffffff16565b610e7e90919063ffffffff16565b9050610834338261106b565b505b600560009054906101000a900473ffffffffffffffffffffffffffffffffffffffff1673ffffffffffffffffffffffffffffffffffffffff166323b872dd3330866040518463ffffffff1660e01b8152600401610895939291906117cd565b6020604051808303816000875af11580156108b4573d6000803e3d6000fd5b505050506040513d601f19601f820116820180604052508101906108d8919061170e565b50505050565b6000806108e9610988565b90506108f6818585610be7565b600191505092915050565b6000600160008473ffffffffffffffffffffffffffffffffffffffff1673ffffffffffffffffffffffffffffffffffffffff16815260200190815260200160002060008373ffffffffffffffffffffffffffffffffffffffff1673ffffffffffffffffffffffffffffffffffffffff16815260200190815260200160002054905092915050565b600033905090565b600073ffffffffffffffffffffffffffffffffffffffff168373ffffffffffffffffffffffffffffffffffffffff161415610a00576040517f08c379a00000000000000000000000000000000000000000000000000000000081526004016109f790611876565b60405180910390fd5b600073ffffffffffffffffffffffffffffffffffffffff168273ffffffffffffffffffffffffffffffffffffffff161415610a70576040517f08c379a0000000000000000000000000000000000000000000000000000000008152600401610a6790611908565b60405180910390fd5b80600160008573ffffffffffffffffffffffffffffffffffffffff1673ffffffffffffffffffffffffffffffffffffffff16815260200190815260200160002060008473ffffffffffffffffffffffffffffffffffffffff1673ffffffffffffffffffffffffffffffffffffffff168152602001908152602001600020819055508173ffffffffffffffffffffffffffffffffffffffff168373ffffffffffffffffffffffffffffffffffffffff167f8c5be1e5ebec7d5bd14f71427d1e84f3dd0314c0f7b2291e5b200ac8c7c3b92583604051610b4e9190611428565b60405180910390a3505050565b6000610b678484610901565b90507fffffffffffffffffffffffffffffffffffffffffffffffffffffffffffffffff8114610be15781811015610bd3576040517f08c379a0000000000000000000000000000000000000000000000000000000008152600401610bca90611974565b60405180910390fd5b610be08484848403610990565b5b50505050565b600073ffffffffffffffffffffffffffffffffffffffff168373ffffffffffffffffffffffffffffffffffffffff161415610c57576040517f08c379a0000000000000000000000000000000000000000000000000000000008152600401610c4e90611a06565b60405180910390fd5b600073ffffffffffffffffffffffffffffffffffffffff168273ffffffffffffffffffffffffffffffffffffffff161415610cc7576040517f08c379a0000000000000000000000000000000000000000000000000000000008152600401610cbe90611a98565b60405180910390fd5b610cd28383836111cb565b60008060008573ffffffffffffffffffffffffffffffffffffffff1673ffffffffffffffffffffffffffffffffffffffff16815260200190815260200160002054905081811015610d58576040517f08c379a0000000000000000000000000000000000000000000000000000000008152600401610d4f90611b2a565b60405180910390fd5b8181036000808673ffffffffffffffffffffffffffffffffffffffff1673ffffffffffffffffffffffffffffffffffffffff16815260200190815260200160002081905550816000808573ffffffffffffffffffffffffffffffffffffffff1673ffffffffffffffffffffffffffffffffffffffff1681526020019081526020016000206000828254610deb91906115f7565b925050819055508273ffffffffffffffffffffffffffffffffffffffff168473ffffffffffffffffffffffffffffffffffffffff167fddf252ad1be2c89b69c2b068fc378daa952ba7f163c4a11628f55a4df523b3ef84604051610e4f9190611428565b60405180910390a3610e628484846111d0565b50505050565b60008183610e769190611b4a565b905092915050565b60008183610e8c9190611bd3565b905092915050565b600073ffffffffffffffffffffffffffffffffffffffff168273ffffffffffffffffffffffffffffffffffffffff161415610f04576040517f08c379a0000000000000000000000000000000000000000000000000000000008152600401610efb90611c76565b60405180910390fd5b610f10826000836111cb565b60008060008473ffffffffffffffffffffffffffffffffffffffff1673ffffffffffffffffffffffffffffffffffffffff16815260200190815260200160002054905081811015610f96576040517f08c379a0000000000000000000000000000000000000000000000000000000008152600401610f8d90611d08565b60405180910390fd5b8181036000808573ffffffffffffffffffffffffffffffffffffffff1673ffffffffffffffffffffffffffffffffffffffff168152602001908152602001600020819055508160026000828254610fed9190611d28565b92505081905550600073ffffffffffffffffffffffffffffffffffffffff168373ffffffffffffffffffffffffffffffffffffffff167fddf252ad1be2c89b69c2b068fc378daa952ba7f163c4a11628f55a4df523b3ef846040516110529190611428565b60405180910390a3611066836000846111d0565b505050565b600073ffffffffffffffffffffffffffffffffffffffff168273ffffffffffffffffffffffffffffffffffffffff1614156110db576040517f08c379a00000000000000000000000000000000000000000000000000000000081526004016110d290611da8565b60405180910390fd5b6110e7600083836111cb565b80600260008282546110f991906115f7565b92505081905550806000808473ffffffffffffffffffffffffffffffffffffffff1673ffffffffffffffffffffffffffffffffffffffff168152602001908152602001600020600082825461114e91906115f7565b925050819055508173ffffffffffffffffffffffffffffffffffffffff16600073ffffffffffffffffffffffffffffffffffffffff167fddf252ad1be2c89b69c2b068fc378daa952ba7f163c4a11628f55a4df523b3ef836040516111b39190611428565b60405180910390a36111c7600083836111d0565b5050565b505050565b505050565b600081519050919050565b600082825260208201905092915050565b60005b8381101561120f5780820151818401526020810190506111f4565b8381111561121e576000848401525b50505050565b6000601f19601f8301169050919050565b6000611240826111d5565b61124a81856111e0565b935061125a8185602086016111f1565b61126381611224565b840191505092915050565b600060208201905081810360008301526112888184611235565b905092915050565b600080fd5b600073ffffffffffffffffffffffffffffffffffffffff82169050919050565b60006112c082611295565b9050919050565b6112d0816112b5565b81146112db57600080fd5b50565b6000813590506112ed816112c7565b92915050565b6000819050919050565b611306816112f3565b811461131157600080fd5b50565b600081359050611323816112fd565b92915050565b600080604083850312156113405761133f611290565b5b600061134e858286016112de565b925050602061135f85828601611314565b9150509250929050565b60008115159050919050565b61137e81611369565b82525050565b60006020820190506113996000830184611375565b92915050565b6000819050919050565b60006113c46113bf6113ba84611295565b61139f565b611295565b9050919050565b60006113d6826113a9565b9050919050565b60006113e8826113cb565b9050919050565b6113f8816113dd565b82525050565b600060208201905061141360008301846113ef565b92915050565b611422816112f3565b82525050565b600060208201905061143d6000830184611419565b92915050565b60008060006060848603121561145c5761145b611290565b5b600061146a868287016112de565b935050602061147b868287016112de565b925050604061148c86828701611314565b9150509250925092565b600060ff82169050919050565b6114ac81611496565b82525050565b60006020820190506114c760008301846114a3565b92915050565b6000602082840312156114e3576114e2611290565b5b60006114f184828501611314565b91505092915050565b6000602082840312156115105761150f611290565b5b600061151e848285016112de565b91505092915050565b6000806040838503121561153e5761153d611290565b5b600061154c858286016112de565b925050602061155d858286016112de565b9150509250929050565b7f4e487b7100000000000000000000000000000000000000000000000000000000600052602260045260246000fd5b600060028204905060018216806115ae57607f821691505b602082108114156115c2576115c1611567565b5b50919050565b7f4e487b7100000000000000000000000000000000000000000000000000000000600052601160045260246000fd5b6000611602826112f3565b915061160d836112f3565b9250827fffffffffffffffffffffffffffffffffffffffffffffffffffffffffffffffff03821115611642576116416115c8565b5b828201905092915050565b611656816112b5565b82525050565b6000602082019050611671600083018461164d565b92915050565b600081519050611686816112fd565b92915050565b6000602082840312156116a2576116a1611290565b5b60006116b084828501611677565b91505092915050565b60006040820190506116ce600083018561164d565b6116db6020830184611419565b9392505050565b6116eb81611369565b81146116f657600080fd5b50565b600081519050611708816116e2565b92915050565b60006020828403121561172457611723611290565b5b6000611732848285016116f9565b91505092915050565b7f45524332303a2064656372656173656420616c6c6f77616e63652062656c6f7760008201527f207a65726f000000000000000000000000000000000000000000000000000000602082015250565b60006117976025836111e0565b91506117a28261173b565b604082019050919050565b600060208201905081810360008301526117c68161178a565b9050919050565b60006060820190506117e2600083018661164d565b6117ef602083018561164d565b6117fc6040830184611419565b949350505050565b7f45524332303a20617070726f76652066726f6d20746865207a65726f2061646460008201527f7265737300000000000000000000000000000000000000000000000000000000602082015250565b60006118606024836111e0565b915061186b82611804565b604082019050919050565b6000602082019050818103600083015261188f81611853565b9050919050565b7f45524332303a20617070726f766520746f20746865207a65726f20616464726560008201527f7373000000000000000000000000000000000000000000000000000000000000602082015250565b60006118f26022836111e0565b91506118fd82611896565b604082019050919050565b60006020820190508181036000830152611921816118e5565b9050919050565b7f45524332303a20696e73756666696369656e7420616c6c6f77616e6365000000600082015250565b600061195e601d836111e0565b915061196982611928565b602082019050919050565b6000602082019050818103600083015261198d81611951565b9050919050565b7f45524332303a207472616e736665722066726f6d20746865207a65726f20616460008201527f6472657373000000000000000000000000000000000000000000000000000000602082015250565b60006119f06025836111e0565b91506119fb82611994565b604082019050919050565b60006020820190508181036000830152611a1f816119e3565b9050919050565b7f45524332303a207472616e7366657220746f20746865207a65726f206164647260008201527f6573730000000000000000000000000000000000000000000000000000000000602082015250565b6000611a826023836111e0565b9150611a8d82611a26565b604082019050919050565b60006020820190508181036000830152611ab181611a75565b9050919050565b7f45524332303a207472616e7366657220616d6f756e742065786365656473206260008201527f616c616e63650000000000000000000000000000000000000000000000000000602082015250565b6000611b146026836111e0565b9150611b1f82611ab8565b604082019050919050565b60006020820190508181036000830152611b4381611b07565b9050919050565b6000611b55826112f3565b9150611b60836112f3565b9250817fffffffffffffffffffffffffffffffffffffffffffffffffffffffffffffffff0483118215151615611b9957611b986115c8565b5b828202905092915050565b7f4e487b7100000000000000000000000000000000000000000000000000000000600052601260045260246000fd5b6000611bde826112f3565b9150611be9836112f3565b925082611bf957611bf8611ba4565b5b828204905092915050565b7f45524332303a206275726e2066726f6d20746865207a65726f2061646472657360008201527f7300000000000000000000000000000000000000000000000000000000000000602082015250565b6000611c606021836111e0565b9150611c6b82611c04565b604082019050919050565b60006020820190508181036000830152611c8f81611c53565b9050919050565b7f45524332303a206275726e20616d6f756e7420657863656564732062616c616e60008201527f6365000000000000000000000000000000000000000000000000000000000000602082015250565b6000611cf26022836111e0565b9150611cfd82611c96565b604082019050919050565b60006020820190508181036000830152611d2181611ce5565b9050919050565b6000611d33826112f3565b9150611d3e836112f3565b925082821015611d5157611d506115c8565b5b828203905092915050565b7f45524332303a206d696e7420746f20746865207a65726f206164647265737300600082015250565b6000611d92601f836111e0565b9150611d9d82611d5c565b602082019050919050565b60006020820190508181036000830152611dc181611d85565b905091905056fea26469706673582212202b6ec340e1ed61bec3b4addc542c43b6d03fc9bb5d1e194aca3f65a4437ee29464736f6c634300080b0033",
  "immutableReferences": {},
  "source": "// SPDX-License-Identifier: MIT\n\npragma solidity ^0.8.0;\n\nimport \"@openzeppelin/contracts/token/ERC20/IERC20.sol\";\nimport \"@openzeppelin/contracts/token/ERC20/ERC20.sol\";\nimport \"@openzeppelin/contracts/utils/math/SafeMath.sol\";\n\n// SushiBar is the coolest bar in town. You come in with some Sushi, and leave with more! The longer you stay, the more Sushi you get.\n//\n// This contract handles swapping to and from xSushi, SushiSwap's staking token.\ncontract SushiBar is ERC20(\"SushiBar\", \"xSUSHI\"){\n    using SafeMath for uint256;\n    IERC20 public sushi;\n\n    // Define the Sushi token contract\n    constructor(IERC20 _sushi) {\n        sushi = _sushi;\n    }\n\n    // Enter the bar. Pay some SUSHIs. Earn some shares.\n    // Locks Sushi and mints xSushi\n    function enter(uint256 _amount) public {\n        // Gets the amount of Sushi locked in the contract\n        uint256 totalSushi = sushi.balanceOf(address(this));\n        // Gets the amount of xSushi in existence\n        uint256 totalShares = totalSupply();\n        // If no xSushi exists, mint it 1:1 to the amount put in\n        if (totalShares == 0 || totalSushi == 0) {\n            _mint(msg.sender, _amount);\n        } \n        // Calculate and mint the amount of xSushi the Sushi is worth. The ratio will change overtime, as xSushi is burned/minted and Sushi deposited + gained from fees / withdrawn.\n        else {\n            uint256 what = _amount.mul(totalShares).div(totalSushi);\n            _mint(msg.sender, what);\n        }\n        // Lock the Sushi in the contract\n        sushi.transferFrom(msg.sender, address(this), _amount);\n    }\n\n    // Leave the bar. Claim back your SUSHIs.\n    // Unlocks the staked + gained Sushi and burns xSushi\n    function leave(uint256 _share) public {\n        // Gets the amount of xSushi in existence\n        uint256 totalShares = totalSupply();\n        // Calculates the amount of Sushi the xSushi is worth\n        uint256 what = _share.mul(sushi.balanceOf(address(this))).div(totalShares);\n        _burn(msg.sender, _share);\n        sushi.transfer(msg.sender, what);\n    }\n}\n",
  "sourcePath": "/mnt/d/CubeProject/sushiswap_cube/contracts/SushiBar.sol",
  "compiler": {
    "name": "solc",
    "version": "0.8.11+commit.d7f03943.Emscripten.clang"
  },
  "schemaVersion": "3.4.8",
  "updatedAt": "2022-07-13T18:20:10.053Z",
  "devdoc": {
    "kind": "dev",
    "methods": {
      "allowance(address,address)": {
        "details": "See {IERC20-allowance}."
      },
      "approve(address,uint256)": {
        "details": "See {IERC20-approve}. NOTE: If `amount` is the maximum `uint256`, the allowance is not updated on `transferFrom`. This is semantically equivalent to an infinite approval. Requirements: - `spender` cannot be the zero address."
      },
      "balanceOf(address)": {
        "details": "See {IERC20-balanceOf}."
      },
      "decimals()": {
        "details": "Returns the number of decimals used to get its user representation. For example, if `decimals` equals `2`, a balance of `505` tokens should be displayed to a user as `5.05` (`505 / 10 ** 2`). Tokens usually opt for a value of 18, imitating the relationship between Ether and Wei. This is the value {ERC20} uses, unless this function is overridden; NOTE: This information is only used for _display_ purposes: it in no way affects any of the arithmetic of the contract, including {IERC20-balanceOf} and {IERC20-transfer}."
      },
      "decreaseAllowance(address,uint256)": {
        "details": "Atomically decreases the allowance granted to `spender` by the caller. This is an alternative to {approve} that can be used as a mitigation for problems described in {IERC20-approve}. Emits an {Approval} event indicating the updated allowance. Requirements: - `spender` cannot be the zero address. - `spender` must have allowance for the caller of at least `subtractedValue`."
      },
      "increaseAllowance(address,uint256)": {
        "details": "Atomically increases the allowance granted to `spender` by the caller. This is an alternative to {approve} that can be used as a mitigation for problems described in {IERC20-approve}. Emits an {Approval} event indicating the updated allowance. Requirements: - `spender` cannot be the zero address."
      },
      "name()": {
        "details": "Returns the name of the token."
      },
      "symbol()": {
        "details": "Returns the symbol of the token, usually a shorter version of the name."
      },
      "totalSupply()": {
        "details": "See {IERC20-totalSupply}."
      },
      "transfer(address,uint256)": {
        "details": "See {IERC20-transfer}. Requirements: - `to` cannot be the zero address. - the caller must have a balance of at least `amount`."
      },
      "transferFrom(address,address,uint256)": {
        "details": "See {IERC20-transferFrom}. Emits an {Approval} event indicating the updated allowance. This is not required by the EIP. See the note at the beginning of {ERC20}. NOTE: Does not update the allowance if the current allowance is the maximum `uint256`. Requirements: - `from` and `to` cannot be the zero address. - `from` must have a balance of at least `amount`. - the caller must have allowance for ``from``'s tokens of at least `amount`."
      }
    },
    "version": 1
  },
  "userdoc": {
    "kind": "user",
    "methods": {},
    "version": 1
  }
}