{
  "contractName": "SushiRoll",
  "abi": [
    {
      "inputs": [
        {
          "internalType": "contract IUniswapV2Router01",
          "name": "_oldRouter",
          "type": "address"
        },
        {
          "internalType": "contract IUniswapV2Router01",
          "name": "_router",
          "type": "address"
        }
      ],
      "stateMutability": "nonpayable",
      "type": "constructor"
    },
    {
      "inputs": [],
      "name": "oldRouter",
      "outputs": [
        {
          "internalType": "contract IUniswapV2Router01",
          "name": "",
          "type": "address"
        }
      ],
      "stateMutability": "view",
      "type": "function"
    },
    {
      "inputs": [],
      "name": "router",
      "outputs": [
        {
          "internalType": "contract IUniswapV2Router01",
          "name": "",
          "type": "address"
        }
      ],
      "stateMutability": "view",
      "type": "function"
    },
    {
      "inputs": [
        {
          "internalType": "address",
          "name": "tokenA",
          "type": "address"
        },
        {
          "internalType": "address",
          "name": "tokenB",
          "type": "address"
        },
        {
          "internalType": "uint256",
          "name": "liquidity",
          "type": "uint256"
        },
        {
          "internalType": "uint256",
          "name": "amountAMin",
          "type": "uint256"
        },
        {
          "internalType": "uint256",
          "name": "amountBMin",
          "type": "uint256"
        },
        {
          "internalType": "uint256",
          "name": "deadline",
          "type": "uint256"
        },
        {
          "internalType": "uint8",
          "name": "v",
          "type": "uint8"
        },
        {
          "internalType": "bytes32",
          "name": "r",
          "type": "bytes32"
        },
        {
          "internalType": "bytes32",
          "name": "s",
          "type": "bytes32"
        }
      ],
      "name": "migrateWithPermit",
      "outputs": [],
      "stateMutability": "nonpayable",
      "type": "function"
    },
    {
      "inputs": [
        {
          "internalType": "address",
          "name": "tokenA",
          "type": "address"
        },
        {
          "internalType": "address",
          "name": "tokenB",
          "type": "address"
        },
        {
          "internalType": "uint256",
          "name": "liquidity",
          "type": "uint256"
        },
        {
          "internalType": "uint256",
          "name": "amountAMin",
          "type": "uint256"
        },
        {
          "internalType": "uint256",
          "name": "amountBMin",
          "type": "uint256"
        },
        {
          "internalType": "uint256",
          "name": "deadline",
          "type": "uint256"
        }
      ],
      "name": "migrate",
      "outputs": [],
      "stateMutability": "nonpayable",
      "type": "function"
    }
  ],
  "bytecode": "0x60806040523480156200001157600080fd5b506040516200221c3803806200221c83398181016040528101906200003791906200013e565b816000806101000a81548173ffffffffffffffffffffffffffffffffffffffff021916908373ffffffffffffffffffffffffffffffffffffffff16021790555080600160006101000a81548173ffffffffffffffffffffffffffffffffffffffff021916908373ffffffffffffffffffffffffffffffffffffffff160217905550505062000185565b600080fd5b600073ffffffffffffffffffffffffffffffffffffffff82169050919050565b6000620000f282620000c5565b9050919050565b60006200010682620000e5565b9050919050565b6200011881620000f9565b81146200012457600080fd5b50565b60008151905062000138816200010d565b92915050565b60008060408385031215620001585762000157620000c0565b5b6000620001688582860162000127565b92505060206200017b8582860162000127565b9150509250929050565b61208780620001956000396000f3fe608060405234801561001057600080fd5b506004361061004c5760003560e01c8063396ac32814610051578063964c1f981461006d578063aac55b391461008b578063f887ea40146100a7575b600080fd5b61006b60048036038101906100669190611164565b6100c5565b005b610075610164565b604051610082919061128d565b60405180910390f35b6100a560048036038101906100a091906112a8565b610188565b005b6100af61027d565b6040516100bc919061128d565b60405180910390f35b60006100d18a8a6102a3565b90508073ffffffffffffffffffffffffffffffffffffffff1663d505accf33308b898989896040518863ffffffff1660e01b81526004016101189796959493929190611371565b600060405180830381600087803b15801561013257600080fd5b505af1158015610146573d6000803e3d6000fd5b505050506101588a8a8a8a8a8a610188565b50505050505050505050565b60008054906101000a900473ffffffffffffffffffffffffffffffffffffffff1681565b428110156101cb576040517f08c379a00000000000000000000000000000000000000000000000000000000081526004016101c29061143d565b60405180910390fd5b6000806101dc8888888888886103a2565b915091506000806101ef8a8a868661059f565b91509150818411156102325761023133838661020b919061148c565b8c73ffffffffffffffffffffffffffffffffffffffff166107329092919063ffffffff16565b5b808311156102715761027033828561024a919061148c565b8b73ffffffffffffffffffffffffffffffffffffffff166107329092919063ffffffff16565b5b50505050505050505050565b600160009054906101000a900473ffffffffffffffffffffffffffffffffffffffff1681565b60008060006102b285856107b8565b9150915060008054906101000a900473ffffffffffffffffffffffffffffffffffffffff1673ffffffffffffffffffffffffffffffffffffffff1663c45a01556040518163ffffffff1660e01b8152600401602060405180830381865afa158015610321573d6000803e3d6000fd5b505050506040513d601f19601f8201168201806040525081019061034591906114d5565b828260405160200161035892919061154a565b6040516020818303038152906040528051906020012060405160200161037f92919061163a565b6040516020818303038152906040528051906020012060001c9250505092915050565b60008060006103b189896102a3565b90508073ffffffffffffffffffffffffffffffffffffffff166323b872dd33838a6040518463ffffffff1660e01b81526004016103f09392919061167c565b6020604051808303816000875af115801561040f573d6000803e3d6000fd5b505050506040513d601f19601f8201168201806040525081019061043391906116eb565b506000808273ffffffffffffffffffffffffffffffffffffffff166389afcb44306040518263ffffffff1660e01b81526004016104709190611718565b60408051808303816000875af115801561048e573d6000803e3d6000fd5b505050506040513d601f19601f820116820180604052508101906104b29190611748565b9150915060006104c28c8c6107b8565b5090508073ffffffffffffffffffffffffffffffffffffffff168c73ffffffffffffffffffffffffffffffffffffffff16146104ff578183610502565b82825b80965081975050508886101561054d576040517f08c379a0000000000000000000000000000000000000000000000000000000008152600401610544906117d4565b60405180910390fd5b87851015610590576040517f08c379a000000000000000000000000000000000000000000000000000000000815260040161058790611840565b60405180910390fd5b50505050965096945050505050565b6000806105ae868686866108e6565b80925081935050506000610653600160009054906101000a900473ffffffffffffffffffffffffffffffffffffffff1673ffffffffffffffffffffffffffffffffffffffff1663c45a01556040518163ffffffff1660e01b8152600401602060405180830381865afa158015610628573d6000803e3d6000fd5b505050506040513d601f19601f8201168201806040525081019061064c91906114d5565b8888610b43565b905061068081848973ffffffffffffffffffffffffffffffffffffffff166107329092919063ffffffff16565b6106ab81838873ffffffffffffffffffffffffffffffffffffffff166107329092919063ffffffff16565b8073ffffffffffffffffffffffffffffffffffffffff16636a627842336040518263ffffffff1660e01b81526004016106e49190611718565b6020604051808303816000875af1158015610703573d6000803e3d6000fd5b505050506040513d601f19601f820116820180604052508101906107279190611860565b505094509492505050565b6107b38363a9059cbb60e01b848460405160240161075192919061188d565b604051602081830303815290604052907bffffffffffffffffffffffffffffffffffffffffffffffffffffffff19166020820180517bffffffffffffffffffffffffffffffffffffffffffffffffffffffff8381831617835250505050610bb5565b505050565b6000808273ffffffffffffffffffffffffffffffffffffffff168473ffffffffffffffffffffffffffffffffffffffff16141561082a576040517f08c379a000000000000000000000000000000000000000000000000000000000815260040161082190611928565b60405180910390fd5b8273ffffffffffffffffffffffffffffffffffffffff168473ffffffffffffffffffffffffffffffffffffffff1610610864578284610867565b83835b8092508193505050600073ffffffffffffffffffffffffffffffffffffffff168273ffffffffffffffffffffffffffffffffffffffff1614156108df576040517f08c379a00000000000000000000000000000000000000000000000000000000081526004016108d690611994565b60405180910390fd5b9250929050565b6000806000600160009054906101000a900473ffffffffffffffffffffffffffffffffffffffff1673ffffffffffffffffffffffffffffffffffffffff1663c45a01556040518163ffffffff1660e01b8152600401602060405180830381865afa158015610958573d6000803e3d6000fd5b505050506040513d601f19601f8201168201806040525081019061097c91906114d5565b9050600073ffffffffffffffffffffffffffffffffffffffff168173ffffffffffffffffffffffffffffffffffffffff1663e6a4390589896040518363ffffffff1660e01b81526004016109d19291906119b4565b602060405180830381865afa1580156109ee573d6000803e3d6000fd5b505050506040513d601f19601f82011682018060405250810190610a1291906114d5565b73ffffffffffffffffffffffffffffffffffffffff161415610aae578073ffffffffffffffffffffffffffffffffffffffff1663c9c6539688886040518363ffffffff1660e01b8152600401610a699291906119b4565b6020604051808303816000875af1158015610a88573d6000803e3d6000fd5b505050506040513d601f19601f82011682018060405250810190610aac91906114d5565b505b600080610abc838a8a610c7c565b91509150600082148015610ad05750600081145b15610ae45786868095508196505050610b37565b6000610af1888484610d7f565b9050868111610b095787818096508197505050610b35565b6000610b16888486610d7f565b905088811115610b2957610b286119dd565b5b80888097508198505050505b505b50505094509492505050565b6000806000610b5285856107b8565b91509150858282604051602001610b6a92919061154a565b60405160208183030381529060405280519060200120604051602001610b91929190611a58565b6040516020818303038152906040528051906020012060001c925050509392505050565b6000610c17826040518060400160405280602081526020017f5361666545524332303a206c6f772d6c6576656c2063616c6c206661696c65648152508573ffffffffffffffffffffffffffffffffffffffff16610e399092919063ffffffff16565b9050600081511115610c775780806020019051810190610c3791906116eb565b610c76576040517f08c379a0000000000000000000000000000000000000000000000000000000008152600401610c6d90611b0c565b60405180910390fd5b5b505050565b6000806000610c8b85856107b8565b509050600080610c9c888888610b43565b73ffffffffffffffffffffffffffffffffffffffff16630902f1ac6040518163ffffffff1660e01b8152600401606060405180830381865afa158015610ce6573d6000803e3d6000fd5b505050506040513d601f19601f82011682018060405250810190610d0a9190611bae565b506dffffffffffffffffffffffffffff1691506dffffffffffffffffffffffffffff1691508273ffffffffffffffffffffffffffffffffffffffff168773ffffffffffffffffffffffffffffffffffffffff1614610d69578082610d6c565b81815b8095508196505050505050935093915050565b6000808411610dc3576040517f08c379a0000000000000000000000000000000000000000000000000000000008152600401610dba90611c73565b60405180910390fd5b600083118015610dd35750600082115b610e12576040517f08c379a0000000000000000000000000000000000000000000000000000000008152600401610e0990611d05565b60405180910390fd5b82610e268386610e5190919063ffffffff16565b610e309190611d54565b90509392505050565b6060610e488484600085610ebe565b90509392505050565b600080821480610e79575082828385610e6a9190611d85565b925082610e779190611d54565b145b610eb8576040517f08c379a0000000000000000000000000000000000000000000000000000000008152600401610eaf90611e2b565b60405180910390fd5b92915050565b606082471015610f03576040517f08c379a0000000000000000000000000000000000000000000000000000000008152600401610efa90611ebd565b60405180910390fd5b610f0c85610fd2565b610f4b576040517f08c379a0000000000000000000000000000000000000000000000000000000008152600401610f4290611f29565b60405180910390fd5b6000808673ffffffffffffffffffffffffffffffffffffffff168587604051610f749190611fc3565b60006040518083038185875af1925050503d8060008114610fb1576040519150601f19603f3d011682016040523d82523d6000602084013e610fb6565b606091505b5091509150610fc6828286610ff5565b92505050949350505050565b6000808273ffffffffffffffffffffffffffffffffffffffff163b119050919050565b6060831561100557829050611055565b6000835111156110185782518084602001fd5b816040517f08c379a000000000000000000000000000000000000000000000000000000000815260040161104c919061202f565b60405180910390fd5b9392505050565b600080fd5b600073ffffffffffffffffffffffffffffffffffffffff82169050919050565b600061108c82611061565b9050919050565b61109c81611081565b81146110a757600080fd5b50565b6000813590506110b981611093565b92915050565b6000819050919050565b6110d2816110bf565b81146110dd57600080fd5b50565b6000813590506110ef816110c9565b92915050565b600060ff82169050919050565b61110b816110f5565b811461111657600080fd5b50565b60008135905061112881611102565b92915050565b6000819050919050565b6111418161112e565b811461114c57600080fd5b50565b60008135905061115e81611138565b92915050565b60008060008060008060008060006101208a8c0312156111875761118661105c565b5b60006111958c828d016110aa565b99505060206111a68c828d016110aa565b98505060406111b78c828d016110e0565b97505060606111c88c828d016110e0565b96505060806111d98c828d016110e0565b95505060a06111ea8c828d016110e0565b94505060c06111fb8c828d01611119565b93505060e061120c8c828d0161114f565b92505061010061121e8c828d0161114f565b9150509295985092959850929598565b6000819050919050565b600061125361124e61124984611061565b61122e565b611061565b9050919050565b600061126582611238565b9050919050565b60006112778261125a565b9050919050565b6112878161126c565b82525050565b60006020820190506112a2600083018461127e565b92915050565b60008060008060008060c087890312156112c5576112c461105c565b5b60006112d389828a016110aa565b96505060206112e489828a016110aa565b95505060406112f589828a016110e0565b945050606061130689828a016110e0565b935050608061131789828a016110e0565b92505060a061132889828a016110e0565b9150509295509295509295565b61133e81611081565b82525050565b61134d816110bf565b82525050565b61135c816110f5565b82525050565b61136b8161112e565b82525050565b600060e082019050611386600083018a611335565b6113936020830189611335565b6113a06040830188611344565b6113ad6060830187611344565b6113ba6080830186611353565b6113c760a0830185611362565b6113d460c0830184611362565b98975050505050505050565b600082825260208201905092915050565b7f5375736869537761703a20455850495245440000000000000000000000000000600082015250565b60006114276012836113e0565b9150611432826113f1565b602082019050919050565b600060208201905081810360008301526114568161141a565b9050919050565b7f4e487b7100000000000000000000000000000000000000000000000000000000600052601160045260246000fd5b6000611497826110bf565b91506114a2836110bf565b9250828210156114b5576114b461145d565b5b828203905092915050565b6000815190506114cf81611093565b92915050565b6000602082840312156114eb576114ea61105c565b5b60006114f9848285016114c0565b91505092915050565b60008160601b9050919050565b600061151a82611502565b9050919050565b600061152c8261150f565b9050919050565b61154461153f82611081565b611521565b82525050565b60006115568285611533565b6014820191506115668284611533565b6014820191508190509392505050565b600081905092915050565b7fff00000000000000000000000000000000000000000000000000000000000000600082015250565b60006115b7600183611576565b91506115c282611581565b600182019050919050565b6000819050919050565b6115e86115e38261112e565b6115cd565b82525050565b7f96e8ac4277198ff8b6f785478aa9a39f403cb768dd02cbee326c3e7da348845f600082015250565b6000611624602083611576565b915061162f826115ee565b602082019050919050565b6000611645826115aa565b91506116518285611533565b60148201915061166182846115d7565b60208201915061167082611617565b91508190509392505050565b60006060820190506116916000830186611335565b61169e6020830185611335565b6116ab6040830184611344565b949350505050565b60008115159050919050565b6116c8816116b3565b81146116d357600080fd5b50565b6000815190506116e5816116bf565b92915050565b6000602082840312156117015761170061105c565b5b600061170f848285016116d6565b91505092915050565b600060208201905061172d6000830184611335565b92915050565b600081519050611742816110c9565b92915050565b6000806040838503121561175f5761175e61105c565b5b600061176d85828601611733565b925050602061177e85828601611733565b9150509250929050565b7f5375736869526f6c6c3a20494e53554646494349454e545f415f414d4f554e54600082015250565b60006117be6020836113e0565b91506117c982611788565b602082019050919050565b600060208201905081810360008301526117ed816117b1565b9050919050565b7f5375736869526f6c6c3a20494e53554646494349454e545f425f414d4f554e54600082015250565b600061182a6020836113e0565b9150611835826117f4565b602082019050919050565b600060208201905081810360008301526118598161181d565b9050919050565b6000602082840312156118765761187561105c565b5b600061188484828501611733565b91505092915050565b60006040820190506118a26000830185611335565b6118af6020830184611344565b9392505050565b7f556e697377617056324c6962726172793a204944454e544943414c5f4144445260008201527f4553534553000000000000000000000000000000000000000000000000000000602082015250565b60006119126025836113e0565b915061191d826118b6565b604082019050919050565b6000602082019050818103600083015261194181611905565b9050919050565b7f556e697377617056324c6962726172793a205a45524f5f414444524553530000600082015250565b600061197e601e836113e0565b915061198982611948565b602082019050919050565b600060208201905081810360008301526119ad81611971565b9050919050565b60006040820190506119c96000830185611335565b6119d66020830184611335565b9392505050565b7f4e487b7100000000000000000000000000000000000000000000000000000000600052600160045260246000fd5b7fe18a34eb0e04b04f7a0ac29a6e80748dca96319b42c54d679cb821dca90c6303600082015250565b6000611a42602083611576565b9150611a4d82611a0c565b602082019050919050565b6000611a63826115aa565b9150611a6f8285611533565b601482019150611a7f82846115d7565b602082019150611a8e82611a35565b91508190509392505050565b7f5361666545524332303a204552433230206f7065726174696f6e20646964206e60008201527f6f74207375636365656400000000000000000000000000000000000000000000602082015250565b6000611af6602a836113e0565b9150611b0182611a9a565b604082019050919050565b60006020820190508181036000830152611b2581611ae9565b9050919050565b60006dffffffffffffffffffffffffffff82169050919050565b611b4f81611b2c565b8114611b5a57600080fd5b50565b600081519050611b6c81611b46565b92915050565b600063ffffffff82169050919050565b611b8b81611b72565b8114611b9657600080fd5b50565b600081519050611ba881611b82565b92915050565b600080600060608486031215611bc757611bc661105c565b5b6000611bd586828701611b5d565b9350506020611be686828701611b5d565b9250506040611bf786828701611b99565b9150509250925092565b7f556e697377617056324c6962726172793a20494e53554646494349454e545f4160008201527f4d4f554e54000000000000000000000000000000000000000000000000000000602082015250565b6000611c5d6025836113e0565b9150611c6882611c01565b604082019050919050565b60006020820190508181036000830152611c8c81611c50565b9050919050565b7f556e697377617056324c6962726172793a20494e53554646494349454e545f4c60008201527f4951554944495459000000000000000000000000000000000000000000000000602082015250565b6000611cef6028836113e0565b9150611cfa82611c93565b604082019050919050565b60006020820190508181036000830152611d1e81611ce2565b9050919050565b7f4e487b7100000000000000000000000000000000000000000000000000000000600052601260045260246000fd5b6000611d5f826110bf565b9150611d6a836110bf565b925082611d7a57611d79611d25565b5b828204905092915050565b6000611d90826110bf565b9150611d9b836110bf565b9250817fffffffffffffffffffffffffffffffffffffffffffffffffffffffffffffffff0483118215151615611dd457611dd361145d565b5b828202905092915050565b7f64732d6d6174682d6d756c2d6f766572666c6f77000000000000000000000000600082015250565b6000611e156014836113e0565b9150611e2082611ddf565b602082019050919050565b60006020820190508181036000830152611e4481611e08565b9050919050565b7f416464726573733a20696e73756666696369656e742062616c616e636520666f60008201527f722063616c6c0000000000000000000000000000000000000000000000000000602082015250565b6000611ea76026836113e0565b9150611eb282611e4b565b604082019050919050565b60006020820190508181036000830152611ed681611e9a565b9050919050565b7f416464726573733a2063616c6c20746f206e6f6e2d636f6e7472616374000000600082015250565b6000611f13601d836113e0565b9150611f1e82611edd565b602082019050919050565b60006020820190508181036000830152611f4281611f06565b9050919050565b600081519050919050565b600081905092915050565b60005b83811015611f7d578082015181840152602081019050611f62565b83811115611f8c576000848401525b50505050565b6000611f9d82611f49565b611fa78185611f54565b9350611fb7818560208601611f5f565b80840191505092915050565b6000611fcf8284611f92565b915081905092915050565b600081519050919050565b6000601f19601f8301169050919050565b600061200182611fda565b61200b81856113e0565b935061201b818560208601611f5f565b61202481611fe5565b840191505092915050565b600060208201905081810360008301526120498184611ff6565b90509291505056fea26469706673582212205938307e08e6a5ef325d897332c7163def0a8139282cfcf0f4d74e50499ce46964736f6c634300080b0033",
  "immutableReferences": {},
  "source": "// SPDX-License-Identifier: MIT\n\npragma solidity ^0.8.0;\n\nimport \"@openzeppelin/contracts/token/ERC20/IERC20.sol\";\nimport \"@openzeppelin/contracts/token/ERC20/utils/SafeERC20.sol\";\nimport \"./uniswapv2/interfaces/IUniswapV2Pair.sol\";\nimport \"./uniswapv2/interfaces/IUniswapV2Router01.sol\";\nimport \"./uniswapv2/interfaces/IUniswapV2Factory.sol\";\nimport \"./uniswapv2/libraries/UniswapV2Library.sol\";\n\n// SushiRoll helps your migrate your existing Uniswap LP tokens to SushiSwap LP ones\ncontract SushiRoll {\n    using SafeERC20 for IERC20;\n\n    IUniswapV2Router01 public oldRouter;\n    IUniswapV2Router01 public router;\n\n    constructor(IUniswapV2Router01 _oldRouter, IUniswapV2Router01 _router) {\n        oldRouter = _oldRouter;\n        router = _router;\n    }\n\n    function migrateWithPermit(\n        address tokenA,\n        address tokenB,\n        uint256 liquidity,\n        uint256 amountAMin,\n        uint256 amountBMin,\n        uint256 deadline,\n        uint8 v,\n        bytes32 r,\n        bytes32 s\n    ) public {\n        IUniswapV2Pair pair = IUniswapV2Pair(pairForOldRouter(tokenA, tokenB));\n        pair.permit(msg.sender, address(this), liquidity, deadline, v, r, s);\n\n        migrate(tokenA, tokenB, liquidity, amountAMin, amountBMin, deadline);\n    }\n\n    // msg.sender should have approved 'liquidity' amount of LP token of 'tokenA' and 'tokenB'\n    function migrate(\n        address tokenA,\n        address tokenB,\n        uint256 liquidity,\n        uint256 amountAMin,\n        uint256 amountBMin,\n        uint256 deadline\n    ) public {\n        require(deadline >= block.timestamp, 'SushiSwap: EXPIRED');\n\n        // Remove liquidity from the old router with permit\n        (uint256 amountA, uint256 amountB) = removeLiquidity(\n            tokenA,\n            tokenB,\n            liquidity,\n            amountAMin,\n            amountBMin,\n            deadline\n        );\n\n        // Add liquidity to the new router\n        (uint256 pooledAmountA, uint256 pooledAmountB) = addLiquidity(tokenA, tokenB, amountA, amountB);\n\n        // Send remaining tokens to msg.sender\n        if (amountA > pooledAmountA) {\n            IERC20(tokenA).safeTransfer(msg.sender, amountA - pooledAmountA);\n        }\n        if (amountB > pooledAmountB) {\n            IERC20(tokenB).safeTransfer(msg.sender, amountB - pooledAmountB);\n        }\n    }\n\n    function removeLiquidity(\n        address tokenA,\n        address tokenB,\n        uint256 liquidity,\n        uint256 amountAMin,\n        uint256 amountBMin,\n        uint256 deadline\n    ) internal returns (uint256 amountA, uint256 amountB) {\n        IUniswapV2Pair pair = IUniswapV2Pair(pairForOldRouter(tokenA, tokenB));\n        pair.transferFrom(msg.sender, address(pair), liquidity);\n        (uint256 amount0, uint256 amount1) = pair.burn(address(this));\n        (address token0,) = UniswapV2Library.sortTokens(tokenA, tokenB);\n        (amountA, amountB) = tokenA == token0 ? (amount0, amount1) : (amount1, amount0);\n        require(amountA >= amountAMin, 'SushiRoll: INSUFFICIENT_A_AMOUNT');\n        require(amountB >= amountBMin, 'SushiRoll: INSUFFICIENT_B_AMOUNT');\n    }\n\n    // calculates the CREATE2 address for a pair without making any external calls\n    function pairForOldRouter(address tokenA, address tokenB) internal view returns (address pair) {\n        (address token0, address token1) = UniswapV2Library.sortTokens(tokenA, tokenB);\n        pair = address(uint160(uint(keccak256(abi.encodePacked(\n                hex'ff',\n                oldRouter.factory(),\n                keccak256(abi.encodePacked(token0, token1)),\n                hex'96e8ac4277198ff8b6f785478aa9a39f403cb768dd02cbee326c3e7da348845f' // init code hash\n            )))));\n    }\n\n    function addLiquidity(\n        address tokenA,\n        address tokenB,\n        uint256 amountADesired,\n        uint256 amountBDesired\n    ) internal returns (uint amountA, uint amountB) {\n        (amountA, amountB) = _addLiquidity(tokenA, tokenB, amountADesired, amountBDesired);\n        address pair = UniswapV2Library.pairFor(router.factory(), tokenA, tokenB);\n        IERC20(tokenA).safeTransfer(pair, amountA);\n        IERC20(tokenB).safeTransfer(pair, amountB);\n        IUniswapV2Pair(pair).mint(msg.sender);\n    }\n\n    function _addLiquidity(\n        address tokenA,\n        address tokenB,\n        uint256 amountADesired,\n        uint256 amountBDesired\n    ) internal returns (uint256 amountA, uint256 amountB) {\n        // create the pair if it doesn't exist yet\n        IUniswapV2Factory factory = IUniswapV2Factory(router.factory());\n        if (factory.getPair(tokenA, tokenB) == address(0)) {\n            factory.createPair(tokenA, tokenB);\n        }\n        (uint256 reserveA, uint256 reserveB) = UniswapV2Library.getReserves(address(factory), tokenA, tokenB);\n        if (reserveA == 0 && reserveB == 0) {\n            (amountA, amountB) = (amountADesired, amountBDesired);\n        } else {\n            uint256 amountBOptimal = UniswapV2Library.quote(amountADesired, reserveA, reserveB);\n            if (amountBOptimal <= amountBDesired) {\n                (amountA, amountB) = (amountADesired, amountBOptimal);\n            } else {\n                uint256 amountAOptimal = UniswapV2Library.quote(amountBDesired, reserveB, reserveA);\n                assert(amountAOptimal <= amountADesired);\n                (amountA, amountB) = (amountAOptimal, amountBDesired);\n            }\n        }\n    }\n}\n",
  "sourcePath": "/mnt/d/CubeProject/sushiswap_cube/contracts/SushiRoll.sol",
  "compiler": {
    "name": "solc",
    "version": "0.8.11+commit.d7f03943.Emscripten.clang"
  },
  "schemaVersion": "3.4.8",
  "updatedAt": "2022-07-13T18:20:10.196Z",
  "devdoc": {
    "kind": "dev",
    "methods": {},
    "version": 1
  },
  "userdoc": {
    "kind": "user",
    "methods": {},
    "version": 1
  }
}