{
  "contractName": "SushiMakerKashi",
  "abi": [
    {
      "inputs": [
        {
          "internalType": "contract IUniswapV2Factory",
          "name": "_factory",
          "type": "address"
        },
        {
          "internalType": "address",
          "name": "_bar",
          "type": "address"
        },
        {
          "internalType": "contract IBentoBoxWithdraw",
          "name": "_bentoBox",
          "type": "address"
        },
        {
          "internalType": "address",
          "name": "_sushi",
          "type": "address"
        },
        {
          "internalType": "address",
          "name": "_weth",
          "type": "address"
        },
        {
          "internalType": "bytes32",
          "name": "_pairCodeHash",
          "type": "bytes32"
        }
      ],
      "stateMutability": "nonpayable",
      "type": "constructor"
    },
    {
      "anonymous": false,
      "inputs": [
        {
          "indexed": true,
          "internalType": "address",
          "name": "token",
          "type": "address"
        },
        {
          "indexed": true,
          "internalType": "address",
          "name": "bridge",
          "type": "address"
        }
      ],
      "name": "LogBridgeSet",
      "type": "event"
    },
    {
      "anonymous": false,
      "inputs": [
        {
          "indexed": true,
          "internalType": "address",
          "name": "server",
          "type": "address"
        },
        {
          "indexed": true,
          "internalType": "address",
          "name": "token0",
          "type": "address"
        },
        {
          "indexed": false,
          "internalType": "uint256",
          "name": "amount0",
          "type": "uint256"
        },
        {
          "indexed": false,
          "internalType": "uint256",
          "name": "amountBENTO",
          "type": "uint256"
        },
        {
          "indexed": false,
          "internalType": "uint256",
          "name": "amountSUSHI",
          "type": "uint256"
        }
      ],
      "name": "LogConvert",
      "type": "event"
    },
    {
      "anonymous": false,
      "inputs": [
        {
          "indexed": true,
          "internalType": "address",
          "name": "previousOwner",
          "type": "address"
        },
        {
          "indexed": true,
          "internalType": "address",
          "name": "newOwner",
          "type": "address"
        }
      ],
      "name": "OwnershipTransferred",
      "type": "event"
    },
    {
      "inputs": [],
      "name": "claimOwnership",
      "outputs": [],
      "stateMutability": "nonpayable",
      "type": "function"
    },
    {
      "inputs": [],
      "name": "owner",
      "outputs": [
        {
          "internalType": "address",
          "name": "",
          "type": "address"
        }
      ],
      "stateMutability": "view",
      "type": "function"
    },
    {
      "inputs": [],
      "name": "pendingOwner",
      "outputs": [
        {
          "internalType": "address",
          "name": "",
          "type": "address"
        }
      ],
      "stateMutability": "view",
      "type": "function"
    },
    {
      "inputs": [
        {
          "internalType": "address",
          "name": "newOwner",
          "type": "address"
        },
        {
          "internalType": "bool",
          "name": "direct",
          "type": "bool"
        },
        {
          "internalType": "bool",
          "name": "renounce",
          "type": "bool"
        }
      ],
      "name": "transferOwnership",
      "outputs": [],
      "stateMutability": "nonpayable",
      "type": "function"
    },
    {
      "inputs": [
        {
          "internalType": "address",
          "name": "token",
          "type": "address"
        },
        {
          "internalType": "address",
          "name": "bridge",
          "type": "address"
        }
      ],
      "name": "setBridge",
      "outputs": [],
      "stateMutability": "nonpayable",
      "type": "function"
    },
    {
      "inputs": [
        {
          "internalType": "contract IKashiWithdrawFee",
          "name": "kashiPair",
          "type": "address"
        }
      ],
      "name": "convert",
      "outputs": [],
      "stateMutability": "nonpayable",
      "type": "function"
    },
    {
      "inputs": [
        {
          "internalType": "contract IKashiWithdrawFee[]",
          "name": "kashiPair",
          "type": "address[]"
        }
      ],
      "name": "convertMultiple",
      "outputs": [],
      "stateMutability": "nonpayable",
      "type": "function"
    }
  ],
  "bytecode": "0x6101406040523480156200001257600080fd5b50604051620025c5380380620025c583398181016040528101906200003891906200031c565b336000806101000a81548173ffffffffffffffffffffffffffffffffffffffff021916908373ffffffffffffffffffffffffffffffffffffffff1602179055503373ffffffffffffffffffffffffffffffffffffffff16600073ffffffffffffffffffffffffffffffffffffffff167f8be0079c531659141344cd1fd0a4f28419497f9722a3daafe3b4186f6b6457e060405160405180910390a38573ffffffffffffffffffffffffffffffffffffffff1660808173ffffffffffffffffffffffffffffffffffffffff16815250508473ffffffffffffffffffffffffffffffffffffffff1660a08173ffffffffffffffffffffffffffffffffffffffff16815250508373ffffffffffffffffffffffffffffffffffffffff1660c08173ffffffffffffffffffffffffffffffffffffffff16815250508273ffffffffffffffffffffffffffffffffffffffff1660e08173ffffffffffffffffffffffffffffffffffffffff16815250508173ffffffffffffffffffffffffffffffffffffffff166101008173ffffffffffffffffffffffffffffffffffffffff1681525050806101208181525050505050505050620003b8565b600080fd5b600073ffffffffffffffffffffffffffffffffffffffff82169050919050565b60006200021f82620001f2565b9050919050565b6000620002338262000212565b9050919050565b620002458162000226565b81146200025157600080fd5b50565b60008151905062000265816200023a565b92915050565b620002768162000212565b81146200028257600080fd5b50565b60008151905062000296816200026b565b92915050565b6000620002a98262000212565b9050919050565b620002bb816200029c565b8114620002c757600080fd5b50565b600081519050620002db81620002b0565b92915050565b6000819050919050565b620002f681620002e1565b81146200030257600080fd5b50565b6000815190506200031681620002eb565b92915050565b60008060008060008060c087890312156200033c576200033b620001ed565b5b60006200034c89828a0162000254565b96505060206200035f89828a0162000285565b95505060406200037289828a01620002ca565b94505060606200038589828a0162000285565b93505060806200039889828a0162000285565b92505060a0620003ab89828a0162000305565b9150509295509295509295565b60805160a05160c05160e051610100516101205161219a6200042b6000396000610fdb0152600081816105e901528181610c890152610dc901526000818161059201528181610be20152610ce101526000610ac1015260008181610c390152610d0301526000610f91015261219a6000f3fe608060405234801561001057600080fd5b506004361061007d5760003560e01c80639d22ae8c1161005b5780639d22ae8c146100c6578063b11e93a9146100e2578063def2489b146100fe578063e30c39781461011a5761007d565b8063078dfbe7146100825780634e71e0c81461009e5780638da5cb5b146100a8575b600080fd5b61009c60048036038101906100979190611447565b610138565b005b6100a661034a565b005b6100b06104de565b6040516100bd91906114a9565b60405180910390f35b6100e060048036038101906100db91906114c4565b610502565b005b6100fc60048036038101906100f79190611569565b61078b565b005b610118600480360381019061011391906115f4565b61084f565b005b6101226108c9565b60405161012f91906114a9565b60405180910390f35b60008054906101000a900473ffffffffffffffffffffffffffffffffffffffff1673ffffffffffffffffffffffffffffffffffffffff163373ffffffffffffffffffffffffffffffffffffffff16146101c6576040517f08c379a00000000000000000000000000000000000000000000000000000000081526004016101bd9061167e565b60405180910390fd5b811561030357600073ffffffffffffffffffffffffffffffffffffffff168373ffffffffffffffffffffffffffffffffffffffff161415806102055750805b610244576040517f08c379a000000000000000000000000000000000000000000000000000000000815260040161023b906116ea565b60405180910390fd5b8273ffffffffffffffffffffffffffffffffffffffff1660008054906101000a900473ffffffffffffffffffffffffffffffffffffffff1673ffffffffffffffffffffffffffffffffffffffff167f8be0079c531659141344cd1fd0a4f28419497f9722a3daafe3b4186f6b6457e060405160405180910390a3826000806101000a81548173ffffffffffffffffffffffffffffffffffffffff021916908373ffffffffffffffffffffffffffffffffffffffff160217905550610345565b82600160006101000a81548173ffffffffffffffffffffffffffffffffffffffff021916908373ffffffffffffffffffffffffffffffffffffffff1602179055505b505050565b6000600160009054906101000a900473ffffffffffffffffffffffffffffffffffffffff1690508073ffffffffffffffffffffffffffffffffffffffff163373ffffffffffffffffffffffffffffffffffffffff16146103df576040517f08c379a00000000000000000000000000000000000000000000000000000000081526004016103d690611756565b60405180910390fd5b8073ffffffffffffffffffffffffffffffffffffffff1660008054906101000a900473ffffffffffffffffffffffffffffffffffffffff1673ffffffffffffffffffffffffffffffffffffffff167f8be0079c531659141344cd1fd0a4f28419497f9722a3daafe3b4186f6b6457e060405160405180910390a3806000806101000a81548173ffffffffffffffffffffffffffffffffffffffff021916908373ffffffffffffffffffffffffffffffffffffffff1602179055506000600160006101000a81548173ffffffffffffffffffffffffffffffffffffffff021916908373ffffffffffffffffffffffffffffffffffffffff16021790555050565b60008054906101000a900473ffffffffffffffffffffffffffffffffffffffff1681565b60008054906101000a900473ffffffffffffffffffffffffffffffffffffffff1673ffffffffffffffffffffffffffffffffffffffff163373ffffffffffffffffffffffffffffffffffffffff1614610590576040517f08c379a00000000000000000000000000000000000000000000000000000000081526004016105879061167e565b60405180910390fd5b7f000000000000000000000000000000000000000000000000000000000000000073ffffffffffffffffffffffffffffffffffffffff168273ffffffffffffffffffffffffffffffffffffffff161415801561063857507f000000000000000000000000000000000000000000000000000000000000000073ffffffffffffffffffffffffffffffffffffffff168273ffffffffffffffffffffffffffffffffffffffff1614155b801561067057508073ffffffffffffffffffffffffffffffffffffffff168273ffffffffffffffffffffffffffffffffffffffff1614155b6106af576040517f08c379a00000000000000000000000000000000000000000000000000000000081526004016106a6906117c2565b60405180910390fd5b80600260008473ffffffffffffffffffffffffffffffffffffffff1673ffffffffffffffffffffffffffffffffffffffff16815260200190815260200160002060006101000a81548173ffffffffffffffffffffffffffffffffffffffff021916908373ffffffffffffffffffffffffffffffffffffffff1602179055508073ffffffffffffffffffffffffffffffffffffffff168273ffffffffffffffffffffffffffffffffffffffff167f2e103aa707acc565f9a1547341914802b2bfe977fd79c595209f248ae4b0061360405160405180910390a35050565b3273ffffffffffffffffffffffffffffffffffffffff163373ffffffffffffffffffffffffffffffffffffffff16146107f9576040517f08c379a00000000000000000000000000000000000000000000000000000000081526004016107f09061182e565b60405180910390fd5b60005b8282905081101561084a5761083783838381811061081d5761081c61184e565b5b905060200201602081019061083291906115f4565b6108ef565b8080610842906118b6565b9150506107fc565b505050565b3273ffffffffffffffffffffffffffffffffffffffff163373ffffffffffffffffffffffffffffffffffffffff16146108bd576040517f08c379a00000000000000000000000000000000000000000000000000000000081526004016108b49061182e565b60405180910390fd5b6108c6816108ef565b50565b600160009054906101000a900473ffffffffffffffffffffffffffffffffffffffff1681565b8073ffffffffffffffffffffffffffffffffffffffff1663476343ee6040518163ffffffff1660e01b8152600401600060405180830381600087803b15801561093757600080fd5b505af115801561094b573d6000803e3d6000fd5b5050505060008173ffffffffffffffffffffffffffffffffffffffff16632317ef67308473ffffffffffffffffffffffffffffffffffffffff166370a08231306040518263ffffffff1660e01b81526004016109a791906114a9565b602060405180830381865afa1580156109c4573d6000803e3d6000fd5b505050506040513d601f19601f820116820180604052508101906109e8919061192b565b6040518363ffffffff1660e01b8152600401610a05929190611967565b6020604051808303816000875af1158015610a24573d6000803e3d6000fd5b505050506040513d601f19601f82011682018060405250810190610a48919061192b565b905060008273ffffffffffffffffffffffffffffffffffffffff166338d52e0f6040518163ffffffff1660e01b8152600401602060405180830381865afa158015610a97573d6000803e3d6000fd5b505050506040513d601f19601f82011682018060405250810190610abb91906119a5565b905060007f000000000000000000000000000000000000000000000000000000000000000073ffffffffffffffffffffffffffffffffffffffff166397da6d308330306000886040518663ffffffff1660e01b8152600401610b21959493929190611a6c565b60408051808303816000875af1158015610b3f573d6000803e3d6000fd5b505050506040513d601f19601f82011682018060405250810190610b639190611abf565b5090508173ffffffffffffffffffffffffffffffffffffffff163373ffffffffffffffffffffffffffffffffffffffff167f478cd2df03921485edb4ef53f1cd6747ea7527ef8eb1b27be969115a0964edfb8386610bc18787610bde565b604051610bd093929190611aff565b60405180910390a350505050565b60007f000000000000000000000000000000000000000000000000000000000000000073ffffffffffffffffffffffffffffffffffffffff168373ffffffffffffffffffffffffffffffffffffffff161415610c8757610c7f7f0000000000000000000000000000000000000000000000000000000000000000838573ffffffffffffffffffffffffffffffffffffffff16610e119092919063ffffffff16565b819050610e0b565b7f000000000000000000000000000000000000000000000000000000000000000073ffffffffffffffffffffffffffffffffffffffff168373ffffffffffffffffffffffffffffffffffffffff161415610d2e57610d27837f0000000000000000000000000000000000000000000000000000000000000000847f0000000000000000000000000000000000000000000000000000000000000000610f47565b9050610e0a565b6000600260008573ffffffffffffffffffffffffffffffffffffffff1673ffffffffffffffffffffffffffffffffffffffff16815260200190815260200160002060009054906101000a900473ffffffffffffffffffffffffffffffffffffffff169050600073ffffffffffffffffffffffffffffffffffffffff168173ffffffffffffffffffffffffffffffffffffffff161415610deb577f000000000000000000000000000000000000000000000000000000000000000090505b6000610df985838630610f47565b9050610e058282610bde565b925050505b5b92915050565b6000808473ffffffffffffffffffffffffffffffffffffffff1663a9059cbb8585604051602401610e43929190611967565b6040516020818303038152906040529060e01b6020820180517bffffffffffffffffffffffffffffffffffffffffffffffffffffffff8381831617835250505050604051610e919190611bb0565b6000604051808303816000865af19150503d8060008114610ece576040519150601f19603f3d011682016040523d82523d6000602084013e610ed3565b606091505b5091509150818015610f015750600081511480610f00575080806020019051810190610eff9190611bdc565b5b5b610f40576040517f08c379a0000000000000000000000000000000000000000000000000000000008152600401610f3790611c55565b60405180910390fd5b5050505050565b60008060008573ffffffffffffffffffffffffffffffffffffffff168773ffffffffffffffffffffffffffffffffffffffff1610610f86578587610f89565b86865b9150915060007f00000000000000000000000000000000000000000000000000000000000000008383604051602001610fc3929190611cbd565b604051602081830303815290604052805190602001207f000000000000000000000000000000000000000000000000000000000000000060405160200161100c93929190611d94565b6040516020818303038152906040528051906020012060001c90506000808273ffffffffffffffffffffffffffffffffffffffff16630902f1ac6040518163ffffffff1660e01b8152600401606060405180830381865afa158015611075573d6000803e3d6000fd5b505050506040513d601f19601f820116820180604052508101906110999190611e5e565b506dffffffffffffffffffffffffffff1691506dffffffffffffffffffffffffffff16915060006110d56103e58a6112e190919063ffffffff16565b90508a73ffffffffffffffffffffffffffffffffffffffff168a73ffffffffffffffffffffffffffffffffffffffff1611156111f157611132816111246103e8866112e190919063ffffffff16565b61134e90919063ffffffff16565b61114583836112e190919063ffffffff16565b61114f9190611ee0565b965061117c848a8d73ffffffffffffffffffffffffffffffffffffffff16610e119092919063ffffffff16565b8373ffffffffffffffffffffffffffffffffffffffff1663022c0d9f6000898b6040518463ffffffff1660e01b81526004016111ba93929190611f48565b600060405180830381600087803b1580156111d457600080fd5b505af11580156111e8573d6000803e3d6000fd5b505050506112d3565b6112188161120a6103e8856112e190919063ffffffff16565b61134e90919063ffffffff16565b61122b84836112e190919063ffffffff16565b6112359190611ee0565b9650611262848a8d73ffffffffffffffffffffffffffffffffffffffff16610e119092919063ffffffff16565b8373ffffffffffffffffffffffffffffffffffffffff1663022c0d9f8860008b6040518463ffffffff1660e01b81526004016112a093929190611f92565b600060405180830381600087803b1580156112ba57600080fd5b505af11580156112ce573d6000803e3d6000fd5b505050505b505050505050949350505050565b6000808214806113095750828283856112fa9190611fdc565b9250826113079190611ee0565b145b611348576040517f08c379a000000000000000000000000000000000000000000000000000000000815260040161133f90612082565b60405180910390fd5b92915050565b600081828461135d91906120a2565b91508110156113a1576040517f08c379a000000000000000000000000000000000000000000000000000000000815260040161139890612144565b60405180910390fd5b92915050565b600080fd5b600080fd5b600073ffffffffffffffffffffffffffffffffffffffff82169050919050565b60006113dc826113b1565b9050919050565b6113ec816113d1565b81146113f757600080fd5b50565b600081359050611409816113e3565b92915050565b60008115159050919050565b6114248161140f565b811461142f57600080fd5b50565b6000813590506114418161141b565b92915050565b6000806000606084860312156114605761145f6113a7565b5b600061146e868287016113fa565b935050602061147f86828701611432565b925050604061149086828701611432565b9150509250925092565b6114a3816113d1565b82525050565b60006020820190506114be600083018461149a565b92915050565b600080604083850312156114db576114da6113a7565b5b60006114e9858286016113fa565b92505060206114fa858286016113fa565b9150509250929050565b600080fd5b600080fd5b600080fd5b60008083601f84011261152957611528611504565b5b8235905067ffffffffffffffff81111561154657611545611509565b5b6020830191508360208202830111156115625761156161150e565b5b9250929050565b600080602083850312156115805761157f6113a7565b5b600083013567ffffffffffffffff81111561159e5761159d6113ac565b5b6115aa85828601611513565b92509250509250929050565b60006115c1826113d1565b9050919050565b6115d1816115b6565b81146115dc57600080fd5b50565b6000813590506115ee816115c8565b92915050565b60006020828403121561160a576116096113a7565b5b6000611618848285016115df565b91505092915050565b600082825260208201905092915050565b7f4f776e61626c653a2063616c6c6572206973206e6f7420746865206f776e6572600082015250565b6000611668602083611621565b915061167382611632565b602082019050919050565b600060208201905081810360008301526116978161165b565b9050919050565b7f4f776e61626c653a207a65726f20616464726573730000000000000000000000600082015250565b60006116d4601583611621565b91506116df8261169e565b602082019050919050565b60006020820190508181036000830152611703816116c7565b9050919050565b7f4f776e61626c653a2063616c6c657220213d2070656e64696e67206f776e6572600082015250565b6000611740602083611621565b915061174b8261170a565b602082019050919050565b6000602082019050818103600083015261176f81611733565b9050919050565b7f4d616b65723a20496e76616c6964206272696467650000000000000000000000600082015250565b60006117ac601583611621565b91506117b782611776565b602082019050919050565b600060208201905081810360008301526117db8161179f565b9050919050565b7f4d616b65723a204d7573742075736520454f4100000000000000000000000000600082015250565b6000611818601383611621565b9150611823826117e2565b602082019050919050565b600060208201905081810360008301526118478161180b565b9050919050565b7f4e487b7100000000000000000000000000000000000000000000000000000000600052603260045260246000fd5b7f4e487b7100000000000000000000000000000000000000000000000000000000600052601160045260246000fd5b6000819050919050565b60006118c1826118ac565b91507fffffffffffffffffffffffffffffffffffffffffffffffffffffffffffffffff8214156118f4576118f361187d565b5b600182019050919050565b611908816118ac565b811461191357600080fd5b50565b600081519050611925816118ff565b92915050565b600060208284031215611941576119406113a7565b5b600061194f84828501611916565b91505092915050565b611961816118ac565b82525050565b600060408201905061197c600083018561149a565b6119896020830184611958565b9392505050565b60008151905061199f816113e3565b92915050565b6000602082840312156119bb576119ba6113a7565b5b60006119c984828501611990565b91505092915050565b6000819050919050565b60006119f76119f26119ed846113b1565b6119d2565b6113b1565b9050919050565b6000611a09826119dc565b9050919050565b6000611a1b826119fe565b9050919050565b611a2b81611a10565b82525050565b6000819050919050565b6000611a56611a51611a4c84611a31565b6119d2565b6118ac565b9050919050565b611a6681611a3b565b82525050565b600060a082019050611a816000830188611a22565b611a8e602083018761149a565b611a9b604083018661149a565b611aa86060830185611a5d565b611ab56080830184611958565b9695505050505050565b60008060408385031215611ad657611ad56113a7565b5b6000611ae485828601611916565b9250506020611af585828601611916565b9150509250929050565b6000606082019050611b146000830186611958565b611b216020830185611958565b611b2e6040830184611958565b949350505050565b600081519050919050565b600081905092915050565b60005b83811015611b6a578082015181840152602081019050611b4f565b83811115611b79576000848401525b50505050565b6000611b8a82611b36565b611b948185611b41565b9350611ba4818560208601611b4c565b80840191505092915050565b6000611bbc8284611b7f565b915081905092915050565b600081519050611bd68161141b565b92915050565b600060208284031215611bf257611bf16113a7565b5b6000611c0084828501611bc7565b91505092915050565b7f5361666545524332303a205472616e73666572206661696c6564000000000000600082015250565b6000611c3f601a83611621565b9150611c4a82611c09565b602082019050919050565b60006020820190508181036000830152611c6e81611c32565b9050919050565b60008160601b9050919050565b6000611c8d82611c75565b9050919050565b6000611c9f82611c82565b9050919050565b611cb7611cb2826113d1565b611c94565b82525050565b6000611cc98285611ca6565b601482019150611cd98284611ca6565b6014820191508190509392505050565b600081905092915050565b7fff00000000000000000000000000000000000000000000000000000000000000600082015250565b6000611d2a600183611ce9565b9150611d3582611cf4565b600182019050919050565b6000611d4b826119fe565b9050919050565b611d63611d5e82611d40565b611c94565b82525050565b6000819050919050565b6000819050919050565b611d8e611d8982611d69565b611d73565b82525050565b6000611d9f82611d1d565b9150611dab8286611d52565b601482019150611dbb8285611d7d565b602082019150611dcb8284611d7d565b602082019150819050949350505050565b60006dffffffffffffffffffffffffffff82169050919050565b611dff81611ddc565b8114611e0a57600080fd5b50565b600081519050611e1c81611df6565b92915050565b600063ffffffff82169050919050565b611e3b81611e22565b8114611e4657600080fd5b50565b600081519050611e5881611e32565b92915050565b600080600060608486031215611e7757611e766113a7565b5b6000611e8586828701611e0d565b9350506020611e9686828701611e0d565b9250506040611ea786828701611e49565b9150509250925092565b7f4e487b7100000000000000000000000000000000000000000000000000000000600052601260045260246000fd5b6000611eeb826118ac565b9150611ef6836118ac565b925082611f0657611f05611eb1565b5b828204905092915050565b600082825260208201905092915050565b50565b6000611f32600083611f11565b9150611f3d82611f22565b600082019050919050565b6000608082019050611f5d6000830186611a5d565b611f6a6020830185611958565b611f77604083018461149a565b8181036060830152611f8881611f25565b9050949350505050565b6000608082019050611fa76000830186611958565b611fb46020830185611a5d565b611fc1604083018461149a565b8181036060830152611fd281611f25565b9050949350505050565b6000611fe7826118ac565b9150611ff2836118ac565b9250817fffffffffffffffffffffffffffffffffffffffffffffffffffffffffffffffff048311821515161561202b5761202a61187d565b5b828202905092915050565b7f536166654d6174683a204d756c204f766572666c6f7700000000000000000000600082015250565b600061206c601683611621565b915061207782612036565b602082019050919050565b6000602082019050818103600083015261209b8161205f565b9050919050565b60006120ad826118ac565b91506120b8836118ac565b9250827fffffffffffffffffffffffffffffffffffffffffffffffffffffffffffffffff038211156120ed576120ec61187d565b5b828201905092915050565b7f536166654d6174683a20416464204f766572666c6f7700000000000000000000600082015250565b600061212e601683611621565b9150612139826120f8565b602082019050919050565b6000602082019050818103600083015261215d81612121565b905091905056fea264697066735822122043a73f25c98b5b49e3b382939edd429653df90b9a8df1dcc6e4219675b58015f64736f6c634300080b0033",
  "immutableReferences": {
    "7917": [
      {
        "length": 32,
        "start": 3985
      }
    ],
    "7919": [
      {
        "length": 32,
        "start": 3129
      },
      {
        "length": 32,
        "start": 3331
      }
    ],
    "7922": [
      {
        "length": 32,
        "start": 2753
      }
    ],
    "7924": [
      {
        "length": 32,
        "start": 1426
      },
      {
        "length": 32,
        "start": 3042
      },
      {
        "length": 32,
        "start": 3297
      }
    ],
    "7926": [
      {
        "length": 32,
        "start": 1513
      },
      {
        "length": 32,
        "start": 3209
      },
      {
        "length": 32,
        "start": 3529
      }
    ],
    "7928": [
      {
        "length": 32,
        "start": 4059
      }
    ]
  },
  "source": "// SPDX-License-Identifier: MIT\n\npragma solidity ^0.8.0;\nimport \"./libraries/SafeMath.sol\";\nimport \"./libraries/SafeERC20.sol\";\n\nimport \"./uniswapv2/interfaces/IUniswapV2Pair.sol\";\nimport \"./uniswapv2/interfaces/IUniswapV2Factory.sol\";\n\nimport \"./Ownable.sol\";\n\ninterface IBentoBoxWithdraw {\n    function withdraw(\n        IERC20 token_,\n        address from,\n        address to,\n        uint256 amount,\n        uint256 share\n    ) external returns (uint256 amountOut, uint256 shareOut);\n}\n\ninterface IKashiWithdrawFee {\n    function asset() external view returns (address);\n    function balanceOf(address account) external view returns (uint256);\n    function withdrawFees() external;\n    function removeAsset(address to, uint256 fraction) external returns (uint256 share);\n}\n\n// SushiMakerKashi is MasterChef's left hand and kinda a wizard. He can cook up Sushi from pretty much anything!\n// This contract handles \"serving up\" rewards for xSushi holders by trading tokens collected from Kashi fees for Sushi.\ncontract SushiMakerKashi is Ownable {\n    using SafeMath for uint256;\n    using SafeERC20 for IERC20;\n\n    IUniswapV2Factory private immutable factory;\n    //0xC0AEe478e3658e2610c5F7A4A2E1777cE9e4f2Ac\n    address private immutable bar;\n    //0x8798249c2E607446EfB7Ad49eC89dD1865Ff4272\n    IBentoBoxWithdraw private immutable bentoBox;\n    //0xF5BCE5077908a1b7370B9ae04AdC565EBd643966 \n    address private immutable sushi;\n    //0x6B3595068778DD592e39A122f4f5a5cF09C90fE2\n    address private immutable weth;\n    //0xC02aaA39b223FE8D0A0e5C4F27eAD9083C756Cc2\n    bytes32 private immutable pairCodeHash;\n    //0xe18a34eb0e04b04f7a0ac29a6e80748dca96319b42c54d679cb821dca90c6303\n\n    mapping(address => address) private _bridges;\n\n    event LogBridgeSet(address indexed token, address indexed bridge);\n    event LogConvert(\n        address indexed server,\n        address indexed token0,\n        uint256 amount0,\n        uint256 amountBENTO,\n        uint256 amountSUSHI\n    );\n\n    constructor(\n        IUniswapV2Factory _factory,\n        address _bar,\n        IBentoBoxWithdraw _bentoBox,\n        address _sushi,\n        address _weth,\n        bytes32 _pairCodeHash\n    ){\n        factory = _factory;\n        bar = _bar;\n        bentoBox = _bentoBox;\n        sushi = _sushi;\n        weth = _weth;\n        pairCodeHash = _pairCodeHash;\n    }\n\n    function setBridge(address token, address bridge) external onlyOwner {\n        // Checks\n        require(\n            token != sushi && token != weth && token != bridge,\n            \"Maker: Invalid bridge\"\n        );\n        // Effects\n        _bridges[token] = bridge;\n        emit LogBridgeSet(token, bridge);\n    }\n\n    modifier onlyEOA() {\n        // Try to make flash-loan exploit harder to do by only allowing externally-owned addresses.\n        require(msg.sender == tx.origin, \"Maker: Must use EOA\");\n        _;\n    }\n\n    function convert(IKashiWithdrawFee kashiPair) external onlyEOA {\n        _convert(kashiPair);\n    }\n\n    function convertMultiple(IKashiWithdrawFee[] calldata kashiPair) external onlyEOA {\n        for (uint256 i = 0; i < kashiPair.length; i++) {\n            _convert(kashiPair[i]);\n        }\n    }\n\n    function _convert(IKashiWithdrawFee kashiPair) private {\n        // update Kashi fees for this Maker contract (`feeTo`)\n        kashiPair.withdrawFees();\n\n        // convert updated Kashi balance to Bento shares\n        uint256 bentoShares = kashiPair.removeAsset(address(this), kashiPair.balanceOf(address(this)));\n\n        // convert Bento shares to underlying Kashi asset (`token0`) balance (`amount0`) for Maker\n        address token0 = kashiPair.asset();\n        (uint256 amount0, ) = bentoBox.withdraw(IERC20(token0), address(this), address(this), 0, bentoShares);\n\n        emit LogConvert(\n            msg.sender,\n            token0,\n            amount0,\n            bentoShares,\n            _convertStep(token0, amount0)\n        );\n    }\n\n    function _convertStep(address token0, uint256 amount0) private returns (uint256 sushiOut) {\n        if (token0 == sushi) {\n            IERC20(token0).safeTransfer(bar, amount0);\n            sushiOut = amount0;\n        } else if (token0 == weth) {\n            sushiOut = _swap(token0, sushi, amount0, bar);\n        } else {\n            address bridge = _bridges[token0];\n            if (bridge == address(0)) {\n                bridge = weth;\n            }\n            uint256 amountOut = _swap(token0, bridge, amount0, address(this));\n            sushiOut = _convertStep(bridge, amountOut);\n        }\n    }\n\n    function _swap(\n        address fromToken,\n        address toToken,\n        uint256 amountIn,\n        address to\n    ) private returns (uint256 amountOut) {\n        (address token0, address token1) = fromToken < toToken ? (fromToken, toToken) : (toToken, fromToken);\n        IUniswapV2Pair pair =\n            IUniswapV2Pair(\n                address(uint160(uint(\n                    keccak256(abi.encodePacked(hex\"ff\", factory, keccak256(abi.encodePacked(token0, token1)), pairCodeHash))\n                )))\n            );\n        \n        (uint256 reserve0, uint256 reserve1, ) = pair.getReserves();\n        uint256 amountInWithFee = amountIn.mul(997);\n        \n        if (toToken > fromToken) {\n            amountOut =\n                amountInWithFee.mul(reserve1) /\n                reserve0.mul(1000).add(amountInWithFee);\n            IERC20(fromToken).safeTransfer(address(pair), amountIn);\n            pair.swap(0, amountOut, to, \"\");\n        } else {\n            amountOut =\n                amountInWithFee.mul(reserve0) /\n                reserve1.mul(1000).add(amountInWithFee);\n            IERC20(fromToken).safeTransfer(address(pair), amountIn);\n            pair.swap(amountOut, 0, to, \"\");\n        }\n    }\n}\n",
  "sourcePath": "/Users/gauravkumar/Documents/sushiswap_cube/contracts/SushiMakerKashi.sol",
  "compiler": {
    "name": "solc",
    "version": "0.8.11+commit.d7f03943.Emscripten.clang"
  },
  "schemaVersion": "3.4.4",
  "updatedAt": "2022-07-13T16:48:38.850Z",
  "devdoc": {
    "kind": "dev",
    "methods": {},
    "version": 1
  },
  "userdoc": {
    "kind": "user",
    "methods": {},
    "version": 1
  }
}